{
	"https://github.com/mdexSwap/contracts/blob/master/contracts/library/SafeMath.sol": {
		"SafeMath": {
			"abi": [
				{
					"inputs": [],
					"name": "ray",
					"outputs": [
						{
							"internalType": "uint256",
							"name": "",
							"type": "uint256"
						}
					],
					"stateMutability": "pure",
					"type": "function"
				},
				{
					"inputs": [],
					"name": "wad",
					"outputs": [
						{
							"internalType": "uint256",
							"name": "",
							"type": "uint256"
						}
					],
					"stateMutability": "pure",
					"type": "function"
				}
			],
			"devdoc": {
				"kind": "dev",
				"methods": {},
				"version": 1
			},
			"evm": {
				"assembly": "    /* \"https://github.com/mdexSwap/contracts/blob/master/contracts/library/SafeMath.sol\":64:4194  library SafeMath {... */\n  dataSize(sub_0)\n  dataOffset(sub_0)\n  0x0b\n  dup3\n  dup3\n  dup3\n  codecopy\n  dup1\n  mload\n  0x00\n  byte\n  0x73\n  eq\n  tag_1\n  jumpi\n  mstore(0x00, 0x4e487b7100000000000000000000000000000000000000000000000000000000)\n  mstore(0x04, 0x00)\n  revert(0x00, 0x24)\ntag_1:\n  mstore(0x00, address)\n  0x73\n  dup2\n  mstore8\n  dup3\n  dup2\n  return\nstop\n\nsub_0: assembly {\n        /* \"https://github.com/mdexSwap/contracts/blob/master/contracts/library/SafeMath.sol\":64:4194  library SafeMath {... */\n      eq(address, deployTimeAddress())\n      mstore(0x40, 0x80)\n      jumpi(tag_1, lt(calldatasize, 0x04))\n      shr(0xe0, calldataload(0x00))\n      dup1\n      0x416a8b20\n      eq\n      tag_2\n      jumpi\n      dup1\n      0x7df38c5b\n      eq\n      tag_3\n      jumpi\n    tag_1:\n      0x00\n      dup1\n      revert\n        /* \"https://github.com/mdexSwap/contracts/blob/master/contracts/library/SafeMath.sol\":240:312  function ray() public pure returns (uint256) {... */\n    tag_2:\n      tag_4\n      tag_5\n      jump\t// in\n    tag_4:\n      mload(0x40)\n      tag_6\n      swap2\n      swap1\n      tag_7\n      jump\t// in\n    tag_6:\n      mload(0x40)\n      dup1\n      swap2\n      sub\n      swap1\n      return\n        /* \"https://github.com/mdexSwap/contracts/blob/master/contracts/library/SafeMath.sol\":162:234  function wad() public pure returns (uint256) {... */\n    tag_3:\n      tag_8\n      tag_9\n      jump\t// in\n    tag_8:\n      mload(0x40)\n      tag_10\n      swap2\n      swap1\n      tag_7\n      jump\t// in\n    tag_10:\n      mload(0x40)\n      dup1\n      swap2\n      sub\n      swap1\n      return\n        /* \"https://github.com/mdexSwap/contracts/blob/master/contracts/library/SafeMath.sol\":240:312  function ray() public pure returns (uint256) {... */\n    tag_5:\n        /* \"https://github.com/mdexSwap/contracts/blob/master/contracts/library/SafeMath.sol\":276:283  uint256 */\n      0x00\n        /* \"https://github.com/mdexSwap/contracts/blob/master/contracts/library/SafeMath.sol\":147:155  10 ** 27 */\n      0x033b2e3c9fd0803ce8000000\n        /* \"https://github.com/mdexSwap/contracts/blob/master/contracts/library/SafeMath.sol\":295:305  return RAY */\n      swap1\n      pop\n        /* \"https://github.com/mdexSwap/contracts/blob/master/contracts/library/SafeMath.sol\":240:312  function ray() public pure returns (uint256) {... */\n      swap1\n      jump\t// out\n        /* \"https://github.com/mdexSwap/contracts/blob/master/contracts/library/SafeMath.sol\":162:234  function wad() public pure returns (uint256) {... */\n    tag_9:\n        /* \"https://github.com/mdexSwap/contracts/blob/master/contracts/library/SafeMath.sol\":198:205  uint256 */\n      0x00\n        /* \"https://github.com/mdexSwap/contracts/blob/master/contracts/library/SafeMath.sol\":110:118  10 ** 18 */\n      0x0de0b6b3a7640000\n        /* \"https://github.com/mdexSwap/contracts/blob/master/contracts/library/SafeMath.sol\":217:227  return WAD */\n      swap1\n      pop\n        /* \"https://github.com/mdexSwap/contracts/blob/master/contracts/library/SafeMath.sol\":162:234  function wad() public pure returns (uint256) {... */\n      swap1\n      jump\t// out\n        /* \"#utility.yul\":7:84   */\n    tag_13:\n        /* \"#utility.yul\":44:51   */\n      0x00\n        /* \"#utility.yul\":73:78   */\n      dup2\n        /* \"#utility.yul\":62:78   */\n      swap1\n      pop\n        /* \"#utility.yul\":7:84   */\n      swap2\n      swap1\n      pop\n      jump\t// out\n        /* \"#utility.yul\":90:216   */\n    tag_14:\n        /* \"#utility.yul\":185:209   */\n      tag_18\n        /* \"#utility.yul\":203:208   */\n      dup2\n        /* \"#utility.yul\":185:209   */\n      tag_13\n      jump\t// in\n    tag_18:\n        /* \"#utility.yul\":180:183   */\n      dup3\n        /* \"#utility.yul\":173:210   */\n      mstore\n        /* \"#utility.yul\":90:216   */\n      pop\n      pop\n      jump\t// out\n        /* \"#utility.yul\":222:460   */\n    tag_7:\n        /* \"#utility.yul\":323:327   */\n      0x00\n        /* \"#utility.yul\":361:363   */\n      0x20\n        /* \"#utility.yul\":350:359   */\n      dup3\n        /* \"#utility.yul\":346:364   */\n      add\n        /* \"#utility.yul\":338:364   */\n      swap1\n      pop\n        /* \"#utility.yul\":374:453   */\n      tag_20\n        /* \"#utility.yul\":450:451   */\n      0x00\n        /* \"#utility.yul\":439:448   */\n      dup4\n        /* \"#utility.yul\":435:452   */\n      add\n        /* \"#utility.yul\":426:432   */\n      dup5\n        /* \"#utility.yul\":374:453   */\n      tag_14\n      jump\t// in\n    tag_20:\n        /* \"#utility.yul\":222:460   */\n      swap3\n      swap2\n      pop\n      pop\n      jump\t// out\n\n    auxdata: 0xa26469706673582212201d16c2b1bacfb979a5cb4b69d3af308d4736c6035da5b4d8f4557d2b4e5f144a64736f6c63430008160033\n}\n",
				"bytecode": {
					"linkReferences": {},
					"object": "60f961004d600b8282823980515f1a607314610041577f4e487b71000000000000000000000000000000000000000000000000000000005f525f60045260245ffd5b305f52607381538281f3fe7300000000000000000000000000000000000000003014608060405260043610603c575f3560e01c8063416a8b201460405780637df38c5b14605a575b5f80fd5b60466074565b6040516051919060ac565b60405180910390f35b60606087565b604051606b919060ac565b60405180910390f35b5f6b033b2e3c9fd0803ce8000000905090565b5f670de0b6b3a7640000905090565b5f819050919050565b60a6816096565b82525050565b5f60208201905060bd5f830184609f565b9291505056fea26469706673582212201d16c2b1bacfb979a5cb4b69d3af308d4736c6035da5b4d8f4557d2b4e5f144a64736f6c63430008160033",
					"opcodes": "PUSH1 0xF9 PUSH2 0x4D PUSH1 0xB DUP3 DUP3 DUP3 CODECOPY DUP1 MLOAD PUSH0 BYTE PUSH1 0x73 EQ PUSH2 0x41 JUMPI PUSH32 0x4E487B7100000000000000000000000000000000000000000000000000000000 PUSH0 MSTORE PUSH0 PUSH1 0x4 MSTORE PUSH1 0x24 PUSH0 REVERT JUMPDEST ADDRESS PUSH0 MSTORE PUSH1 0x73 DUP2 MSTORE8 DUP3 DUP2 RETURN INVALID PUSH20 0x0 ADDRESS EQ PUSH1 0x80 PUSH1 0x40 MSTORE PUSH1 0x4 CALLDATASIZE LT PUSH1 0x3C JUMPI PUSH0 CALLDATALOAD PUSH1 0xE0 SHR DUP1 PUSH4 0x416A8B20 EQ PUSH1 0x40 JUMPI DUP1 PUSH4 0x7DF38C5B EQ PUSH1 0x5A JUMPI JUMPDEST PUSH0 DUP1 REVERT JUMPDEST PUSH1 0x46 PUSH1 0x74 JUMP JUMPDEST PUSH1 0x40 MLOAD PUSH1 0x51 SWAP2 SWAP1 PUSH1 0xAC JUMP JUMPDEST PUSH1 0x40 MLOAD DUP1 SWAP2 SUB SWAP1 RETURN JUMPDEST PUSH1 0x60 PUSH1 0x87 JUMP JUMPDEST PUSH1 0x40 MLOAD PUSH1 0x6B SWAP2 SWAP1 PUSH1 0xAC JUMP JUMPDEST PUSH1 0x40 MLOAD DUP1 SWAP2 SUB SWAP1 RETURN JUMPDEST PUSH0 PUSH12 0x33B2E3C9FD0803CE8000000 SWAP1 POP SWAP1 JUMP JUMPDEST PUSH0 PUSH8 0xDE0B6B3A7640000 SWAP1 POP SWAP1 JUMP JUMPDEST PUSH0 DUP2 SWAP1 POP SWAP2 SWAP1 POP JUMP JUMPDEST PUSH1 0xA6 DUP2 PUSH1 0x96 JUMP JUMPDEST DUP3 MSTORE POP POP JUMP JUMPDEST PUSH0 PUSH1 0x20 DUP3 ADD SWAP1 POP PUSH1 0xBD PUSH0 DUP4 ADD DUP5 PUSH1 0x9F JUMP JUMPDEST SWAP3 SWAP2 POP POP JUMP INVALID LOG2 PUSH5 0x6970667358 0x22 SLT KECCAK256 SAR AND 0xC2 0xB1 0xBA 0xCF 0xB9 PUSH26 0xA5CB4B69D3AF308D4736C6035DA5B4D8F4557D2B4E5F144A6473 PUSH16 0x6C634300081600330000000000000000 "
				},
				"gasEstimates": {
					"creation": {
						"codeDepositCost": "49800",
						"executionCost": "125",
						"totalCost": "49925"
					},
					"external": {
						"ray()": "294",
						"wad()": "316"
					},
					"internal": {
						"add(uint256,uint256)": "infinite",
						"div(uint256,uint256)": "infinite",
						"div(uint256,uint256,string memory)": "infinite",
						"max(uint256,uint256)": "infinite",
						"min(uint256,uint256)": "infinite",
						"mod(uint256,uint256)": "infinite",
						"mod(uint256,uint256,string memory)": "infinite",
						"mul(uint256,uint256)": "infinite",
						"rdiv(uint256,uint256)": "infinite",
						"rdivRound(uint256,uint256)": "infinite",
						"rmul(uint256,uint256)": "infinite",
						"rmulRound(uint256,uint256)": "infinite",
						"rpow(uint256,uint256)": "infinite",
						"sqrt(uint256)": "infinite",
						"sub(uint256,uint256)": "infinite",
						"sub(uint256,uint256,string memory)": "infinite",
						"wdiv(uint256,uint256)": "infinite",
						"wdivRound(uint256,uint256)": "infinite",
						"wmul(uint256,uint256)": "infinite",
						"wmulRound(uint256,uint256)": "infinite",
						"wpow(uint256,uint256)": "infinite"
					}
				},
				"methodIdentifiers": {
					"ray()": "416a8b20",
					"wad()": "7df38c5b"
				}
			},
			"storageLayout": {
				"storage": [],
				"types": null
			},
			"userdoc": {
				"kind": "user",
				"methods": {},
				"version": 1
			}
		}
	}
}