{
	"contracts/TaskManager.sol": {
		"TaskManager": {
			"abi": [
				{
					"inputs": [],
					"stateMutability": "nonpayable",
					"type": "constructor"
				},
				{
					"inputs": [
						{
							"internalType": "string",
							"name": "content",
							"type": "string"
						}
					],
					"name": "addTask",
					"outputs": [],
					"stateMutability": "nonpayable",
					"type": "function"
				}
			],
			"devdoc": {
				"kind": "dev",
				"methods": {},
				"version": 1
			},
			"evm": {
				"assembly": "    /* \"contracts/TaskManager.sol\":74:875  contract TaskManager {... */\n  mstore(0x40, 0x80)\n    /* \"contracts/TaskManager.sol\":552:665  constructor(){... */\n  callvalue\n  dup1\n  iszero\n  tag_1\n  jumpi\n  0x00\n  dup1\n  revert\ntag_1:\n  pop\n    /* \"contracts/TaskManager.sol\":584:594  msg.sender */\n  caller\n    /* \"contracts/TaskManager.sol\":576:581  admin */\n  0x00\n  dup1\n    /* \"contracts/TaskManager.sol\":576:594  admin = msg.sender */\n  0x0100\n  exp\n  dup2\n  sload\n  dup2\n  0xffffffffffffffffffffffffffffffffffffffff\n  mul\n  not\n  and\n  swap1\n  dup4\n  0xffffffffffffffffffffffffffffffffffffffff\n  and\n  mul\n  or\n  swap1\n  sstore\n  pop\n    /* \"contracts/TaskManager.sol\":656:657  0 */\n  0x00\n    /* \"contracts/TaskManager.sol\":648:653  count */\n  0x01\n    /* \"contracts/TaskManager.sol\":648:657  count = 0 */\n  dup2\n  swap1\n  sstore\n  pop\n    /* \"contracts/TaskManager.sol\":74:875  contract TaskManager {... */\n  dataSize(sub_0)\n  dup1\n  dataOffset(sub_0)\n  0x00\n  codecopy\n  0x00\n  return\nstop\n\nsub_0: assembly {\n        /* \"contracts/TaskManager.sol\":74:875  contract TaskManager {... */\n      mstore(0x40, 0x80)\n      callvalue\n      dup1\n      iszero\n      tag_1\n      jumpi\n      0x00\n      dup1\n      revert\n    tag_1:\n      pop\n      jumpi(tag_2, lt(calldatasize, 0x04))\n      shr(0xe0, calldataload(0x00))\n      dup1\n      0x67238562\n      eq\n      tag_3\n      jumpi\n    tag_2:\n      0x00\n      dup1\n      revert\n        /* \"contracts/TaskManager.sol\":673:864  function addTask(string memory content) public {... */\n    tag_3:\n      tag_4\n      0x04\n      dup1\n      calldatasize\n      sub\n      dup2\n      add\n      swap1\n      tag_5\n      swap2\n      swap1\n      tag_6\n      jump\t// in\n    tag_5:\n      tag_7\n      jump\t// in\n    tag_4:\n      stop\n    tag_7:\n        /* \"contracts/TaskManager.sol\":731:747  Task memory task */\n      0x00\n        /* \"contracts/TaskManager.sol\":750:808  Task(count, Priority.LOW, content, block.timestamp, false) */\n      mload(0x40)\n      dup1\n      0xa0\n      add\n      0x40\n      mstore\n      dup1\n        /* \"contracts/TaskManager.sol\":755:760  count */\n      sload(0x01)\n        /* \"contracts/TaskManager.sol\":750:808  Task(count, Priority.LOW, content, block.timestamp, false) */\n      dup2\n      mstore\n      0x20\n      add\n        /* \"contracts/TaskManager.sol\":762:774  Priority.LOW */\n      0x00\n        /* \"contracts/TaskManager.sol\":750:808  Task(count, Priority.LOW, content, block.timestamp, false) */\n      0x02\n      dup2\n      gt\n      iszero\n      tag_9\n      jumpi\n      tag_10\n      tag_11\n      jump\t// in\n    tag_10:\n    tag_9:\n      dup2\n      mstore\n      0x20\n      add\n        /* \"contracts/TaskManager.sol\":776:783  content */\n      dup4\n        /* \"contracts/TaskManager.sol\":750:808  Task(count, Priority.LOW, content, block.timestamp, false) */\n      dup2\n      mstore\n      0x20\n      add\n        /* \"contracts/TaskManager.sol\":785:800  block.timestamp */\n      timestamp\n        /* \"contracts/TaskManager.sol\":750:808  Task(count, Priority.LOW, content, block.timestamp, false) */\n      dup2\n      mstore\n      0x20\n      add\n        /* \"contracts/TaskManager.sol\":802:807  false */\n      0x00\n        /* \"contracts/TaskManager.sol\":750:808  Task(count, Priority.LOW, content, block.timestamp, false) */\n      iszero\n      iszero\n      dup2\n      mstore\n      pop\n        /* \"contracts/TaskManager.sol\":731:808  Task memory task = Task(count, Priority.LOW, content, block.timestamp, false) */\n      swap1\n      pop\n        /* \"contracts/TaskManager.sol\":834:838  task */\n      dup1\n        /* \"contracts/TaskManager.sol\":819:824  tasks */\n      0x02\n        /* \"contracts/TaskManager.sol\":819:831  tasks[count] */\n      0x00\n        /* \"contracts/TaskManager.sol\":825:830  count */\n      sload(0x01)\n        /* \"contracts/TaskManager.sol\":819:831  tasks[count] */\n      dup2\n      mstore\n      0x20\n      add\n      swap1\n      dup2\n      mstore\n      0x20\n      add\n      0x00\n      keccak256\n        /* \"contracts/TaskManager.sol\":819:838  tasks[count] = task */\n      0x00\n      dup3\n      add\n      mload\n      dup2\n      0x00\n      add\n      sstore\n      0x20\n      dup3\n      add\n      mload\n      dup2\n      0x01\n      add\n      exp(0x0100, 0x00)\n      dup2\n      sload\n      dup2\n      0xff\n      mul\n      not\n      and\n      swap1\n      dup4\n      0x02\n      dup2\n      gt\n      iszero\n      tag_12\n      jumpi\n      tag_13\n      tag_11\n      jump\t// in\n    tag_13:\n    tag_12:\n      mul\n      or\n      swap1\n      sstore\n      pop\n      0x40\n      dup3\n      add\n      mload\n      dup2\n      0x02\n      add\n      swap1\n      dup2\n      tag_14\n      swap2\n      swap1\n      tag_15\n      jump\t// in\n    tag_14:\n      pop\n      0x60\n      dup3\n      add\n      mload\n      dup2\n      0x03\n      add\n      sstore\n      0x80\n      dup3\n      add\n      mload\n      dup2\n      0x04\n      add\n      exp(0x0100, 0x00)\n      dup2\n      sload\n      dup2\n      0xff\n      mul\n      not\n      and\n      swap1\n      dup4\n      iszero\n      iszero\n      mul\n      or\n      swap1\n      sstore\n      pop\n      swap1\n      pop\n      pop\n        /* \"contracts/TaskManager.sol\":849:854  count */\n      0x01\n      0x00\n        /* \"contracts/TaskManager.sol\":849:856  count++ */\n      dup2\n      sload\n      dup1\n      swap3\n      swap2\n      swap1\n      tag_16\n      swap1\n      tag_17\n      jump\t// in\n    tag_16:\n      swap2\n      swap1\n      pop\n      sstore\n      pop\n        /* \"contracts/TaskManager.sol\":720:864  {... */\n      pop\n        /* \"contracts/TaskManager.sol\":673:864  function addTask(string memory content) public {... */\n      pop\n      jump\t// out\n        /* \"#utility.yul\":7:82   */\n    tag_18:\n        /* \"#utility.yul\":40:46   */\n      0x00\n        /* \"#utility.yul\":73:75   */\n      0x40\n        /* \"#utility.yul\":67:76   */\n      mload\n        /* \"#utility.yul\":57:76   */\n      swap1\n      pop\n        /* \"#utility.yul\":7:82   */\n      swap1\n      jump\t// out\n        /* \"#utility.yul\":88:205   */\n    tag_19:\n        /* \"#utility.yul\":197:198   */\n      0x00\n        /* \"#utility.yul\":194:195   */\n      dup1\n        /* \"#utility.yul\":187:199   */\n      revert\n        /* \"#utility.yul\":211:328   */\n    tag_20:\n        /* \"#utility.yul\":320:321   */\n      0x00\n        /* \"#utility.yul\":317:318   */\n      dup1\n        /* \"#utility.yul\":310:322   */\n      revert\n        /* \"#utility.yul\":334:451   */\n    tag_21:\n        /* \"#utility.yul\":443:444   */\n      0x00\n        /* \"#utility.yul\":440:441   */\n      dup1\n        /* \"#utility.yul\":433:445   */\n      revert\n        /* \"#utility.yul\":457:574   */\n    tag_22:\n        /* \"#utility.yul\":566:567   */\n      0x00\n        /* \"#utility.yul\":563:564   */\n      dup1\n        /* \"#utility.yul\":556:568   */\n      revert\n        /* \"#utility.yul\":580:682   */\n    tag_23:\n        /* \"#utility.yul\":621:627   */\n      0x00\n        /* \"#utility.yul\":672:674   */\n      0x1f\n        /* \"#utility.yul\":668:675   */\n      not\n        /* \"#utility.yul\":663:665   */\n      0x1f\n        /* \"#utility.yul\":656:661   */\n      dup4\n        /* \"#utility.yul\":652:666   */\n      add\n        /* \"#utility.yul\":648:676   */\n      and\n        /* \"#utility.yul\":638:676   */\n      swap1\n      pop\n        /* \"#utility.yul\":580:682   */\n      swap2\n      swap1\n      pop\n      jump\t// out\n        /* \"#utility.yul\":688:868   */\n    tag_24:\n        /* \"#utility.yul\":736:813   */\n      0x4e487b7100000000000000000000000000000000000000000000000000000000\n        /* \"#utility.yul\":733:734   */\n      0x00\n        /* \"#utility.yul\":726:814   */\n      mstore\n        /* \"#utility.yul\":833:837   */\n      0x41\n        /* \"#utility.yul\":830:831   */\n      0x04\n        /* \"#utility.yul\":823:838   */\n      mstore\n        /* \"#utility.yul\":857:861   */\n      0x24\n        /* \"#utility.yul\":854:855   */\n      0x00\n        /* \"#utility.yul\":847:862   */\n      revert\n        /* \"#utility.yul\":874:1155   */\n    tag_25:\n        /* \"#utility.yul\":957:984   */\n      tag_60\n        /* \"#utility.yul\":979:983   */\n      dup3\n        /* \"#utility.yul\":957:984   */\n      tag_23\n      jump\t// in\n    tag_60:\n        /* \"#utility.yul\":949:955   */\n      dup2\n        /* \"#utility.yul\":945:985   */\n      add\n        /* \"#utility.yul\":1087:1093   */\n      dup2\n        /* \"#utility.yul\":1075:1085   */\n      dup2\n        /* \"#utility.yul\":1072:1094   */\n      lt\n        /* \"#utility.yul\":1051:1069   */\n      0xffffffffffffffff\n        /* \"#utility.yul\":1039:1049   */\n      dup3\n        /* \"#utility.yul\":1036:1070   */\n      gt\n        /* \"#utility.yul\":1033:1095   */\n      or\n        /* \"#utility.yul\":1030:1118   */\n      iszero\n      tag_61\n      jumpi\n        /* \"#utility.yul\":1098:1116   */\n      tag_62\n      tag_24\n      jump\t// in\n    tag_62:\n        /* \"#utility.yul\":1030:1118   */\n    tag_61:\n        /* \"#utility.yul\":1138:1148   */\n      dup1\n        /* \"#utility.yul\":1134:1136   */\n      0x40\n        /* \"#utility.yul\":1127:1149   */\n      mstore\n        /* \"#utility.yul\":917:1155   */\n      pop\n        /* \"#utility.yul\":874:1155   */\n      pop\n      pop\n      jump\t// out\n        /* \"#utility.yul\":1161:1290   */\n    tag_26:\n        /* \"#utility.yul\":1195:1201   */\n      0x00\n        /* \"#utility.yul\":1222:1242   */\n      tag_64\n      tag_18\n      jump\t// in\n    tag_64:\n        /* \"#utility.yul\":1212:1242   */\n      swap1\n      pop\n        /* \"#utility.yul\":1251:1284   */\n      tag_65\n        /* \"#utility.yul\":1279:1283   */\n      dup3\n        /* \"#utility.yul\":1271:1277   */\n      dup3\n        /* \"#utility.yul\":1251:1284   */\n      tag_25\n      jump\t// in\n    tag_65:\n        /* \"#utility.yul\":1161:1290   */\n      swap2\n      swap1\n      pop\n      jump\t// out\n        /* \"#utility.yul\":1296:1604   */\n    tag_27:\n        /* \"#utility.yul\":1358:1362   */\n      0x00\n        /* \"#utility.yul\":1448:1466   */\n      0xffffffffffffffff\n        /* \"#utility.yul\":1440:1446   */\n      dup3\n        /* \"#utility.yul\":1437:1467   */\n      gt\n        /* \"#utility.yul\":1434:1490   */\n      iszero\n      tag_67\n      jumpi\n        /* \"#utility.yul\":1470:1488   */\n      tag_68\n      tag_24\n      jump\t// in\n    tag_68:\n        /* \"#utility.yul\":1434:1490   */\n    tag_67:\n        /* \"#utility.yul\":1508:1537   */\n      tag_69\n        /* \"#utility.yul\":1530:1536   */\n      dup3\n        /* \"#utility.yul\":1508:1537   */\n      tag_23\n      jump\t// in\n    tag_69:\n        /* \"#utility.yul\":1500:1537   */\n      swap1\n      pop\n        /* \"#utility.yul\":1592:1596   */\n      0x20\n        /* \"#utility.yul\":1586:1590   */\n      dup2\n        /* \"#utility.yul\":1582:1597   */\n      add\n        /* \"#utility.yul\":1574:1597   */\n      swap1\n      pop\n        /* \"#utility.yul\":1296:1604   */\n      swap2\n      swap1\n      pop\n      jump\t// out\n        /* \"#utility.yul\":1610:1756   */\n    tag_28:\n        /* \"#utility.yul\":1707:1713   */\n      dup3\n        /* \"#utility.yul\":1702:1705   */\n      dup2\n        /* \"#utility.yul\":1697:1700   */\n      dup4\n        /* \"#utility.yul\":1684:1714   */\n      calldatacopy\n        /* \"#utility.yul\":1748:1749   */\n      0x00\n        /* \"#utility.yul\":1739:1745   */\n      dup4\n        /* \"#utility.yul\":1734:1737   */\n      dup4\n        /* \"#utility.yul\":1730:1746   */\n      add\n        /* \"#utility.yul\":1723:1750   */\n      mstore\n        /* \"#utility.yul\":1610:1756   */\n      pop\n      pop\n      pop\n      jump\t// out\n        /* \"#utility.yul\":1762:2187   */\n    tag_29:\n        /* \"#utility.yul\":1840:1845   */\n      0x00\n        /* \"#utility.yul\":1865:1931   */\n      tag_72\n        /* \"#utility.yul\":1881:1930   */\n      tag_73\n        /* \"#utility.yul\":1923:1929   */\n      dup5\n        /* \"#utility.yul\":1881:1930   */\n      tag_27\n      jump\t// in\n    tag_73:\n        /* \"#utility.yul\":1865:1931   */\n      tag_26\n      jump\t// in\n    tag_72:\n        /* \"#utility.yul\":1856:1931   */\n      swap1\n      pop\n        /* \"#utility.yul\":1954:1960   */\n      dup3\n        /* \"#utility.yul\":1947:1952   */\n      dup2\n        /* \"#utility.yul\":1940:1961   */\n      mstore\n        /* \"#utility.yul\":1992:1996   */\n      0x20\n        /* \"#utility.yul\":1985:1990   */\n      dup2\n        /* \"#utility.yul\":1981:1997   */\n      add\n        /* \"#utility.yul\":2030:2033   */\n      dup5\n        /* \"#utility.yul\":2021:2027   */\n      dup5\n        /* \"#utility.yul\":2016:2019   */\n      dup5\n        /* \"#utility.yul\":2012:2028   */\n      add\n        /* \"#utility.yul\":2009:2034   */\n      gt\n        /* \"#utility.yul\":2006:2118   */\n      iszero\n      tag_74\n      jumpi\n        /* \"#utility.yul\":2037:2116   */\n      tag_75\n      tag_22\n      jump\t// in\n    tag_75:\n        /* \"#utility.yul\":2006:2118   */\n    tag_74:\n        /* \"#utility.yul\":2127:2181   */\n      tag_76\n        /* \"#utility.yul\":2174:2180   */\n      dup5\n        /* \"#utility.yul\":2169:2172   */\n      dup3\n        /* \"#utility.yul\":2164:2167   */\n      dup6\n        /* \"#utility.yul\":2127:2181   */\n      tag_28\n      jump\t// in\n    tag_76:\n        /* \"#utility.yul\":1846:2187   */\n      pop\n        /* \"#utility.yul\":1762:2187   */\n      swap4\n      swap3\n      pop\n      pop\n      pop\n      jump\t// out\n        /* \"#utility.yul\":2207:2547   */\n    tag_30:\n        /* \"#utility.yul\":2263:2268   */\n      0x00\n        /* \"#utility.yul\":2312:2315   */\n      dup3\n        /* \"#utility.yul\":2305:2309   */\n      0x1f\n        /* \"#utility.yul\":2297:2303   */\n      dup4\n        /* \"#utility.yul\":2293:2310   */\n      add\n        /* \"#utility.yul\":2289:2316   */\n      slt\n        /* \"#utility.yul\":2279:2401   */\n      tag_78\n      jumpi\n        /* \"#utility.yul\":2320:2399   */\n      tag_79\n      tag_21\n      jump\t// in\n    tag_79:\n        /* \"#utility.yul\":2279:2401   */\n    tag_78:\n        /* \"#utility.yul\":2437:2443   */\n      dup2\n        /* \"#utility.yul\":2424:2444   */\n      calldataload\n        /* \"#utility.yul\":2462:2541   */\n      tag_80\n        /* \"#utility.yul\":2537:2540   */\n      dup5\n        /* \"#utility.yul\":2529:2535   */\n      dup3\n        /* \"#utility.yul\":2522:2526   */\n      0x20\n        /* \"#utility.yul\":2514:2520   */\n      dup7\n        /* \"#utility.yul\":2510:2527   */\n      add\n        /* \"#utility.yul\":2462:2541   */\n      tag_29\n      jump\t// in\n    tag_80:\n        /* \"#utility.yul\":2453:2541   */\n      swap2\n      pop\n        /* \"#utility.yul\":2269:2547   */\n      pop\n        /* \"#utility.yul\":2207:2547   */\n      swap3\n      swap2\n      pop\n      pop\n      jump\t// out\n        /* \"#utility.yul\":2553:3062   */\n    tag_6:\n        /* \"#utility.yul\":2622:2628   */\n      0x00\n        /* \"#utility.yul\":2671:2673   */\n      0x20\n        /* \"#utility.yul\":2659:2668   */\n      dup3\n        /* \"#utility.yul\":2650:2657   */\n      dup5\n        /* \"#utility.yul\":2646:2669   */\n      sub\n        /* \"#utility.yul\":2642:2674   */\n      slt\n        /* \"#utility.yul\":2639:2758   */\n      iszero\n      tag_82\n      jumpi\n        /* \"#utility.yul\":2677:2756   */\n      tag_83\n      tag_19\n      jump\t// in\n    tag_83:\n        /* \"#utility.yul\":2639:2758   */\n    tag_82:\n        /* \"#utility.yul\":2825:2826   */\n      0x00\n        /* \"#utility.yul\":2814:2823   */\n      dup3\n        /* \"#utility.yul\":2810:2827   */\n      add\n        /* \"#utility.yul\":2797:2828   */\n      calldataload\n        /* \"#utility.yul\":2855:2873   */\n      0xffffffffffffffff\n        /* \"#utility.yul\":2847:2853   */\n      dup2\n        /* \"#utility.yul\":2844:2874   */\n      gt\n        /* \"#utility.yul\":2841:2958   */\n      iszero\n      tag_84\n      jumpi\n        /* \"#utility.yul\":2877:2956   */\n      tag_85\n      tag_20\n      jump\t// in\n    tag_85:\n        /* \"#utility.yul\":2841:2958   */\n    tag_84:\n        /* \"#utility.yul\":2982:3045   */\n      tag_86\n        /* \"#utility.yul\":3037:3044   */\n      dup5\n        /* \"#utility.yul\":3028:3034   */\n      dup3\n        /* \"#utility.yul\":3017:3026   */\n      dup6\n        /* \"#utility.yul\":3013:3035   */\n      add\n        /* \"#utility.yul\":2982:3045   */\n      tag_30\n      jump\t// in\n    tag_86:\n        /* \"#utility.yul\":2972:3045   */\n      swap2\n      pop\n        /* \"#utility.yul\":2768:3055   */\n      pop\n        /* \"#utility.yul\":2553:3062   */\n      swap3\n      swap2\n      pop\n      pop\n      jump\t// out\n        /* \"#utility.yul\":3068:3248   */\n    tag_11:\n        /* \"#utility.yul\":3116:3193   */\n      0x4e487b7100000000000000000000000000000000000000000000000000000000\n        /* \"#utility.yul\":3113:3114   */\n      0x00\n        /* \"#utility.yul\":3106:3194   */\n      mstore\n        /* \"#utility.yul\":3213:3217   */\n      0x21\n        /* \"#utility.yul\":3210:3211   */\n      0x04\n        /* \"#utility.yul\":3203:3218   */\n      mstore\n        /* \"#utility.yul\":3237:3241   */\n      0x24\n        /* \"#utility.yul\":3234:3235   */\n      0x00\n        /* \"#utility.yul\":3227:3242   */\n      revert\n        /* \"#utility.yul\":3254:3353   */\n    tag_31:\n        /* \"#utility.yul\":3306:3312   */\n      0x00\n        /* \"#utility.yul\":3340:3345   */\n      dup2\n        /* \"#utility.yul\":3334:3346   */\n      mload\n        /* \"#utility.yul\":3324:3346   */\n      swap1\n      pop\n        /* \"#utility.yul\":3254:3353   */\n      swap2\n      swap1\n      pop\n      jump\t// out\n        /* \"#utility.yul\":3359:3539   */\n    tag_32:\n        /* \"#utility.yul\":3407:3484   */\n      0x4e487b7100000000000000000000000000000000000000000000000000000000\n        /* \"#utility.yul\":3404:3405   */\n      0x00\n        /* \"#utility.yul\":3397:3485   */\n      mstore\n        /* \"#utility.yul\":3504:3508   */\n      0x22\n        /* \"#utility.yul\":3501:3502   */\n      0x04\n        /* \"#utility.yul\":3494:3509   */\n      mstore\n        /* \"#utility.yul\":3528:3532   */\n      0x24\n        /* \"#utility.yul\":3525:3526   */\n      0x00\n        /* \"#utility.yul\":3518:3533   */\n      revert\n        /* \"#utility.yul\":3545:3865   */\n    tag_33:\n        /* \"#utility.yul\":3589:3595   */\n      0x00\n        /* \"#utility.yul\":3626:3627   */\n      0x02\n        /* \"#utility.yul\":3620:3624   */\n      dup3\n        /* \"#utility.yul\":3616:3628   */\n      div\n        /* \"#utility.yul\":3606:3628   */\n      swap1\n      pop\n        /* \"#utility.yul\":3673:3674   */\n      0x01\n        /* \"#utility.yul\":3667:3671   */\n      dup3\n        /* \"#utility.yul\":3663:3675   */\n      and\n        /* \"#utility.yul\":3694:3712   */\n      dup1\n        /* \"#utility.yul\":3684:3765   */\n      tag_91\n      jumpi\n        /* \"#utility.yul\":3750:3754   */\n      0x7f\n        /* \"#utility.yul\":3742:3748   */\n      dup3\n        /* \"#utility.yul\":3738:3755   */\n      and\n        /* \"#utility.yul\":3728:3755   */\n      swap2\n      pop\n        /* \"#utility.yul\":3684:3765   */\n    tag_91:\n        /* \"#utility.yul\":3812:3814   */\n      0x20\n        /* \"#utility.yul\":3804:3810   */\n      dup3\n        /* \"#utility.yul\":3801:3815   */\n      lt\n        /* \"#utility.yul\":3781:3799   */\n      dup2\n        /* \"#utility.yul\":3778:3816   */\n      sub\n        /* \"#utility.yul\":3775:3859   */\n      tag_92\n      jumpi\n        /* \"#utility.yul\":3831:3849   */\n      tag_93\n      tag_32\n      jump\t// in\n    tag_93:\n        /* \"#utility.yul\":3775:3859   */\n    tag_92:\n        /* \"#utility.yul\":3596:3865   */\n      pop\n        /* \"#utility.yul\":3545:3865   */\n      swap2\n      swap1\n      pop\n      jump\t// out\n        /* \"#utility.yul\":3871:4012   */\n    tag_34:\n        /* \"#utility.yul\":3920:3924   */\n      0x00\n        /* \"#utility.yul\":3943:3946   */\n      dup2\n        /* \"#utility.yul\":3935:3946   */\n      swap1\n      pop\n        /* \"#utility.yul\":3966:3969   */\n      dup2\n        /* \"#utility.yul\":3963:3964   */\n      0x00\n        /* \"#utility.yul\":3956:3970   */\n      mstore\n        /* \"#utility.yul\":4000:4004   */\n      0x20\n        /* \"#utility.yul\":3997:3998   */\n      0x00\n        /* \"#utility.yul\":3987:4005   */\n      keccak256\n        /* \"#utility.yul\":3979:4005   */\n      swap1\n      pop\n        /* \"#utility.yul\":3871:4012   */\n      swap2\n      swap1\n      pop\n      jump\t// out\n        /* \"#utility.yul\":4018:4111   */\n    tag_35:\n        /* \"#utility.yul\":4055:4061   */\n      0x00\n        /* \"#utility.yul\":4102:4104   */\n      0x20\n        /* \"#utility.yul\":4097:4099   */\n      0x1f\n        /* \"#utility.yul\":4090:4095   */\n      dup4\n        /* \"#utility.yul\":4086:4100   */\n      add\n        /* \"#utility.yul\":4082:4105   */\n      div\n        /* \"#utility.yul\":4072:4105   */\n      swap1\n      pop\n        /* \"#utility.yul\":4018:4111   */\n      swap2\n      swap1\n      pop\n      jump\t// out\n        /* \"#utility.yul\":4117:4224   */\n    tag_36:\n        /* \"#utility.yul\":4161:4169   */\n      0x00\n        /* \"#utility.yul\":4211:4216   */\n      dup3\n        /* \"#utility.yul\":4205:4209   */\n      dup3\n        /* \"#utility.yul\":4201:4217   */\n      shl\n        /* \"#utility.yul\":4180:4217   */\n      swap1\n      pop\n        /* \"#utility.yul\":4117:4224   */\n      swap3\n      swap2\n      pop\n      pop\n      jump\t// out\n        /* \"#utility.yul\":4230:4623   */\n    tag_37:\n        /* \"#utility.yul\":4299:4305   */\n      0x00\n        /* \"#utility.yul\":4349:4350   */\n      0x08\n        /* \"#utility.yul\":4337:4347   */\n      dup4\n        /* \"#utility.yul\":4333:4351   */\n      mul\n        /* \"#utility.yul\":4372:4469   */\n      tag_98\n        /* \"#utility.yul\":4402:4468   */\n      0xffffffffffffffffffffffffffffffffffffffffffffffffffffffffffffffff\n        /* \"#utility.yul\":4391:4400   */\n      dup3\n        /* \"#utility.yul\":4372:4469   */\n      tag_36\n      jump\t// in\n    tag_98:\n        /* \"#utility.yul\":4490:4529   */\n      tag_99\n        /* \"#utility.yul\":4520:4528   */\n      dup7\n        /* \"#utility.yul\":4509:4518   */\n      dup4\n        /* \"#utility.yul\":4490:4529   */\n      tag_36\n      jump\t// in\n    tag_99:\n        /* \"#utility.yul\":4478:4529   */\n      swap6\n      pop\n        /* \"#utility.yul\":4562:4566   */\n      dup1\n        /* \"#utility.yul\":4558:4567   */\n      not\n        /* \"#utility.yul\":4551:4556   */\n      dup5\n        /* \"#utility.yul\":4547:4568   */\n      and\n        /* \"#utility.yul\":4538:4568   */\n      swap4\n      pop\n        /* \"#utility.yul\":4611:4615   */\n      dup1\n        /* \"#utility.yul\":4601:4609   */\n      dup7\n        /* \"#utility.yul\":4597:4616   */\n      and\n        /* \"#utility.yul\":4590:4595   */\n      dup5\n        /* \"#utility.yul\":4587:4617   */\n      or\n        /* \"#utility.yul\":4577:4617   */\n      swap3\n      pop\n        /* \"#utility.yul\":4306:4623   */\n      pop\n      pop\n        /* \"#utility.yul\":4230:4623   */\n      swap4\n      swap3\n      pop\n      pop\n      pop\n      jump\t// out\n        /* \"#utility.yul\":4629:4706   */\n    tag_38:\n        /* \"#utility.yul\":4666:4673   */\n      0x00\n        /* \"#utility.yul\":4695:4700   */\n      dup2\n        /* \"#utility.yul\":4684:4700   */\n      swap1\n      pop\n        /* \"#utility.yul\":4629:4706   */\n      swap2\n      swap1\n      pop\n      jump\t// out\n        /* \"#utility.yul\":4712:4772   */\n    tag_39:\n        /* \"#utility.yul\":4740:4743   */\n      0x00\n        /* \"#utility.yul\":4761:4766   */\n      dup2\n        /* \"#utility.yul\":4754:4766   */\n      swap1\n      pop\n        /* \"#utility.yul\":4712:4772   */\n      swap2\n      swap1\n      pop\n      jump\t// out\n        /* \"#utility.yul\":4778:4920   */\n    tag_40:\n        /* \"#utility.yul\":4828:4837   */\n      0x00\n        /* \"#utility.yul\":4861:4914   */\n      tag_103\n        /* \"#utility.yul\":4879:4913   */\n      tag_104\n        /* \"#utility.yul\":4888:4912   */\n      tag_105\n        /* \"#utility.yul\":4906:4911   */\n      dup5\n        /* \"#utility.yul\":4888:4912   */\n      tag_38\n      jump\t// in\n    tag_105:\n        /* \"#utility.yul\":4879:4913   */\n      tag_39\n      jump\t// in\n    tag_104:\n        /* \"#utility.yul\":4861:4914   */\n      tag_38\n      jump\t// in\n    tag_103:\n        /* \"#utility.yul\":4848:4914   */\n      swap1\n      pop\n        /* \"#utility.yul\":4778:4920   */\n      swap2\n      swap1\n      pop\n      jump\t// out\n        /* \"#utility.yul\":4926:5001   */\n    tag_41:\n        /* \"#utility.yul\":4969:4972   */\n      0x00\n        /* \"#utility.yul\":4990:4995   */\n      dup2\n        /* \"#utility.yul\":4983:4995   */\n      swap1\n      pop\n        /* \"#utility.yul\":4926:5001   */\n      swap2\n      swap1\n      pop\n      jump\t// out\n        /* \"#utility.yul\":5007:5276   */\n    tag_42:\n        /* \"#utility.yul\":5117:5156   */\n      tag_108\n        /* \"#utility.yul\":5148:5155   */\n      dup4\n        /* \"#utility.yul\":5117:5156   */\n      tag_40\n      jump\t// in\n    tag_108:\n        /* \"#utility.yul\":5178:5269   */\n      tag_109\n        /* \"#utility.yul\":5227:5268   */\n      tag_110\n        /* \"#utility.yul\":5251:5267   */\n      dup3\n        /* \"#utility.yul\":5227:5268   */\n      tag_41\n      jump\t// in\n    tag_110:\n        /* \"#utility.yul\":5219:5225   */\n      dup5\n        /* \"#utility.yul\":5212:5216   */\n      dup5\n        /* \"#utility.yul\":5206:5217   */\n      sload\n        /* \"#utility.yul\":5178:5269   */\n      tag_37\n      jump\t// in\n    tag_109:\n        /* \"#utility.yul\":5172:5176   */\n      dup3\n        /* \"#utility.yul\":5165:5270   */\n      sstore\n        /* \"#utility.yul\":5083:5276   */\n      pop\n        /* \"#utility.yul\":5007:5276   */\n      pop\n      pop\n      pop\n      jump\t// out\n        /* \"#utility.yul\":5282:5355   */\n    tag_43:\n        /* \"#utility.yul\":5327:5330   */\n      0x00\n        /* \"#utility.yul\":5282:5355   */\n      swap1\n      jump\t// out\n        /* \"#utility.yul\":5361:5550   */\n    tag_44:\n        /* \"#utility.yul\":5438:5470   */\n      tag_113\n      tag_43\n      jump\t// in\n    tag_113:\n        /* \"#utility.yul\":5479:5544   */\n      tag_114\n        /* \"#utility.yul\":5537:5543   */\n      dup2\n        /* \"#utility.yul\":5529:5535   */\n      dup5\n        /* \"#utility.yul\":5523:5527   */\n      dup5\n        /* \"#utility.yul\":5479:5544   */\n      tag_42\n      jump\t// in\n    tag_114:\n        /* \"#utility.yul\":5414:5550   */\n      pop\n        /* \"#utility.yul\":5361:5550   */\n      pop\n      pop\n      jump\t// out\n        /* \"#utility.yul\":5556:5742   */\n    tag_45:\n        /* \"#utility.yul\":5616:5736   */\n    tag_116:\n        /* \"#utility.yul\":5633:5636   */\n      dup2\n        /* \"#utility.yul\":5626:5631   */\n      dup2\n        /* \"#utility.yul\":5623:5637   */\n      lt\n        /* \"#utility.yul\":5616:5736   */\n      iszero\n      tag_118\n      jumpi\n        /* \"#utility.yul\":5687:5726   */\n      tag_119\n        /* \"#utility.yul\":5724:5725   */\n      0x00\n        /* \"#utility.yul\":5717:5722   */\n      dup3\n        /* \"#utility.yul\":5687:5726   */\n      tag_44\n      jump\t// in\n    tag_119:\n        /* \"#utility.yul\":5660:5661   */\n      0x01\n        /* \"#utility.yul\":5653:5658   */\n      dup2\n        /* \"#utility.yul\":5649:5662   */\n      add\n        /* \"#utility.yul\":5640:5662   */\n      swap1\n      pop\n        /* \"#utility.yul\":5616:5736   */\n      jump(tag_116)\n    tag_118:\n        /* \"#utility.yul\":5556:5742   */\n      pop\n      pop\n      jump\t// out\n        /* \"#utility.yul\":5748:6291   */\n    tag_46:\n        /* \"#utility.yul\":5849:5851   */\n      0x1f\n        /* \"#utility.yul\":5844:5847   */\n      dup3\n        /* \"#utility.yul\":5841:5852   */\n      gt\n        /* \"#utility.yul\":5838:6284   */\n      iszero\n      tag_121\n      jumpi\n        /* \"#utility.yul\":5883:5921   */\n      tag_122\n        /* \"#utility.yul\":5915:5920   */\n      dup2\n        /* \"#utility.yul\":5883:5921   */\n      tag_34\n      jump\t// in\n    tag_122:\n        /* \"#utility.yul\":5967:5996   */\n      tag_123\n        /* \"#utility.yul\":5985:5995   */\n      dup5\n        /* \"#utility.yul\":5967:5996   */\n      tag_35\n      jump\t// in\n    tag_123:\n        /* \"#utility.yul\":5957:5965   */\n      dup2\n        /* \"#utility.yul\":5953:5997   */\n      add\n        /* \"#utility.yul\":6150:6152   */\n      0x20\n        /* \"#utility.yul\":6138:6148   */\n      dup6\n        /* \"#utility.yul\":6135:6153   */\n      lt\n        /* \"#utility.yul\":6132:6181   */\n      iszero\n      tag_124\n      jumpi\n        /* \"#utility.yul\":6171:6179   */\n      dup2\n        /* \"#utility.yul\":6156:6179   */\n      swap1\n      pop\n        /* \"#utility.yul\":6132:6181   */\n    tag_124:\n        /* \"#utility.yul\":6194:6274   */\n      tag_125\n        /* \"#utility.yul\":6250:6272   */\n      tag_126\n        /* \"#utility.yul\":6268:6271   */\n      dup6\n        /* \"#utility.yul\":6250:6272   */\n      tag_35\n      jump\t// in\n    tag_126:\n        /* \"#utility.yul\":6240:6248   */\n      dup4\n        /* \"#utility.yul\":6236:6273   */\n      add\n        /* \"#utility.yul\":6223:6234   */\n      dup3\n        /* \"#utility.yul\":6194:6274   */\n      tag_45\n      jump\t// in\n    tag_125:\n        /* \"#utility.yul\":5853:6284   */\n      pop\n      pop\n        /* \"#utility.yul\":5838:6284   */\n    tag_121:\n        /* \"#utility.yul\":5748:6291   */\n      pop\n      pop\n      pop\n      jump\t// out\n        /* \"#utility.yul\":6297:6414   */\n    tag_47:\n        /* \"#utility.yul\":6351:6359   */\n      0x00\n        /* \"#utility.yul\":6401:6406   */\n      dup3\n        /* \"#utility.yul\":6395:6399   */\n      dup3\n        /* \"#utility.yul\":6391:6407   */\n      shr\n        /* \"#utility.yul\":6370:6407   */\n      swap1\n      pop\n        /* \"#utility.yul\":6297:6414   */\n      swap3\n      swap2\n      pop\n      pop\n      jump\t// out\n        /* \"#utility.yul\":6420:6589   */\n    tag_48:\n        /* \"#utility.yul\":6464:6470   */\n      0x00\n        /* \"#utility.yul\":6497:6548   */\n      tag_129\n        /* \"#utility.yul\":6545:6546   */\n      0x00\n        /* \"#utility.yul\":6541:6547   */\n      not\n        /* \"#utility.yul\":6533:6538   */\n      dup5\n        /* \"#utility.yul\":6530:6531   */\n      0x08\n        /* \"#utility.yul\":6526:6539   */\n      mul\n        /* \"#utility.yul\":6497:6548   */\n      tag_47\n      jump\t// in\n    tag_129:\n        /* \"#utility.yul\":6493:6549   */\n      not\n        /* \"#utility.yul\":6578:6582   */\n      dup1\n        /* \"#utility.yul\":6572:6576   */\n      dup4\n        /* \"#utility.yul\":6568:6583   */\n      and\n        /* \"#utility.yul\":6558:6583   */\n      swap2\n      pop\n        /* \"#utility.yul\":6471:6589   */\n      pop\n        /* \"#utility.yul\":6420:6589   */\n      swap3\n      swap2\n      pop\n      pop\n      jump\t// out\n        /* \"#utility.yul\":6594:6889   */\n    tag_49:\n        /* \"#utility.yul\":6670:6674   */\n      0x00\n        /* \"#utility.yul\":6816:6845   */\n      tag_131\n        /* \"#utility.yul\":6841:6844   */\n      dup4\n        /* \"#utility.yul\":6835:6839   */\n      dup4\n        /* \"#utility.yul\":6816:6845   */\n      tag_48\n      jump\t// in\n    tag_131:\n        /* \"#utility.yul\":6808:6845   */\n      swap2\n      pop\n        /* \"#utility.yul\":6878:6881   */\n      dup3\n        /* \"#utility.yul\":6875:6876   */\n      0x02\n        /* \"#utility.yul\":6871:6882   */\n      mul\n        /* \"#utility.yul\":6865:6869   */\n      dup3\n        /* \"#utility.yul\":6862:6883   */\n      or\n        /* \"#utility.yul\":6854:6883   */\n      swap1\n      pop\n        /* \"#utility.yul\":6594:6889   */\n      swap3\n      swap2\n      pop\n      pop\n      jump\t// out\n        /* \"#utility.yul\":6894:8289   */\n    tag_15:\n        /* \"#utility.yul\":7011:7048   */\n      tag_133\n        /* \"#utility.yul\":7044:7047   */\n      dup3\n        /* \"#utility.yul\":7011:7048   */\n      tag_31\n      jump\t// in\n    tag_133:\n        /* \"#utility.yul\":7113:7131   */\n      0xffffffffffffffff\n        /* \"#utility.yul\":7105:7111   */\n      dup2\n        /* \"#utility.yul\":7102:7132   */\n      gt\n        /* \"#utility.yul\":7099:7155   */\n      iszero\n      tag_134\n      jumpi\n        /* \"#utility.yul\":7135:7153   */\n      tag_135\n      tag_24\n      jump\t// in\n    tag_135:\n        /* \"#utility.yul\":7099:7155   */\n    tag_134:\n        /* \"#utility.yul\":7179:7217   */\n      tag_136\n        /* \"#utility.yul\":7211:7215   */\n      dup3\n        /* \"#utility.yul\":7205:7216   */\n      sload\n        /* \"#utility.yul\":7179:7217   */\n      tag_33\n      jump\t// in\n    tag_136:\n        /* \"#utility.yul\":7264:7331   */\n      tag_137\n        /* \"#utility.yul\":7324:7330   */\n      dup3\n        /* \"#utility.yul\":7316:7322   */\n      dup3\n        /* \"#utility.yul\":7310:7314   */\n      dup6\n        /* \"#utility.yul\":7264:7331   */\n      tag_46\n      jump\t// in\n    tag_137:\n        /* \"#utility.yul\":7358:7359   */\n      0x00\n        /* \"#utility.yul\":7382:7386   */\n      0x20\n        /* \"#utility.yul\":7369:7386   */\n      swap1\n      pop\n        /* \"#utility.yul\":7414:7416   */\n      0x1f\n        /* \"#utility.yul\":7406:7412   */\n      dup4\n        /* \"#utility.yul\":7403:7417   */\n      gt\n        /* \"#utility.yul\":7431:7432   */\n      0x01\n        /* \"#utility.yul\":7426:8044   */\n      dup2\n      eq\n      tag_139\n      jumpi\n        /* \"#utility.yul\":8088:8089   */\n      0x00\n        /* \"#utility.yul\":8105:8111   */\n      dup5\n        /* \"#utility.yul\":8102:8179   */\n      iszero\n      tag_140\n      jumpi\n        /* \"#utility.yul\":8154:8163   */\n      dup3\n        /* \"#utility.yul\":8149:8152   */\n      dup8\n        /* \"#utility.yul\":8145:8164   */\n      add\n        /* \"#utility.yul\":8139:8165   */\n      mload\n        /* \"#utility.yul\":8130:8165   */\n      swap1\n      pop\n        /* \"#utility.yul\":8102:8179   */\n    tag_140:\n        /* \"#utility.yul\":8205:8272   */\n      tag_141\n        /* \"#utility.yul\":8265:8271   */\n      dup6\n        /* \"#utility.yul\":8258:8263   */\n      dup3\n        /* \"#utility.yul\":8205:8272   */\n      tag_49\n      jump\t// in\n    tag_141:\n        /* \"#utility.yul\":8199:8203   */\n      dup7\n        /* \"#utility.yul\":8192:8273   */\n      sstore\n        /* \"#utility.yul\":8061:8283   */\n      pop\n        /* \"#utility.yul\":7396:8283   */\n      jump(tag_138)\n        /* \"#utility.yul\":7426:8044   */\n    tag_139:\n        /* \"#utility.yul\":7478:7482   */\n      0x1f\n        /* \"#utility.yul\":7474:7483   */\n      not\n        /* \"#utility.yul\":7466:7472   */\n      dup5\n        /* \"#utility.yul\":7462:7484   */\n      and\n        /* \"#utility.yul\":7512:7549   */\n      tag_142\n        /* \"#utility.yul\":7544:7548   */\n      dup7\n        /* \"#utility.yul\":7512:7549   */\n      tag_34\n      jump\t// in\n    tag_142:\n        /* \"#utility.yul\":7571:7572   */\n      0x00\n        /* \"#utility.yul\":7585:7793   */\n    tag_143:\n        /* \"#utility.yul\":7599:7606   */\n      dup3\n        /* \"#utility.yul\":7596:7597   */\n      dup2\n        /* \"#utility.yul\":7593:7607   */\n      lt\n        /* \"#utility.yul\":7585:7793   */\n      iszero\n      tag_145\n      jumpi\n        /* \"#utility.yul\":7678:7687   */\n      dup5\n        /* \"#utility.yul\":7673:7676   */\n      dup10\n        /* \"#utility.yul\":7669:7688   */\n      add\n        /* \"#utility.yul\":7663:7689   */\n      mload\n        /* \"#utility.yul\":7655:7661   */\n      dup3\n        /* \"#utility.yul\":7648:7690   */\n      sstore\n        /* \"#utility.yul\":7729:7730   */\n      0x01\n        /* \"#utility.yul\":7721:7727   */\n      dup3\n        /* \"#utility.yul\":7717:7731   */\n      add\n        /* \"#utility.yul\":7707:7731   */\n      swap2\n      pop\n        /* \"#utility.yul\":7776:7778   */\n      0x20\n        /* \"#utility.yul\":7765:7774   */\n      dup6\n        /* \"#utility.yul\":7761:7779   */\n      add\n        /* \"#utility.yul\":7748:7779   */\n      swap5\n      pop\n        /* \"#utility.yul\":7622:7626   */\n      0x20\n        /* \"#utility.yul\":7619:7620   */\n      dup2\n        /* \"#utility.yul\":7615:7627   */\n      add\n        /* \"#utility.yul\":7610:7627   */\n      swap1\n      pop\n        /* \"#utility.yul\":7585:7793   */\n      jump(tag_143)\n    tag_145:\n        /* \"#utility.yul\":7821:7827   */\n      dup7\n        /* \"#utility.yul\":7812:7819   */\n      dup4\n        /* \"#utility.yul\":7809:7828   */\n      lt\n        /* \"#utility.yul\":7806:7985   */\n      iszero\n      tag_146\n      jumpi\n        /* \"#utility.yul\":7879:7888   */\n      dup5\n        /* \"#utility.yul\":7874:7877   */\n      dup10\n        /* \"#utility.yul\":7870:7889   */\n      add\n        /* \"#utility.yul\":7864:7890   */\n      mload\n        /* \"#utility.yul\":7922:7970   */\n      tag_147\n        /* \"#utility.yul\":7964:7968   */\n      0x1f\n        /* \"#utility.yul\":7956:7962   */\n      dup10\n        /* \"#utility.yul\":7952:7969   */\n      and\n        /* \"#utility.yul\":7941:7950   */\n      dup3\n        /* \"#utility.yul\":7922:7970   */\n      tag_48\n      jump\t// in\n    tag_147:\n        /* \"#utility.yul\":7914:7920   */\n      dup4\n        /* \"#utility.yul\":7907:7971   */\n      sstore\n        /* \"#utility.yul\":7829:7985   */\n      pop\n        /* \"#utility.yul\":7806:7985   */\n    tag_146:\n        /* \"#utility.yul\":8031:8032   */\n      0x01\n        /* \"#utility.yul\":8027:8028   */\n      0x02\n        /* \"#utility.yul\":8019:8025   */\n      dup9\n        /* \"#utility.yul\":8015:8029   */\n      mul\n        /* \"#utility.yul\":8011:8033   */\n      add\n        /* \"#utility.yul\":8005:8009   */\n      dup9\n        /* \"#utility.yul\":7998:8034   */\n      sstore\n        /* \"#utility.yul\":7433:8044   */\n      pop\n      pop\n      pop\n        /* \"#utility.yul\":7396:8283   */\n    tag_138:\n      pop\n        /* \"#utility.yul\":6986:8289   */\n      pop\n      pop\n      pop\n        /* \"#utility.yul\":6894:8289   */\n      pop\n      pop\n      jump\t// out\n        /* \"#utility.yul\":8295:8475   */\n    tag_50:\n        /* \"#utility.yul\":8343:8420   */\n      0x4e487b7100000000000000000000000000000000000000000000000000000000\n        /* \"#utility.yul\":8340:8341   */\n      0x00\n        /* \"#utility.yul\":8333:8421   */\n      mstore\n        /* \"#utility.yul\":8440:8444   */\n      0x11\n        /* \"#utility.yul\":8437:8438   */\n      0x04\n        /* \"#utility.yul\":8430:8445   */\n      mstore\n        /* \"#utility.yul\":8464:8468   */\n      0x24\n        /* \"#utility.yul\":8461:8462   */\n      0x00\n        /* \"#utility.yul\":8454:8469   */\n      revert\n        /* \"#utility.yul\":8481:8714   */\n    tag_17:\n        /* \"#utility.yul\":8520:8523   */\n      0x00\n        /* \"#utility.yul\":8543:8567   */\n      tag_150\n        /* \"#utility.yul\":8561:8566   */\n      dup3\n        /* \"#utility.yul\":8543:8567   */\n      tag_38\n      jump\t// in\n    tag_150:\n        /* \"#utility.yul\":8534:8567   */\n      swap2\n      pop\n        /* \"#utility.yul\":8589:8655   */\n      0xffffffffffffffffffffffffffffffffffffffffffffffffffffffffffffffff\n        /* \"#utility.yul\":8582:8587   */\n      dup3\n        /* \"#utility.yul\":8579:8656   */\n      sub\n        /* \"#utility.yul\":8576:8679   */\n      tag_151\n      jumpi\n        /* \"#utility.yul\":8659:8677   */\n      tag_152\n      tag_50\n      jump\t// in\n    tag_152:\n        /* \"#utility.yul\":8576:8679   */\n    tag_151:\n        /* \"#utility.yul\":8706:8707   */\n      0x01\n        /* \"#utility.yul\":8699:8704   */\n      dup3\n        /* \"#utility.yul\":8695:8708   */\n      add\n        /* \"#utility.yul\":8688:8708   */\n      swap1\n      pop\n        /* \"#utility.yul\":8481:8714   */\n      swap2\n      swap1\n      pop\n      jump\t// out\n\n    auxdata: 0xa26469706673582212204d9cc7cf7a3279a5a69d605d39b70619598e248d7ace78ab3127176d6aa9b8d364736f6c63430008160033\n}\n",
				"bytecode": {
					"linkReferences": {},
					"object": "608060405234801561000f575f80fd5b50335f806101000a81548173ffffffffffffffffffffffffffffffffffffffff021916908373ffffffffffffffffffffffffffffffffffffffff1602179055505f600181905550610678806100635f395ff3fe608060405234801561000f575f80fd5b5060043610610029575f3560e01c8063672385621461002d575b5f80fd5b6100476004803603810190610042919061027e565b610049565b005b5f6040518060a0016040528060015481526020015f60028111156100705761006f6102c5565b5b81526020018381526020014281526020015f151581525090508060025f60015481526020019081526020015f205f820151815f01556020820151816001015f6101000a81548160ff021916908360028111156100cf576100ce6102c5565b5b021790555060408201518160020190816100e991906104ff565b50606082015181600301556080820151816004015f6101000a81548160ff02191690831515021790555090505060015f815480929190610128906105fb565b91905055505050565b5f604051905090565b5f80fd5b5f80fd5b5f80fd5b5f80fd5b5f601f19601f8301169050919050565b7f4e487b71000000000000000000000000000000000000000000000000000000005f52604160045260245ffd5b6101908261014a565b810181811067ffffffffffffffff821117156101af576101ae61015a565b5b80604052505050565b5f6101c1610131565b90506101cd8282610187565b919050565b5f67ffffffffffffffff8211156101ec576101eb61015a565b5b6101f58261014a565b9050602081019050919050565b828183375f83830152505050565b5f61022261021d846101d2565b6101b8565b90508281526020810184848401111561023e5761023d610146565b5b610249848285610202565b509392505050565b5f82601f83011261026557610264610142565b5b8135610275848260208601610210565b91505092915050565b5f602082840312156102935761029261013a565b5b5f82013567ffffffffffffffff8111156102b0576102af61013e565b5b6102bc84828501610251565b91505092915050565b7f4e487b71000000000000000000000000000000000000000000000000000000005f52602160045260245ffd5b5f81519050919050565b7f4e487b71000000000000000000000000000000000000000000000000000000005f52602260045260245ffd5b5f600282049050600182168061034057607f821691505b602082108103610353576103526102fc565b5b50919050565b5f819050815f5260205f209050919050565b5f6020601f8301049050919050565b5f82821b905092915050565b5f600883026103b57fffffffffffffffffffffffffffffffffffffffffffffffffffffffffffffffff8261037a565b6103bf868361037a565b95508019841693508086168417925050509392505050565b5f819050919050565b5f819050919050565b5f6104036103fe6103f9846103d7565b6103e0565b6103d7565b9050919050565b5f819050919050565b61041c836103e9565b6104306104288261040a565b848454610386565b825550505050565b5f90565b610444610438565b61044f818484610413565b505050565b5b81811015610472576104675f8261043c565b600181019050610455565b5050565b601f8211156104b75761048881610359565b6104918461036b565b810160208510156104a0578190505b6104b46104ac8561036b565b830182610454565b50505b505050565b5f82821c905092915050565b5f6104d75f19846008026104bc565b1980831691505092915050565b5f6104ef83836104c8565b9150826002028217905092915050565b610508826102f2565b67ffffffffffffffff8111156105215761052061015a565b5b61052b8254610329565b610536828285610476565b5f60209050601f831160018114610567575f8415610555578287015190505b61055f85826104e4565b8655506105c6565b601f19841661057586610359565b5f5b8281101561059c57848901518255600182019150602085019450602081019050610577565b868310156105b957848901516105b5601f8916826104c8565b8355505b6001600288020188555050505b505050505050565b7f4e487b71000000000000000000000000000000000000000000000000000000005f52601160045260245ffd5b5f610605826103d7565b91507fffffffffffffffffffffffffffffffffffffffffffffffffffffffffffffffff8203610637576106366105ce565b5b60018201905091905056fea26469706673582212204d9cc7cf7a3279a5a69d605d39b70619598e248d7ace78ab3127176d6aa9b8d364736f6c63430008160033",
					"opcodes": "PUSH1 0x80 PUSH1 0x40 MSTORE CALLVALUE DUP1 ISZERO PUSH2 0xF JUMPI PUSH0 DUP1 REVERT JUMPDEST POP CALLER PUSH0 DUP1 PUSH2 0x100 EXP DUP2 SLOAD DUP2 PUSH20 0xFFFFFFFFFFFFFFFFFFFFFFFFFFFFFFFFFFFFFFFF MUL NOT AND SWAP1 DUP4 PUSH20 0xFFFFFFFFFFFFFFFFFFFFFFFFFFFFFFFFFFFFFFFF AND MUL OR SWAP1 SSTORE POP PUSH0 PUSH1 0x1 DUP2 SWAP1 SSTORE POP PUSH2 0x678 DUP1 PUSH2 0x63 PUSH0 CODECOPY PUSH0 RETURN INVALID PUSH1 0x80 PUSH1 0x40 MSTORE CALLVALUE DUP1 ISZERO PUSH2 0xF JUMPI PUSH0 DUP1 REVERT JUMPDEST POP PUSH1 0x4 CALLDATASIZE LT PUSH2 0x29 JUMPI PUSH0 CALLDATALOAD PUSH1 0xE0 SHR DUP1 PUSH4 0x67238562 EQ PUSH2 0x2D JUMPI JUMPDEST PUSH0 DUP1 REVERT JUMPDEST PUSH2 0x47 PUSH1 0x4 DUP1 CALLDATASIZE SUB DUP2 ADD SWAP1 PUSH2 0x42 SWAP2 SWAP1 PUSH2 0x27E JUMP JUMPDEST PUSH2 0x49 JUMP JUMPDEST STOP JUMPDEST PUSH0 PUSH1 0x40 MLOAD DUP1 PUSH1 0xA0 ADD PUSH1 0x40 MSTORE DUP1 PUSH1 0x1 SLOAD DUP2 MSTORE PUSH1 0x20 ADD PUSH0 PUSH1 0x2 DUP2 GT ISZERO PUSH2 0x70 JUMPI PUSH2 0x6F PUSH2 0x2C5 JUMP JUMPDEST JUMPDEST DUP2 MSTORE PUSH1 0x20 ADD DUP4 DUP2 MSTORE PUSH1 0x20 ADD TIMESTAMP DUP2 MSTORE PUSH1 0x20 ADD PUSH0 ISZERO ISZERO DUP2 MSTORE POP SWAP1 POP DUP1 PUSH1 0x2 PUSH0 PUSH1 0x1 SLOAD DUP2 MSTORE PUSH1 0x20 ADD SWAP1 DUP2 MSTORE PUSH1 0x20 ADD PUSH0 KECCAK256 PUSH0 DUP3 ADD MLOAD DUP2 PUSH0 ADD SSTORE PUSH1 0x20 DUP3 ADD MLOAD DUP2 PUSH1 0x1 ADD PUSH0 PUSH2 0x100 EXP DUP2 SLOAD DUP2 PUSH1 0xFF MUL NOT AND SWAP1 DUP4 PUSH1 0x2 DUP2 GT ISZERO PUSH2 0xCF JUMPI PUSH2 0xCE PUSH2 0x2C5 JUMP JUMPDEST JUMPDEST MUL OR SWAP1 SSTORE POP PUSH1 0x40 DUP3 ADD MLOAD DUP2 PUSH1 0x2 ADD SWAP1 DUP2 PUSH2 0xE9 SWAP2 SWAP1 PUSH2 0x4FF JUMP JUMPDEST POP PUSH1 0x60 DUP3 ADD MLOAD DUP2 PUSH1 0x3 ADD SSTORE PUSH1 0x80 DUP3 ADD MLOAD DUP2 PUSH1 0x4 ADD PUSH0 PUSH2 0x100 EXP DUP2 SLOAD DUP2 PUSH1 0xFF MUL NOT AND SWAP1 DUP4 ISZERO ISZERO MUL OR SWAP1 SSTORE POP SWAP1 POP POP PUSH1 0x1 PUSH0 DUP2 SLOAD DUP1 SWAP3 SWAP2 SWAP1 PUSH2 0x128 SWAP1 PUSH2 0x5FB JUMP JUMPDEST SWAP2 SWAP1 POP SSTORE POP POP POP JUMP JUMPDEST PUSH0 PUSH1 0x40 MLOAD SWAP1 POP SWAP1 JUMP JUMPDEST PUSH0 DUP1 REVERT JUMPDEST PUSH0 DUP1 REVERT JUMPDEST PUSH0 DUP1 REVERT JUMPDEST PUSH0 DUP1 REVERT JUMPDEST PUSH0 PUSH1 0x1F NOT PUSH1 0x1F DUP4 ADD AND SWAP1 POP SWAP2 SWAP1 POP JUMP JUMPDEST PUSH32 0x4E487B7100000000000000000000000000000000000000000000000000000000 PUSH0 MSTORE PUSH1 0x41 PUSH1 0x4 MSTORE PUSH1 0x24 PUSH0 REVERT JUMPDEST PUSH2 0x190 DUP3 PUSH2 0x14A JUMP JUMPDEST DUP2 ADD DUP2 DUP2 LT PUSH8 0xFFFFFFFFFFFFFFFF DUP3 GT OR ISZERO PUSH2 0x1AF JUMPI PUSH2 0x1AE PUSH2 0x15A JUMP JUMPDEST JUMPDEST DUP1 PUSH1 0x40 MSTORE POP POP POP JUMP JUMPDEST PUSH0 PUSH2 0x1C1 PUSH2 0x131 JUMP JUMPDEST SWAP1 POP PUSH2 0x1CD DUP3 DUP3 PUSH2 0x187 JUMP JUMPDEST SWAP2 SWAP1 POP JUMP JUMPDEST PUSH0 PUSH8 0xFFFFFFFFFFFFFFFF DUP3 GT ISZERO PUSH2 0x1EC JUMPI PUSH2 0x1EB PUSH2 0x15A JUMP JUMPDEST JUMPDEST PUSH2 0x1F5 DUP3 PUSH2 0x14A JUMP JUMPDEST SWAP1 POP PUSH1 0x20 DUP2 ADD SWAP1 POP SWAP2 SWAP1 POP JUMP JUMPDEST DUP3 DUP2 DUP4 CALLDATACOPY PUSH0 DUP4 DUP4 ADD MSTORE POP POP POP JUMP JUMPDEST PUSH0 PUSH2 0x222 PUSH2 0x21D DUP5 PUSH2 0x1D2 JUMP JUMPDEST PUSH2 0x1B8 JUMP JUMPDEST SWAP1 POP DUP3 DUP2 MSTORE PUSH1 0x20 DUP2 ADD DUP5 DUP5 DUP5 ADD GT ISZERO PUSH2 0x23E JUMPI PUSH2 0x23D PUSH2 0x146 JUMP JUMPDEST JUMPDEST PUSH2 0x249 DUP5 DUP3 DUP6 PUSH2 0x202 JUMP JUMPDEST POP SWAP4 SWAP3 POP POP POP JUMP JUMPDEST PUSH0 DUP3 PUSH1 0x1F DUP4 ADD SLT PUSH2 0x265 JUMPI PUSH2 0x264 PUSH2 0x142 JUMP JUMPDEST JUMPDEST DUP2 CALLDATALOAD PUSH2 0x275 DUP5 DUP3 PUSH1 0x20 DUP7 ADD PUSH2 0x210 JUMP JUMPDEST SWAP2 POP POP SWAP3 SWAP2 POP POP JUMP JUMPDEST PUSH0 PUSH1 0x20 DUP3 DUP5 SUB SLT ISZERO PUSH2 0x293 JUMPI PUSH2 0x292 PUSH2 0x13A JUMP JUMPDEST JUMPDEST PUSH0 DUP3 ADD CALLDATALOAD PUSH8 0xFFFFFFFFFFFFFFFF DUP2 GT ISZERO PUSH2 0x2B0 JUMPI PUSH2 0x2AF PUSH2 0x13E JUMP JUMPDEST JUMPDEST PUSH2 0x2BC DUP5 DUP3 DUP6 ADD PUSH2 0x251 JUMP JUMPDEST SWAP2 POP POP SWAP3 SWAP2 POP POP JUMP JUMPDEST PUSH32 0x4E487B7100000000000000000000000000000000000000000000000000000000 PUSH0 MSTORE PUSH1 0x21 PUSH1 0x4 MSTORE PUSH1 0x24 PUSH0 REVERT JUMPDEST PUSH0 DUP2 MLOAD SWAP1 POP SWAP2 SWAP1 POP JUMP JUMPDEST PUSH32 0x4E487B7100000000000000000000000000000000000000000000000000000000 PUSH0 MSTORE PUSH1 0x22 PUSH1 0x4 MSTORE PUSH1 0x24 PUSH0 REVERT JUMPDEST PUSH0 PUSH1 0x2 DUP3 DIV SWAP1 POP PUSH1 0x1 DUP3 AND DUP1 PUSH2 0x340 JUMPI PUSH1 0x7F DUP3 AND SWAP2 POP JUMPDEST PUSH1 0x20 DUP3 LT DUP2 SUB PUSH2 0x353 JUMPI PUSH2 0x352 PUSH2 0x2FC JUMP JUMPDEST JUMPDEST POP SWAP2 SWAP1 POP JUMP JUMPDEST PUSH0 DUP2 SWAP1 POP DUP2 PUSH0 MSTORE PUSH1 0x20 PUSH0 KECCAK256 SWAP1 POP SWAP2 SWAP1 POP JUMP JUMPDEST PUSH0 PUSH1 0x20 PUSH1 0x1F DUP4 ADD DIV SWAP1 POP SWAP2 SWAP1 POP JUMP JUMPDEST PUSH0 DUP3 DUP3 SHL SWAP1 POP SWAP3 SWAP2 POP POP JUMP JUMPDEST PUSH0 PUSH1 0x8 DUP4 MUL PUSH2 0x3B5 PUSH32 0xFFFFFFFFFFFFFFFFFFFFFFFFFFFFFFFFFFFFFFFFFFFFFFFFFFFFFFFFFFFFFFFF DUP3 PUSH2 0x37A JUMP JUMPDEST PUSH2 0x3BF DUP7 DUP4 PUSH2 0x37A JUMP JUMPDEST SWAP6 POP DUP1 NOT DUP5 AND SWAP4 POP DUP1 DUP7 AND DUP5 OR SWAP3 POP POP POP SWAP4 SWAP3 POP POP POP JUMP JUMPDEST PUSH0 DUP2 SWAP1 POP SWAP2 SWAP1 POP JUMP JUMPDEST PUSH0 DUP2 SWAP1 POP SWAP2 SWAP1 POP JUMP JUMPDEST PUSH0 PUSH2 0x403 PUSH2 0x3FE PUSH2 0x3F9 DUP5 PUSH2 0x3D7 JUMP JUMPDEST PUSH2 0x3E0 JUMP JUMPDEST PUSH2 0x3D7 JUMP JUMPDEST SWAP1 POP SWAP2 SWAP1 POP JUMP JUMPDEST PUSH0 DUP2 SWAP1 POP SWAP2 SWAP1 POP JUMP JUMPDEST PUSH2 0x41C DUP4 PUSH2 0x3E9 JUMP JUMPDEST PUSH2 0x430 PUSH2 0x428 DUP3 PUSH2 0x40A JUMP JUMPDEST DUP5 DUP5 SLOAD PUSH2 0x386 JUMP JUMPDEST DUP3 SSTORE POP POP POP POP JUMP JUMPDEST PUSH0 SWAP1 JUMP JUMPDEST PUSH2 0x444 PUSH2 0x438 JUMP JUMPDEST PUSH2 0x44F DUP2 DUP5 DUP5 PUSH2 0x413 JUMP JUMPDEST POP POP POP JUMP JUMPDEST JUMPDEST DUP2 DUP2 LT ISZERO PUSH2 0x472 JUMPI PUSH2 0x467 PUSH0 DUP3 PUSH2 0x43C JUMP JUMPDEST PUSH1 0x1 DUP2 ADD SWAP1 POP PUSH2 0x455 JUMP JUMPDEST POP POP JUMP JUMPDEST PUSH1 0x1F DUP3 GT ISZERO PUSH2 0x4B7 JUMPI PUSH2 0x488 DUP2 PUSH2 0x359 JUMP JUMPDEST PUSH2 0x491 DUP5 PUSH2 0x36B JUMP JUMPDEST DUP2 ADD PUSH1 0x20 DUP6 LT ISZERO PUSH2 0x4A0 JUMPI DUP2 SWAP1 POP JUMPDEST PUSH2 0x4B4 PUSH2 0x4AC DUP6 PUSH2 0x36B JUMP JUMPDEST DUP4 ADD DUP3 PUSH2 0x454 JUMP JUMPDEST POP POP JUMPDEST POP POP POP JUMP JUMPDEST PUSH0 DUP3 DUP3 SHR SWAP1 POP SWAP3 SWAP2 POP POP JUMP JUMPDEST PUSH0 PUSH2 0x4D7 PUSH0 NOT DUP5 PUSH1 0x8 MUL PUSH2 0x4BC JUMP JUMPDEST NOT DUP1 DUP4 AND SWAP2 POP POP SWAP3 SWAP2 POP POP JUMP JUMPDEST PUSH0 PUSH2 0x4EF DUP4 DUP4 PUSH2 0x4C8 JUMP JUMPDEST SWAP2 POP DUP3 PUSH1 0x2 MUL DUP3 OR SWAP1 POP SWAP3 SWAP2 POP POP JUMP JUMPDEST PUSH2 0x508 DUP3 PUSH2 0x2F2 JUMP JUMPDEST PUSH8 0xFFFFFFFFFFFFFFFF DUP2 GT ISZERO PUSH2 0x521 JUMPI PUSH2 0x520 PUSH2 0x15A JUMP JUMPDEST JUMPDEST PUSH2 0x52B DUP3 SLOAD PUSH2 0x329 JUMP JUMPDEST PUSH2 0x536 DUP3 DUP3 DUP6 PUSH2 0x476 JUMP JUMPDEST PUSH0 PUSH1 0x20 SWAP1 POP PUSH1 0x1F DUP4 GT PUSH1 0x1 DUP2 EQ PUSH2 0x567 JUMPI PUSH0 DUP5 ISZERO PUSH2 0x555 JUMPI DUP3 DUP8 ADD MLOAD SWAP1 POP JUMPDEST PUSH2 0x55F DUP6 DUP3 PUSH2 0x4E4 JUMP JUMPDEST DUP7 SSTORE POP PUSH2 0x5C6 JUMP JUMPDEST PUSH1 0x1F NOT DUP5 AND PUSH2 0x575 DUP7 PUSH2 0x359 JUMP JUMPDEST PUSH0 JUMPDEST DUP3 DUP2 LT ISZERO PUSH2 0x59C JUMPI DUP5 DUP10 ADD MLOAD DUP3 SSTORE PUSH1 0x1 DUP3 ADD SWAP2 POP PUSH1 0x20 DUP6 ADD SWAP5 POP PUSH1 0x20 DUP2 ADD SWAP1 POP PUSH2 0x577 JUMP JUMPDEST DUP7 DUP4 LT ISZERO PUSH2 0x5B9 JUMPI DUP5 DUP10 ADD MLOAD PUSH2 0x5B5 PUSH1 0x1F DUP10 AND DUP3 PUSH2 0x4C8 JUMP JUMPDEST DUP4 SSTORE POP JUMPDEST PUSH1 0x1 PUSH1 0x2 DUP9 MUL ADD DUP9 SSTORE POP POP POP JUMPDEST POP POP POP POP POP POP JUMP JUMPDEST PUSH32 0x4E487B7100000000000000000000000000000000000000000000000000000000 PUSH0 MSTORE PUSH1 0x11 PUSH1 0x4 MSTORE PUSH1 0x24 PUSH0 REVERT JUMPDEST PUSH0 PUSH2 0x605 DUP3 PUSH2 0x3D7 JUMP JUMPDEST SWAP2 POP PUSH32 0xFFFFFFFFFFFFFFFFFFFFFFFFFFFFFFFFFFFFFFFFFFFFFFFFFFFFFFFFFFFFFFFF DUP3 SUB PUSH2 0x637 JUMPI PUSH2 0x636 PUSH2 0x5CE JUMP JUMPDEST JUMPDEST PUSH1 0x1 DUP3 ADD SWAP1 POP SWAP2 SWAP1 POP JUMP INVALID LOG2 PUSH5 0x6970667358 0x22 SLT KECCAK256 0x4D SWAP13 0xC7 0xCF PUSH27 0x3279A5A69D605D39B70619598E248D7ACE78AB3127176D6AA9B8D3 PUSH5 0x736F6C6343 STOP ADDMOD AND STOP CALLER "
				},
				"gasEstimates": {
					"creation": {
						"codeDepositCost": "331200",
						"executionCost": "29644",
						"totalCost": "360844"
					},
					"external": {
						"addTask(string)": "infinite"
					}
				},
				"methodIdentifiers": {
					"addTask(string)": "67238562"
				}
			},
			"storageLayout": {
				"storage": [
					{
						"astId": 19,
						"contract": "contracts/TaskManager.sol:TaskManager",
						"label": "admin",
						"offset": 0,
						"slot": "0",
						"type": "t_address"
					},
					{
						"astId": 21,
						"contract": "contracts/TaskManager.sol:TaskManager",
						"label": "count",
						"offset": 0,
						"slot": "1",
						"type": "t_uint256"
					},
					{
						"astId": 26,
						"contract": "contracts/TaskManager.sol:TaskManager",
						"label": "tasks",
						"offset": 0,
						"slot": "2",
						"type": "t_mapping(t_uint256,t_struct(Task)17_storage)"
					},
					{
						"astId": 30,
						"contract": "contracts/TaskManager.sol:TaskManager",
						"label": "premiums",
						"offset": 0,
						"slot": "3",
						"type": "t_mapping(t_address,t_bool)"
					}
				],
				"types": {
					"t_address": {
						"encoding": "inplace",
						"label": "address",
						"numberOfBytes": "20"
					},
					"t_bool": {
						"encoding": "inplace",
						"label": "bool",
						"numberOfBytes": "1"
					},
					"t_enum(Priority)5": {
						"encoding": "inplace",
						"label": "enum TaskManager.Priority",
						"numberOfBytes": "1"
					},
					"t_mapping(t_address,t_bool)": {
						"encoding": "mapping",
						"key": "t_address",
						"label": "mapping(address => bool)",
						"numberOfBytes": "32",
						"value": "t_bool"
					},
					"t_mapping(t_uint256,t_struct(Task)17_storage)": {
						"encoding": "mapping",
						"key": "t_uint256",
						"label": "mapping(uint256 => struct TaskManager.Task)",
						"numberOfBytes": "32",
						"value": "t_struct(Task)17_storage"
					},
					"t_string_storage": {
						"encoding": "bytes",
						"label": "string",
						"numberOfBytes": "32"
					},
					"t_struct(Task)17_storage": {
						"encoding": "inplace",
						"label": "struct TaskManager.Task",
						"members": [
							{
								"astId": 7,
								"contract": "contracts/TaskManager.sol:TaskManager",
								"label": "id",
								"offset": 0,
								"slot": "0",
								"type": "t_uint256"
							},
							{
								"astId": 10,
								"contract": "contracts/TaskManager.sol:TaskManager",
								"label": "priority",
								"offset": 0,
								"slot": "1",
								"type": "t_enum(Priority)5"
							},
							{
								"astId": 12,
								"contract": "contracts/TaskManager.sol:TaskManager",
								"label": "content",
								"offset": 0,
								"slot": "2",
								"type": "t_string_storage"
							},
							{
								"astId": 14,
								"contract": "contracts/TaskManager.sol:TaskManager",
								"label": "timestamp",
								"offset": 0,
								"slot": "3",
								"type": "t_uint256"
							},
							{
								"astId": 16,
								"contract": "contracts/TaskManager.sol:TaskManager",
								"label": "completed",
								"offset": 0,
								"slot": "4",
								"type": "t_bool"
							}
						],
						"numberOfBytes": "160"
					},
					"t_uint256": {
						"encoding": "inplace",
						"label": "uint256",
						"numberOfBytes": "32"
					}
				}
			},
			"userdoc": {
				"kind": "user",
				"methods": {},
				"version": 1
			}
		}
	}
}