{
	"contracts/TaskManager.sol": {
		"TaskManager": {
			"abi": [
				{
					"inputs": [],
					"stateMutability": "nonpayable",
					"type": "constructor"
				},
				{
					"anonymous": false,
					"inputs": [
						{
							"components": [
								{
									"internalType": "uint256",
									"name": "id",
									"type": "uint256"
								},
								{
									"internalType": "enum TaskManager.Priority",
									"name": "priority",
									"type": "uint8"
								},
								{
									"internalType": "string",
									"name": "content",
									"type": "string"
								},
								{
									"internalType": "uint256",
									"name": "timestamp",
									"type": "uint256"
								},
								{
									"internalType": "bool",
									"name": "completed",
									"type": "bool"
								}
							],
							"indexed": false,
							"internalType": "struct TaskManager.Task",
							"name": "task",
							"type": "tuple"
						},
						{
							"indexed": false,
							"internalType": "uint256",
							"name": "time",
							"type": "uint256"
						}
					],
					"name": "NewTask",
					"type": "event"
				},
				{
					"inputs": [
						{
							"internalType": "string",
							"name": "content",
							"type": "string"
						}
					],
					"name": "addTask",
					"outputs": [],
					"stateMutability": "nonpayable",
					"type": "function"
				},
				{
					"inputs": [
						{
							"internalType": "uint256",
							"name": "_count",
							"type": "uint256"
						}
					],
					"name": "completeTask",
					"outputs": [],
					"stateMutability": "nonpayable",
					"type": "function"
				},
				{
					"inputs": [],
					"name": "getTasksCount",
					"outputs": [
						{
							"internalType": "uint256",
							"name": "",
							"type": "uint256"
						}
					],
					"stateMutability": "view",
					"type": "function"
				},
				{
					"inputs": [],
					"name": "upgradePlan",
					"outputs": [],
					"stateMutability": "payable",
					"type": "function"
				}
			],
			"devdoc": {
				"kind": "dev",
				"methods": {},
				"version": 1
			},
			"evm": {
				"assembly": "    /* \"contracts/TaskManager.sol\":168:1631  contract TaskManager {... */\n  mstore(0x40, 0x80)\n    /* \"contracts/TaskManager.sol\":690:803  constructor(){... */\n  callvalue\n  dup1\n  iszero\n  tag_1\n  jumpi\n  0x00\n  dup1\n  revert\ntag_1:\n  pop\n    /* \"contracts/TaskManager.sol\":722:732  msg.sender */\n  caller\n    /* \"contracts/TaskManager.sol\":714:719  admin */\n  0x00\n  dup1\n    /* \"contracts/TaskManager.sol\":714:732  admin = msg.sender */\n  0x0100\n  exp\n  dup2\n  sload\n  dup2\n  0xffffffffffffffffffffffffffffffffffffffff\n  mul\n  not\n  and\n  swap1\n  dup4\n  0xffffffffffffffffffffffffffffffffffffffff\n  and\n  mul\n  or\n  swap1\n  sstore\n  pop\n    /* \"contracts/TaskManager.sol\":794:795  0 */\n  0x00\n    /* \"contracts/TaskManager.sol\":786:791  count */\n  0x01\n    /* \"contracts/TaskManager.sol\":786:795  count = 0 */\n  dup2\n  swap1\n  sstore\n  pop\n    /* \"contracts/TaskManager.sol\":168:1631  contract TaskManager {... */\n  dataSize(sub_0)\n  dup1\n  dataOffset(sub_0)\n  0x00\n  codecopy\n  0x00\n  return\nstop\n\nsub_0: assembly {\n        /* \"contracts/TaskManager.sol\":168:1631  contract TaskManager {... */\n      mstore(0x40, 0x80)\n      jumpi(tag_1, lt(calldatasize, 0x04))\n      shr(0xe0, calldataload(0x00))\n      dup1\n      0x04fafc6c\n      eq\n      tag_2\n      jumpi\n      dup1\n      0x67238562\n      eq\n      tag_3\n      jumpi\n      dup1\n      0x9f899273\n      eq\n      tag_4\n      jumpi\n      dup1\n      0xe1e29558\n      eq\n      tag_5\n      jumpi\n    tag_1:\n      0x00\n      dup1\n      revert\n        /* \"contracts/TaskManager.sol\":1243:1387  function upgradePlan() public payable {... */\n    tag_2:\n      tag_6\n      tag_7\n      jump\t// in\n    tag_6:\n      stop\n        /* \"contracts/TaskManager.sol\":811:1071  function addTask(string memory content) public {... */\n    tag_3:\n      callvalue\n      dup1\n      iszero\n      tag_8\n      jumpi\n      0x00\n      dup1\n      revert\n    tag_8:\n      pop\n      tag_9\n      0x04\n      dup1\n      calldatasize\n      sub\n      dup2\n      add\n      swap1\n      tag_10\n      swap2\n      swap1\n      tag_11\n      jump\t// in\n    tag_10:\n      tag_12\n      jump\t// in\n    tag_9:\n      stop\n        /* \"contracts/TaskManager.sol\":1537:1620  function getTasksCount() view public returns (uint) {... */\n    tag_4:\n      callvalue\n      dup1\n      iszero\n      tag_13\n      jumpi\n      0x00\n      dup1\n      revert\n    tag_13:\n      pop\n      tag_14\n      tag_15\n      jump\t// in\n    tag_14:\n      mload(0x40)\n      tag_16\n      swap2\n      swap1\n      tag_17\n      jump\t// in\n    tag_16:\n      mload(0x40)\n      dup1\n      swap2\n      sub\n      swap1\n      return\n        /* \"contracts/TaskManager.sol\":1079:1235  function completeTask(uint _count) public {... */\n    tag_5:\n      callvalue\n      dup1\n      iszero\n      tag_18\n      jumpi\n      0x00\n      dup1\n      revert\n    tag_18:\n      pop\n      tag_19\n      0x04\n      dup1\n      calldatasize\n      sub\n      dup2\n      add\n      swap1\n      tag_20\n      swap2\n      swap1\n      tag_21\n      jump\t// in\n    tag_20:\n      tag_22\n      jump\t// in\n    tag_19:\n      stop\n        /* \"contracts/TaskManager.sol\":1243:1387  function upgradePlan() public payable {... */\n    tag_7:\n        /* \"contracts/TaskManager.sol\":1313:1318  5 wei */\n      0x05\n        /* \"contracts/TaskManager.sol\":1300:1309  msg.value */\n      callvalue\n        /* \"contracts/TaskManager.sol\":1300:1318  msg.value >= 5 wei */\n      lt\n      iszero\n        /* \"contracts/TaskManager.sol\":1292:1341  require(msg.value >= 5 wei, 'no sufficient fund') */\n      tag_24\n      jumpi\n      mload(0x40)\n      0x08c379a000000000000000000000000000000000000000000000000000000000\n      dup2\n      mstore\n      0x04\n      add\n      tag_25\n      swap1\n      tag_26\n      jump\t// in\n    tag_25:\n      mload(0x40)\n      dup1\n      swap2\n      sub\n      swap1\n      revert\n    tag_24:\n        /* \"contracts/TaskManager.sol\":1375:1379  true */\n      0x01\n        /* \"contracts/TaskManager.sol\":1352:1360  premiums */\n      0x03\n        /* \"contracts/TaskManager.sol\":1352:1372  premiums[msg.sender] */\n      0x00\n        /* \"contracts/TaskManager.sol\":1361:1371  msg.sender */\n      caller\n        /* \"contracts/TaskManager.sol\":1352:1372  premiums[msg.sender] */\n      0xffffffffffffffffffffffffffffffffffffffff\n      and\n      0xffffffffffffffffffffffffffffffffffffffff\n      and\n      dup2\n      mstore\n      0x20\n      add\n      swap1\n      dup2\n      mstore\n      0x20\n      add\n      0x00\n      keccak256\n      0x00\n        /* \"contracts/TaskManager.sol\":1352:1379  premiums[msg.sender] = true */\n      0x0100\n      exp\n      dup2\n      sload\n      dup2\n      0xff\n      mul\n      not\n      and\n      swap1\n      dup4\n      iszero\n      iszero\n      mul\n      or\n      swap1\n      sstore\n      pop\n        /* \"contracts/TaskManager.sol\":1243:1387  function upgradePlan() public payable {... */\n      jump\t// out\n        /* \"contracts/TaskManager.sol\":811:1071  function addTask(string memory content) public {... */\n    tag_12:\n        /* \"contracts/TaskManager.sol\":869:885  Task memory task */\n      0x00\n        /* \"contracts/TaskManager.sol\":888:946  Task(count, Priority.LOW, content, block.timestamp, false) */\n      mload(0x40)\n      dup1\n      0xa0\n      add\n      0x40\n      mstore\n      dup1\n        /* \"contracts/TaskManager.sol\":893:898  count */\n      sload(0x01)\n        /* \"contracts/TaskManager.sol\":888:946  Task(count, Priority.LOW, content, block.timestamp, false) */\n      dup2\n      mstore\n      0x20\n      add\n        /* \"contracts/TaskManager.sol\":900:912  Priority.LOW */\n      0x00\n        /* \"contracts/TaskManager.sol\":888:946  Task(count, Priority.LOW, content, block.timestamp, false) */\n      0x02\n      dup2\n      gt\n      iszero\n      tag_28\n      jumpi\n      tag_29\n      tag_30\n      jump\t// in\n    tag_29:\n    tag_28:\n      dup2\n      mstore\n      0x20\n      add\n        /* \"contracts/TaskManager.sol\":914:921  content */\n      dup4\n        /* \"contracts/TaskManager.sol\":888:946  Task(count, Priority.LOW, content, block.timestamp, false) */\n      dup2\n      mstore\n      0x20\n      add\n        /* \"contracts/TaskManager.sol\":923:938  block.timestamp */\n      timestamp\n        /* \"contracts/TaskManager.sol\":888:946  Task(count, Priority.LOW, content, block.timestamp, false) */\n      dup2\n      mstore\n      0x20\n      add\n        /* \"contracts/TaskManager.sol\":940:945  false */\n      0x00\n        /* \"contracts/TaskManager.sol\":888:946  Task(count, Priority.LOW, content, block.timestamp, false) */\n      iszero\n      iszero\n      dup2\n      mstore\n      pop\n        /* \"contracts/TaskManager.sol\":869:946  Task memory task = Task(count, Priority.LOW, content, block.timestamp, false) */\n      swap1\n      pop\n        /* \"contracts/TaskManager.sol\":972:976  task */\n      dup1\n        /* \"contracts/TaskManager.sol\":957:962  tasks */\n      0x02\n        /* \"contracts/TaskManager.sol\":957:969  tasks[count] */\n      0x00\n        /* \"contracts/TaskManager.sol\":963:968  count */\n      sload(0x01)\n        /* \"contracts/TaskManager.sol\":957:969  tasks[count] */\n      dup2\n      mstore\n      0x20\n      add\n      swap1\n      dup2\n      mstore\n      0x20\n      add\n      0x00\n      keccak256\n        /* \"contracts/TaskManager.sol\":957:976  tasks[count] = task */\n      0x00\n      dup3\n      add\n      mload\n      dup2\n      0x00\n      add\n      sstore\n      0x20\n      dup3\n      add\n      mload\n      dup2\n      0x01\n      add\n      exp(0x0100, 0x00)\n      dup2\n      sload\n      dup2\n      0xff\n      mul\n      not\n      and\n      swap1\n      dup4\n      0x02\n      dup2\n      gt\n      iszero\n      tag_31\n      jumpi\n      tag_32\n      tag_30\n      jump\t// in\n    tag_32:\n    tag_31:\n      mul\n      or\n      swap1\n      sstore\n      pop\n      0x40\n      dup3\n      add\n      mload\n      dup2\n      0x02\n      add\n      swap1\n      dup2\n      tag_33\n      swap2\n      swap1\n      tag_34\n      jump\t// in\n    tag_33:\n      pop\n      0x60\n      dup3\n      add\n      mload\n      dup2\n      0x03\n      add\n      sstore\n      0x80\n      dup3\n      add\n      mload\n      dup2\n      0x04\n      add\n      exp(0x0100, 0x00)\n      dup2\n      sload\n      dup2\n      0xff\n      mul\n      not\n      and\n      swap1\n      dup4\n      iszero\n      iszero\n      mul\n      or\n      swap1\n      sstore\n      pop\n      swap1\n      pop\n      pop\n        /* \"contracts/TaskManager.sol\":995:1017  SafeMath.add(count, 1) */\n      tag_35\n        /* \"contracts/TaskManager.sol\":1008:1013  count */\n      sload(0x01)\n        /* \"contracts/TaskManager.sol\":1015:1016  1 */\n      0x01\n        /* \"contracts/TaskManager.sol\":995:1007  SafeMath.add */\n      tag_36\n        /* \"contracts/TaskManager.sol\":995:1017  SafeMath.add(count, 1) */\n      jump\t// in\n    tag_35:\n        /* \"contracts/TaskManager.sol\":987:992  count */\n      0x01\n        /* \"contracts/TaskManager.sol\":987:1017  count = SafeMath.add(count, 1) */\n      dup2\n      swap1\n      sstore\n      pop\n        /* \"contracts/TaskManager.sol\":1033:1063  NewTask(task, block.timestamp) */\n      0x615eb1193ab28532b0958952317b9eefb36e49e4a65bc640cf28f2ec9a931771\n        /* \"contracts/TaskManager.sol\":1041:1045  task */\n      dup2\n        /* \"contracts/TaskManager.sol\":1047:1062  block.timestamp */\n      timestamp\n        /* \"contracts/TaskManager.sol\":1033:1063  NewTask(task, block.timestamp) */\n      mload(0x40)\n      tag_37\n      swap3\n      swap2\n      swap1\n      tag_38\n      jump\t// in\n    tag_37:\n      mload(0x40)\n      dup1\n      swap2\n      sub\n      swap1\n      log1\n        /* \"contracts/TaskManager.sol\":858:1071  {... */\n      pop\n        /* \"contracts/TaskManager.sol\":811:1071  function addTask(string memory content) public {... */\n      pop\n      jump\t// out\n        /* \"contracts/TaskManager.sol\":1537:1620  function getTasksCount() view public returns (uint) {... */\n    tag_15:\n        /* \"contracts/TaskManager.sol\":1583:1587  uint */\n      0x00\n        /* \"contracts/TaskManager.sol\":1607:1612  count */\n      sload(0x01)\n        /* \"contracts/TaskManager.sol\":1600:1612  return count */\n      swap1\n      pop\n        /* \"contracts/TaskManager.sol\":1537:1620  function getTasksCount() view public returns (uint) {... */\n      swap1\n      jump\t// out\n        /* \"contracts/TaskManager.sol\":1079:1235  function completeTask(uint _count) public {... */\n    tag_22:\n        /* \"contracts/TaskManager.sol\":1132:1148  Task memory task */\n      0x00\n        /* \"contracts/TaskManager.sol\":1151:1156  tasks */\n      0x02\n        /* \"contracts/TaskManager.sol\":1151:1164  tasks[_count] */\n      0x00\n        /* \"contracts/TaskManager.sol\":1157:1163  _count */\n      dup4\n        /* \"contracts/TaskManager.sol\":1151:1164  tasks[_count] */\n      dup2\n      mstore\n      0x20\n      add\n      swap1\n      dup2\n      mstore\n      0x20\n      add\n      0x00\n      keccak256\n        /* \"contracts/TaskManager.sol\":1132:1164  Task memory task = tasks[_count] */\n      mload(0x40)\n      dup1\n      0xa0\n      add\n      0x40\n      mstore\n      swap1\n      dup2\n      0x00\n      dup3\n      add\n      sload\n      dup2\n      mstore\n      0x20\n      add\n      0x01\n      dup3\n      add\n      0x00\n      swap1\n      sload\n      swap1\n      0x0100\n      exp\n      swap1\n      div\n      0xff\n      and\n      0x02\n      dup2\n      gt\n      iszero\n      tag_41\n      jumpi\n      tag_42\n      tag_30\n      jump\t// in\n    tag_42:\n    tag_41:\n      0x02\n      dup2\n      gt\n      iszero\n      tag_43\n      jumpi\n      tag_44\n      tag_30\n      jump\t// in\n    tag_44:\n    tag_43:\n      dup2\n      mstore\n      0x20\n      add\n      0x02\n      dup3\n      add\n      dup1\n      sload\n      tag_45\n      swap1\n      tag_46\n      jump\t// in\n    tag_45:\n      dup1\n      0x1f\n      add\n      0x20\n      dup1\n      swap2\n      div\n      mul\n      0x20\n      add\n      mload(0x40)\n      swap1\n      dup2\n      add\n      0x40\n      mstore\n      dup1\n      swap3\n      swap2\n      swap1\n      dup2\n      dup2\n      mstore\n      0x20\n      add\n      dup3\n      dup1\n      sload\n      tag_47\n      swap1\n      tag_46\n      jump\t// in\n    tag_47:\n      dup1\n      iszero\n      tag_48\n      jumpi\n      dup1\n      0x1f\n      lt\n      tag_49\n      jumpi\n      0x0100\n      dup1\n      dup4\n      sload\n      div\n      mul\n      dup4\n      mstore\n      swap2\n      0x20\n      add\n      swap2\n      jump(tag_48)\n    tag_49:\n      dup3\n      add\n      swap2\n      swap1\n      0x00\n      mstore\n      keccak256(0x00, 0x20)\n      swap1\n    tag_50:\n      dup2\n      sload\n      dup2\n      mstore\n      swap1\n      0x01\n      add\n      swap1\n      0x20\n      add\n      dup1\n      dup4\n      gt\n      tag_50\n      jumpi\n      dup3\n      swap1\n      sub\n      0x1f\n      and\n      dup3\n      add\n      swap2\n    tag_48:\n      pop\n      pop\n      pop\n      pop\n      pop\n      dup2\n      mstore\n      0x20\n      add\n      0x03\n      dup3\n      add\n      sload\n      dup2\n      mstore\n      0x20\n      add\n      0x04\n      dup3\n      add\n      0x00\n      swap1\n      sload\n      swap1\n      0x0100\n      exp\n      swap1\n      div\n      0xff\n      and\n      iszero\n      iszero\n      iszero\n      iszero\n      dup2\n      mstore\n      pop\n      pop\n      swap1\n      pop\n        /* \"contracts/TaskManager.sol\":1192:1196  true */\n      0x01\n        /* \"contracts/TaskManager.sol\":1175:1179  task */\n      dup2\n        /* \"contracts/TaskManager.sol\":1175:1189  task.completed */\n      0x80\n      add\n        /* \"contracts/TaskManager.sol\":1175:1196  task.completed = true */\n      swap1\n      iszero\n      iszero\n      swap1\n      dup2\n      iszero\n      iszero\n      dup2\n      mstore\n      pop\n      pop\n        /* \"contracts/TaskManager.sol\":1223:1227  task */\n      dup1\n        /* \"contracts/TaskManager.sol\":1207:1212  tasks */\n      0x02\n        /* \"contracts/TaskManager.sol\":1207:1220  tasks[_count] */\n      0x00\n        /* \"contracts/TaskManager.sol\":1213:1219  _count */\n      dup5\n        /* \"contracts/TaskManager.sol\":1207:1220  tasks[_count] */\n      dup2\n      mstore\n      0x20\n      add\n      swap1\n      dup2\n      mstore\n      0x20\n      add\n      0x00\n      keccak256\n        /* \"contracts/TaskManager.sol\":1207:1227  tasks[_count] = task */\n      0x00\n      dup3\n      add\n      mload\n      dup2\n      0x00\n      add\n      sstore\n      0x20\n      dup3\n      add\n      mload\n      dup2\n      0x01\n      add\n      exp(0x0100, 0x00)\n      dup2\n      sload\n      dup2\n      0xff\n      mul\n      not\n      and\n      swap1\n      dup4\n      0x02\n      dup2\n      gt\n      iszero\n      tag_51\n      jumpi\n      tag_52\n      tag_30\n      jump\t// in\n    tag_52:\n    tag_51:\n      mul\n      or\n      swap1\n      sstore\n      pop\n      0x40\n      dup3\n      add\n      mload\n      dup2\n      0x02\n      add\n      swap1\n      dup2\n      tag_53\n      swap2\n      swap1\n      tag_34\n      jump\t// in\n    tag_53:\n      pop\n      0x60\n      dup3\n      add\n      mload\n      dup2\n      0x03\n      add\n      sstore\n      0x80\n      dup3\n      add\n      mload\n      dup2\n      0x04\n      add\n      exp(0x0100, 0x00)\n      dup2\n      sload\n      dup2\n      0xff\n      mul\n      not\n      and\n      swap1\n      dup4\n      iszero\n      iszero\n      mul\n      or\n      swap1\n      sstore\n      pop\n      swap1\n      pop\n      pop\n        /* \"contracts/TaskManager.sol\":1121:1235  {... */\n      pop\n        /* \"contracts/TaskManager.sol\":1079:1235  function completeTask(uint _count) public {... */\n      pop\n      jump\t// out\n        /* \"https://github.com/mdexSwap/contracts/blob/master/contracts/library/SafeMath.sol\":318:494  function add(uint256 a, uint256 b) internal pure returns (uint256) {... */\n    tag_36:\n        /* \"https://github.com/mdexSwap/contracts/blob/master/contracts/library/SafeMath.sol\":376:383  uint256 */\n      0x00\n        /* \"https://github.com/mdexSwap/contracts/blob/master/contracts/library/SafeMath.sol\":395:404  uint256 c */\n      dup1\n        /* \"https://github.com/mdexSwap/contracts/blob/master/contracts/library/SafeMath.sol\":411:412  b */\n      dup3\n        /* \"https://github.com/mdexSwap/contracts/blob/master/contracts/library/SafeMath.sol\":407:408  a */\n      dup5\n        /* \"https://github.com/mdexSwap/contracts/blob/master/contracts/library/SafeMath.sol\":407:412  a + b */\n      tag_55\n      swap2\n      swap1\n      tag_56\n      jump\t// in\n    tag_55:\n        /* \"https://github.com/mdexSwap/contracts/blob/master/contracts/library/SafeMath.sol\":395:412  uint256 c = a + b */\n      swap1\n      pop\n        /* \"https://github.com/mdexSwap/contracts/blob/master/contracts/library/SafeMath.sol\":435:436  a */\n      dup4\n        /* \"https://github.com/mdexSwap/contracts/blob/master/contracts/library/SafeMath.sol\":430:431  c */\n      dup2\n        /* \"https://github.com/mdexSwap/contracts/blob/master/contracts/library/SafeMath.sol\":430:436  c >= a */\n      lt\n      iszero\n        /* \"https://github.com/mdexSwap/contracts/blob/master/contracts/library/SafeMath.sol\":422:468  require(c >= a, \"SafeMath: addition overflow\") */\n      tag_57\n      jumpi\n      mload(0x40)\n      0x08c379a000000000000000000000000000000000000000000000000000000000\n      dup2\n      mstore\n      0x04\n      add\n      tag_58\n      swap1\n      tag_59\n      jump\t// in\n    tag_58:\n      mload(0x40)\n      dup1\n      swap2\n      sub\n      swap1\n      revert\n    tag_57:\n        /* \"https://github.com/mdexSwap/contracts/blob/master/contracts/library/SafeMath.sol\":486:487  c */\n      dup1\n        /* \"https://github.com/mdexSwap/contracts/blob/master/contracts/library/SafeMath.sol\":479:487  return c */\n      swap2\n      pop\n      pop\n        /* \"https://github.com/mdexSwap/contracts/blob/master/contracts/library/SafeMath.sol\":318:494  function add(uint256 a, uint256 b) internal pure returns (uint256) {... */\n      swap3\n      swap2\n      pop\n      pop\n      jump\t// out\n        /* \"#utility.yul\":7:82   */\n    tag_60:\n        /* \"#utility.yul\":40:46   */\n      0x00\n        /* \"#utility.yul\":73:75   */\n      0x40\n        /* \"#utility.yul\":67:76   */\n      mload\n        /* \"#utility.yul\":57:76   */\n      swap1\n      pop\n        /* \"#utility.yul\":7:82   */\n      swap1\n      jump\t// out\n        /* \"#utility.yul\":88:205   */\n    tag_61:\n        /* \"#utility.yul\":197:198   */\n      0x00\n        /* \"#utility.yul\":194:195   */\n      dup1\n        /* \"#utility.yul\":187:199   */\n      revert\n        /* \"#utility.yul\":211:328   */\n    tag_62:\n        /* \"#utility.yul\":320:321   */\n      0x00\n        /* \"#utility.yul\":317:318   */\n      dup1\n        /* \"#utility.yul\":310:322   */\n      revert\n        /* \"#utility.yul\":334:451   */\n    tag_63:\n        /* \"#utility.yul\":443:444   */\n      0x00\n        /* \"#utility.yul\":440:441   */\n      dup1\n        /* \"#utility.yul\":433:445   */\n      revert\n        /* \"#utility.yul\":457:574   */\n    tag_64:\n        /* \"#utility.yul\":566:567   */\n      0x00\n        /* \"#utility.yul\":563:564   */\n      dup1\n        /* \"#utility.yul\":556:568   */\n      revert\n        /* \"#utility.yul\":580:682   */\n    tag_65:\n        /* \"#utility.yul\":621:627   */\n      0x00\n        /* \"#utility.yul\":672:674   */\n      0x1f\n        /* \"#utility.yul\":668:675   */\n      not\n        /* \"#utility.yul\":663:665   */\n      0x1f\n        /* \"#utility.yul\":656:661   */\n      dup4\n        /* \"#utility.yul\":652:666   */\n      add\n        /* \"#utility.yul\":648:676   */\n      and\n        /* \"#utility.yul\":638:676   */\n      swap1\n      pop\n        /* \"#utility.yul\":580:682   */\n      swap2\n      swap1\n      pop\n      jump\t// out\n        /* \"#utility.yul\":688:868   */\n    tag_66:\n        /* \"#utility.yul\":736:813   */\n      0x4e487b7100000000000000000000000000000000000000000000000000000000\n        /* \"#utility.yul\":733:734   */\n      0x00\n        /* \"#utility.yul\":726:814   */\n      mstore\n        /* \"#utility.yul\":833:837   */\n      0x41\n        /* \"#utility.yul\":830:831   */\n      0x04\n        /* \"#utility.yul\":823:838   */\n      mstore\n        /* \"#utility.yul\":857:861   */\n      0x24\n        /* \"#utility.yul\":854:855   */\n      0x00\n        /* \"#utility.yul\":847:862   */\n      revert\n        /* \"#utility.yul\":874:1155   */\n    tag_67:\n        /* \"#utility.yul\":957:984   */\n      tag_120\n        /* \"#utility.yul\":979:983   */\n      dup3\n        /* \"#utility.yul\":957:984   */\n      tag_65\n      jump\t// in\n    tag_120:\n        /* \"#utility.yul\":949:955   */\n      dup2\n        /* \"#utility.yul\":945:985   */\n      add\n        /* \"#utility.yul\":1087:1093   */\n      dup2\n        /* \"#utility.yul\":1075:1085   */\n      dup2\n        /* \"#utility.yul\":1072:1094   */\n      lt\n        /* \"#utility.yul\":1051:1069   */\n      0xffffffffffffffff\n        /* \"#utility.yul\":1039:1049   */\n      dup3\n        /* \"#utility.yul\":1036:1070   */\n      gt\n        /* \"#utility.yul\":1033:1095   */\n      or\n        /* \"#utility.yul\":1030:1118   */\n      iszero\n      tag_121\n      jumpi\n        /* \"#utility.yul\":1098:1116   */\n      tag_122\n      tag_66\n      jump\t// in\n    tag_122:\n        /* \"#utility.yul\":1030:1118   */\n    tag_121:\n        /* \"#utility.yul\":1138:1148   */\n      dup1\n        /* \"#utility.yul\":1134:1136   */\n      0x40\n        /* \"#utility.yul\":1127:1149   */\n      mstore\n        /* \"#utility.yul\":917:1155   */\n      pop\n        /* \"#utility.yul\":874:1155   */\n      pop\n      pop\n      jump\t// out\n        /* \"#utility.yul\":1161:1290   */\n    tag_68:\n        /* \"#utility.yul\":1195:1201   */\n      0x00\n        /* \"#utility.yul\":1222:1242   */\n      tag_124\n      tag_60\n      jump\t// in\n    tag_124:\n        /* \"#utility.yul\":1212:1242   */\n      swap1\n      pop\n        /* \"#utility.yul\":1251:1284   */\n      tag_125\n        /* \"#utility.yul\":1279:1283   */\n      dup3\n        /* \"#utility.yul\":1271:1277   */\n      dup3\n        /* \"#utility.yul\":1251:1284   */\n      tag_67\n      jump\t// in\n    tag_125:\n        /* \"#utility.yul\":1161:1290   */\n      swap2\n      swap1\n      pop\n      jump\t// out\n        /* \"#utility.yul\":1296:1604   */\n    tag_69:\n        /* \"#utility.yul\":1358:1362   */\n      0x00\n        /* \"#utility.yul\":1448:1466   */\n      0xffffffffffffffff\n        /* \"#utility.yul\":1440:1446   */\n      dup3\n        /* \"#utility.yul\":1437:1467   */\n      gt\n        /* \"#utility.yul\":1434:1490   */\n      iszero\n      tag_127\n      jumpi\n        /* \"#utility.yul\":1470:1488   */\n      tag_128\n      tag_66\n      jump\t// in\n    tag_128:\n        /* \"#utility.yul\":1434:1490   */\n    tag_127:\n        /* \"#utility.yul\":1508:1537   */\n      tag_129\n        /* \"#utility.yul\":1530:1536   */\n      dup3\n        /* \"#utility.yul\":1508:1537   */\n      tag_65\n      jump\t// in\n    tag_129:\n        /* \"#utility.yul\":1500:1537   */\n      swap1\n      pop\n        /* \"#utility.yul\":1592:1596   */\n      0x20\n        /* \"#utility.yul\":1586:1590   */\n      dup2\n        /* \"#utility.yul\":1582:1597   */\n      add\n        /* \"#utility.yul\":1574:1597   */\n      swap1\n      pop\n        /* \"#utility.yul\":1296:1604   */\n      swap2\n      swap1\n      pop\n      jump\t// out\n        /* \"#utility.yul\":1610:1756   */\n    tag_70:\n        /* \"#utility.yul\":1707:1713   */\n      dup3\n        /* \"#utility.yul\":1702:1705   */\n      dup2\n        /* \"#utility.yul\":1697:1700   */\n      dup4\n        /* \"#utility.yul\":1684:1714   */\n      calldatacopy\n        /* \"#utility.yul\":1748:1749   */\n      0x00\n        /* \"#utility.yul\":1739:1745   */\n      dup4\n        /* \"#utility.yul\":1734:1737   */\n      dup4\n        /* \"#utility.yul\":1730:1746   */\n      add\n        /* \"#utility.yul\":1723:1750   */\n      mstore\n        /* \"#utility.yul\":1610:1756   */\n      pop\n      pop\n      pop\n      jump\t// out\n        /* \"#utility.yul\":1762:2187   */\n    tag_71:\n        /* \"#utility.yul\":1840:1845   */\n      0x00\n        /* \"#utility.yul\":1865:1931   */\n      tag_132\n        /* \"#utility.yul\":1881:1930   */\n      tag_133\n        /* \"#utility.yul\":1923:1929   */\n      dup5\n        /* \"#utility.yul\":1881:1930   */\n      tag_69\n      jump\t// in\n    tag_133:\n        /* \"#utility.yul\":1865:1931   */\n      tag_68\n      jump\t// in\n    tag_132:\n        /* \"#utility.yul\":1856:1931   */\n      swap1\n      pop\n        /* \"#utility.yul\":1954:1960   */\n      dup3\n        /* \"#utility.yul\":1947:1952   */\n      dup2\n        /* \"#utility.yul\":1940:1961   */\n      mstore\n        /* \"#utility.yul\":1992:1996   */\n      0x20\n        /* \"#utility.yul\":1985:1990   */\n      dup2\n        /* \"#utility.yul\":1981:1997   */\n      add\n        /* \"#utility.yul\":2030:2033   */\n      dup5\n        /* \"#utility.yul\":2021:2027   */\n      dup5\n        /* \"#utility.yul\":2016:2019   */\n      dup5\n        /* \"#utility.yul\":2012:2028   */\n      add\n        /* \"#utility.yul\":2009:2034   */\n      gt\n        /* \"#utility.yul\":2006:2118   */\n      iszero\n      tag_134\n      jumpi\n        /* \"#utility.yul\":2037:2116   */\n      tag_135\n      tag_64\n      jump\t// in\n    tag_135:\n        /* \"#utility.yul\":2006:2118   */\n    tag_134:\n        /* \"#utility.yul\":2127:2181   */\n      tag_136\n        /* \"#utility.yul\":2174:2180   */\n      dup5\n        /* \"#utility.yul\":2169:2172   */\n      dup3\n        /* \"#utility.yul\":2164:2167   */\n      dup6\n        /* \"#utility.yul\":2127:2181   */\n      tag_70\n      jump\t// in\n    tag_136:\n        /* \"#utility.yul\":1846:2187   */\n      pop\n        /* \"#utility.yul\":1762:2187   */\n      swap4\n      swap3\n      pop\n      pop\n      pop\n      jump\t// out\n        /* \"#utility.yul\":2207:2547   */\n    tag_72:\n        /* \"#utility.yul\":2263:2268   */\n      0x00\n        /* \"#utility.yul\":2312:2315   */\n      dup3\n        /* \"#utility.yul\":2305:2309   */\n      0x1f\n        /* \"#utility.yul\":2297:2303   */\n      dup4\n        /* \"#utility.yul\":2293:2310   */\n      add\n        /* \"#utility.yul\":2289:2316   */\n      slt\n        /* \"#utility.yul\":2279:2401   */\n      tag_138\n      jumpi\n        /* \"#utility.yul\":2320:2399   */\n      tag_139\n      tag_63\n      jump\t// in\n    tag_139:\n        /* \"#utility.yul\":2279:2401   */\n    tag_138:\n        /* \"#utility.yul\":2437:2443   */\n      dup2\n        /* \"#utility.yul\":2424:2444   */\n      calldataload\n        /* \"#utility.yul\":2462:2541   */\n      tag_140\n        /* \"#utility.yul\":2537:2540   */\n      dup5\n        /* \"#utility.yul\":2529:2535   */\n      dup3\n        /* \"#utility.yul\":2522:2526   */\n      0x20\n        /* \"#utility.yul\":2514:2520   */\n      dup7\n        /* \"#utility.yul\":2510:2527   */\n      add\n        /* \"#utility.yul\":2462:2541   */\n      tag_71\n      jump\t// in\n    tag_140:\n        /* \"#utility.yul\":2453:2541   */\n      swap2\n      pop\n        /* \"#utility.yul\":2269:2547   */\n      pop\n        /* \"#utility.yul\":2207:2547   */\n      swap3\n      swap2\n      pop\n      pop\n      jump\t// out\n        /* \"#utility.yul\":2553:3062   */\n    tag_11:\n        /* \"#utility.yul\":2622:2628   */\n      0x00\n        /* \"#utility.yul\":2671:2673   */\n      0x20\n        /* \"#utility.yul\":2659:2668   */\n      dup3\n        /* \"#utility.yul\":2650:2657   */\n      dup5\n        /* \"#utility.yul\":2646:2669   */\n      sub\n        /* \"#utility.yul\":2642:2674   */\n      slt\n        /* \"#utility.yul\":2639:2758   */\n      iszero\n      tag_142\n      jumpi\n        /* \"#utility.yul\":2677:2756   */\n      tag_143\n      tag_61\n      jump\t// in\n    tag_143:\n        /* \"#utility.yul\":2639:2758   */\n    tag_142:\n        /* \"#utility.yul\":2825:2826   */\n      0x00\n        /* \"#utility.yul\":2814:2823   */\n      dup3\n        /* \"#utility.yul\":2810:2827   */\n      add\n        /* \"#utility.yul\":2797:2828   */\n      calldataload\n        /* \"#utility.yul\":2855:2873   */\n      0xffffffffffffffff\n        /* \"#utility.yul\":2847:2853   */\n      dup2\n        /* \"#utility.yul\":2844:2874   */\n      gt\n        /* \"#utility.yul\":2841:2958   */\n      iszero\n      tag_144\n      jumpi\n        /* \"#utility.yul\":2877:2956   */\n      tag_145\n      tag_62\n      jump\t// in\n    tag_145:\n        /* \"#utility.yul\":2841:2958   */\n    tag_144:\n        /* \"#utility.yul\":2982:3045   */\n      tag_146\n        /* \"#utility.yul\":3037:3044   */\n      dup5\n        /* \"#utility.yul\":3028:3034   */\n      dup3\n        /* \"#utility.yul\":3017:3026   */\n      dup6\n        /* \"#utility.yul\":3013:3035   */\n      add\n        /* \"#utility.yul\":2982:3045   */\n      tag_72\n      jump\t// in\n    tag_146:\n        /* \"#utility.yul\":2972:3045   */\n      swap2\n      pop\n        /* \"#utility.yul\":2768:3055   */\n      pop\n        /* \"#utility.yul\":2553:3062   */\n      swap3\n      swap2\n      pop\n      pop\n      jump\t// out\n        /* \"#utility.yul\":3068:3145   */\n    tag_73:\n        /* \"#utility.yul\":3105:3112   */\n      0x00\n        /* \"#utility.yul\":3134:3139   */\n      dup2\n        /* \"#utility.yul\":3123:3139   */\n      swap1\n      pop\n        /* \"#utility.yul\":3068:3145   */\n      swap2\n      swap1\n      pop\n      jump\t// out\n        /* \"#utility.yul\":3151:3269   */\n    tag_74:\n        /* \"#utility.yul\":3238:3262   */\n      tag_149\n        /* \"#utility.yul\":3256:3261   */\n      dup2\n        /* \"#utility.yul\":3238:3262   */\n      tag_73\n      jump\t// in\n    tag_149:\n        /* \"#utility.yul\":3233:3236   */\n      dup3\n        /* \"#utility.yul\":3226:3263   */\n      mstore\n        /* \"#utility.yul\":3151:3269   */\n      pop\n      pop\n      jump\t// out\n        /* \"#utility.yul\":3275:3497   */\n    tag_17:\n        /* \"#utility.yul\":3368:3372   */\n      0x00\n        /* \"#utility.yul\":3406:3408   */\n      0x20\n        /* \"#utility.yul\":3395:3404   */\n      dup3\n        /* \"#utility.yul\":3391:3409   */\n      add\n        /* \"#utility.yul\":3383:3409   */\n      swap1\n      pop\n        /* \"#utility.yul\":3419:3490   */\n      tag_151\n        /* \"#utility.yul\":3487:3488   */\n      0x00\n        /* \"#utility.yul\":3476:3485   */\n      dup4\n        /* \"#utility.yul\":3472:3489   */\n      add\n        /* \"#utility.yul\":3463:3469   */\n      dup5\n        /* \"#utility.yul\":3419:3490   */\n      tag_74\n      jump\t// in\n    tag_151:\n        /* \"#utility.yul\":3275:3497   */\n      swap3\n      swap2\n      pop\n      pop\n      jump\t// out\n        /* \"#utility.yul\":3503:3625   */\n    tag_75:\n        /* \"#utility.yul\":3576:3600   */\n      tag_153\n        /* \"#utility.yul\":3594:3599   */\n      dup2\n        /* \"#utility.yul\":3576:3600   */\n      tag_73\n      jump\t// in\n    tag_153:\n        /* \"#utility.yul\":3569:3574   */\n      dup2\n        /* \"#utility.yul\":3566:3601   */\n      eq\n        /* \"#utility.yul\":3556:3619   */\n      tag_154\n      jumpi\n        /* \"#utility.yul\":3615:3616   */\n      0x00\n        /* \"#utility.yul\":3612:3613   */\n      dup1\n        /* \"#utility.yul\":3605:3617   */\n      revert\n        /* \"#utility.yul\":3556:3619   */\n    tag_154:\n        /* \"#utility.yul\":3503:3625   */\n      pop\n      jump\t// out\n        /* \"#utility.yul\":3631:3770   */\n    tag_76:\n        /* \"#utility.yul\":3677:3682   */\n      0x00\n        /* \"#utility.yul\":3715:3721   */\n      dup2\n        /* \"#utility.yul\":3702:3722   */\n      calldataload\n        /* \"#utility.yul\":3693:3722   */\n      swap1\n      pop\n        /* \"#utility.yul\":3731:3764   */\n      tag_156\n        /* \"#utility.yul\":3758:3763   */\n      dup2\n        /* \"#utility.yul\":3731:3764   */\n      tag_75\n      jump\t// in\n    tag_156:\n        /* \"#utility.yul\":3631:3770   */\n      swap3\n      swap2\n      pop\n      pop\n      jump\t// out\n        /* \"#utility.yul\":3776:4105   */\n    tag_21:\n        /* \"#utility.yul\":3835:3841   */\n      0x00\n        /* \"#utility.yul\":3884:3886   */\n      0x20\n        /* \"#utility.yul\":3872:3881   */\n      dup3\n        /* \"#utility.yul\":3863:3870   */\n      dup5\n        /* \"#utility.yul\":3859:3882   */\n      sub\n        /* \"#utility.yul\":3855:3887   */\n      slt\n        /* \"#utility.yul\":3852:3971   */\n      iszero\n      tag_158\n      jumpi\n        /* \"#utility.yul\":3890:3969   */\n      tag_159\n      tag_61\n      jump\t// in\n    tag_159:\n        /* \"#utility.yul\":3852:3971   */\n    tag_158:\n        /* \"#utility.yul\":4010:4011   */\n      0x00\n        /* \"#utility.yul\":4035:4088   */\n      tag_160\n        /* \"#utility.yul\":4080:4087   */\n      dup5\n        /* \"#utility.yul\":4071:4077   */\n      dup3\n        /* \"#utility.yul\":4060:4069   */\n      dup6\n        /* \"#utility.yul\":4056:4078   */\n      add\n        /* \"#utility.yul\":4035:4088   */\n      tag_76\n      jump\t// in\n    tag_160:\n        /* \"#utility.yul\":4025:4088   */\n      swap2\n      pop\n        /* \"#utility.yul\":3981:4098   */\n      pop\n        /* \"#utility.yul\":3776:4105   */\n      swap3\n      swap2\n      pop\n      pop\n      jump\t// out\n        /* \"#utility.yul\":4111:4280   */\n    tag_77:\n        /* \"#utility.yul\":4195:4206   */\n      0x00\n        /* \"#utility.yul\":4229:4235   */\n      dup3\n        /* \"#utility.yul\":4224:4227   */\n      dup3\n        /* \"#utility.yul\":4217:4236   */\n      mstore\n        /* \"#utility.yul\":4269:4273   */\n      0x20\n        /* \"#utility.yul\":4264:4267   */\n      dup3\n        /* \"#utility.yul\":4260:4274   */\n      add\n        /* \"#utility.yul\":4245:4274   */\n      swap1\n      pop\n        /* \"#utility.yul\":4111:4280   */\n      swap3\n      swap2\n      pop\n      pop\n      jump\t// out\n        /* \"#utility.yul\":4286:4454   */\n    tag_78:\n        /* \"#utility.yul\":4426:4446   */\n      0x6e6f2073756666696369656e742066756e640000000000000000000000000000\n        /* \"#utility.yul\":4422:4423   */\n      0x00\n        /* \"#utility.yul\":4414:4420   */\n      dup3\n        /* \"#utility.yul\":4410:4424   */\n      add\n        /* \"#utility.yul\":4403:4447   */\n      mstore\n        /* \"#utility.yul\":4286:4454   */\n      pop\n      jump\t// out\n        /* \"#utility.yul\":4460:4826   */\n    tag_79:\n        /* \"#utility.yul\":4602:4605   */\n      0x00\n        /* \"#utility.yul\":4623:4690   */\n      tag_164\n        /* \"#utility.yul\":4687:4689   */\n      0x12\n        /* \"#utility.yul\":4682:4685   */\n      dup4\n        /* \"#utility.yul\":4623:4690   */\n      tag_77\n      jump\t// in\n    tag_164:\n        /* \"#utility.yul\":4616:4690   */\n      swap2\n      pop\n        /* \"#utility.yul\":4699:4792   */\n      tag_165\n        /* \"#utility.yul\":4788:4791   */\n      dup3\n        /* \"#utility.yul\":4699:4792   */\n      tag_78\n      jump\t// in\n    tag_165:\n        /* \"#utility.yul\":4817:4819   */\n      0x20\n        /* \"#utility.yul\":4812:4815   */\n      dup3\n        /* \"#utility.yul\":4808:4820   */\n      add\n        /* \"#utility.yul\":4801:4820   */\n      swap1\n      pop\n        /* \"#utility.yul\":4460:4826   */\n      swap2\n      swap1\n      pop\n      jump\t// out\n        /* \"#utility.yul\":4832:5251   */\n    tag_26:\n        /* \"#utility.yul\":4998:5002   */\n      0x00\n        /* \"#utility.yul\":5036:5038   */\n      0x20\n        /* \"#utility.yul\":5025:5034   */\n      dup3\n        /* \"#utility.yul\":5021:5039   */\n      add\n        /* \"#utility.yul\":5013:5039   */\n      swap1\n      pop\n        /* \"#utility.yul\":5085:5094   */\n      dup2\n        /* \"#utility.yul\":5079:5083   */\n      dup2\n        /* \"#utility.yul\":5075:5095   */\n      sub\n        /* \"#utility.yul\":5071:5072   */\n      0x00\n        /* \"#utility.yul\":5060:5069   */\n      dup4\n        /* \"#utility.yul\":5056:5073   */\n      add\n        /* \"#utility.yul\":5049:5096   */\n      mstore\n        /* \"#utility.yul\":5113:5244   */\n      tag_167\n        /* \"#utility.yul\":5239:5243   */\n      dup2\n        /* \"#utility.yul\":5113:5244   */\n      tag_79\n      jump\t// in\n    tag_167:\n        /* \"#utility.yul\":5105:5244   */\n      swap1\n      pop\n        /* \"#utility.yul\":4832:5251   */\n      swap2\n      swap1\n      pop\n      jump\t// out\n        /* \"#utility.yul\":5257:5437   */\n    tag_30:\n        /* \"#utility.yul\":5305:5382   */\n      0x4e487b7100000000000000000000000000000000000000000000000000000000\n        /* \"#utility.yul\":5302:5303   */\n      0x00\n        /* \"#utility.yul\":5295:5383   */\n      mstore\n        /* \"#utility.yul\":5402:5406   */\n      0x21\n        /* \"#utility.yul\":5399:5400   */\n      0x04\n        /* \"#utility.yul\":5392:5407   */\n      mstore\n        /* \"#utility.yul\":5426:5430   */\n      0x24\n        /* \"#utility.yul\":5423:5424   */\n      0x00\n        /* \"#utility.yul\":5416:5431   */\n      revert\n        /* \"#utility.yul\":5443:5542   */\n    tag_80:\n        /* \"#utility.yul\":5495:5501   */\n      0x00\n        /* \"#utility.yul\":5529:5534   */\n      dup2\n        /* \"#utility.yul\":5523:5535   */\n      mload\n        /* \"#utility.yul\":5513:5535   */\n      swap1\n      pop\n        /* \"#utility.yul\":5443:5542   */\n      swap2\n      swap1\n      pop\n      jump\t// out\n        /* \"#utility.yul\":5548:5728   */\n    tag_81:\n        /* \"#utility.yul\":5596:5673   */\n      0x4e487b7100000000000000000000000000000000000000000000000000000000\n        /* \"#utility.yul\":5593:5594   */\n      0x00\n        /* \"#utility.yul\":5586:5674   */\n      mstore\n        /* \"#utility.yul\":5693:5697   */\n      0x22\n        /* \"#utility.yul\":5690:5691   */\n      0x04\n        /* \"#utility.yul\":5683:5698   */\n      mstore\n        /* \"#utility.yul\":5717:5721   */\n      0x24\n        /* \"#utility.yul\":5714:5715   */\n      0x00\n        /* \"#utility.yul\":5707:5722   */\n      revert\n        /* \"#utility.yul\":5734:6054   */\n    tag_46:\n        /* \"#utility.yul\":5778:5784   */\n      0x00\n        /* \"#utility.yul\":5815:5816   */\n      0x02\n        /* \"#utility.yul\":5809:5813   */\n      dup3\n        /* \"#utility.yul\":5805:5817   */\n      div\n        /* \"#utility.yul\":5795:5817   */\n      swap1\n      pop\n        /* \"#utility.yul\":5862:5863   */\n      0x01\n        /* \"#utility.yul\":5856:5860   */\n      dup3\n        /* \"#utility.yul\":5852:5864   */\n      and\n        /* \"#utility.yul\":5883:5901   */\n      dup1\n        /* \"#utility.yul\":5873:5954   */\n      tag_172\n      jumpi\n        /* \"#utility.yul\":5939:5943   */\n      0x7f\n        /* \"#utility.yul\":5931:5937   */\n      dup3\n        /* \"#utility.yul\":5927:5944   */\n      and\n        /* \"#utility.yul\":5917:5944   */\n      swap2\n      pop\n        /* \"#utility.yul\":5873:5954   */\n    tag_172:\n        /* \"#utility.yul\":6001:6003   */\n      0x20\n        /* \"#utility.yul\":5993:5999   */\n      dup3\n        /* \"#utility.yul\":5990:6004   */\n      lt\n        /* \"#utility.yul\":5970:5988   */\n      dup2\n        /* \"#utility.yul\":5967:6005   */\n      sub\n        /* \"#utility.yul\":5964:6048   */\n      tag_173\n      jumpi\n        /* \"#utility.yul\":6020:6038   */\n      tag_174\n      tag_81\n      jump\t// in\n    tag_174:\n        /* \"#utility.yul\":5964:6048   */\n    tag_173:\n        /* \"#utility.yul\":5785:6054   */\n      pop\n        /* \"#utility.yul\":5734:6054   */\n      swap2\n      swap1\n      pop\n      jump\t// out\n        /* \"#utility.yul\":6060:6201   */\n    tag_82:\n        /* \"#utility.yul\":6109:6113   */\n      0x00\n        /* \"#utility.yul\":6132:6135   */\n      dup2\n        /* \"#utility.yul\":6124:6135   */\n      swap1\n      pop\n        /* \"#utility.yul\":6155:6158   */\n      dup2\n        /* \"#utility.yul\":6152:6153   */\n      0x00\n        /* \"#utility.yul\":6145:6159   */\n      mstore\n        /* \"#utility.yul\":6189:6193   */\n      0x20\n        /* \"#utility.yul\":6186:6187   */\n      0x00\n        /* \"#utility.yul\":6176:6194   */\n      keccak256\n        /* \"#utility.yul\":6168:6194   */\n      swap1\n      pop\n        /* \"#utility.yul\":6060:6201   */\n      swap2\n      swap1\n      pop\n      jump\t// out\n        /* \"#utility.yul\":6207:6300   */\n    tag_83:\n        /* \"#utility.yul\":6244:6250   */\n      0x00\n        /* \"#utility.yul\":6291:6293   */\n      0x20\n        /* \"#utility.yul\":6286:6288   */\n      0x1f\n        /* \"#utility.yul\":6279:6284   */\n      dup4\n        /* \"#utility.yul\":6275:6289   */\n      add\n        /* \"#utility.yul\":6271:6294   */\n      div\n        /* \"#utility.yul\":6261:6294   */\n      swap1\n      pop\n        /* \"#utility.yul\":6207:6300   */\n      swap2\n      swap1\n      pop\n      jump\t// out\n        /* \"#utility.yul\":6306:6413   */\n    tag_84:\n        /* \"#utility.yul\":6350:6358   */\n      0x00\n        /* \"#utility.yul\":6400:6405   */\n      dup3\n        /* \"#utility.yul\":6394:6398   */\n      dup3\n        /* \"#utility.yul\":6390:6406   */\n      shl\n        /* \"#utility.yul\":6369:6406   */\n      swap1\n      pop\n        /* \"#utility.yul\":6306:6413   */\n      swap3\n      swap2\n      pop\n      pop\n      jump\t// out\n        /* \"#utility.yul\":6419:6812   */\n    tag_85:\n        /* \"#utility.yul\":6488:6494   */\n      0x00\n        /* \"#utility.yul\":6538:6539   */\n      0x08\n        /* \"#utility.yul\":6526:6536   */\n      dup4\n        /* \"#utility.yul\":6522:6540   */\n      mul\n        /* \"#utility.yul\":6561:6658   */\n      tag_179\n        /* \"#utility.yul\":6591:6657   */\n      0xffffffffffffffffffffffffffffffffffffffffffffffffffffffffffffffff\n        /* \"#utility.yul\":6580:6589   */\n      dup3\n        /* \"#utility.yul\":6561:6658   */\n      tag_84\n      jump\t// in\n    tag_179:\n        /* \"#utility.yul\":6679:6718   */\n      tag_180\n        /* \"#utility.yul\":6709:6717   */\n      dup7\n        /* \"#utility.yul\":6698:6707   */\n      dup4\n        /* \"#utility.yul\":6679:6718   */\n      tag_84\n      jump\t// in\n    tag_180:\n        /* \"#utility.yul\":6667:6718   */\n      swap6\n      pop\n        /* \"#utility.yul\":6751:6755   */\n      dup1\n        /* \"#utility.yul\":6747:6756   */\n      not\n        /* \"#utility.yul\":6740:6745   */\n      dup5\n        /* \"#utility.yul\":6736:6757   */\n      and\n        /* \"#utility.yul\":6727:6757   */\n      swap4\n      pop\n        /* \"#utility.yul\":6800:6804   */\n      dup1\n        /* \"#utility.yul\":6790:6798   */\n      dup7\n        /* \"#utility.yul\":6786:6805   */\n      and\n        /* \"#utility.yul\":6779:6784   */\n      dup5\n        /* \"#utility.yul\":6776:6806   */\n      or\n        /* \"#utility.yul\":6766:6806   */\n      swap3\n      pop\n        /* \"#utility.yul\":6495:6812   */\n      pop\n      pop\n        /* \"#utility.yul\":6419:6812   */\n      swap4\n      swap3\n      pop\n      pop\n      pop\n      jump\t// out\n        /* \"#utility.yul\":6818:6878   */\n    tag_86:\n        /* \"#utility.yul\":6846:6849   */\n      0x00\n        /* \"#utility.yul\":6867:6872   */\n      dup2\n        /* \"#utility.yul\":6860:6872   */\n      swap1\n      pop\n        /* \"#utility.yul\":6818:6878   */\n      swap2\n      swap1\n      pop\n      jump\t// out\n        /* \"#utility.yul\":6884:7026   */\n    tag_87:\n        /* \"#utility.yul\":6934:6943   */\n      0x00\n        /* \"#utility.yul\":6967:7020   */\n      tag_183\n        /* \"#utility.yul\":6985:7019   */\n      tag_184\n        /* \"#utility.yul\":6994:7018   */\n      tag_185\n        /* \"#utility.yul\":7012:7017   */\n      dup5\n        /* \"#utility.yul\":6994:7018   */\n      tag_73\n      jump\t// in\n    tag_185:\n        /* \"#utility.yul\":6985:7019   */\n      tag_86\n      jump\t// in\n    tag_184:\n        /* \"#utility.yul\":6967:7020   */\n      tag_73\n      jump\t// in\n    tag_183:\n        /* \"#utility.yul\":6954:7020   */\n      swap1\n      pop\n        /* \"#utility.yul\":6884:7026   */\n      swap2\n      swap1\n      pop\n      jump\t// out\n        /* \"#utility.yul\":7032:7107   */\n    tag_88:\n        /* \"#utility.yul\":7075:7078   */\n      0x00\n        /* \"#utility.yul\":7096:7101   */\n      dup2\n        /* \"#utility.yul\":7089:7101   */\n      swap1\n      pop\n        /* \"#utility.yul\":7032:7107   */\n      swap2\n      swap1\n      pop\n      jump\t// out\n        /* \"#utility.yul\":7113:7382   */\n    tag_89:\n        /* \"#utility.yul\":7223:7262   */\n      tag_188\n        /* \"#utility.yul\":7254:7261   */\n      dup4\n        /* \"#utility.yul\":7223:7262   */\n      tag_87\n      jump\t// in\n    tag_188:\n        /* \"#utility.yul\":7284:7375   */\n      tag_189\n        /* \"#utility.yul\":7333:7374   */\n      tag_190\n        /* \"#utility.yul\":7357:7373   */\n      dup3\n        /* \"#utility.yul\":7333:7374   */\n      tag_88\n      jump\t// in\n    tag_190:\n        /* \"#utility.yul\":7325:7331   */\n      dup5\n        /* \"#utility.yul\":7318:7322   */\n      dup5\n        /* \"#utility.yul\":7312:7323   */\n      sload\n        /* \"#utility.yul\":7284:7375   */\n      tag_85\n      jump\t// in\n    tag_189:\n        /* \"#utility.yul\":7278:7282   */\n      dup3\n        /* \"#utility.yul\":7271:7376   */\n      sstore\n        /* \"#utility.yul\":7189:7382   */\n      pop\n        /* \"#utility.yul\":7113:7382   */\n      pop\n      pop\n      pop\n      jump\t// out\n        /* \"#utility.yul\":7388:7461   */\n    tag_90:\n        /* \"#utility.yul\":7433:7436   */\n      0x00\n        /* \"#utility.yul\":7388:7461   */\n      swap1\n      jump\t// out\n        /* \"#utility.yul\":7467:7656   */\n    tag_91:\n        /* \"#utility.yul\":7544:7576   */\n      tag_193\n      tag_90\n      jump\t// in\n    tag_193:\n        /* \"#utility.yul\":7585:7650   */\n      tag_194\n        /* \"#utility.yul\":7643:7649   */\n      dup2\n        /* \"#utility.yul\":7635:7641   */\n      dup5\n        /* \"#utility.yul\":7629:7633   */\n      dup5\n        /* \"#utility.yul\":7585:7650   */\n      tag_89\n      jump\t// in\n    tag_194:\n        /* \"#utility.yul\":7520:7656   */\n      pop\n        /* \"#utility.yul\":7467:7656   */\n      pop\n      pop\n      jump\t// out\n        /* \"#utility.yul\":7662:7848   */\n    tag_92:\n        /* \"#utility.yul\":7722:7842   */\n    tag_196:\n        /* \"#utility.yul\":7739:7742   */\n      dup2\n        /* \"#utility.yul\":7732:7737   */\n      dup2\n        /* \"#utility.yul\":7729:7743   */\n      lt\n        /* \"#utility.yul\":7722:7842   */\n      iszero\n      tag_198\n      jumpi\n        /* \"#utility.yul\":7793:7832   */\n      tag_199\n        /* \"#utility.yul\":7830:7831   */\n      0x00\n        /* \"#utility.yul\":7823:7828   */\n      dup3\n        /* \"#utility.yul\":7793:7832   */\n      tag_91\n      jump\t// in\n    tag_199:\n        /* \"#utility.yul\":7766:7767   */\n      0x01\n        /* \"#utility.yul\":7759:7764   */\n      dup2\n        /* \"#utility.yul\":7755:7768   */\n      add\n        /* \"#utility.yul\":7746:7768   */\n      swap1\n      pop\n        /* \"#utility.yul\":7722:7842   */\n      jump(tag_196)\n    tag_198:\n        /* \"#utility.yul\":7662:7848   */\n      pop\n      pop\n      jump\t// out\n        /* \"#utility.yul\":7854:8397   */\n    tag_93:\n        /* \"#utility.yul\":7955:7957   */\n      0x1f\n        /* \"#utility.yul\":7950:7953   */\n      dup3\n        /* \"#utility.yul\":7947:7958   */\n      gt\n        /* \"#utility.yul\":7944:8390   */\n      iszero\n      tag_201\n      jumpi\n        /* \"#utility.yul\":7989:8027   */\n      tag_202\n        /* \"#utility.yul\":8021:8026   */\n      dup2\n        /* \"#utility.yul\":7989:8027   */\n      tag_82\n      jump\t// in\n    tag_202:\n        /* \"#utility.yul\":8073:8102   */\n      tag_203\n        /* \"#utility.yul\":8091:8101   */\n      dup5\n        /* \"#utility.yul\":8073:8102   */\n      tag_83\n      jump\t// in\n    tag_203:\n        /* \"#utility.yul\":8063:8071   */\n      dup2\n        /* \"#utility.yul\":8059:8103   */\n      add\n        /* \"#utility.yul\":8256:8258   */\n      0x20\n        /* \"#utility.yul\":8244:8254   */\n      dup6\n        /* \"#utility.yul\":8241:8259   */\n      lt\n        /* \"#utility.yul\":8238:8287   */\n      iszero\n      tag_204\n      jumpi\n        /* \"#utility.yul\":8277:8285   */\n      dup2\n        /* \"#utility.yul\":8262:8285   */\n      swap1\n      pop\n        /* \"#utility.yul\":8238:8287   */\n    tag_204:\n        /* \"#utility.yul\":8300:8380   */\n      tag_205\n        /* \"#utility.yul\":8356:8378   */\n      tag_206\n        /* \"#utility.yul\":8374:8377   */\n      dup6\n        /* \"#utility.yul\":8356:8378   */\n      tag_83\n      jump\t// in\n    tag_206:\n        /* \"#utility.yul\":8346:8354   */\n      dup4\n        /* \"#utility.yul\":8342:8379   */\n      add\n        /* \"#utility.yul\":8329:8340   */\n      dup3\n        /* \"#utility.yul\":8300:8380   */\n      tag_92\n      jump\t// in\n    tag_205:\n        /* \"#utility.yul\":7959:8390   */\n      pop\n      pop\n        /* \"#utility.yul\":7944:8390   */\n    tag_201:\n        /* \"#utility.yul\":7854:8397   */\n      pop\n      pop\n      pop\n      jump\t// out\n        /* \"#utility.yul\":8403:8520   */\n    tag_94:\n        /* \"#utility.yul\":8457:8465   */\n      0x00\n        /* \"#utility.yul\":8507:8512   */\n      dup3\n        /* \"#utility.yul\":8501:8505   */\n      dup3\n        /* \"#utility.yul\":8497:8513   */\n      shr\n        /* \"#utility.yul\":8476:8513   */\n      swap1\n      pop\n        /* \"#utility.yul\":8403:8520   */\n      swap3\n      swap2\n      pop\n      pop\n      jump\t// out\n        /* \"#utility.yul\":8526:8695   */\n    tag_95:\n        /* \"#utility.yul\":8570:8576   */\n      0x00\n        /* \"#utility.yul\":8603:8654   */\n      tag_209\n        /* \"#utility.yul\":8651:8652   */\n      0x00\n        /* \"#utility.yul\":8647:8653   */\n      not\n        /* \"#utility.yul\":8639:8644   */\n      dup5\n        /* \"#utility.yul\":8636:8637   */\n      0x08\n        /* \"#utility.yul\":8632:8645   */\n      mul\n        /* \"#utility.yul\":8603:8654   */\n      tag_94\n      jump\t// in\n    tag_209:\n        /* \"#utility.yul\":8599:8655   */\n      not\n        /* \"#utility.yul\":8684:8688   */\n      dup1\n        /* \"#utility.yul\":8678:8682   */\n      dup4\n        /* \"#utility.yul\":8674:8689   */\n      and\n        /* \"#utility.yul\":8664:8689   */\n      swap2\n      pop\n        /* \"#utility.yul\":8577:8695   */\n      pop\n        /* \"#utility.yul\":8526:8695   */\n      swap3\n      swap2\n      pop\n      pop\n      jump\t// out\n        /* \"#utility.yul\":8700:8995   */\n    tag_96:\n        /* \"#utility.yul\":8776:8780   */\n      0x00\n        /* \"#utility.yul\":8922:8951   */\n      tag_211\n        /* \"#utility.yul\":8947:8950   */\n      dup4\n        /* \"#utility.yul\":8941:8945   */\n      dup4\n        /* \"#utility.yul\":8922:8951   */\n      tag_95\n      jump\t// in\n    tag_211:\n        /* \"#utility.yul\":8914:8951   */\n      swap2\n      pop\n        /* \"#utility.yul\":8984:8987   */\n      dup3\n        /* \"#utility.yul\":8981:8982   */\n      0x02\n        /* \"#utility.yul\":8977:8988   */\n      mul\n        /* \"#utility.yul\":8971:8975   */\n      dup3\n        /* \"#utility.yul\":8968:8989   */\n      or\n        /* \"#utility.yul\":8960:8989   */\n      swap1\n      pop\n        /* \"#utility.yul\":8700:8995   */\n      swap3\n      swap2\n      pop\n      pop\n      jump\t// out\n        /* \"#utility.yul\":9000:10395   */\n    tag_34:\n        /* \"#utility.yul\":9117:9154   */\n      tag_213\n        /* \"#utility.yul\":9150:9153   */\n      dup3\n        /* \"#utility.yul\":9117:9154   */\n      tag_80\n      jump\t// in\n    tag_213:\n        /* \"#utility.yul\":9219:9237   */\n      0xffffffffffffffff\n        /* \"#utility.yul\":9211:9217   */\n      dup2\n        /* \"#utility.yul\":9208:9238   */\n      gt\n        /* \"#utility.yul\":9205:9261   */\n      iszero\n      tag_214\n      jumpi\n        /* \"#utility.yul\":9241:9259   */\n      tag_215\n      tag_66\n      jump\t// in\n    tag_215:\n        /* \"#utility.yul\":9205:9261   */\n    tag_214:\n        /* \"#utility.yul\":9285:9323   */\n      tag_216\n        /* \"#utility.yul\":9317:9321   */\n      dup3\n        /* \"#utility.yul\":9311:9322   */\n      sload\n        /* \"#utility.yul\":9285:9323   */\n      tag_46\n      jump\t// in\n    tag_216:\n        /* \"#utility.yul\":9370:9437   */\n      tag_217\n        /* \"#utility.yul\":9430:9436   */\n      dup3\n        /* \"#utility.yul\":9422:9428   */\n      dup3\n        /* \"#utility.yul\":9416:9420   */\n      dup6\n        /* \"#utility.yul\":9370:9437   */\n      tag_93\n      jump\t// in\n    tag_217:\n        /* \"#utility.yul\":9464:9465   */\n      0x00\n        /* \"#utility.yul\":9488:9492   */\n      0x20\n        /* \"#utility.yul\":9475:9492   */\n      swap1\n      pop\n        /* \"#utility.yul\":9520:9522   */\n      0x1f\n        /* \"#utility.yul\":9512:9518   */\n      dup4\n        /* \"#utility.yul\":9509:9523   */\n      gt\n        /* \"#utility.yul\":9537:9538   */\n      0x01\n        /* \"#utility.yul\":9532:10150   */\n      dup2\n      eq\n      tag_219\n      jumpi\n        /* \"#utility.yul\":10194:10195   */\n      0x00\n        /* \"#utility.yul\":10211:10217   */\n      dup5\n        /* \"#utility.yul\":10208:10285   */\n      iszero\n      tag_220\n      jumpi\n        /* \"#utility.yul\":10260:10269   */\n      dup3\n        /* \"#utility.yul\":10255:10258   */\n      dup8\n        /* \"#utility.yul\":10251:10270   */\n      add\n        /* \"#utility.yul\":10245:10271   */\n      mload\n        /* \"#utility.yul\":10236:10271   */\n      swap1\n      pop\n        /* \"#utility.yul\":10208:10285   */\n    tag_220:\n        /* \"#utility.yul\":10311:10378   */\n      tag_221\n        /* \"#utility.yul\":10371:10377   */\n      dup6\n        /* \"#utility.yul\":10364:10369   */\n      dup3\n        /* \"#utility.yul\":10311:10378   */\n      tag_96\n      jump\t// in\n    tag_221:\n        /* \"#utility.yul\":10305:10309   */\n      dup7\n        /* \"#utility.yul\":10298:10379   */\n      sstore\n        /* \"#utility.yul\":10167:10389   */\n      pop\n        /* \"#utility.yul\":9502:10389   */\n      jump(tag_218)\n        /* \"#utility.yul\":9532:10150   */\n    tag_219:\n        /* \"#utility.yul\":9584:9588   */\n      0x1f\n        /* \"#utility.yul\":9580:9589   */\n      not\n        /* \"#utility.yul\":9572:9578   */\n      dup5\n        /* \"#utility.yul\":9568:9590   */\n      and\n        /* \"#utility.yul\":9618:9655   */\n      tag_222\n        /* \"#utility.yul\":9650:9654   */\n      dup7\n        /* \"#utility.yul\":9618:9655   */\n      tag_82\n      jump\t// in\n    tag_222:\n        /* \"#utility.yul\":9677:9678   */\n      0x00\n        /* \"#utility.yul\":9691:9899   */\n    tag_223:\n        /* \"#utility.yul\":9705:9712   */\n      dup3\n        /* \"#utility.yul\":9702:9703   */\n      dup2\n        /* \"#utility.yul\":9699:9713   */\n      lt\n        /* \"#utility.yul\":9691:9899   */\n      iszero\n      tag_225\n      jumpi\n        /* \"#utility.yul\":9784:9793   */\n      dup5\n        /* \"#utility.yul\":9779:9782   */\n      dup10\n        /* \"#utility.yul\":9775:9794   */\n      add\n        /* \"#utility.yul\":9769:9795   */\n      mload\n        /* \"#utility.yul\":9761:9767   */\n      dup3\n        /* \"#utility.yul\":9754:9796   */\n      sstore\n        /* \"#utility.yul\":9835:9836   */\n      0x01\n        /* \"#utility.yul\":9827:9833   */\n      dup3\n        /* \"#utility.yul\":9823:9837   */\n      add\n        /* \"#utility.yul\":9813:9837   */\n      swap2\n      pop\n        /* \"#utility.yul\":9882:9884   */\n      0x20\n        /* \"#utility.yul\":9871:9880   */\n      dup6\n        /* \"#utility.yul\":9867:9885   */\n      add\n        /* \"#utility.yul\":9854:9885   */\n      swap5\n      pop\n        /* \"#utility.yul\":9728:9732   */\n      0x20\n        /* \"#utility.yul\":9725:9726   */\n      dup2\n        /* \"#utility.yul\":9721:9733   */\n      add\n        /* \"#utility.yul\":9716:9733   */\n      swap1\n      pop\n        /* \"#utility.yul\":9691:9899   */\n      jump(tag_223)\n    tag_225:\n        /* \"#utility.yul\":9927:9933   */\n      dup7\n        /* \"#utility.yul\":9918:9925   */\n      dup4\n        /* \"#utility.yul\":9915:9934   */\n      lt\n        /* \"#utility.yul\":9912:10091   */\n      iszero\n      tag_226\n      jumpi\n        /* \"#utility.yul\":9985:9994   */\n      dup5\n        /* \"#utility.yul\":9980:9983   */\n      dup10\n        /* \"#utility.yul\":9976:9995   */\n      add\n        /* \"#utility.yul\":9970:9996   */\n      mload\n        /* \"#utility.yul\":10028:10076   */\n      tag_227\n        /* \"#utility.yul\":10070:10074   */\n      0x1f\n        /* \"#utility.yul\":10062:10068   */\n      dup10\n        /* \"#utility.yul\":10058:10075   */\n      and\n        /* \"#utility.yul\":10047:10056   */\n      dup3\n        /* \"#utility.yul\":10028:10076   */\n      tag_95\n      jump\t// in\n    tag_227:\n        /* \"#utility.yul\":10020:10026   */\n      dup4\n        /* \"#utility.yul\":10013:10077   */\n      sstore\n        /* \"#utility.yul\":9935:10091   */\n      pop\n        /* \"#utility.yul\":9912:10091   */\n    tag_226:\n        /* \"#utility.yul\":10137:10138   */\n      0x01\n        /* \"#utility.yul\":10133:10134   */\n      0x02\n        /* \"#utility.yul\":10125:10131   */\n      dup9\n        /* \"#utility.yul\":10121:10135   */\n      mul\n        /* \"#utility.yul\":10117:10139   */\n      add\n        /* \"#utility.yul\":10111:10115   */\n      dup9\n        /* \"#utility.yul\":10104:10140   */\n      sstore\n        /* \"#utility.yul\":9539:10150   */\n      pop\n      pop\n      pop\n        /* \"#utility.yul\":9502:10389   */\n    tag_218:\n      pop\n        /* \"#utility.yul\":9092:10395   */\n      pop\n      pop\n      pop\n        /* \"#utility.yul\":9000:10395   */\n      pop\n      pop\n      jump\t// out\n        /* \"#utility.yul\":10401:10509   */\n    tag_97:\n        /* \"#utility.yul\":10478:10502   */\n      tag_229\n        /* \"#utility.yul\":10496:10501   */\n      dup2\n        /* \"#utility.yul\":10478:10502   */\n      tag_73\n      jump\t// in\n    tag_229:\n        /* \"#utility.yul\":10473:10476   */\n      dup3\n        /* \"#utility.yul\":10466:10503   */\n      mstore\n        /* \"#utility.yul\":10401:10509   */\n      pop\n      pop\n      jump\t// out\n        /* \"#utility.yul\":10515:10630   */\n    tag_98:\n        /* \"#utility.yul\":10598:10599   */\n      0x03\n        /* \"#utility.yul\":10591:10596   */\n      dup2\n        /* \"#utility.yul\":10588:10600   */\n      lt\n        /* \"#utility.yul\":10578:10624   */\n      tag_231\n      jumpi\n        /* \"#utility.yul\":10604:10622   */\n      tag_232\n      tag_30\n      jump\t// in\n    tag_232:\n        /* \"#utility.yul\":10578:10624   */\n    tag_231:\n        /* \"#utility.yul\":10515:10630   */\n      pop\n      jump\t// out\n        /* \"#utility.yul\":10636:10767   */\n    tag_99:\n        /* \"#utility.yul\":10683:10690   */\n      0x00\n        /* \"#utility.yul\":10712:10717   */\n      dup2\n        /* \"#utility.yul\":10701:10717   */\n      swap1\n      pop\n        /* \"#utility.yul\":10718:10761   */\n      tag_234\n        /* \"#utility.yul\":10755:10760   */\n      dup3\n        /* \"#utility.yul\":10718:10761   */\n      tag_98\n      jump\t// in\n    tag_234:\n        /* \"#utility.yul\":10636:10767   */\n      swap2\n      swap1\n      pop\n      jump\t// out\n        /* \"#utility.yul\":10773:10904   */\n    tag_100:\n        /* \"#utility.yul\":10831:10840   */\n      0x00\n        /* \"#utility.yul\":10864:10898   */\n      tag_236\n        /* \"#utility.yul\":10892:10897   */\n      dup3\n        /* \"#utility.yul\":10864:10898   */\n      tag_99\n      jump\t// in\n    tag_236:\n        /* \"#utility.yul\":10851:10898   */\n      swap1\n      pop\n        /* \"#utility.yul\":10773:10904   */\n      swap2\n      swap1\n      pop\n      jump\t// out\n        /* \"#utility.yul\":10910:11047   */\n    tag_101:\n        /* \"#utility.yul\":10995:11040   */\n      tag_238\n        /* \"#utility.yul\":11034:11039   */\n      dup2\n        /* \"#utility.yul\":10995:11040   */\n      tag_100\n      jump\t// in\n    tag_238:\n        /* \"#utility.yul\":10990:10993   */\n      dup3\n        /* \"#utility.yul\":10983:11041   */\n      mstore\n        /* \"#utility.yul\":10910:11047   */\n      pop\n      pop\n      jump\t// out\n        /* \"#utility.yul\":11053:11212   */\n    tag_102:\n        /* \"#utility.yul\":11127:11138   */\n      0x00\n        /* \"#utility.yul\":11161:11167   */\n      dup3\n        /* \"#utility.yul\":11156:11159   */\n      dup3\n        /* \"#utility.yul\":11149:11168   */\n      mstore\n        /* \"#utility.yul\":11201:11205   */\n      0x20\n        /* \"#utility.yul\":11196:11199   */\n      dup3\n        /* \"#utility.yul\":11192:11206   */\n      add\n        /* \"#utility.yul\":11177:11206   */\n      swap1\n      pop\n        /* \"#utility.yul\":11053:11212   */\n      swap3\n      swap2\n      pop\n      pop\n      jump\t// out\n        /* \"#utility.yul\":11218:11464   */\n    tag_103:\n        /* \"#utility.yul\":11299:11300   */\n      0x00\n        /* \"#utility.yul\":11309:11422   */\n    tag_241:\n        /* \"#utility.yul\":11323:11329   */\n      dup4\n        /* \"#utility.yul\":11320:11321   */\n      dup2\n        /* \"#utility.yul\":11317:11330   */\n      lt\n        /* \"#utility.yul\":11309:11422   */\n      iszero\n      tag_243\n      jumpi\n        /* \"#utility.yul\":11408:11409   */\n      dup1\n        /* \"#utility.yul\":11403:11406   */\n      dup3\n        /* \"#utility.yul\":11399:11410   */\n      add\n        /* \"#utility.yul\":11393:11411   */\n      mload\n        /* \"#utility.yul\":11389:11390   */\n      dup2\n        /* \"#utility.yul\":11384:11387   */\n      dup5\n        /* \"#utility.yul\":11380:11391   */\n      add\n        /* \"#utility.yul\":11373:11412   */\n      mstore\n        /* \"#utility.yul\":11345:11347   */\n      0x20\n        /* \"#utility.yul\":11342:11343   */\n      dup2\n        /* \"#utility.yul\":11338:11348   */\n      add\n        /* \"#utility.yul\":11333:11348   */\n      swap1\n      pop\n        /* \"#utility.yul\":11309:11422   */\n      jump(tag_241)\n    tag_243:\n        /* \"#utility.yul\":11456:11457   */\n      0x00\n        /* \"#utility.yul\":11447:11453   */\n      dup5\n        /* \"#utility.yul\":11442:11445   */\n      dup5\n        /* \"#utility.yul\":11438:11454   */\n      add\n        /* \"#utility.yul\":11431:11458   */\n      mstore\n        /* \"#utility.yul\":11280:11464   */\n      pop\n        /* \"#utility.yul\":11218:11464   */\n      pop\n      pop\n      pop\n      jump\t// out\n        /* \"#utility.yul\":11470:11827   */\n    tag_104:\n        /* \"#utility.yul\":11548:11551   */\n      0x00\n        /* \"#utility.yul\":11576:11615   */\n      tag_245\n        /* \"#utility.yul\":11609:11614   */\n      dup3\n        /* \"#utility.yul\":11576:11615   */\n      tag_80\n      jump\t// in\n    tag_245:\n        /* \"#utility.yul\":11631:11692   */\n      tag_246\n        /* \"#utility.yul\":11685:11691   */\n      dup2\n        /* \"#utility.yul\":11680:11683   */\n      dup6\n        /* \"#utility.yul\":11631:11692   */\n      tag_102\n      jump\t// in\n    tag_246:\n        /* \"#utility.yul\":11624:11692   */\n      swap4\n      pop\n        /* \"#utility.yul\":11701:11766   */\n      tag_247\n        /* \"#utility.yul\":11759:11765   */\n      dup2\n        /* \"#utility.yul\":11754:11757   */\n      dup6\n        /* \"#utility.yul\":11747:11751   */\n      0x20\n        /* \"#utility.yul\":11740:11745   */\n      dup7\n        /* \"#utility.yul\":11736:11752   */\n      add\n        /* \"#utility.yul\":11701:11766   */\n      tag_103\n      jump\t// in\n    tag_247:\n        /* \"#utility.yul\":11791:11820   */\n      tag_248\n        /* \"#utility.yul\":11813:11819   */\n      dup2\n        /* \"#utility.yul\":11791:11820   */\n      tag_65\n      jump\t// in\n    tag_248:\n        /* \"#utility.yul\":11786:11789   */\n      dup5\n        /* \"#utility.yul\":11782:11821   */\n      add\n        /* \"#utility.yul\":11775:11821   */\n      swap2\n      pop\n        /* \"#utility.yul\":11552:11827   */\n      pop\n        /* \"#utility.yul\":11470:11827   */\n      swap3\n      swap2\n      pop\n      pop\n      jump\t// out\n        /* \"#utility.yul\":11833:11923   */\n    tag_105:\n        /* \"#utility.yul\":11867:11874   */\n      0x00\n        /* \"#utility.yul\":11910:11915   */\n      dup2\n        /* \"#utility.yul\":11903:11916   */\n      iszero\n        /* \"#utility.yul\":11896:11917   */\n      iszero\n        /* \"#utility.yul\":11885:11917   */\n      swap1\n      pop\n        /* \"#utility.yul\":11833:11923   */\n      swap2\n      swap1\n      pop\n      jump\t// out\n        /* \"#utility.yul\":11929:12028   */\n    tag_106:\n        /* \"#utility.yul\":12000:12021   */\n      tag_251\n        /* \"#utility.yul\":12015:12020   */\n      dup2\n        /* \"#utility.yul\":12000:12021   */\n      tag_105\n      jump\t// in\n    tag_251:\n        /* \"#utility.yul\":11995:11998   */\n      dup3\n        /* \"#utility.yul\":11988:12022   */\n      mstore\n        /* \"#utility.yul\":11929:12028   */\n      pop\n      pop\n      jump\t// out\n        /* \"#utility.yul\":12092:13227   */\n    tag_107:\n        /* \"#utility.yul\":12201:12204   */\n      0x00\n        /* \"#utility.yul\":12237:12241   */\n      0xa0\n        /* \"#utility.yul\":12232:12235   */\n      dup4\n        /* \"#utility.yul\":12228:12242   */\n      add\n        /* \"#utility.yul\":12322:12326   */\n      0x00\n        /* \"#utility.yul\":12315:12320   */\n      dup4\n        /* \"#utility.yul\":12311:12327   */\n      add\n        /* \"#utility.yul\":12305:12328   */\n      mload\n        /* \"#utility.yul\":12341:12404   */\n      tag_253\n        /* \"#utility.yul\":12398:12402   */\n      0x00\n        /* \"#utility.yul\":12393:12396   */\n      dup7\n        /* \"#utility.yul\":12389:12403   */\n      add\n        /* \"#utility.yul\":12375:12387   */\n      dup3\n        /* \"#utility.yul\":12341:12404   */\n      tag_97\n      jump\t// in\n    tag_253:\n        /* \"#utility.yul\":12252:12414   */\n      pop\n        /* \"#utility.yul\":12500:12504   */\n      0x20\n        /* \"#utility.yul\":12493:12498   */\n      dup4\n        /* \"#utility.yul\":12489:12505   */\n      add\n        /* \"#utility.yul\":12483:12506   */\n      mload\n        /* \"#utility.yul\":12519:12590   */\n      tag_254\n        /* \"#utility.yul\":12584:12588   */\n      0x20\n        /* \"#utility.yul\":12579:12582   */\n      dup7\n        /* \"#utility.yul\":12575:12589   */\n      add\n        /* \"#utility.yul\":12561:12573   */\n      dup3\n        /* \"#utility.yul\":12519:12590   */\n      tag_101\n      jump\t// in\n    tag_254:\n        /* \"#utility.yul\":12424:12600   */\n      pop\n        /* \"#utility.yul\":12685:12689   */\n      0x40\n        /* \"#utility.yul\":12678:12683   */\n      dup4\n        /* \"#utility.yul\":12674:12690   */\n      add\n        /* \"#utility.yul\":12668:12691   */\n      mload\n        /* \"#utility.yul\":12738:12741   */\n      dup5\n        /* \"#utility.yul\":12732:12736   */\n      dup3\n        /* \"#utility.yul\":12728:12742   */\n      sub\n        /* \"#utility.yul\":12721:12725   */\n      0x40\n        /* \"#utility.yul\":12716:12719   */\n      dup7\n        /* \"#utility.yul\":12712:12726   */\n      add\n        /* \"#utility.yul\":12705:12743   */\n      mstore\n        /* \"#utility.yul\":12764:12837   */\n      tag_255\n        /* \"#utility.yul\":12832:12836   */\n      dup3\n        /* \"#utility.yul\":12818:12830   */\n      dup3\n        /* \"#utility.yul\":12764:12837   */\n      tag_104\n      jump\t// in\n    tag_255:\n        /* \"#utility.yul\":12756:12837   */\n      swap2\n      pop\n        /* \"#utility.yul\":12610:12848   */\n      pop\n        /* \"#utility.yul\":12935:12939   */\n      0x60\n        /* \"#utility.yul\":12928:12933   */\n      dup4\n        /* \"#utility.yul\":12924:12940   */\n      add\n        /* \"#utility.yul\":12918:12941   */\n      mload\n        /* \"#utility.yul\":12954:13017   */\n      tag_256\n        /* \"#utility.yul\":13011:13015   */\n      0x60\n        /* \"#utility.yul\":13006:13009   */\n      dup7\n        /* \"#utility.yul\":13002:13016   */\n      add\n        /* \"#utility.yul\":12988:13000   */\n      dup3\n        /* \"#utility.yul\":12954:13017   */\n      tag_97\n      jump\t// in\n    tag_256:\n        /* \"#utility.yul\":12858:13027   */\n      pop\n        /* \"#utility.yul\":13114:13118   */\n      0x80\n        /* \"#utility.yul\":13107:13112   */\n      dup4\n        /* \"#utility.yul\":13103:13119   */\n      add\n        /* \"#utility.yul\":13097:13120   */\n      mload\n        /* \"#utility.yul\":13133:13190   */\n      tag_257\n        /* \"#utility.yul\":13184:13188   */\n      0x80\n        /* \"#utility.yul\":13179:13182   */\n      dup7\n        /* \"#utility.yul\":13175:13189   */\n      add\n        /* \"#utility.yul\":13161:13173   */\n      dup3\n        /* \"#utility.yul\":13133:13190   */\n      tag_106\n      jump\t// in\n    tag_257:\n        /* \"#utility.yul\":13037:13200   */\n      pop\n        /* \"#utility.yul\":13217:13221   */\n      dup1\n        /* \"#utility.yul\":13210:13221   */\n      swap2\n      pop\n        /* \"#utility.yul\":12206:13227   */\n      pop\n        /* \"#utility.yul\":12092:13227   */\n      swap3\n      swap2\n      pop\n      pop\n      jump\t// out\n        /* \"#utility.yul\":13233:13696   */\n    tag_38:\n        /* \"#utility.yul\":13394:13398   */\n      0x00\n        /* \"#utility.yul\":13432:13434   */\n      0x40\n        /* \"#utility.yul\":13421:13430   */\n      dup3\n        /* \"#utility.yul\":13417:13435   */\n      add\n        /* \"#utility.yul\":13409:13435   */\n      swap1\n      pop\n        /* \"#utility.yul\":13481:13490   */\n      dup2\n        /* \"#utility.yul\":13475:13479   */\n      dup2\n        /* \"#utility.yul\":13471:13491   */\n      sub\n        /* \"#utility.yul\":13467:13468   */\n      0x00\n        /* \"#utility.yul\":13456:13465   */\n      dup4\n        /* \"#utility.yul\":13452:13469   */\n      add\n        /* \"#utility.yul\":13445:13492   */\n      mstore\n        /* \"#utility.yul\":13509:13607   */\n      tag_259\n        /* \"#utility.yul\":13602:13606   */\n      dup2\n        /* \"#utility.yul\":13593:13599   */\n      dup6\n        /* \"#utility.yul\":13509:13607   */\n      tag_107\n      jump\t// in\n    tag_259:\n        /* \"#utility.yul\":13501:13607   */\n      swap1\n      pop\n        /* \"#utility.yul\":13617:13689   */\n      tag_260\n        /* \"#utility.yul\":13685:13687   */\n      0x20\n        /* \"#utility.yul\":13674:13683   */\n      dup4\n        /* \"#utility.yul\":13670:13688   */\n      add\n        /* \"#utility.yul\":13661:13667   */\n      dup5\n        /* \"#utility.yul\":13617:13689   */\n      tag_74\n      jump\t// in\n    tag_260:\n        /* \"#utility.yul\":13233:13696   */\n      swap4\n      swap3\n      pop\n      pop\n      pop\n      jump\t// out\n        /* \"#utility.yul\":13702:13882   */\n    tag_108:\n        /* \"#utility.yul\":13750:13827   */\n      0x4e487b7100000000000000000000000000000000000000000000000000000000\n        /* \"#utility.yul\":13747:13748   */\n      0x00\n        /* \"#utility.yul\":13740:13828   */\n      mstore\n        /* \"#utility.yul\":13847:13851   */\n      0x11\n        /* \"#utility.yul\":13844:13845   */\n      0x04\n        /* \"#utility.yul\":13837:13852   */\n      mstore\n        /* \"#utility.yul\":13871:13875   */\n      0x24\n        /* \"#utility.yul\":13868:13869   */\n      0x00\n        /* \"#utility.yul\":13861:13876   */\n      revert\n        /* \"#utility.yul\":13888:14079   */\n    tag_56:\n        /* \"#utility.yul\":13928:13931   */\n      0x00\n        /* \"#utility.yul\":13947:13967   */\n      tag_263\n        /* \"#utility.yul\":13965:13966   */\n      dup3\n        /* \"#utility.yul\":13947:13967   */\n      tag_73\n      jump\t// in\n    tag_263:\n        /* \"#utility.yul\":13942:13967   */\n      swap2\n      pop\n        /* \"#utility.yul\":13981:14001   */\n      tag_264\n        /* \"#utility.yul\":13999:14000   */\n      dup4\n        /* \"#utility.yul\":13981:14001   */\n      tag_73\n      jump\t// in\n    tag_264:\n        /* \"#utility.yul\":13976:14001   */\n      swap3\n      pop\n        /* \"#utility.yul\":14024:14025   */\n      dup3\n        /* \"#utility.yul\":14021:14022   */\n      dup3\n        /* \"#utility.yul\":14017:14026   */\n      add\n        /* \"#utility.yul\":14010:14026   */\n      swap1\n      pop\n        /* \"#utility.yul\":14045:14048   */\n      dup1\n        /* \"#utility.yul\":14042:14043   */\n      dup3\n        /* \"#utility.yul\":14039:14049   */\n      gt\n        /* \"#utility.yul\":14036:14072   */\n      iszero\n      tag_265\n      jumpi\n        /* \"#utility.yul\":14052:14070   */\n      tag_266\n      tag_108\n      jump\t// in\n    tag_266:\n        /* \"#utility.yul\":14036:14072   */\n    tag_265:\n        /* \"#utility.yul\":13888:14079   */\n      swap3\n      swap2\n      pop\n      pop\n      jump\t// out\n        /* \"#utility.yul\":14085:14262   */\n    tag_109:\n        /* \"#utility.yul\":14225:14254   */\n      0x536166654d6174683a206164646974696f6e206f766572666c6f770000000000\n        /* \"#utility.yul\":14221:14222   */\n      0x00\n        /* \"#utility.yul\":14213:14219   */\n      dup3\n        /* \"#utility.yul\":14209:14223   */\n      add\n        /* \"#utility.yul\":14202:14255   */\n      mstore\n        /* \"#utility.yul\":14085:14262   */\n      pop\n      jump\t// out\n        /* \"#utility.yul\":14268:14634   */\n    tag_110:\n        /* \"#utility.yul\":14410:14413   */\n      0x00\n        /* \"#utility.yul\":14431:14498   */\n      tag_269\n        /* \"#utility.yul\":14495:14497   */\n      0x1b\n        /* \"#utility.yul\":14490:14493   */\n      dup4\n        /* \"#utility.yul\":14431:14498   */\n      tag_77\n      jump\t// in\n    tag_269:\n        /* \"#utility.yul\":14424:14498   */\n      swap2\n      pop\n        /* \"#utility.yul\":14507:14600   */\n      tag_270\n        /* \"#utility.yul\":14596:14599   */\n      dup3\n        /* \"#utility.yul\":14507:14600   */\n      tag_109\n      jump\t// in\n    tag_270:\n        /* \"#utility.yul\":14625:14627   */\n      0x20\n        /* \"#utility.yul\":14620:14623   */\n      dup3\n        /* \"#utility.yul\":14616:14628   */\n      add\n        /* \"#utility.yul\":14609:14628   */\n      swap1\n      pop\n        /* \"#utility.yul\":14268:14634   */\n      swap2\n      swap1\n      pop\n      jump\t// out\n        /* \"#utility.yul\":14640:15059   */\n    tag_59:\n        /* \"#utility.yul\":14806:14810   */\n      0x00\n        /* \"#utility.yul\":14844:14846   */\n      0x20\n        /* \"#utility.yul\":14833:14842   */\n      dup3\n        /* \"#utility.yul\":14829:14847   */\n      add\n        /* \"#utility.yul\":14821:14847   */\n      swap1\n      pop\n        /* \"#utility.yul\":14893:14902   */\n      dup2\n        /* \"#utility.yul\":14887:14891   */\n      dup2\n        /* \"#utility.yul\":14883:14903   */\n      sub\n        /* \"#utility.yul\":14879:14880   */\n      0x00\n        /* \"#utility.yul\":14868:14877   */\n      dup4\n        /* \"#utility.yul\":14864:14881   */\n      add\n        /* \"#utility.yul\":14857:14904   */\n      mstore\n        /* \"#utility.yul\":14921:15052   */\n      tag_272\n        /* \"#utility.yul\":15047:15051   */\n      dup2\n        /* \"#utility.yul\":14921:15052   */\n      tag_110\n      jump\t// in\n    tag_272:\n        /* \"#utility.yul\":14913:15052   */\n      swap1\n      pop\n        /* \"#utility.yul\":14640:15059   */\n      swap2\n      swap1\n      pop\n      jump\t// out\n\n    auxdata: 0xa2646970667358221220e16369544cd47a99d1d4dd430840a65fb37407758f9a23eca6abd2c4ec75f6d864736f6c63430008160033\n}\n",
				"bytecode": {
					"linkReferences": {},
					"object": "608060405234801561000f575f80fd5b50335f806101000a81548173ffffffffffffffffffffffffffffffffffffffff021916908373ffffffffffffffffffffffffffffffffffffffff1602179055505f600181905550610caa806100635f395ff3fe60806040526004361061003e575f3560e01c806304fafc6c14610042578063672385621461004c5780639f89927314610074578063e1e295581461009e575b5f80fd5b61004a6100c6565b005b348015610057575f80fd5b50610072600480360381019061006d91906105e7565b610161565b005b34801561007f575f80fd5b5061008861027e565b6040516100959190610646565b60405180910390f35b3480156100a9575f80fd5b506100c460048036038101906100bf9190610689565b610287565b005b600534101561010a576040517f08c379a00000000000000000000000000000000000000000000000000000000081526004016101019061070e565b60405180910390fd5b600160035f3373ffffffffffffffffffffffffffffffffffffffff1673ffffffffffffffffffffffffffffffffffffffff1681526020019081526020015f205f6101000a81548160ff021916908315150217905550565b5f6040518060a0016040528060015481526020015f60028111156101885761018761072c565b5b81526020018381526020014281526020015f151581525090508060025f60015481526020019081526020015f205f820151815f01556020820151816001015f6101000a81548160ff021916908360028111156101e7576101e661072c565b5b02179055506040820151816002019081610201919061095d565b50606082015181600301556080820151816004015f6101000a81548160ff02191690831515021790555090505061023b600154600161043d565b6001819055507f615eb1193ab28532b0958952317b9eefb36e49e4a65bc640cf28f2ec9a9317718142604051610272929190610b7e565b60405180910390a15050565b5f600154905090565b5f60025f8381526020019081526020015f206040518060a00160405290815f8201548152602001600182015f9054906101000a900460ff1660028111156102d1576102d061072c565b5b60028111156102e3576102e261072c565b5b81526020016002820180546102f790610790565b80601f016020809104026020016040519081016040528092919081815260200182805461032390610790565b801561036e5780601f106103455761010080835404028352916020019161036e565b820191905f5260205f20905b81548152906001019060200180831161035157829003601f168201915b5050505050815260200160038201548152602001600482015f9054906101000a900460ff161515151581525050905060018160800190151590811515815250508060025f8481526020019081526020015f205f820151815f01556020820151816001015f6101000a81548160ff021916908360028111156103f2576103f161072c565b5b0217905550604082015181600201908161040c919061095d565b50606082015181600301556080820151816004015f6101000a81548160ff0219169083151502179055509050505050565b5f80828461044b9190610bd9565b905083811015610490576040517f08c379a000000000000000000000000000000000000000000000000000000000815260040161048790610c56565b60405180910390fd5b8091505092915050565b5f604051905090565b5f80fd5b5f80fd5b5f80fd5b5f80fd5b5f601f19601f8301169050919050565b7f4e487b71000000000000000000000000000000000000000000000000000000005f52604160045260245ffd5b6104f9826104b3565b810181811067ffffffffffffffff82111715610518576105176104c3565b5b80604052505050565b5f61052a61049a565b905061053682826104f0565b919050565b5f67ffffffffffffffff821115610555576105546104c3565b5b61055e826104b3565b9050602081019050919050565b828183375f83830152505050565b5f61058b6105868461053b565b610521565b9050828152602081018484840111156105a7576105a66104af565b5b6105b284828561056b565b509392505050565b5f82601f8301126105ce576105cd6104ab565b5b81356105de848260208601610579565b91505092915050565b5f602082840312156105fc576105fb6104a3565b5b5f82013567ffffffffffffffff811115610619576106186104a7565b5b610625848285016105ba565b91505092915050565b5f819050919050565b6106408161062e565b82525050565b5f6020820190506106595f830184610637565b92915050565b6106688161062e565b8114610672575f80fd5b50565b5f813590506106838161065f565b92915050565b5f6020828403121561069e5761069d6104a3565b5b5f6106ab84828501610675565b91505092915050565b5f82825260208201905092915050565b7f6e6f2073756666696369656e742066756e6400000000000000000000000000005f82015250565b5f6106f86012836106b4565b9150610703826106c4565b602082019050919050565b5f6020820190508181035f830152610725816106ec565b9050919050565b7f4e487b71000000000000000000000000000000000000000000000000000000005f52602160045260245ffd5b5f81519050919050565b7f4e487b71000000000000000000000000000000000000000000000000000000005f52602260045260245ffd5b5f60028204905060018216806107a757607f821691505b6020821081036107ba576107b9610763565b5b50919050565b5f819050815f5260205f209050919050565b5f6020601f8301049050919050565b5f82821b905092915050565b5f6008830261081c7fffffffffffffffffffffffffffffffffffffffffffffffffffffffffffffffff826107e1565b61082686836107e1565b95508019841693508086168417925050509392505050565b5f819050919050565b5f61086161085c6108578461062e565b61083e565b61062e565b9050919050565b5f819050919050565b61087a83610847565b61088e61088682610868565b8484546107ed565b825550505050565b5f90565b6108a2610896565b6108ad818484610871565b505050565b5b818110156108d0576108c55f8261089a565b6001810190506108b3565b5050565b601f821115610915576108e6816107c0565b6108ef846107d2565b810160208510156108fe578190505b61091261090a856107d2565b8301826108b2565b50505b505050565b5f82821c905092915050565b5f6109355f198460080261091a565b1980831691505092915050565b5f61094d8383610926565b9150826002028217905092915050565b61096682610759565b67ffffffffffffffff81111561097f5761097e6104c3565b5b6109898254610790565b6109948282856108d4565b5f60209050601f8311600181146109c5575f84156109b3578287015190505b6109bd8582610942565b865550610a24565b601f1984166109d3866107c0565b5f5b828110156109fa578489015182556001820191506020850194506020810190506109d5565b86831015610a175784890151610a13601f891682610926565b8355505b6001600288020188555050505b505050505050565b610a358161062e565b82525050565b60038110610a4c57610a4b61072c565b5b50565b5f819050610a5c82610a3b565b919050565b5f610a6b82610a4f565b9050919050565b610a7b81610a61565b82525050565b5f82825260208201905092915050565b5f5b83811015610aae578082015181840152602081019050610a93565b5f8484015250505050565b5f610ac382610759565b610acd8185610a81565b9350610add818560208601610a91565b610ae6816104b3565b840191505092915050565b5f8115159050919050565b610b0581610af1565b82525050565b5f60a083015f830151610b205f860182610a2c565b506020830151610b336020860182610a72565b5060408301518482036040860152610b4b8282610ab9565b9150506060830151610b606060860182610a2c565b506080830151610b736080860182610afc565b508091505092915050565b5f6040820190508181035f830152610b968185610b0b565b9050610ba56020830184610637565b9392505050565b7f4e487b71000000000000000000000000000000000000000000000000000000005f52601160045260245ffd5b5f610be38261062e565b9150610bee8361062e565b9250828201905080821115610c0657610c05610bac565b5b92915050565b7f536166654d6174683a206164646974696f6e206f766572666c6f7700000000005f82015250565b5f610c40601b836106b4565b9150610c4b82610c0c565b602082019050919050565b5f6020820190508181035f830152610c6d81610c34565b905091905056fea2646970667358221220e16369544cd47a99d1d4dd430840a65fb37407758f9a23eca6abd2c4ec75f6d864736f6c63430008160033",
					"opcodes": "PUSH1 0x80 PUSH1 0x40 MSTORE CALLVALUE DUP1 ISZERO PUSH2 0xF JUMPI PUSH0 DUP1 REVERT JUMPDEST POP CALLER PUSH0 DUP1 PUSH2 0x100 EXP DUP2 SLOAD DUP2 PUSH20 0xFFFFFFFFFFFFFFFFFFFFFFFFFFFFFFFFFFFFFFFF MUL NOT AND SWAP1 DUP4 PUSH20 0xFFFFFFFFFFFFFFFFFFFFFFFFFFFFFFFFFFFFFFFF AND MUL OR SWAP1 SSTORE POP PUSH0 PUSH1 0x1 DUP2 SWAP1 SSTORE POP PUSH2 0xCAA DUP1 PUSH2 0x63 PUSH0 CODECOPY PUSH0 RETURN INVALID PUSH1 0x80 PUSH1 0x40 MSTORE PUSH1 0x4 CALLDATASIZE LT PUSH2 0x3E JUMPI PUSH0 CALLDATALOAD PUSH1 0xE0 SHR DUP1 PUSH4 0x4FAFC6C EQ PUSH2 0x42 JUMPI DUP1 PUSH4 0x67238562 EQ PUSH2 0x4C JUMPI DUP1 PUSH4 0x9F899273 EQ PUSH2 0x74 JUMPI DUP1 PUSH4 0xE1E29558 EQ PUSH2 0x9E JUMPI JUMPDEST PUSH0 DUP1 REVERT JUMPDEST PUSH2 0x4A PUSH2 0xC6 JUMP JUMPDEST STOP JUMPDEST CALLVALUE DUP1 ISZERO PUSH2 0x57 JUMPI PUSH0 DUP1 REVERT JUMPDEST POP PUSH2 0x72 PUSH1 0x4 DUP1 CALLDATASIZE SUB DUP2 ADD SWAP1 PUSH2 0x6D SWAP2 SWAP1 PUSH2 0x5E7 JUMP JUMPDEST PUSH2 0x161 JUMP JUMPDEST STOP JUMPDEST CALLVALUE DUP1 ISZERO PUSH2 0x7F JUMPI PUSH0 DUP1 REVERT JUMPDEST POP PUSH2 0x88 PUSH2 0x27E JUMP JUMPDEST PUSH1 0x40 MLOAD PUSH2 0x95 SWAP2 SWAP1 PUSH2 0x646 JUMP JUMPDEST PUSH1 0x40 MLOAD DUP1 SWAP2 SUB SWAP1 RETURN JUMPDEST CALLVALUE DUP1 ISZERO PUSH2 0xA9 JUMPI PUSH0 DUP1 REVERT JUMPDEST POP PUSH2 0xC4 PUSH1 0x4 DUP1 CALLDATASIZE SUB DUP2 ADD SWAP1 PUSH2 0xBF SWAP2 SWAP1 PUSH2 0x689 JUMP JUMPDEST PUSH2 0x287 JUMP JUMPDEST STOP JUMPDEST PUSH1 0x5 CALLVALUE LT ISZERO PUSH2 0x10A JUMPI PUSH1 0x40 MLOAD PUSH32 0x8C379A000000000000000000000000000000000000000000000000000000000 DUP2 MSTORE PUSH1 0x4 ADD PUSH2 0x101 SWAP1 PUSH2 0x70E JUMP JUMPDEST PUSH1 0x40 MLOAD DUP1 SWAP2 SUB SWAP1 REVERT JUMPDEST PUSH1 0x1 PUSH1 0x3 PUSH0 CALLER PUSH20 0xFFFFFFFFFFFFFFFFFFFFFFFFFFFFFFFFFFFFFFFF AND PUSH20 0xFFFFFFFFFFFFFFFFFFFFFFFFFFFFFFFFFFFFFFFF AND DUP2 MSTORE PUSH1 0x20 ADD SWAP1 DUP2 MSTORE PUSH1 0x20 ADD PUSH0 KECCAK256 PUSH0 PUSH2 0x100 EXP DUP2 SLOAD DUP2 PUSH1 0xFF MUL NOT AND SWAP1 DUP4 ISZERO ISZERO MUL OR SWAP1 SSTORE POP JUMP JUMPDEST PUSH0 PUSH1 0x40 MLOAD DUP1 PUSH1 0xA0 ADD PUSH1 0x40 MSTORE DUP1 PUSH1 0x1 SLOAD DUP2 MSTORE PUSH1 0x20 ADD PUSH0 PUSH1 0x2 DUP2 GT ISZERO PUSH2 0x188 JUMPI PUSH2 0x187 PUSH2 0x72C JUMP JUMPDEST JUMPDEST DUP2 MSTORE PUSH1 0x20 ADD DUP4 DUP2 MSTORE PUSH1 0x20 ADD TIMESTAMP DUP2 MSTORE PUSH1 0x20 ADD PUSH0 ISZERO ISZERO DUP2 MSTORE POP SWAP1 POP DUP1 PUSH1 0x2 PUSH0 PUSH1 0x1 SLOAD DUP2 MSTORE PUSH1 0x20 ADD SWAP1 DUP2 MSTORE PUSH1 0x20 ADD PUSH0 KECCAK256 PUSH0 DUP3 ADD MLOAD DUP2 PUSH0 ADD SSTORE PUSH1 0x20 DUP3 ADD MLOAD DUP2 PUSH1 0x1 ADD PUSH0 PUSH2 0x100 EXP DUP2 SLOAD DUP2 PUSH1 0xFF MUL NOT AND SWAP1 DUP4 PUSH1 0x2 DUP2 GT ISZERO PUSH2 0x1E7 JUMPI PUSH2 0x1E6 PUSH2 0x72C JUMP JUMPDEST JUMPDEST MUL OR SWAP1 SSTORE POP PUSH1 0x40 DUP3 ADD MLOAD DUP2 PUSH1 0x2 ADD SWAP1 DUP2 PUSH2 0x201 SWAP2 SWAP1 PUSH2 0x95D JUMP JUMPDEST POP PUSH1 0x60 DUP3 ADD MLOAD DUP2 PUSH1 0x3 ADD SSTORE PUSH1 0x80 DUP3 ADD MLOAD DUP2 PUSH1 0x4 ADD PUSH0 PUSH2 0x100 EXP DUP2 SLOAD DUP2 PUSH1 0xFF MUL NOT AND SWAP1 DUP4 ISZERO ISZERO MUL OR SWAP1 SSTORE POP SWAP1 POP POP PUSH2 0x23B PUSH1 0x1 SLOAD PUSH1 0x1 PUSH2 0x43D JUMP JUMPDEST PUSH1 0x1 DUP2 SWAP1 SSTORE POP PUSH32 0x615EB1193AB28532B0958952317B9EEFB36E49E4A65BC640CF28F2EC9A931771 DUP2 TIMESTAMP PUSH1 0x40 MLOAD PUSH2 0x272 SWAP3 SWAP2 SWAP1 PUSH2 0xB7E JUMP JUMPDEST PUSH1 0x40 MLOAD DUP1 SWAP2 SUB SWAP1 LOG1 POP POP JUMP JUMPDEST PUSH0 PUSH1 0x1 SLOAD SWAP1 POP SWAP1 JUMP JUMPDEST PUSH0 PUSH1 0x2 PUSH0 DUP4 DUP2 MSTORE PUSH1 0x20 ADD SWAP1 DUP2 MSTORE PUSH1 0x20 ADD PUSH0 KECCAK256 PUSH1 0x40 MLOAD DUP1 PUSH1 0xA0 ADD PUSH1 0x40 MSTORE SWAP1 DUP2 PUSH0 DUP3 ADD SLOAD DUP2 MSTORE PUSH1 0x20 ADD PUSH1 0x1 DUP3 ADD PUSH0 SWAP1 SLOAD SWAP1 PUSH2 0x100 EXP SWAP1 DIV PUSH1 0xFF AND PUSH1 0x2 DUP2 GT ISZERO PUSH2 0x2D1 JUMPI PUSH2 0x2D0 PUSH2 0x72C JUMP JUMPDEST JUMPDEST PUSH1 0x2 DUP2 GT ISZERO PUSH2 0x2E3 JUMPI PUSH2 0x2E2 PUSH2 0x72C JUMP JUMPDEST JUMPDEST DUP2 MSTORE PUSH1 0x20 ADD PUSH1 0x2 DUP3 ADD DUP1 SLOAD PUSH2 0x2F7 SWAP1 PUSH2 0x790 JUMP JUMPDEST DUP1 PUSH1 0x1F ADD PUSH1 0x20 DUP1 SWAP2 DIV MUL PUSH1 0x20 ADD PUSH1 0x40 MLOAD SWAP1 DUP2 ADD PUSH1 0x40 MSTORE DUP1 SWAP3 SWAP2 SWAP1 DUP2 DUP2 MSTORE PUSH1 0x20 ADD DUP3 DUP1 SLOAD PUSH2 0x323 SWAP1 PUSH2 0x790 JUMP JUMPDEST DUP1 ISZERO PUSH2 0x36E JUMPI DUP1 PUSH1 0x1F LT PUSH2 0x345 JUMPI PUSH2 0x100 DUP1 DUP4 SLOAD DIV MUL DUP4 MSTORE SWAP2 PUSH1 0x20 ADD SWAP2 PUSH2 0x36E JUMP JUMPDEST DUP3 ADD SWAP2 SWAP1 PUSH0 MSTORE PUSH1 0x20 PUSH0 KECCAK256 SWAP1 JUMPDEST DUP2 SLOAD DUP2 MSTORE SWAP1 PUSH1 0x1 ADD SWAP1 PUSH1 0x20 ADD DUP1 DUP4 GT PUSH2 0x351 JUMPI DUP3 SWAP1 SUB PUSH1 0x1F AND DUP3 ADD SWAP2 JUMPDEST POP POP POP POP POP DUP2 MSTORE PUSH1 0x20 ADD PUSH1 0x3 DUP3 ADD SLOAD DUP2 MSTORE PUSH1 0x20 ADD PUSH1 0x4 DUP3 ADD PUSH0 SWAP1 SLOAD SWAP1 PUSH2 0x100 EXP SWAP1 DIV PUSH1 0xFF AND ISZERO ISZERO ISZERO ISZERO DUP2 MSTORE POP POP SWAP1 POP PUSH1 0x1 DUP2 PUSH1 0x80 ADD SWAP1 ISZERO ISZERO SWAP1 DUP2 ISZERO ISZERO DUP2 MSTORE POP POP DUP1 PUSH1 0x2 PUSH0 DUP5 DUP2 MSTORE PUSH1 0x20 ADD SWAP1 DUP2 MSTORE PUSH1 0x20 ADD PUSH0 KECCAK256 PUSH0 DUP3 ADD MLOAD DUP2 PUSH0 ADD SSTORE PUSH1 0x20 DUP3 ADD MLOAD DUP2 PUSH1 0x1 ADD PUSH0 PUSH2 0x100 EXP DUP2 SLOAD DUP2 PUSH1 0xFF MUL NOT AND SWAP1 DUP4 PUSH1 0x2 DUP2 GT ISZERO PUSH2 0x3F2 JUMPI PUSH2 0x3F1 PUSH2 0x72C JUMP JUMPDEST JUMPDEST MUL OR SWAP1 SSTORE POP PUSH1 0x40 DUP3 ADD MLOAD DUP2 PUSH1 0x2 ADD SWAP1 DUP2 PUSH2 0x40C SWAP2 SWAP1 PUSH2 0x95D JUMP JUMPDEST POP PUSH1 0x60 DUP3 ADD MLOAD DUP2 PUSH1 0x3 ADD SSTORE PUSH1 0x80 DUP3 ADD MLOAD DUP2 PUSH1 0x4 ADD PUSH0 PUSH2 0x100 EXP DUP2 SLOAD DUP2 PUSH1 0xFF MUL NOT AND SWAP1 DUP4 ISZERO ISZERO MUL OR SWAP1 SSTORE POP SWAP1 POP POP POP POP JUMP JUMPDEST PUSH0 DUP1 DUP3 DUP5 PUSH2 0x44B SWAP2 SWAP1 PUSH2 0xBD9 JUMP JUMPDEST SWAP1 POP DUP4 DUP2 LT ISZERO PUSH2 0x490 JUMPI PUSH1 0x40 MLOAD PUSH32 0x8C379A000000000000000000000000000000000000000000000000000000000 DUP2 MSTORE PUSH1 0x4 ADD PUSH2 0x487 SWAP1 PUSH2 0xC56 JUMP JUMPDEST PUSH1 0x40 MLOAD DUP1 SWAP2 SUB SWAP1 REVERT JUMPDEST DUP1 SWAP2 POP POP SWAP3 SWAP2 POP POP JUMP JUMPDEST PUSH0 PUSH1 0x40 MLOAD SWAP1 POP SWAP1 JUMP JUMPDEST PUSH0 DUP1 REVERT JUMPDEST PUSH0 DUP1 REVERT JUMPDEST PUSH0 DUP1 REVERT JUMPDEST PUSH0 DUP1 REVERT JUMPDEST PUSH0 PUSH1 0x1F NOT PUSH1 0x1F DUP4 ADD AND SWAP1 POP SWAP2 SWAP1 POP JUMP JUMPDEST PUSH32 0x4E487B7100000000000000000000000000000000000000000000000000000000 PUSH0 MSTORE PUSH1 0x41 PUSH1 0x4 MSTORE PUSH1 0x24 PUSH0 REVERT JUMPDEST PUSH2 0x4F9 DUP3 PUSH2 0x4B3 JUMP JUMPDEST DUP2 ADD DUP2 DUP2 LT PUSH8 0xFFFFFFFFFFFFFFFF DUP3 GT OR ISZERO PUSH2 0x518 JUMPI PUSH2 0x517 PUSH2 0x4C3 JUMP JUMPDEST JUMPDEST DUP1 PUSH1 0x40 MSTORE POP POP POP JUMP JUMPDEST PUSH0 PUSH2 0x52A PUSH2 0x49A JUMP JUMPDEST SWAP1 POP PUSH2 0x536 DUP3 DUP3 PUSH2 0x4F0 JUMP JUMPDEST SWAP2 SWAP1 POP JUMP JUMPDEST PUSH0 PUSH8 0xFFFFFFFFFFFFFFFF DUP3 GT ISZERO PUSH2 0x555 JUMPI PUSH2 0x554 PUSH2 0x4C3 JUMP JUMPDEST JUMPDEST PUSH2 0x55E DUP3 PUSH2 0x4B3 JUMP JUMPDEST SWAP1 POP PUSH1 0x20 DUP2 ADD SWAP1 POP SWAP2 SWAP1 POP JUMP JUMPDEST DUP3 DUP2 DUP4 CALLDATACOPY PUSH0 DUP4 DUP4 ADD MSTORE POP POP POP JUMP JUMPDEST PUSH0 PUSH2 0x58B PUSH2 0x586 DUP5 PUSH2 0x53B JUMP JUMPDEST PUSH2 0x521 JUMP JUMPDEST SWAP1 POP DUP3 DUP2 MSTORE PUSH1 0x20 DUP2 ADD DUP5 DUP5 DUP5 ADD GT ISZERO PUSH2 0x5A7 JUMPI PUSH2 0x5A6 PUSH2 0x4AF JUMP JUMPDEST JUMPDEST PUSH2 0x5B2 DUP5 DUP3 DUP6 PUSH2 0x56B JUMP JUMPDEST POP SWAP4 SWAP3 POP POP POP JUMP JUMPDEST PUSH0 DUP3 PUSH1 0x1F DUP4 ADD SLT PUSH2 0x5CE JUMPI PUSH2 0x5CD PUSH2 0x4AB JUMP JUMPDEST JUMPDEST DUP2 CALLDATALOAD PUSH2 0x5DE DUP5 DUP3 PUSH1 0x20 DUP7 ADD PUSH2 0x579 JUMP JUMPDEST SWAP2 POP POP SWAP3 SWAP2 POP POP JUMP JUMPDEST PUSH0 PUSH1 0x20 DUP3 DUP5 SUB SLT ISZERO PUSH2 0x5FC JUMPI PUSH2 0x5FB PUSH2 0x4A3 JUMP JUMPDEST JUMPDEST PUSH0 DUP3 ADD CALLDATALOAD PUSH8 0xFFFFFFFFFFFFFFFF DUP2 GT ISZERO PUSH2 0x619 JUMPI PUSH2 0x618 PUSH2 0x4A7 JUMP JUMPDEST JUMPDEST PUSH2 0x625 DUP5 DUP3 DUP6 ADD PUSH2 0x5BA JUMP JUMPDEST SWAP2 POP POP SWAP3 SWAP2 POP POP JUMP JUMPDEST PUSH0 DUP2 SWAP1 POP SWAP2 SWAP1 POP JUMP JUMPDEST PUSH2 0x640 DUP2 PUSH2 0x62E JUMP JUMPDEST DUP3 MSTORE POP POP JUMP JUMPDEST PUSH0 PUSH1 0x20 DUP3 ADD SWAP1 POP PUSH2 0x659 PUSH0 DUP4 ADD DUP5 PUSH2 0x637 JUMP JUMPDEST SWAP3 SWAP2 POP POP JUMP JUMPDEST PUSH2 0x668 DUP2 PUSH2 0x62E JUMP JUMPDEST DUP2 EQ PUSH2 0x672 JUMPI PUSH0 DUP1 REVERT JUMPDEST POP JUMP JUMPDEST PUSH0 DUP2 CALLDATALOAD SWAP1 POP PUSH2 0x683 DUP2 PUSH2 0x65F JUMP JUMPDEST SWAP3 SWAP2 POP POP JUMP JUMPDEST PUSH0 PUSH1 0x20 DUP3 DUP5 SUB SLT ISZERO PUSH2 0x69E JUMPI PUSH2 0x69D PUSH2 0x4A3 JUMP JUMPDEST JUMPDEST PUSH0 PUSH2 0x6AB DUP5 DUP3 DUP6 ADD PUSH2 0x675 JUMP JUMPDEST SWAP2 POP POP SWAP3 SWAP2 POP POP JUMP JUMPDEST PUSH0 DUP3 DUP3 MSTORE PUSH1 0x20 DUP3 ADD SWAP1 POP SWAP3 SWAP2 POP POP JUMP JUMPDEST PUSH32 0x6E6F2073756666696369656E742066756E640000000000000000000000000000 PUSH0 DUP3 ADD MSTORE POP JUMP JUMPDEST PUSH0 PUSH2 0x6F8 PUSH1 0x12 DUP4 PUSH2 0x6B4 JUMP JUMPDEST SWAP2 POP PUSH2 0x703 DUP3 PUSH2 0x6C4 JUMP JUMPDEST PUSH1 0x20 DUP3 ADD SWAP1 POP SWAP2 SWAP1 POP JUMP JUMPDEST PUSH0 PUSH1 0x20 DUP3 ADD SWAP1 POP DUP2 DUP2 SUB PUSH0 DUP4 ADD MSTORE PUSH2 0x725 DUP2 PUSH2 0x6EC JUMP JUMPDEST SWAP1 POP SWAP2 SWAP1 POP JUMP JUMPDEST PUSH32 0x4E487B7100000000000000000000000000000000000000000000000000000000 PUSH0 MSTORE PUSH1 0x21 PUSH1 0x4 MSTORE PUSH1 0x24 PUSH0 REVERT JUMPDEST PUSH0 DUP2 MLOAD SWAP1 POP SWAP2 SWAP1 POP JUMP JUMPDEST PUSH32 0x4E487B7100000000000000000000000000000000000000000000000000000000 PUSH0 MSTORE PUSH1 0x22 PUSH1 0x4 MSTORE PUSH1 0x24 PUSH0 REVERT JUMPDEST PUSH0 PUSH1 0x2 DUP3 DIV SWAP1 POP PUSH1 0x1 DUP3 AND DUP1 PUSH2 0x7A7 JUMPI PUSH1 0x7F DUP3 AND SWAP2 POP JUMPDEST PUSH1 0x20 DUP3 LT DUP2 SUB PUSH2 0x7BA JUMPI PUSH2 0x7B9 PUSH2 0x763 JUMP JUMPDEST JUMPDEST POP SWAP2 SWAP1 POP JUMP JUMPDEST PUSH0 DUP2 SWAP1 POP DUP2 PUSH0 MSTORE PUSH1 0x20 PUSH0 KECCAK256 SWAP1 POP SWAP2 SWAP1 POP JUMP JUMPDEST PUSH0 PUSH1 0x20 PUSH1 0x1F DUP4 ADD DIV SWAP1 POP SWAP2 SWAP1 POP JUMP JUMPDEST PUSH0 DUP3 DUP3 SHL SWAP1 POP SWAP3 SWAP2 POP POP JUMP JUMPDEST PUSH0 PUSH1 0x8 DUP4 MUL PUSH2 0x81C PUSH32 0xFFFFFFFFFFFFFFFFFFFFFFFFFFFFFFFFFFFFFFFFFFFFFFFFFFFFFFFFFFFFFFFF DUP3 PUSH2 0x7E1 JUMP JUMPDEST PUSH2 0x826 DUP7 DUP4 PUSH2 0x7E1 JUMP JUMPDEST SWAP6 POP DUP1 NOT DUP5 AND SWAP4 POP DUP1 DUP7 AND DUP5 OR SWAP3 POP POP POP SWAP4 SWAP3 POP POP POP JUMP JUMPDEST PUSH0 DUP2 SWAP1 POP SWAP2 SWAP1 POP JUMP JUMPDEST PUSH0 PUSH2 0x861 PUSH2 0x85C PUSH2 0x857 DUP5 PUSH2 0x62E JUMP JUMPDEST PUSH2 0x83E JUMP JUMPDEST PUSH2 0x62E JUMP JUMPDEST SWAP1 POP SWAP2 SWAP1 POP JUMP JUMPDEST PUSH0 DUP2 SWAP1 POP SWAP2 SWAP1 POP JUMP JUMPDEST PUSH2 0x87A DUP4 PUSH2 0x847 JUMP JUMPDEST PUSH2 0x88E PUSH2 0x886 DUP3 PUSH2 0x868 JUMP JUMPDEST DUP5 DUP5 SLOAD PUSH2 0x7ED JUMP JUMPDEST DUP3 SSTORE POP POP POP POP JUMP JUMPDEST PUSH0 SWAP1 JUMP JUMPDEST PUSH2 0x8A2 PUSH2 0x896 JUMP JUMPDEST PUSH2 0x8AD DUP2 DUP5 DUP5 PUSH2 0x871 JUMP JUMPDEST POP POP POP JUMP JUMPDEST JUMPDEST DUP2 DUP2 LT ISZERO PUSH2 0x8D0 JUMPI PUSH2 0x8C5 PUSH0 DUP3 PUSH2 0x89A JUMP JUMPDEST PUSH1 0x1 DUP2 ADD SWAP1 POP PUSH2 0x8B3 JUMP JUMPDEST POP POP JUMP JUMPDEST PUSH1 0x1F DUP3 GT ISZERO PUSH2 0x915 JUMPI PUSH2 0x8E6 DUP2 PUSH2 0x7C0 JUMP JUMPDEST PUSH2 0x8EF DUP5 PUSH2 0x7D2 JUMP JUMPDEST DUP2 ADD PUSH1 0x20 DUP6 LT ISZERO PUSH2 0x8FE JUMPI DUP2 SWAP1 POP JUMPDEST PUSH2 0x912 PUSH2 0x90A DUP6 PUSH2 0x7D2 JUMP JUMPDEST DUP4 ADD DUP3 PUSH2 0x8B2 JUMP JUMPDEST POP POP JUMPDEST POP POP POP JUMP JUMPDEST PUSH0 DUP3 DUP3 SHR SWAP1 POP SWAP3 SWAP2 POP POP JUMP JUMPDEST PUSH0 PUSH2 0x935 PUSH0 NOT DUP5 PUSH1 0x8 MUL PUSH2 0x91A JUMP JUMPDEST NOT DUP1 DUP4 AND SWAP2 POP POP SWAP3 SWAP2 POP POP JUMP JUMPDEST PUSH0 PUSH2 0x94D DUP4 DUP4 PUSH2 0x926 JUMP JUMPDEST SWAP2 POP DUP3 PUSH1 0x2 MUL DUP3 OR SWAP1 POP SWAP3 SWAP2 POP POP JUMP JUMPDEST PUSH2 0x966 DUP3 PUSH2 0x759 JUMP JUMPDEST PUSH8 0xFFFFFFFFFFFFFFFF DUP2 GT ISZERO PUSH2 0x97F JUMPI PUSH2 0x97E PUSH2 0x4C3 JUMP JUMPDEST JUMPDEST PUSH2 0x989 DUP3 SLOAD PUSH2 0x790 JUMP JUMPDEST PUSH2 0x994 DUP3 DUP3 DUP6 PUSH2 0x8D4 JUMP JUMPDEST PUSH0 PUSH1 0x20 SWAP1 POP PUSH1 0x1F DUP4 GT PUSH1 0x1 DUP2 EQ PUSH2 0x9C5 JUMPI PUSH0 DUP5 ISZERO PUSH2 0x9B3 JUMPI DUP3 DUP8 ADD MLOAD SWAP1 POP JUMPDEST PUSH2 0x9BD DUP6 DUP3 PUSH2 0x942 JUMP JUMPDEST DUP7 SSTORE POP PUSH2 0xA24 JUMP JUMPDEST PUSH1 0x1F NOT DUP5 AND PUSH2 0x9D3 DUP7 PUSH2 0x7C0 JUMP JUMPDEST PUSH0 JUMPDEST DUP3 DUP2 LT ISZERO PUSH2 0x9FA JUMPI DUP5 DUP10 ADD MLOAD DUP3 SSTORE PUSH1 0x1 DUP3 ADD SWAP2 POP PUSH1 0x20 DUP6 ADD SWAP5 POP PUSH1 0x20 DUP2 ADD SWAP1 POP PUSH2 0x9D5 JUMP JUMPDEST DUP7 DUP4 LT ISZERO PUSH2 0xA17 JUMPI DUP5 DUP10 ADD MLOAD PUSH2 0xA13 PUSH1 0x1F DUP10 AND DUP3 PUSH2 0x926 JUMP JUMPDEST DUP4 SSTORE POP JUMPDEST PUSH1 0x1 PUSH1 0x2 DUP9 MUL ADD DUP9 SSTORE POP POP POP JUMPDEST POP POP POP POP POP POP JUMP JUMPDEST PUSH2 0xA35 DUP2 PUSH2 0x62E JUMP JUMPDEST DUP3 MSTORE POP POP JUMP JUMPDEST PUSH1 0x3 DUP2 LT PUSH2 0xA4C JUMPI PUSH2 0xA4B PUSH2 0x72C JUMP JUMPDEST JUMPDEST POP JUMP JUMPDEST PUSH0 DUP2 SWAP1 POP PUSH2 0xA5C DUP3 PUSH2 0xA3B JUMP JUMPDEST SWAP2 SWAP1 POP JUMP JUMPDEST PUSH0 PUSH2 0xA6B DUP3 PUSH2 0xA4F JUMP JUMPDEST SWAP1 POP SWAP2 SWAP1 POP JUMP JUMPDEST PUSH2 0xA7B DUP2 PUSH2 0xA61 JUMP JUMPDEST DUP3 MSTORE POP POP JUMP JUMPDEST PUSH0 DUP3 DUP3 MSTORE PUSH1 0x20 DUP3 ADD SWAP1 POP SWAP3 SWAP2 POP POP JUMP JUMPDEST PUSH0 JUMPDEST DUP4 DUP2 LT ISZERO PUSH2 0xAAE JUMPI DUP1 DUP3 ADD MLOAD DUP2 DUP5 ADD MSTORE PUSH1 0x20 DUP2 ADD SWAP1 POP PUSH2 0xA93 JUMP JUMPDEST PUSH0 DUP5 DUP5 ADD MSTORE POP POP POP POP JUMP JUMPDEST PUSH0 PUSH2 0xAC3 DUP3 PUSH2 0x759 JUMP JUMPDEST PUSH2 0xACD DUP2 DUP6 PUSH2 0xA81 JUMP JUMPDEST SWAP4 POP PUSH2 0xADD DUP2 DUP6 PUSH1 0x20 DUP7 ADD PUSH2 0xA91 JUMP JUMPDEST PUSH2 0xAE6 DUP2 PUSH2 0x4B3 JUMP JUMPDEST DUP5 ADD SWAP2 POP POP SWAP3 SWAP2 POP POP JUMP JUMPDEST PUSH0 DUP2 ISZERO ISZERO SWAP1 POP SWAP2 SWAP1 POP JUMP JUMPDEST PUSH2 0xB05 DUP2 PUSH2 0xAF1 JUMP JUMPDEST DUP3 MSTORE POP POP JUMP JUMPDEST PUSH0 PUSH1 0xA0 DUP4 ADD PUSH0 DUP4 ADD MLOAD PUSH2 0xB20 PUSH0 DUP7 ADD DUP3 PUSH2 0xA2C JUMP JUMPDEST POP PUSH1 0x20 DUP4 ADD MLOAD PUSH2 0xB33 PUSH1 0x20 DUP7 ADD DUP3 PUSH2 0xA72 JUMP JUMPDEST POP PUSH1 0x40 DUP4 ADD MLOAD DUP5 DUP3 SUB PUSH1 0x40 DUP7 ADD MSTORE PUSH2 0xB4B DUP3 DUP3 PUSH2 0xAB9 JUMP JUMPDEST SWAP2 POP POP PUSH1 0x60 DUP4 ADD MLOAD PUSH2 0xB60 PUSH1 0x60 DUP7 ADD DUP3 PUSH2 0xA2C JUMP JUMPDEST POP PUSH1 0x80 DUP4 ADD MLOAD PUSH2 0xB73 PUSH1 0x80 DUP7 ADD DUP3 PUSH2 0xAFC JUMP JUMPDEST POP DUP1 SWAP2 POP POP SWAP3 SWAP2 POP POP JUMP JUMPDEST PUSH0 PUSH1 0x40 DUP3 ADD SWAP1 POP DUP2 DUP2 SUB PUSH0 DUP4 ADD MSTORE PUSH2 0xB96 DUP2 DUP6 PUSH2 0xB0B JUMP JUMPDEST SWAP1 POP PUSH2 0xBA5 PUSH1 0x20 DUP4 ADD DUP5 PUSH2 0x637 JUMP JUMPDEST SWAP4 SWAP3 POP POP POP JUMP JUMPDEST PUSH32 0x4E487B7100000000000000000000000000000000000000000000000000000000 PUSH0 MSTORE PUSH1 0x11 PUSH1 0x4 MSTORE PUSH1 0x24 PUSH0 REVERT JUMPDEST PUSH0 PUSH2 0xBE3 DUP3 PUSH2 0x62E JUMP JUMPDEST SWAP2 POP PUSH2 0xBEE DUP4 PUSH2 0x62E JUMP JUMPDEST SWAP3 POP DUP3 DUP3 ADD SWAP1 POP DUP1 DUP3 GT ISZERO PUSH2 0xC06 JUMPI PUSH2 0xC05 PUSH2 0xBAC JUMP JUMPDEST JUMPDEST SWAP3 SWAP2 POP POP JUMP JUMPDEST PUSH32 0x536166654D6174683A206164646974696F6E206F766572666C6F770000000000 PUSH0 DUP3 ADD MSTORE POP JUMP JUMPDEST PUSH0 PUSH2 0xC40 PUSH1 0x1B DUP4 PUSH2 0x6B4 JUMP JUMPDEST SWAP2 POP PUSH2 0xC4B DUP3 PUSH2 0xC0C JUMP JUMPDEST PUSH1 0x20 DUP3 ADD SWAP1 POP SWAP2 SWAP1 POP JUMP JUMPDEST PUSH0 PUSH1 0x20 DUP3 ADD SWAP1 POP DUP2 DUP2 SUB PUSH0 DUP4 ADD MSTORE PUSH2 0xC6D DUP2 PUSH2 0xC34 JUMP JUMPDEST SWAP1 POP SWAP2 SWAP1 POP JUMP INVALID LOG2 PUSH5 0x6970667358 0x22 SLT KECCAK256 0xE1 PUSH4 0x69544CD4 PUSH27 0x99D1D4DD430840A65FB37407758F9A23ECA6ABD2C4EC75F6D86473 PUSH16 0x6C634300081600330000000000000000 "
				},
				"gasEstimates": {
					"creation": {
						"codeDepositCost": "648400",
						"executionCost": "29959",
						"totalCost": "678359"
					},
					"external": {
						"addTask(string)": "infinite",
						"completeTask(uint256)": "infinite",
						"getTasksCount()": "2454",
						"upgradePlan()": "24475"
					}
				},
				"methodIdentifiers": {
					"addTask(string)": "67238562",
					"completeTask(uint256)": "e1e29558",
					"getTasksCount()": "9f899273",
					"upgradePlan()": "04fafc6c"
				}
			},
			"storageLayout": {
				"storage": [
					{
						"astId": 20,
						"contract": "contracts/TaskManager.sol:TaskManager",
						"label": "admin",
						"offset": 0,
						"slot": "0",
						"type": "t_address"
					},
					{
						"astId": 22,
						"contract": "contracts/TaskManager.sol:TaskManager",
						"label": "count",
						"offset": 0,
						"slot": "1",
						"type": "t_uint256"
					},
					{
						"astId": 27,
						"contract": "contracts/TaskManager.sol:TaskManager",
						"label": "tasks",
						"offset": 0,
						"slot": "2",
						"type": "t_mapping(t_uint256,t_struct(Task)18_storage)"
					},
					{
						"astId": 31,
						"contract": "contracts/TaskManager.sol:TaskManager",
						"label": "premiums",
						"offset": 0,
						"slot": "3",
						"type": "t_mapping(t_address,t_bool)"
					}
				],
				"types": {
					"t_address": {
						"encoding": "inplace",
						"label": "address",
						"numberOfBytes": "20"
					},
					"t_bool": {
						"encoding": "inplace",
						"label": "bool",
						"numberOfBytes": "1"
					},
					"t_enum(Priority)6": {
						"encoding": "inplace",
						"label": "enum TaskManager.Priority",
						"numberOfBytes": "1"
					},
					"t_mapping(t_address,t_bool)": {
						"encoding": "mapping",
						"key": "t_address",
						"label": "mapping(address => bool)",
						"numberOfBytes": "32",
						"value": "t_bool"
					},
					"t_mapping(t_uint256,t_struct(Task)18_storage)": {
						"encoding": "mapping",
						"key": "t_uint256",
						"label": "mapping(uint256 => struct TaskManager.Task)",
						"numberOfBytes": "32",
						"value": "t_struct(Task)18_storage"
					},
					"t_string_storage": {
						"encoding": "bytes",
						"label": "string",
						"numberOfBytes": "32"
					},
					"t_struct(Task)18_storage": {
						"encoding": "inplace",
						"label": "struct TaskManager.Task",
						"members": [
							{
								"astId": 8,
								"contract": "contracts/TaskManager.sol:TaskManager",
								"label": "id",
								"offset": 0,
								"slot": "0",
								"type": "t_uint256"
							},
							{
								"astId": 11,
								"contract": "contracts/TaskManager.sol:TaskManager",
								"label": "priority",
								"offset": 0,
								"slot": "1",
								"type": "t_enum(Priority)6"
							},
							{
								"astId": 13,
								"contract": "contracts/TaskManager.sol:TaskManager",
								"label": "content",
								"offset": 0,
								"slot": "2",
								"type": "t_string_storage"
							},
							{
								"astId": 15,
								"contract": "contracts/TaskManager.sol:TaskManager",
								"label": "timestamp",
								"offset": 0,
								"slot": "3",
								"type": "t_uint256"
							},
							{
								"astId": 17,
								"contract": "contracts/TaskManager.sol:TaskManager",
								"label": "completed",
								"offset": 0,
								"slot": "4",
								"type": "t_bool"
							}
						],
						"numberOfBytes": "160"
					},
					"t_uint256": {
						"encoding": "inplace",
						"label": "uint256",
						"numberOfBytes": "32"
					}
				}
			},
			"userdoc": {
				"kind": "user",
				"methods": {},
				"version": 1
			}
		}
	}
}