{
	"contracts/TaskManager.sol": {
		"TaskManager": {
			"abi": [
				{
					"inputs": [],
					"stateMutability": "nonpayable",
					"type": "constructor"
				},
				{
					"anonymous": false,
					"inputs": [
						{
							"components": [
								{
									"internalType": "uint256",
									"name": "id",
									"type": "uint256"
								},
								{
									"internalType": "enum TaskManager.Priority",
									"name": "priority",
									"type": "uint8"
								},
								{
									"internalType": "string",
									"name": "content",
									"type": "string"
								},
								{
									"internalType": "uint256",
									"name": "timestamp",
									"type": "uint256"
								},
								{
									"internalType": "bool",
									"name": "completed",
									"type": "bool"
								}
							],
							"indexed": false,
							"internalType": "struct TaskManager.Task",
							"name": "task",
							"type": "tuple"
						},
						{
							"indexed": false,
							"internalType": "uint256",
							"name": "time",
							"type": "uint256"
						}
					],
					"name": "NewTask",
					"type": "event"
				},
				{
					"inputs": [
						{
							"internalType": "string",
							"name": "content",
							"type": "string"
						}
					],
					"name": "addTask",
					"outputs": [],
					"stateMutability": "nonpayable",
					"type": "function"
				},
				{
					"inputs": [
						{
							"internalType": "uint256",
							"name": "_count",
							"type": "uint256"
						}
					],
					"name": "completeTask",
					"outputs": [],
					"stateMutability": "nonpayable",
					"type": "function"
				},
				{
					"inputs": [],
					"name": "getTasksCount",
					"outputs": [
						{
							"internalType": "uint256",
							"name": "",
							"type": "uint256"
						}
					],
					"stateMutability": "view",
					"type": "function"
				},
				{
					"inputs": [],
					"name": "upgradePlan",
					"outputs": [],
					"stateMutability": "payable",
					"type": "function"
				}
			],
			"devdoc": {
				"kind": "dev",
				"methods": {},
				"version": 1
			},
			"evm": {
				"assembly": "    /* \"contracts/TaskManager.sol\":168:1640  contract TaskManager {... */\n  mstore(0x40, 0x80)\n    /* \"contracts/TaskManager.sol\":690:803  constructor(){... */\n  callvalue\n  dup1\n  iszero\n  tag_1\n  jumpi\n  0x00\n  dup1\n  revert\ntag_1:\n  pop\n    /* \"contracts/TaskManager.sol\":722:732  msg.sender */\n  caller\n    /* \"contracts/TaskManager.sol\":714:719  admin */\n  0x00\n  dup1\n    /* \"contracts/TaskManager.sol\":714:732  admin = msg.sender */\n  0x0100\n  exp\n  dup2\n  sload\n  dup2\n  0xffffffffffffffffffffffffffffffffffffffff\n  mul\n  not\n  and\n  swap1\n  dup4\n  0xffffffffffffffffffffffffffffffffffffffff\n  and\n  mul\n  or\n  swap1\n  sstore\n  pop\n    /* \"contracts/TaskManager.sol\":794:795  0 */\n  0x00\n    /* \"contracts/TaskManager.sol\":786:791  count */\n  0x01\n    /* \"contracts/TaskManager.sol\":786:795  count = 0 */\n  dup2\n  swap1\n  sstore\n  pop\n    /* \"contracts/TaskManager.sol\":168:1640  contract TaskManager {... */\n  dataSize(sub_0)\n  dup1\n  dataOffset(sub_0)\n  0x00\n  codecopy\n  0x00\n  return\nstop\n\nsub_0: assembly {\n        /* \"contracts/TaskManager.sol\":168:1640  contract TaskManager {... */\n      mstore(0x40, 0x80)\n      jumpi(tag_1, lt(calldatasize, 0x04))\n      shr(0xe0, calldataload(0x00))\n      dup1\n      0x04fafc6c\n      eq\n      tag_2\n      jumpi\n      dup1\n      0x67238562\n      eq\n      tag_3\n      jumpi\n      dup1\n      0x9f899273\n      eq\n      tag_4\n      jumpi\n      dup1\n      0xe1e29558\n      eq\n      tag_5\n      jumpi\n    tag_1:\n      0x00\n      dup1\n      revert\n        /* \"contracts/TaskManager.sol\":1252:1396  function upgradePlan() public payable {... */\n    tag_2:\n      tag_6\n      tag_7\n      jump\t// in\n    tag_6:\n      stop\n        /* \"contracts/TaskManager.sol\":811:1080  function addTask(string memory content) public isPemium {... */\n    tag_3:\n      callvalue\n      dup1\n      iszero\n      tag_8\n      jumpi\n      0x00\n      dup1\n      revert\n    tag_8:\n      pop\n      tag_9\n      0x04\n      dup1\n      calldatasize\n      sub\n      dup2\n      add\n      swap1\n      tag_10\n      swap2\n      swap1\n      tag_11\n      jump\t// in\n    tag_10:\n      tag_12\n      jump\t// in\n    tag_9:\n      stop\n        /* \"contracts/TaskManager.sol\":1546:1629  function getTasksCount() view public returns (uint) {... */\n    tag_4:\n      callvalue\n      dup1\n      iszero\n      tag_13\n      jumpi\n      0x00\n      dup1\n      revert\n    tag_13:\n      pop\n      tag_14\n      tag_15\n      jump\t// in\n    tag_14:\n      mload(0x40)\n      tag_16\n      swap2\n      swap1\n      tag_17\n      jump\t// in\n    tag_16:\n      mload(0x40)\n      dup1\n      swap2\n      sub\n      swap1\n      return\n        /* \"contracts/TaskManager.sol\":1088:1244  function completeTask(uint _count) public {... */\n    tag_5:\n      callvalue\n      dup1\n      iszero\n      tag_18\n      jumpi\n      0x00\n      dup1\n      revert\n    tag_18:\n      pop\n      tag_19\n      0x04\n      dup1\n      calldatasize\n      sub\n      dup2\n      add\n      swap1\n      tag_20\n      swap2\n      swap1\n      tag_21\n      jump\t// in\n    tag_20:\n      tag_22\n      jump\t// in\n    tag_19:\n      stop\n        /* \"contracts/TaskManager.sol\":1252:1396  function upgradePlan() public payable {... */\n    tag_7:\n        /* \"contracts/TaskManager.sol\":1322:1327  5 wei */\n      0x05\n        /* \"contracts/TaskManager.sol\":1309:1318  msg.value */\n      callvalue\n        /* \"contracts/TaskManager.sol\":1309:1327  msg.value >= 5 wei */\n      lt\n      iszero\n        /* \"contracts/TaskManager.sol\":1301:1350  require(msg.value >= 5 wei, 'no sufficient fund') */\n      tag_24\n      jumpi\n      mload(0x40)\n      0x08c379a000000000000000000000000000000000000000000000000000000000\n      dup2\n      mstore\n      0x04\n      add\n      tag_25\n      swap1\n      tag_26\n      jump\t// in\n    tag_25:\n      mload(0x40)\n      dup1\n      swap2\n      sub\n      swap1\n      revert\n    tag_24:\n        /* \"contracts/TaskManager.sol\":1384:1388  true */\n      0x01\n        /* \"contracts/TaskManager.sol\":1361:1369  premiums */\n      0x03\n        /* \"contracts/TaskManager.sol\":1361:1381  premiums[msg.sender] */\n      0x00\n        /* \"contracts/TaskManager.sol\":1370:1380  msg.sender */\n      caller\n        /* \"contracts/TaskManager.sol\":1361:1381  premiums[msg.sender] */\n      0xffffffffffffffffffffffffffffffffffffffff\n      and\n      0xffffffffffffffffffffffffffffffffffffffff\n      and\n      dup2\n      mstore\n      0x20\n      add\n      swap1\n      dup2\n      mstore\n      0x20\n      add\n      0x00\n      keccak256\n      0x00\n        /* \"contracts/TaskManager.sol\":1361:1388  premiums[msg.sender] = true */\n      0x0100\n      exp\n      dup2\n      sload\n      dup2\n      0xff\n      mul\n      not\n      and\n      swap1\n      dup4\n      iszero\n      iszero\n      mul\n      or\n      swap1\n      sstore\n      pop\n        /* \"contracts/TaskManager.sol\":1252:1396  function upgradePlan() public payable {... */\n      jump\t// out\n        /* \"contracts/TaskManager.sol\":811:1080  function addTask(string memory content) public isPemium {... */\n    tag_12:\n        /* \"contracts/TaskManager.sol\":1453:1455  11 */\n      0x0b\n        /* \"contracts/TaskManager.sol\":1449:1450  1 */\n      0x01\n        /* \"contracts/TaskManager.sol\":1441:1446  count */\n      dup1\n      sload\n        /* \"contracts/TaskManager.sol\":1441:1450  count + 1 */\n      tag_28\n      swap2\n      swap1\n      tag_29\n      jump\t// in\n    tag_28:\n        /* \"contracts/TaskManager.sol\":1441:1455  count + 1 < 11 */\n      lt\n        /* \"contracts/TaskManager.sol\":1441:1479  count + 1 < 11 || premiums[msg.sender] */\n      dup1\n      tag_30\n      jumpi\n      pop\n        /* \"contracts/TaskManager.sol\":1459:1467  premiums */\n      0x03\n        /* \"contracts/TaskManager.sol\":1459:1479  premiums[msg.sender] */\n      0x00\n        /* \"contracts/TaskManager.sol\":1468:1478  msg.sender */\n      caller\n        /* \"contracts/TaskManager.sol\":1459:1479  premiums[msg.sender] */\n      0xffffffffffffffffffffffffffffffffffffffff\n      and\n      0xffffffffffffffffffffffffffffffffffffffff\n      and\n      dup2\n      mstore\n      0x20\n      add\n      swap1\n      dup2\n      mstore\n      0x20\n      add\n      0x00\n      keccak256\n      0x00\n      swap1\n      sload\n      swap1\n      0x0100\n      exp\n      swap1\n      div\n      0xff\n      and\n        /* \"contracts/TaskManager.sol\":1441:1479  count + 1 < 11 || premiums[msg.sender] */\n    tag_30:\n        /* \"contracts/TaskManager.sol\":1433:1518  require(count + 1 < 11 || premiums[msg.sender], 'please upgrade to add more than 10') */\n      tag_31\n      jumpi\n      mload(0x40)\n      0x08c379a000000000000000000000000000000000000000000000000000000000\n      dup2\n      mstore\n      0x04\n      add\n      tag_32\n      swap1\n      tag_33\n      jump\t// in\n    tag_32:\n      mload(0x40)\n      dup1\n      swap2\n      sub\n      swap1\n      revert\n    tag_31:\n        /* \"contracts/TaskManager.sol\":878:894  Task memory task */\n      0x00\n        /* \"contracts/TaskManager.sol\":897:955  Task(count, Priority.LOW, content, block.timestamp, false) */\n      mload(0x40)\n      dup1\n      0xa0\n      add\n      0x40\n      mstore\n      dup1\n        /* \"contracts/TaskManager.sol\":902:907  count */\n      sload(0x01)\n        /* \"contracts/TaskManager.sol\":897:955  Task(count, Priority.LOW, content, block.timestamp, false) */\n      dup2\n      mstore\n      0x20\n      add\n        /* \"contracts/TaskManager.sol\":909:921  Priority.LOW */\n      0x00\n        /* \"contracts/TaskManager.sol\":897:955  Task(count, Priority.LOW, content, block.timestamp, false) */\n      0x02\n      dup2\n      gt\n      iszero\n      tag_35\n      jumpi\n      tag_36\n      tag_37\n      jump\t// in\n    tag_36:\n    tag_35:\n      dup2\n      mstore\n      0x20\n      add\n        /* \"contracts/TaskManager.sol\":923:930  content */\n      dup4\n        /* \"contracts/TaskManager.sol\":897:955  Task(count, Priority.LOW, content, block.timestamp, false) */\n      dup2\n      mstore\n      0x20\n      add\n        /* \"contracts/TaskManager.sol\":932:947  block.timestamp */\n      timestamp\n        /* \"contracts/TaskManager.sol\":897:955  Task(count, Priority.LOW, content, block.timestamp, false) */\n      dup2\n      mstore\n      0x20\n      add\n        /* \"contracts/TaskManager.sol\":949:954  false */\n      0x00\n        /* \"contracts/TaskManager.sol\":897:955  Task(count, Priority.LOW, content, block.timestamp, false) */\n      iszero\n      iszero\n      dup2\n      mstore\n      pop\n        /* \"contracts/TaskManager.sol\":878:955  Task memory task = Task(count, Priority.LOW, content, block.timestamp, false) */\n      swap1\n      pop\n        /* \"contracts/TaskManager.sol\":981:985  task */\n      dup1\n        /* \"contracts/TaskManager.sol\":966:971  tasks */\n      0x02\n        /* \"contracts/TaskManager.sol\":966:978  tasks[count] */\n      0x00\n        /* \"contracts/TaskManager.sol\":972:977  count */\n      sload(0x01)\n        /* \"contracts/TaskManager.sol\":966:978  tasks[count] */\n      dup2\n      mstore\n      0x20\n      add\n      swap1\n      dup2\n      mstore\n      0x20\n      add\n      0x00\n      keccak256\n        /* \"contracts/TaskManager.sol\":966:985  tasks[count] = task */\n      0x00\n      dup3\n      add\n      mload\n      dup2\n      0x00\n      add\n      sstore\n      0x20\n      dup3\n      add\n      mload\n      dup2\n      0x01\n      add\n      exp(0x0100, 0x00)\n      dup2\n      sload\n      dup2\n      0xff\n      mul\n      not\n      and\n      swap1\n      dup4\n      0x02\n      dup2\n      gt\n      iszero\n      tag_38\n      jumpi\n      tag_39\n      tag_37\n      jump\t// in\n    tag_39:\n    tag_38:\n      mul\n      or\n      swap1\n      sstore\n      pop\n      0x40\n      dup3\n      add\n      mload\n      dup2\n      0x02\n      add\n      swap1\n      dup2\n      tag_40\n      swap2\n      swap1\n      tag_41\n      jump\t// in\n    tag_40:\n      pop\n      0x60\n      dup3\n      add\n      mload\n      dup2\n      0x03\n      add\n      sstore\n      0x80\n      dup3\n      add\n      mload\n      dup2\n      0x04\n      add\n      exp(0x0100, 0x00)\n      dup2\n      sload\n      dup2\n      0xff\n      mul\n      not\n      and\n      swap1\n      dup4\n      iszero\n      iszero\n      mul\n      or\n      swap1\n      sstore\n      pop\n      swap1\n      pop\n      pop\n        /* \"contracts/TaskManager.sol\":1004:1026  SafeMath.add(count, 1) */\n      tag_42\n        /* \"contracts/TaskManager.sol\":1017:1022  count */\n      sload(0x01)\n        /* \"contracts/TaskManager.sol\":1024:1025  1 */\n      0x01\n        /* \"contracts/TaskManager.sol\":1004:1016  SafeMath.add */\n      tag_43\n        /* \"contracts/TaskManager.sol\":1004:1026  SafeMath.add(count, 1) */\n      jump\t// in\n    tag_42:\n        /* \"contracts/TaskManager.sol\":996:1001  count */\n      0x01\n        /* \"contracts/TaskManager.sol\":996:1026  count = SafeMath.add(count, 1) */\n      dup2\n      swap1\n      sstore\n      pop\n        /* \"contracts/TaskManager.sol\":1042:1072  NewTask(task, block.timestamp) */\n      0x615eb1193ab28532b0958952317b9eefb36e49e4a65bc640cf28f2ec9a931771\n        /* \"contracts/TaskManager.sol\":1050:1054  task */\n      dup2\n        /* \"contracts/TaskManager.sol\":1056:1071  block.timestamp */\n      timestamp\n        /* \"contracts/TaskManager.sol\":1042:1072  NewTask(task, block.timestamp) */\n      mload(0x40)\n      tag_44\n      swap3\n      swap2\n      swap1\n      tag_45\n      jump\t// in\n    tag_44:\n      mload(0x40)\n      dup1\n      swap2\n      sub\n      swap1\n      log1\n        /* \"contracts/TaskManager.sol\":867:1080  {... */\n      pop\n        /* \"contracts/TaskManager.sol\":811:1080  function addTask(string memory content) public isPemium {... */\n      pop\n      jump\t// out\n        /* \"contracts/TaskManager.sol\":1546:1629  function getTasksCount() view public returns (uint) {... */\n    tag_15:\n        /* \"contracts/TaskManager.sol\":1592:1596  uint */\n      0x00\n        /* \"contracts/TaskManager.sol\":1616:1621  count */\n      sload(0x01)\n        /* \"contracts/TaskManager.sol\":1609:1621  return count */\n      swap1\n      pop\n        /* \"contracts/TaskManager.sol\":1546:1629  function getTasksCount() view public returns (uint) {... */\n      swap1\n      jump\t// out\n        /* \"contracts/TaskManager.sol\":1088:1244  function completeTask(uint _count) public {... */\n    tag_22:\n        /* \"contracts/TaskManager.sol\":1141:1157  Task memory task */\n      0x00\n        /* \"contracts/TaskManager.sol\":1160:1165  tasks */\n      0x02\n        /* \"contracts/TaskManager.sol\":1160:1173  tasks[_count] */\n      0x00\n        /* \"contracts/TaskManager.sol\":1166:1172  _count */\n      dup4\n        /* \"contracts/TaskManager.sol\":1160:1173  tasks[_count] */\n      dup2\n      mstore\n      0x20\n      add\n      swap1\n      dup2\n      mstore\n      0x20\n      add\n      0x00\n      keccak256\n        /* \"contracts/TaskManager.sol\":1141:1173  Task memory task = tasks[_count] */\n      mload(0x40)\n      dup1\n      0xa0\n      add\n      0x40\n      mstore\n      swap1\n      dup2\n      0x00\n      dup3\n      add\n      sload\n      dup2\n      mstore\n      0x20\n      add\n      0x01\n      dup3\n      add\n      0x00\n      swap1\n      sload\n      swap1\n      0x0100\n      exp\n      swap1\n      div\n      0xff\n      and\n      0x02\n      dup2\n      gt\n      iszero\n      tag_48\n      jumpi\n      tag_49\n      tag_37\n      jump\t// in\n    tag_49:\n    tag_48:\n      0x02\n      dup2\n      gt\n      iszero\n      tag_50\n      jumpi\n      tag_51\n      tag_37\n      jump\t// in\n    tag_51:\n    tag_50:\n      dup2\n      mstore\n      0x20\n      add\n      0x02\n      dup3\n      add\n      dup1\n      sload\n      tag_52\n      swap1\n      tag_53\n      jump\t// in\n    tag_52:\n      dup1\n      0x1f\n      add\n      0x20\n      dup1\n      swap2\n      div\n      mul\n      0x20\n      add\n      mload(0x40)\n      swap1\n      dup2\n      add\n      0x40\n      mstore\n      dup1\n      swap3\n      swap2\n      swap1\n      dup2\n      dup2\n      mstore\n      0x20\n      add\n      dup3\n      dup1\n      sload\n      tag_54\n      swap1\n      tag_53\n      jump\t// in\n    tag_54:\n      dup1\n      iszero\n      tag_55\n      jumpi\n      dup1\n      0x1f\n      lt\n      tag_56\n      jumpi\n      0x0100\n      dup1\n      dup4\n      sload\n      div\n      mul\n      dup4\n      mstore\n      swap2\n      0x20\n      add\n      swap2\n      jump(tag_55)\n    tag_56:\n      dup3\n      add\n      swap2\n      swap1\n      0x00\n      mstore\n      keccak256(0x00, 0x20)\n      swap1\n    tag_57:\n      dup2\n      sload\n      dup2\n      mstore\n      swap1\n      0x01\n      add\n      swap1\n      0x20\n      add\n      dup1\n      dup4\n      gt\n      tag_57\n      jumpi\n      dup3\n      swap1\n      sub\n      0x1f\n      and\n      dup3\n      add\n      swap2\n    tag_55:\n      pop\n      pop\n      pop\n      pop\n      pop\n      dup2\n      mstore\n      0x20\n      add\n      0x03\n      dup3\n      add\n      sload\n      dup2\n      mstore\n      0x20\n      add\n      0x04\n      dup3\n      add\n      0x00\n      swap1\n      sload\n      swap1\n      0x0100\n      exp\n      swap1\n      div\n      0xff\n      and\n      iszero\n      iszero\n      iszero\n      iszero\n      dup2\n      mstore\n      pop\n      pop\n      swap1\n      pop\n        /* \"contracts/TaskManager.sol\":1201:1205  true */\n      0x01\n        /* \"contracts/TaskManager.sol\":1184:1188  task */\n      dup2\n        /* \"contracts/TaskManager.sol\":1184:1198  task.completed */\n      0x80\n      add\n        /* \"contracts/TaskManager.sol\":1184:1205  task.completed = true */\n      swap1\n      iszero\n      iszero\n      swap1\n      dup2\n      iszero\n      iszero\n      dup2\n      mstore\n      pop\n      pop\n        /* \"contracts/TaskManager.sol\":1232:1236  task */\n      dup1\n        /* \"contracts/TaskManager.sol\":1216:1221  tasks */\n      0x02\n        /* \"contracts/TaskManager.sol\":1216:1229  tasks[_count] */\n      0x00\n        /* \"contracts/TaskManager.sol\":1222:1228  _count */\n      dup5\n        /* \"contracts/TaskManager.sol\":1216:1229  tasks[_count] */\n      dup2\n      mstore\n      0x20\n      add\n      swap1\n      dup2\n      mstore\n      0x20\n      add\n      0x00\n      keccak256\n        /* \"contracts/TaskManager.sol\":1216:1236  tasks[_count] = task */\n      0x00\n      dup3\n      add\n      mload\n      dup2\n      0x00\n      add\n      sstore\n      0x20\n      dup3\n      add\n      mload\n      dup2\n      0x01\n      add\n      exp(0x0100, 0x00)\n      dup2\n      sload\n      dup2\n      0xff\n      mul\n      not\n      and\n      swap1\n      dup4\n      0x02\n      dup2\n      gt\n      iszero\n      tag_58\n      jumpi\n      tag_59\n      tag_37\n      jump\t// in\n    tag_59:\n    tag_58:\n      mul\n      or\n      swap1\n      sstore\n      pop\n      0x40\n      dup3\n      add\n      mload\n      dup2\n      0x02\n      add\n      swap1\n      dup2\n      tag_60\n      swap2\n      swap1\n      tag_41\n      jump\t// in\n    tag_60:\n      pop\n      0x60\n      dup3\n      add\n      mload\n      dup2\n      0x03\n      add\n      sstore\n      0x80\n      dup3\n      add\n      mload\n      dup2\n      0x04\n      add\n      exp(0x0100, 0x00)\n      dup2\n      sload\n      dup2\n      0xff\n      mul\n      not\n      and\n      swap1\n      dup4\n      iszero\n      iszero\n      mul\n      or\n      swap1\n      sstore\n      pop\n      swap1\n      pop\n      pop\n        /* \"contracts/TaskManager.sol\":1130:1244  {... */\n      pop\n        /* \"contracts/TaskManager.sol\":1088:1244  function completeTask(uint _count) public {... */\n      pop\n      jump\t// out\n        /* \"https://github.com/mdexSwap/contracts/blob/master/contracts/library/SafeMath.sol\":318:494  function add(uint256 a, uint256 b) internal pure returns (uint256) {... */\n    tag_43:\n        /* \"https://github.com/mdexSwap/contracts/blob/master/contracts/library/SafeMath.sol\":376:383  uint256 */\n      0x00\n        /* \"https://github.com/mdexSwap/contracts/blob/master/contracts/library/SafeMath.sol\":395:404  uint256 c */\n      dup1\n        /* \"https://github.com/mdexSwap/contracts/blob/master/contracts/library/SafeMath.sol\":411:412  b */\n      dup3\n        /* \"https://github.com/mdexSwap/contracts/blob/master/contracts/library/SafeMath.sol\":407:408  a */\n      dup5\n        /* \"https://github.com/mdexSwap/contracts/blob/master/contracts/library/SafeMath.sol\":407:412  a + b */\n      tag_62\n      swap2\n      swap1\n      tag_29\n      jump\t// in\n    tag_62:\n        /* \"https://github.com/mdexSwap/contracts/blob/master/contracts/library/SafeMath.sol\":395:412  uint256 c = a + b */\n      swap1\n      pop\n        /* \"https://github.com/mdexSwap/contracts/blob/master/contracts/library/SafeMath.sol\":435:436  a */\n      dup4\n        /* \"https://github.com/mdexSwap/contracts/blob/master/contracts/library/SafeMath.sol\":430:431  c */\n      dup2\n        /* \"https://github.com/mdexSwap/contracts/blob/master/contracts/library/SafeMath.sol\":430:436  c >= a */\n      lt\n      iszero\n        /* \"https://github.com/mdexSwap/contracts/blob/master/contracts/library/SafeMath.sol\":422:468  require(c >= a, \"SafeMath: addition overflow\") */\n      tag_63\n      jumpi\n      mload(0x40)\n      0x08c379a000000000000000000000000000000000000000000000000000000000\n      dup2\n      mstore\n      0x04\n      add\n      tag_64\n      swap1\n      tag_65\n      jump\t// in\n    tag_64:\n      mload(0x40)\n      dup1\n      swap2\n      sub\n      swap1\n      revert\n    tag_63:\n        /* \"https://github.com/mdexSwap/contracts/blob/master/contracts/library/SafeMath.sol\":486:487  c */\n      dup1\n        /* \"https://github.com/mdexSwap/contracts/blob/master/contracts/library/SafeMath.sol\":479:487  return c */\n      swap2\n      pop\n      pop\n        /* \"https://github.com/mdexSwap/contracts/blob/master/contracts/library/SafeMath.sol\":318:494  function add(uint256 a, uint256 b) internal pure returns (uint256) {... */\n      swap3\n      swap2\n      pop\n      pop\n      jump\t// out\n        /* \"#utility.yul\":7:82   */\n    tag_66:\n        /* \"#utility.yul\":40:46   */\n      0x00\n        /* \"#utility.yul\":73:75   */\n      0x40\n        /* \"#utility.yul\":67:76   */\n      mload\n        /* \"#utility.yul\":57:76   */\n      swap1\n      pop\n        /* \"#utility.yul\":7:82   */\n      swap1\n      jump\t// out\n        /* \"#utility.yul\":88:205   */\n    tag_67:\n        /* \"#utility.yul\":197:198   */\n      0x00\n        /* \"#utility.yul\":194:195   */\n      dup1\n        /* \"#utility.yul\":187:199   */\n      revert\n        /* \"#utility.yul\":211:328   */\n    tag_68:\n        /* \"#utility.yul\":320:321   */\n      0x00\n        /* \"#utility.yul\":317:318   */\n      dup1\n        /* \"#utility.yul\":310:322   */\n      revert\n        /* \"#utility.yul\":334:451   */\n    tag_69:\n        /* \"#utility.yul\":443:444   */\n      0x00\n        /* \"#utility.yul\":440:441   */\n      dup1\n        /* \"#utility.yul\":433:445   */\n      revert\n        /* \"#utility.yul\":457:574   */\n    tag_70:\n        /* \"#utility.yul\":566:567   */\n      0x00\n        /* \"#utility.yul\":563:564   */\n      dup1\n        /* \"#utility.yul\":556:568   */\n      revert\n        /* \"#utility.yul\":580:682   */\n    tag_71:\n        /* \"#utility.yul\":621:627   */\n      0x00\n        /* \"#utility.yul\":672:674   */\n      0x1f\n        /* \"#utility.yul\":668:675   */\n      not\n        /* \"#utility.yul\":663:665   */\n      0x1f\n        /* \"#utility.yul\":656:661   */\n      dup4\n        /* \"#utility.yul\":652:666   */\n      add\n        /* \"#utility.yul\":648:676   */\n      and\n        /* \"#utility.yul\":638:676   */\n      swap1\n      pop\n        /* \"#utility.yul\":580:682   */\n      swap2\n      swap1\n      pop\n      jump\t// out\n        /* \"#utility.yul\":688:868   */\n    tag_72:\n        /* \"#utility.yul\":736:813   */\n      0x4e487b7100000000000000000000000000000000000000000000000000000000\n        /* \"#utility.yul\":733:734   */\n      0x00\n        /* \"#utility.yul\":726:814   */\n      mstore\n        /* \"#utility.yul\":833:837   */\n      0x41\n        /* \"#utility.yul\":830:831   */\n      0x04\n        /* \"#utility.yul\":823:838   */\n      mstore\n        /* \"#utility.yul\":857:861   */\n      0x24\n        /* \"#utility.yul\":854:855   */\n      0x00\n        /* \"#utility.yul\":847:862   */\n      revert\n        /* \"#utility.yul\":874:1155   */\n    tag_73:\n        /* \"#utility.yul\":957:984   */\n      tag_128\n        /* \"#utility.yul\":979:983   */\n      dup3\n        /* \"#utility.yul\":957:984   */\n      tag_71\n      jump\t// in\n    tag_128:\n        /* \"#utility.yul\":949:955   */\n      dup2\n        /* \"#utility.yul\":945:985   */\n      add\n        /* \"#utility.yul\":1087:1093   */\n      dup2\n        /* \"#utility.yul\":1075:1085   */\n      dup2\n        /* \"#utility.yul\":1072:1094   */\n      lt\n        /* \"#utility.yul\":1051:1069   */\n      0xffffffffffffffff\n        /* \"#utility.yul\":1039:1049   */\n      dup3\n        /* \"#utility.yul\":1036:1070   */\n      gt\n        /* \"#utility.yul\":1033:1095   */\n      or\n        /* \"#utility.yul\":1030:1118   */\n      iszero\n      tag_129\n      jumpi\n        /* \"#utility.yul\":1098:1116   */\n      tag_130\n      tag_72\n      jump\t// in\n    tag_130:\n        /* \"#utility.yul\":1030:1118   */\n    tag_129:\n        /* \"#utility.yul\":1138:1148   */\n      dup1\n        /* \"#utility.yul\":1134:1136   */\n      0x40\n        /* \"#utility.yul\":1127:1149   */\n      mstore\n        /* \"#utility.yul\":917:1155   */\n      pop\n        /* \"#utility.yul\":874:1155   */\n      pop\n      pop\n      jump\t// out\n        /* \"#utility.yul\":1161:1290   */\n    tag_74:\n        /* \"#utility.yul\":1195:1201   */\n      0x00\n        /* \"#utility.yul\":1222:1242   */\n      tag_132\n      tag_66\n      jump\t// in\n    tag_132:\n        /* \"#utility.yul\":1212:1242   */\n      swap1\n      pop\n        /* \"#utility.yul\":1251:1284   */\n      tag_133\n        /* \"#utility.yul\":1279:1283   */\n      dup3\n        /* \"#utility.yul\":1271:1277   */\n      dup3\n        /* \"#utility.yul\":1251:1284   */\n      tag_73\n      jump\t// in\n    tag_133:\n        /* \"#utility.yul\":1161:1290   */\n      swap2\n      swap1\n      pop\n      jump\t// out\n        /* \"#utility.yul\":1296:1604   */\n    tag_75:\n        /* \"#utility.yul\":1358:1362   */\n      0x00\n        /* \"#utility.yul\":1448:1466   */\n      0xffffffffffffffff\n        /* \"#utility.yul\":1440:1446   */\n      dup3\n        /* \"#utility.yul\":1437:1467   */\n      gt\n        /* \"#utility.yul\":1434:1490   */\n      iszero\n      tag_135\n      jumpi\n        /* \"#utility.yul\":1470:1488   */\n      tag_136\n      tag_72\n      jump\t// in\n    tag_136:\n        /* \"#utility.yul\":1434:1490   */\n    tag_135:\n        /* \"#utility.yul\":1508:1537   */\n      tag_137\n        /* \"#utility.yul\":1530:1536   */\n      dup3\n        /* \"#utility.yul\":1508:1537   */\n      tag_71\n      jump\t// in\n    tag_137:\n        /* \"#utility.yul\":1500:1537   */\n      swap1\n      pop\n        /* \"#utility.yul\":1592:1596   */\n      0x20\n        /* \"#utility.yul\":1586:1590   */\n      dup2\n        /* \"#utility.yul\":1582:1597   */\n      add\n        /* \"#utility.yul\":1574:1597   */\n      swap1\n      pop\n        /* \"#utility.yul\":1296:1604   */\n      swap2\n      swap1\n      pop\n      jump\t// out\n        /* \"#utility.yul\":1610:1756   */\n    tag_76:\n        /* \"#utility.yul\":1707:1713   */\n      dup3\n        /* \"#utility.yul\":1702:1705   */\n      dup2\n        /* \"#utility.yul\":1697:1700   */\n      dup4\n        /* \"#utility.yul\":1684:1714   */\n      calldatacopy\n        /* \"#utility.yul\":1748:1749   */\n      0x00\n        /* \"#utility.yul\":1739:1745   */\n      dup4\n        /* \"#utility.yul\":1734:1737   */\n      dup4\n        /* \"#utility.yul\":1730:1746   */\n      add\n        /* \"#utility.yul\":1723:1750   */\n      mstore\n        /* \"#utility.yul\":1610:1756   */\n      pop\n      pop\n      pop\n      jump\t// out\n        /* \"#utility.yul\":1762:2187   */\n    tag_77:\n        /* \"#utility.yul\":1840:1845   */\n      0x00\n        /* \"#utility.yul\":1865:1931   */\n      tag_140\n        /* \"#utility.yul\":1881:1930   */\n      tag_141\n        /* \"#utility.yul\":1923:1929   */\n      dup5\n        /* \"#utility.yul\":1881:1930   */\n      tag_75\n      jump\t// in\n    tag_141:\n        /* \"#utility.yul\":1865:1931   */\n      tag_74\n      jump\t// in\n    tag_140:\n        /* \"#utility.yul\":1856:1931   */\n      swap1\n      pop\n        /* \"#utility.yul\":1954:1960   */\n      dup3\n        /* \"#utility.yul\":1947:1952   */\n      dup2\n        /* \"#utility.yul\":1940:1961   */\n      mstore\n        /* \"#utility.yul\":1992:1996   */\n      0x20\n        /* \"#utility.yul\":1985:1990   */\n      dup2\n        /* \"#utility.yul\":1981:1997   */\n      add\n        /* \"#utility.yul\":2030:2033   */\n      dup5\n        /* \"#utility.yul\":2021:2027   */\n      dup5\n        /* \"#utility.yul\":2016:2019   */\n      dup5\n        /* \"#utility.yul\":2012:2028   */\n      add\n        /* \"#utility.yul\":2009:2034   */\n      gt\n        /* \"#utility.yul\":2006:2118   */\n      iszero\n      tag_142\n      jumpi\n        /* \"#utility.yul\":2037:2116   */\n      tag_143\n      tag_70\n      jump\t// in\n    tag_143:\n        /* \"#utility.yul\":2006:2118   */\n    tag_142:\n        /* \"#utility.yul\":2127:2181   */\n      tag_144\n        /* \"#utility.yul\":2174:2180   */\n      dup5\n        /* \"#utility.yul\":2169:2172   */\n      dup3\n        /* \"#utility.yul\":2164:2167   */\n      dup6\n        /* \"#utility.yul\":2127:2181   */\n      tag_76\n      jump\t// in\n    tag_144:\n        /* \"#utility.yul\":1846:2187   */\n      pop\n        /* \"#utility.yul\":1762:2187   */\n      swap4\n      swap3\n      pop\n      pop\n      pop\n      jump\t// out\n        /* \"#utility.yul\":2207:2547   */\n    tag_78:\n        /* \"#utility.yul\":2263:2268   */\n      0x00\n        /* \"#utility.yul\":2312:2315   */\n      dup3\n        /* \"#utility.yul\":2305:2309   */\n      0x1f\n        /* \"#utility.yul\":2297:2303   */\n      dup4\n        /* \"#utility.yul\":2293:2310   */\n      add\n        /* \"#utility.yul\":2289:2316   */\n      slt\n        /* \"#utility.yul\":2279:2401   */\n      tag_146\n      jumpi\n        /* \"#utility.yul\":2320:2399   */\n      tag_147\n      tag_69\n      jump\t// in\n    tag_147:\n        /* \"#utility.yul\":2279:2401   */\n    tag_146:\n        /* \"#utility.yul\":2437:2443   */\n      dup2\n        /* \"#utility.yul\":2424:2444   */\n      calldataload\n        /* \"#utility.yul\":2462:2541   */\n      tag_148\n        /* \"#utility.yul\":2537:2540   */\n      dup5\n        /* \"#utility.yul\":2529:2535   */\n      dup3\n        /* \"#utility.yul\":2522:2526   */\n      0x20\n        /* \"#utility.yul\":2514:2520   */\n      dup7\n        /* \"#utility.yul\":2510:2527   */\n      add\n        /* \"#utility.yul\":2462:2541   */\n      tag_77\n      jump\t// in\n    tag_148:\n        /* \"#utility.yul\":2453:2541   */\n      swap2\n      pop\n        /* \"#utility.yul\":2269:2547   */\n      pop\n        /* \"#utility.yul\":2207:2547   */\n      swap3\n      swap2\n      pop\n      pop\n      jump\t// out\n        /* \"#utility.yul\":2553:3062   */\n    tag_11:\n        /* \"#utility.yul\":2622:2628   */\n      0x00\n        /* \"#utility.yul\":2671:2673   */\n      0x20\n        /* \"#utility.yul\":2659:2668   */\n      dup3\n        /* \"#utility.yul\":2650:2657   */\n      dup5\n        /* \"#utility.yul\":2646:2669   */\n      sub\n        /* \"#utility.yul\":2642:2674   */\n      slt\n        /* \"#utility.yul\":2639:2758   */\n      iszero\n      tag_150\n      jumpi\n        /* \"#utility.yul\":2677:2756   */\n      tag_151\n      tag_67\n      jump\t// in\n    tag_151:\n        /* \"#utility.yul\":2639:2758   */\n    tag_150:\n        /* \"#utility.yul\":2825:2826   */\n      0x00\n        /* \"#utility.yul\":2814:2823   */\n      dup3\n        /* \"#utility.yul\":2810:2827   */\n      add\n        /* \"#utility.yul\":2797:2828   */\n      calldataload\n        /* \"#utility.yul\":2855:2873   */\n      0xffffffffffffffff\n        /* \"#utility.yul\":2847:2853   */\n      dup2\n        /* \"#utility.yul\":2844:2874   */\n      gt\n        /* \"#utility.yul\":2841:2958   */\n      iszero\n      tag_152\n      jumpi\n        /* \"#utility.yul\":2877:2956   */\n      tag_153\n      tag_68\n      jump\t// in\n    tag_153:\n        /* \"#utility.yul\":2841:2958   */\n    tag_152:\n        /* \"#utility.yul\":2982:3045   */\n      tag_154\n        /* \"#utility.yul\":3037:3044   */\n      dup5\n        /* \"#utility.yul\":3028:3034   */\n      dup3\n        /* \"#utility.yul\":3017:3026   */\n      dup6\n        /* \"#utility.yul\":3013:3035   */\n      add\n        /* \"#utility.yul\":2982:3045   */\n      tag_78\n      jump\t// in\n    tag_154:\n        /* \"#utility.yul\":2972:3045   */\n      swap2\n      pop\n        /* \"#utility.yul\":2768:3055   */\n      pop\n        /* \"#utility.yul\":2553:3062   */\n      swap3\n      swap2\n      pop\n      pop\n      jump\t// out\n        /* \"#utility.yul\":3068:3145   */\n    tag_79:\n        /* \"#utility.yul\":3105:3112   */\n      0x00\n        /* \"#utility.yul\":3134:3139   */\n      dup2\n        /* \"#utility.yul\":3123:3139   */\n      swap1\n      pop\n        /* \"#utility.yul\":3068:3145   */\n      swap2\n      swap1\n      pop\n      jump\t// out\n        /* \"#utility.yul\":3151:3269   */\n    tag_80:\n        /* \"#utility.yul\":3238:3262   */\n      tag_157\n        /* \"#utility.yul\":3256:3261   */\n      dup2\n        /* \"#utility.yul\":3238:3262   */\n      tag_79\n      jump\t// in\n    tag_157:\n        /* \"#utility.yul\":3233:3236   */\n      dup3\n        /* \"#utility.yul\":3226:3263   */\n      mstore\n        /* \"#utility.yul\":3151:3269   */\n      pop\n      pop\n      jump\t// out\n        /* \"#utility.yul\":3275:3497   */\n    tag_17:\n        /* \"#utility.yul\":3368:3372   */\n      0x00\n        /* \"#utility.yul\":3406:3408   */\n      0x20\n        /* \"#utility.yul\":3395:3404   */\n      dup3\n        /* \"#utility.yul\":3391:3409   */\n      add\n        /* \"#utility.yul\":3383:3409   */\n      swap1\n      pop\n        /* \"#utility.yul\":3419:3490   */\n      tag_159\n        /* \"#utility.yul\":3487:3488   */\n      0x00\n        /* \"#utility.yul\":3476:3485   */\n      dup4\n        /* \"#utility.yul\":3472:3489   */\n      add\n        /* \"#utility.yul\":3463:3469   */\n      dup5\n        /* \"#utility.yul\":3419:3490   */\n      tag_80\n      jump\t// in\n    tag_159:\n        /* \"#utility.yul\":3275:3497   */\n      swap3\n      swap2\n      pop\n      pop\n      jump\t// out\n        /* \"#utility.yul\":3503:3625   */\n    tag_81:\n        /* \"#utility.yul\":3576:3600   */\n      tag_161\n        /* \"#utility.yul\":3594:3599   */\n      dup2\n        /* \"#utility.yul\":3576:3600   */\n      tag_79\n      jump\t// in\n    tag_161:\n        /* \"#utility.yul\":3569:3574   */\n      dup2\n        /* \"#utility.yul\":3566:3601   */\n      eq\n        /* \"#utility.yul\":3556:3619   */\n      tag_162\n      jumpi\n        /* \"#utility.yul\":3615:3616   */\n      0x00\n        /* \"#utility.yul\":3612:3613   */\n      dup1\n        /* \"#utility.yul\":3605:3617   */\n      revert\n        /* \"#utility.yul\":3556:3619   */\n    tag_162:\n        /* \"#utility.yul\":3503:3625   */\n      pop\n      jump\t// out\n        /* \"#utility.yul\":3631:3770   */\n    tag_82:\n        /* \"#utility.yul\":3677:3682   */\n      0x00\n        /* \"#utility.yul\":3715:3721   */\n      dup2\n        /* \"#utility.yul\":3702:3722   */\n      calldataload\n        /* \"#utility.yul\":3693:3722   */\n      swap1\n      pop\n        /* \"#utility.yul\":3731:3764   */\n      tag_164\n        /* \"#utility.yul\":3758:3763   */\n      dup2\n        /* \"#utility.yul\":3731:3764   */\n      tag_81\n      jump\t// in\n    tag_164:\n        /* \"#utility.yul\":3631:3770   */\n      swap3\n      swap2\n      pop\n      pop\n      jump\t// out\n        /* \"#utility.yul\":3776:4105   */\n    tag_21:\n        /* \"#utility.yul\":3835:3841   */\n      0x00\n        /* \"#utility.yul\":3884:3886   */\n      0x20\n        /* \"#utility.yul\":3872:3881   */\n      dup3\n        /* \"#utility.yul\":3863:3870   */\n      dup5\n        /* \"#utility.yul\":3859:3882   */\n      sub\n        /* \"#utility.yul\":3855:3887   */\n      slt\n        /* \"#utility.yul\":3852:3971   */\n      iszero\n      tag_166\n      jumpi\n        /* \"#utility.yul\":3890:3969   */\n      tag_167\n      tag_67\n      jump\t// in\n    tag_167:\n        /* \"#utility.yul\":3852:3971   */\n    tag_166:\n        /* \"#utility.yul\":4010:4011   */\n      0x00\n        /* \"#utility.yul\":4035:4088   */\n      tag_168\n        /* \"#utility.yul\":4080:4087   */\n      dup5\n        /* \"#utility.yul\":4071:4077   */\n      dup3\n        /* \"#utility.yul\":4060:4069   */\n      dup6\n        /* \"#utility.yul\":4056:4078   */\n      add\n        /* \"#utility.yul\":4035:4088   */\n      tag_82\n      jump\t// in\n    tag_168:\n        /* \"#utility.yul\":4025:4088   */\n      swap2\n      pop\n        /* \"#utility.yul\":3981:4098   */\n      pop\n        /* \"#utility.yul\":3776:4105   */\n      swap3\n      swap2\n      pop\n      pop\n      jump\t// out\n        /* \"#utility.yul\":4111:4280   */\n    tag_83:\n        /* \"#utility.yul\":4195:4206   */\n      0x00\n        /* \"#utility.yul\":4229:4235   */\n      dup3\n        /* \"#utility.yul\":4224:4227   */\n      dup3\n        /* \"#utility.yul\":4217:4236   */\n      mstore\n        /* \"#utility.yul\":4269:4273   */\n      0x20\n        /* \"#utility.yul\":4264:4267   */\n      dup3\n        /* \"#utility.yul\":4260:4274   */\n      add\n        /* \"#utility.yul\":4245:4274   */\n      swap1\n      pop\n        /* \"#utility.yul\":4111:4280   */\n      swap3\n      swap2\n      pop\n      pop\n      jump\t// out\n        /* \"#utility.yul\":4286:4454   */\n    tag_84:\n        /* \"#utility.yul\":4426:4446   */\n      0x6e6f2073756666696369656e742066756e640000000000000000000000000000\n        /* \"#utility.yul\":4422:4423   */\n      0x00\n        /* \"#utility.yul\":4414:4420   */\n      dup3\n        /* \"#utility.yul\":4410:4424   */\n      add\n        /* \"#utility.yul\":4403:4447   */\n      mstore\n        /* \"#utility.yul\":4286:4454   */\n      pop\n      jump\t// out\n        /* \"#utility.yul\":4460:4826   */\n    tag_85:\n        /* \"#utility.yul\":4602:4605   */\n      0x00\n        /* \"#utility.yul\":4623:4690   */\n      tag_172\n        /* \"#utility.yul\":4687:4689   */\n      0x12\n        /* \"#utility.yul\":4682:4685   */\n      dup4\n        /* \"#utility.yul\":4623:4690   */\n      tag_83\n      jump\t// in\n    tag_172:\n        /* \"#utility.yul\":4616:4690   */\n      swap2\n      pop\n        /* \"#utility.yul\":4699:4792   */\n      tag_173\n        /* \"#utility.yul\":4788:4791   */\n      dup3\n        /* \"#utility.yul\":4699:4792   */\n      tag_84\n      jump\t// in\n    tag_173:\n        /* \"#utility.yul\":4817:4819   */\n      0x20\n        /* \"#utility.yul\":4812:4815   */\n      dup3\n        /* \"#utility.yul\":4808:4820   */\n      add\n        /* \"#utility.yul\":4801:4820   */\n      swap1\n      pop\n        /* \"#utility.yul\":4460:4826   */\n      swap2\n      swap1\n      pop\n      jump\t// out\n        /* \"#utility.yul\":4832:5251   */\n    tag_26:\n        /* \"#utility.yul\":4998:5002   */\n      0x00\n        /* \"#utility.yul\":5036:5038   */\n      0x20\n        /* \"#utility.yul\":5025:5034   */\n      dup3\n        /* \"#utility.yul\":5021:5039   */\n      add\n        /* \"#utility.yul\":5013:5039   */\n      swap1\n      pop\n        /* \"#utility.yul\":5085:5094   */\n      dup2\n        /* \"#utility.yul\":5079:5083   */\n      dup2\n        /* \"#utility.yul\":5075:5095   */\n      sub\n        /* \"#utility.yul\":5071:5072   */\n      0x00\n        /* \"#utility.yul\":5060:5069   */\n      dup4\n        /* \"#utility.yul\":5056:5073   */\n      add\n        /* \"#utility.yul\":5049:5096   */\n      mstore\n        /* \"#utility.yul\":5113:5244   */\n      tag_175\n        /* \"#utility.yul\":5239:5243   */\n      dup2\n        /* \"#utility.yul\":5113:5244   */\n      tag_85\n      jump\t// in\n    tag_175:\n        /* \"#utility.yul\":5105:5244   */\n      swap1\n      pop\n        /* \"#utility.yul\":4832:5251   */\n      swap2\n      swap1\n      pop\n      jump\t// out\n        /* \"#utility.yul\":5257:5437   */\n    tag_86:\n        /* \"#utility.yul\":5305:5382   */\n      0x4e487b7100000000000000000000000000000000000000000000000000000000\n        /* \"#utility.yul\":5302:5303   */\n      0x00\n        /* \"#utility.yul\":5295:5383   */\n      mstore\n        /* \"#utility.yul\":5402:5406   */\n      0x11\n        /* \"#utility.yul\":5399:5400   */\n      0x04\n        /* \"#utility.yul\":5392:5407   */\n      mstore\n        /* \"#utility.yul\":5426:5430   */\n      0x24\n        /* \"#utility.yul\":5423:5424   */\n      0x00\n        /* \"#utility.yul\":5416:5431   */\n      revert\n        /* \"#utility.yul\":5443:5634   */\n    tag_29:\n        /* \"#utility.yul\":5483:5486   */\n      0x00\n        /* \"#utility.yul\":5502:5522   */\n      tag_178\n        /* \"#utility.yul\":5520:5521   */\n      dup3\n        /* \"#utility.yul\":5502:5522   */\n      tag_79\n      jump\t// in\n    tag_178:\n        /* \"#utility.yul\":5497:5522   */\n      swap2\n      pop\n        /* \"#utility.yul\":5536:5556   */\n      tag_179\n        /* \"#utility.yul\":5554:5555   */\n      dup4\n        /* \"#utility.yul\":5536:5556   */\n      tag_79\n      jump\t// in\n    tag_179:\n        /* \"#utility.yul\":5531:5556   */\n      swap3\n      pop\n        /* \"#utility.yul\":5579:5580   */\n      dup3\n        /* \"#utility.yul\":5576:5577   */\n      dup3\n        /* \"#utility.yul\":5572:5581   */\n      add\n        /* \"#utility.yul\":5565:5581   */\n      swap1\n      pop\n        /* \"#utility.yul\":5600:5603   */\n      dup1\n        /* \"#utility.yul\":5597:5598   */\n      dup3\n        /* \"#utility.yul\":5594:5604   */\n      gt\n        /* \"#utility.yul\":5591:5627   */\n      iszero\n      tag_180\n      jumpi\n        /* \"#utility.yul\":5607:5625   */\n      tag_181\n      tag_86\n      jump\t// in\n    tag_181:\n        /* \"#utility.yul\":5591:5627   */\n    tag_180:\n        /* \"#utility.yul\":5443:5634   */\n      swap3\n      swap2\n      pop\n      pop\n      jump\t// out\n        /* \"#utility.yul\":5640:5861   */\n    tag_87:\n        /* \"#utility.yul\":5780:5814   */\n      0x706c65617365207570677261646520746f20616464206d6f7265207468616e20\n        /* \"#utility.yul\":5776:5777   */\n      0x00\n        /* \"#utility.yul\":5768:5774   */\n      dup3\n        /* \"#utility.yul\":5764:5778   */\n      add\n        /* \"#utility.yul\":5757:5815   */\n      mstore\n        /* \"#utility.yul\":5849:5853   */\n      0x3130000000000000000000000000000000000000000000000000000000000000\n        /* \"#utility.yul\":5844:5846   */\n      0x20\n        /* \"#utility.yul\":5836:5842   */\n      dup3\n        /* \"#utility.yul\":5832:5847   */\n      add\n        /* \"#utility.yul\":5825:5854   */\n      mstore\n        /* \"#utility.yul\":5640:5861   */\n      pop\n      jump\t// out\n        /* \"#utility.yul\":5867:6233   */\n    tag_88:\n        /* \"#utility.yul\":6009:6012   */\n      0x00\n        /* \"#utility.yul\":6030:6097   */\n      tag_184\n        /* \"#utility.yul\":6094:6096   */\n      0x22\n        /* \"#utility.yul\":6089:6092   */\n      dup4\n        /* \"#utility.yul\":6030:6097   */\n      tag_83\n      jump\t// in\n    tag_184:\n        /* \"#utility.yul\":6023:6097   */\n      swap2\n      pop\n        /* \"#utility.yul\":6106:6199   */\n      tag_185\n        /* \"#utility.yul\":6195:6198   */\n      dup3\n        /* \"#utility.yul\":6106:6199   */\n      tag_87\n      jump\t// in\n    tag_185:\n        /* \"#utility.yul\":6224:6226   */\n      0x40\n        /* \"#utility.yul\":6219:6222   */\n      dup3\n        /* \"#utility.yul\":6215:6227   */\n      add\n        /* \"#utility.yul\":6208:6227   */\n      swap1\n      pop\n        /* \"#utility.yul\":5867:6233   */\n      swap2\n      swap1\n      pop\n      jump\t// out\n        /* \"#utility.yul\":6239:6658   */\n    tag_33:\n        /* \"#utility.yul\":6405:6409   */\n      0x00\n        /* \"#utility.yul\":6443:6445   */\n      0x20\n        /* \"#utility.yul\":6432:6441   */\n      dup3\n        /* \"#utility.yul\":6428:6446   */\n      add\n        /* \"#utility.yul\":6420:6446   */\n      swap1\n      pop\n        /* \"#utility.yul\":6492:6501   */\n      dup2\n        /* \"#utility.yul\":6486:6490   */\n      dup2\n        /* \"#utility.yul\":6482:6502   */\n      sub\n        /* \"#utility.yul\":6478:6479   */\n      0x00\n        /* \"#utility.yul\":6467:6476   */\n      dup4\n        /* \"#utility.yul\":6463:6480   */\n      add\n        /* \"#utility.yul\":6456:6503   */\n      mstore\n        /* \"#utility.yul\":6520:6651   */\n      tag_187\n        /* \"#utility.yul\":6646:6650   */\n      dup2\n        /* \"#utility.yul\":6520:6651   */\n      tag_88\n      jump\t// in\n    tag_187:\n        /* \"#utility.yul\":6512:6651   */\n      swap1\n      pop\n        /* \"#utility.yul\":6239:6658   */\n      swap2\n      swap1\n      pop\n      jump\t// out\n        /* \"#utility.yul\":6664:6844   */\n    tag_37:\n        /* \"#utility.yul\":6712:6789   */\n      0x4e487b7100000000000000000000000000000000000000000000000000000000\n        /* \"#utility.yul\":6709:6710   */\n      0x00\n        /* \"#utility.yul\":6702:6790   */\n      mstore\n        /* \"#utility.yul\":6809:6813   */\n      0x21\n        /* \"#utility.yul\":6806:6807   */\n      0x04\n        /* \"#utility.yul\":6799:6814   */\n      mstore\n        /* \"#utility.yul\":6833:6837   */\n      0x24\n        /* \"#utility.yul\":6830:6831   */\n      0x00\n        /* \"#utility.yul\":6823:6838   */\n      revert\n        /* \"#utility.yul\":6850:6949   */\n    tag_89:\n        /* \"#utility.yul\":6902:6908   */\n      0x00\n        /* \"#utility.yul\":6936:6941   */\n      dup2\n        /* \"#utility.yul\":6930:6942   */\n      mload\n        /* \"#utility.yul\":6920:6942   */\n      swap1\n      pop\n        /* \"#utility.yul\":6850:6949   */\n      swap2\n      swap1\n      pop\n      jump\t// out\n        /* \"#utility.yul\":6955:7135   */\n    tag_90:\n        /* \"#utility.yul\":7003:7080   */\n      0x4e487b7100000000000000000000000000000000000000000000000000000000\n        /* \"#utility.yul\":7000:7001   */\n      0x00\n        /* \"#utility.yul\":6993:7081   */\n      mstore\n        /* \"#utility.yul\":7100:7104   */\n      0x22\n        /* \"#utility.yul\":7097:7098   */\n      0x04\n        /* \"#utility.yul\":7090:7105   */\n      mstore\n        /* \"#utility.yul\":7124:7128   */\n      0x24\n        /* \"#utility.yul\":7121:7122   */\n      0x00\n        /* \"#utility.yul\":7114:7129   */\n      revert\n        /* \"#utility.yul\":7141:7461   */\n    tag_53:\n        /* \"#utility.yul\":7185:7191   */\n      0x00\n        /* \"#utility.yul\":7222:7223   */\n      0x02\n        /* \"#utility.yul\":7216:7220   */\n      dup3\n        /* \"#utility.yul\":7212:7224   */\n      div\n        /* \"#utility.yul\":7202:7224   */\n      swap1\n      pop\n        /* \"#utility.yul\":7269:7270   */\n      0x01\n        /* \"#utility.yul\":7263:7267   */\n      dup3\n        /* \"#utility.yul\":7259:7271   */\n      and\n        /* \"#utility.yul\":7290:7308   */\n      dup1\n        /* \"#utility.yul\":7280:7361   */\n      tag_192\n      jumpi\n        /* \"#utility.yul\":7346:7350   */\n      0x7f\n        /* \"#utility.yul\":7338:7344   */\n      dup3\n        /* \"#utility.yul\":7334:7351   */\n      and\n        /* \"#utility.yul\":7324:7351   */\n      swap2\n      pop\n        /* \"#utility.yul\":7280:7361   */\n    tag_192:\n        /* \"#utility.yul\":7408:7410   */\n      0x20\n        /* \"#utility.yul\":7400:7406   */\n      dup3\n        /* \"#utility.yul\":7397:7411   */\n      lt\n        /* \"#utility.yul\":7377:7395   */\n      dup2\n        /* \"#utility.yul\":7374:7412   */\n      sub\n        /* \"#utility.yul\":7371:7455   */\n      tag_193\n      jumpi\n        /* \"#utility.yul\":7427:7445   */\n      tag_194\n      tag_90\n      jump\t// in\n    tag_194:\n        /* \"#utility.yul\":7371:7455   */\n    tag_193:\n        /* \"#utility.yul\":7192:7461   */\n      pop\n        /* \"#utility.yul\":7141:7461   */\n      swap2\n      swap1\n      pop\n      jump\t// out\n        /* \"#utility.yul\":7467:7608   */\n    tag_91:\n        /* \"#utility.yul\":7516:7520   */\n      0x00\n        /* \"#utility.yul\":7539:7542   */\n      dup2\n        /* \"#utility.yul\":7531:7542   */\n      swap1\n      pop\n        /* \"#utility.yul\":7562:7565   */\n      dup2\n        /* \"#utility.yul\":7559:7560   */\n      0x00\n        /* \"#utility.yul\":7552:7566   */\n      mstore\n        /* \"#utility.yul\":7596:7600   */\n      0x20\n        /* \"#utility.yul\":7593:7594   */\n      0x00\n        /* \"#utility.yul\":7583:7601   */\n      keccak256\n        /* \"#utility.yul\":7575:7601   */\n      swap1\n      pop\n        /* \"#utility.yul\":7467:7608   */\n      swap2\n      swap1\n      pop\n      jump\t// out\n        /* \"#utility.yul\":7614:7707   */\n    tag_92:\n        /* \"#utility.yul\":7651:7657   */\n      0x00\n        /* \"#utility.yul\":7698:7700   */\n      0x20\n        /* \"#utility.yul\":7693:7695   */\n      0x1f\n        /* \"#utility.yul\":7686:7691   */\n      dup4\n        /* \"#utility.yul\":7682:7696   */\n      add\n        /* \"#utility.yul\":7678:7701   */\n      div\n        /* \"#utility.yul\":7668:7701   */\n      swap1\n      pop\n        /* \"#utility.yul\":7614:7707   */\n      swap2\n      swap1\n      pop\n      jump\t// out\n        /* \"#utility.yul\":7713:7820   */\n    tag_93:\n        /* \"#utility.yul\":7757:7765   */\n      0x00\n        /* \"#utility.yul\":7807:7812   */\n      dup3\n        /* \"#utility.yul\":7801:7805   */\n      dup3\n        /* \"#utility.yul\":7797:7813   */\n      shl\n        /* \"#utility.yul\":7776:7813   */\n      swap1\n      pop\n        /* \"#utility.yul\":7713:7820   */\n      swap3\n      swap2\n      pop\n      pop\n      jump\t// out\n        /* \"#utility.yul\":7826:8219   */\n    tag_94:\n        /* \"#utility.yul\":7895:7901   */\n      0x00\n        /* \"#utility.yul\":7945:7946   */\n      0x08\n        /* \"#utility.yul\":7933:7943   */\n      dup4\n        /* \"#utility.yul\":7929:7947   */\n      mul\n        /* \"#utility.yul\":7968:8065   */\n      tag_199\n        /* \"#utility.yul\":7998:8064   */\n      0xffffffffffffffffffffffffffffffffffffffffffffffffffffffffffffffff\n        /* \"#utility.yul\":7987:7996   */\n      dup3\n        /* \"#utility.yul\":7968:8065   */\n      tag_93\n      jump\t// in\n    tag_199:\n        /* \"#utility.yul\":8086:8125   */\n      tag_200\n        /* \"#utility.yul\":8116:8124   */\n      dup7\n        /* \"#utility.yul\":8105:8114   */\n      dup4\n        /* \"#utility.yul\":8086:8125   */\n      tag_93\n      jump\t// in\n    tag_200:\n        /* \"#utility.yul\":8074:8125   */\n      swap6\n      pop\n        /* \"#utility.yul\":8158:8162   */\n      dup1\n        /* \"#utility.yul\":8154:8163   */\n      not\n        /* \"#utility.yul\":8147:8152   */\n      dup5\n        /* \"#utility.yul\":8143:8164   */\n      and\n        /* \"#utility.yul\":8134:8164   */\n      swap4\n      pop\n        /* \"#utility.yul\":8207:8211   */\n      dup1\n        /* \"#utility.yul\":8197:8205   */\n      dup7\n        /* \"#utility.yul\":8193:8212   */\n      and\n        /* \"#utility.yul\":8186:8191   */\n      dup5\n        /* \"#utility.yul\":8183:8213   */\n      or\n        /* \"#utility.yul\":8173:8213   */\n      swap3\n      pop\n        /* \"#utility.yul\":7902:8219   */\n      pop\n      pop\n        /* \"#utility.yul\":7826:8219   */\n      swap4\n      swap3\n      pop\n      pop\n      pop\n      jump\t// out\n        /* \"#utility.yul\":8225:8285   */\n    tag_95:\n        /* \"#utility.yul\":8253:8256   */\n      0x00\n        /* \"#utility.yul\":8274:8279   */\n      dup2\n        /* \"#utility.yul\":8267:8279   */\n      swap1\n      pop\n        /* \"#utility.yul\":8225:8285   */\n      swap2\n      swap1\n      pop\n      jump\t// out\n        /* \"#utility.yul\":8291:8433   */\n    tag_96:\n        /* \"#utility.yul\":8341:8350   */\n      0x00\n        /* \"#utility.yul\":8374:8427   */\n      tag_203\n        /* \"#utility.yul\":8392:8426   */\n      tag_204\n        /* \"#utility.yul\":8401:8425   */\n      tag_205\n        /* \"#utility.yul\":8419:8424   */\n      dup5\n        /* \"#utility.yul\":8401:8425   */\n      tag_79\n      jump\t// in\n    tag_205:\n        /* \"#utility.yul\":8392:8426   */\n      tag_95\n      jump\t// in\n    tag_204:\n        /* \"#utility.yul\":8374:8427   */\n      tag_79\n      jump\t// in\n    tag_203:\n        /* \"#utility.yul\":8361:8427   */\n      swap1\n      pop\n        /* \"#utility.yul\":8291:8433   */\n      swap2\n      swap1\n      pop\n      jump\t// out\n        /* \"#utility.yul\":8439:8514   */\n    tag_97:\n        /* \"#utility.yul\":8482:8485   */\n      0x00\n        /* \"#utility.yul\":8503:8508   */\n      dup2\n        /* \"#utility.yul\":8496:8508   */\n      swap1\n      pop\n        /* \"#utility.yul\":8439:8514   */\n      swap2\n      swap1\n      pop\n      jump\t// out\n        /* \"#utility.yul\":8520:8789   */\n    tag_98:\n        /* \"#utility.yul\":8630:8669   */\n      tag_208\n        /* \"#utility.yul\":8661:8668   */\n      dup4\n        /* \"#utility.yul\":8630:8669   */\n      tag_96\n      jump\t// in\n    tag_208:\n        /* \"#utility.yul\":8691:8782   */\n      tag_209\n        /* \"#utility.yul\":8740:8781   */\n      tag_210\n        /* \"#utility.yul\":8764:8780   */\n      dup3\n        /* \"#utility.yul\":8740:8781   */\n      tag_97\n      jump\t// in\n    tag_210:\n        /* \"#utility.yul\":8732:8738   */\n      dup5\n        /* \"#utility.yul\":8725:8729   */\n      dup5\n        /* \"#utility.yul\":8719:8730   */\n      sload\n        /* \"#utility.yul\":8691:8782   */\n      tag_94\n      jump\t// in\n    tag_209:\n        /* \"#utility.yul\":8685:8689   */\n      dup3\n        /* \"#utility.yul\":8678:8783   */\n      sstore\n        /* \"#utility.yul\":8596:8789   */\n      pop\n        /* \"#utility.yul\":8520:8789   */\n      pop\n      pop\n      pop\n      jump\t// out\n        /* \"#utility.yul\":8795:8868   */\n    tag_99:\n        /* \"#utility.yul\":8840:8843   */\n      0x00\n        /* \"#utility.yul\":8795:8868   */\n      swap1\n      jump\t// out\n        /* \"#utility.yul\":8874:9063   */\n    tag_100:\n        /* \"#utility.yul\":8951:8983   */\n      tag_213\n      tag_99\n      jump\t// in\n    tag_213:\n        /* \"#utility.yul\":8992:9057   */\n      tag_214\n        /* \"#utility.yul\":9050:9056   */\n      dup2\n        /* \"#utility.yul\":9042:9048   */\n      dup5\n        /* \"#utility.yul\":9036:9040   */\n      dup5\n        /* \"#utility.yul\":8992:9057   */\n      tag_98\n      jump\t// in\n    tag_214:\n        /* \"#utility.yul\":8927:9063   */\n      pop\n        /* \"#utility.yul\":8874:9063   */\n      pop\n      pop\n      jump\t// out\n        /* \"#utility.yul\":9069:9255   */\n    tag_101:\n        /* \"#utility.yul\":9129:9249   */\n    tag_216:\n        /* \"#utility.yul\":9146:9149   */\n      dup2\n        /* \"#utility.yul\":9139:9144   */\n      dup2\n        /* \"#utility.yul\":9136:9150   */\n      lt\n        /* \"#utility.yul\":9129:9249   */\n      iszero\n      tag_218\n      jumpi\n        /* \"#utility.yul\":9200:9239   */\n      tag_219\n        /* \"#utility.yul\":9237:9238   */\n      0x00\n        /* \"#utility.yul\":9230:9235   */\n      dup3\n        /* \"#utility.yul\":9200:9239   */\n      tag_100\n      jump\t// in\n    tag_219:\n        /* \"#utility.yul\":9173:9174   */\n      0x01\n        /* \"#utility.yul\":9166:9171   */\n      dup2\n        /* \"#utility.yul\":9162:9175   */\n      add\n        /* \"#utility.yul\":9153:9175   */\n      swap1\n      pop\n        /* \"#utility.yul\":9129:9249   */\n      jump(tag_216)\n    tag_218:\n        /* \"#utility.yul\":9069:9255   */\n      pop\n      pop\n      jump\t// out\n        /* \"#utility.yul\":9261:9804   */\n    tag_102:\n        /* \"#utility.yul\":9362:9364   */\n      0x1f\n        /* \"#utility.yul\":9357:9360   */\n      dup3\n        /* \"#utility.yul\":9354:9365   */\n      gt\n        /* \"#utility.yul\":9351:9797   */\n      iszero\n      tag_221\n      jumpi\n        /* \"#utility.yul\":9396:9434   */\n      tag_222\n        /* \"#utility.yul\":9428:9433   */\n      dup2\n        /* \"#utility.yul\":9396:9434   */\n      tag_91\n      jump\t// in\n    tag_222:\n        /* \"#utility.yul\":9480:9509   */\n      tag_223\n        /* \"#utility.yul\":9498:9508   */\n      dup5\n        /* \"#utility.yul\":9480:9509   */\n      tag_92\n      jump\t// in\n    tag_223:\n        /* \"#utility.yul\":9470:9478   */\n      dup2\n        /* \"#utility.yul\":9466:9510   */\n      add\n        /* \"#utility.yul\":9663:9665   */\n      0x20\n        /* \"#utility.yul\":9651:9661   */\n      dup6\n        /* \"#utility.yul\":9648:9666   */\n      lt\n        /* \"#utility.yul\":9645:9694   */\n      iszero\n      tag_224\n      jumpi\n        /* \"#utility.yul\":9684:9692   */\n      dup2\n        /* \"#utility.yul\":9669:9692   */\n      swap1\n      pop\n        /* \"#utility.yul\":9645:9694   */\n    tag_224:\n        /* \"#utility.yul\":9707:9787   */\n      tag_225\n        /* \"#utility.yul\":9763:9785   */\n      tag_226\n        /* \"#utility.yul\":9781:9784   */\n      dup6\n        /* \"#utility.yul\":9763:9785   */\n      tag_92\n      jump\t// in\n    tag_226:\n        /* \"#utility.yul\":9753:9761   */\n      dup4\n        /* \"#utility.yul\":9749:9786   */\n      add\n        /* \"#utility.yul\":9736:9747   */\n      dup3\n        /* \"#utility.yul\":9707:9787   */\n      tag_101\n      jump\t// in\n    tag_225:\n        /* \"#utility.yul\":9366:9797   */\n      pop\n      pop\n        /* \"#utility.yul\":9351:9797   */\n    tag_221:\n        /* \"#utility.yul\":9261:9804   */\n      pop\n      pop\n      pop\n      jump\t// out\n        /* \"#utility.yul\":9810:9927   */\n    tag_103:\n        /* \"#utility.yul\":9864:9872   */\n      0x00\n        /* \"#utility.yul\":9914:9919   */\n      dup3\n        /* \"#utility.yul\":9908:9912   */\n      dup3\n        /* \"#utility.yul\":9904:9920   */\n      shr\n        /* \"#utility.yul\":9883:9920   */\n      swap1\n      pop\n        /* \"#utility.yul\":9810:9927   */\n      swap3\n      swap2\n      pop\n      pop\n      jump\t// out\n        /* \"#utility.yul\":9933:10102   */\n    tag_104:\n        /* \"#utility.yul\":9977:9983   */\n      0x00\n        /* \"#utility.yul\":10010:10061   */\n      tag_229\n        /* \"#utility.yul\":10058:10059   */\n      0x00\n        /* \"#utility.yul\":10054:10060   */\n      not\n        /* \"#utility.yul\":10046:10051   */\n      dup5\n        /* \"#utility.yul\":10043:10044   */\n      0x08\n        /* \"#utility.yul\":10039:10052   */\n      mul\n        /* \"#utility.yul\":10010:10061   */\n      tag_103\n      jump\t// in\n    tag_229:\n        /* \"#utility.yul\":10006:10062   */\n      not\n        /* \"#utility.yul\":10091:10095   */\n      dup1\n        /* \"#utility.yul\":10085:10089   */\n      dup4\n        /* \"#utility.yul\":10081:10096   */\n      and\n        /* \"#utility.yul\":10071:10096   */\n      swap2\n      pop\n        /* \"#utility.yul\":9984:10102   */\n      pop\n        /* \"#utility.yul\":9933:10102   */\n      swap3\n      swap2\n      pop\n      pop\n      jump\t// out\n        /* \"#utility.yul\":10107:10402   */\n    tag_105:\n        /* \"#utility.yul\":10183:10187   */\n      0x00\n        /* \"#utility.yul\":10329:10358   */\n      tag_231\n        /* \"#utility.yul\":10354:10357   */\n      dup4\n        /* \"#utility.yul\":10348:10352   */\n      dup4\n        /* \"#utility.yul\":10329:10358   */\n      tag_104\n      jump\t// in\n    tag_231:\n        /* \"#utility.yul\":10321:10358   */\n      swap2\n      pop\n        /* \"#utility.yul\":10391:10394   */\n      dup3\n        /* \"#utility.yul\":10388:10389   */\n      0x02\n        /* \"#utility.yul\":10384:10395   */\n      mul\n        /* \"#utility.yul\":10378:10382   */\n      dup3\n        /* \"#utility.yul\":10375:10396   */\n      or\n        /* \"#utility.yul\":10367:10396   */\n      swap1\n      pop\n        /* \"#utility.yul\":10107:10402   */\n      swap3\n      swap2\n      pop\n      pop\n      jump\t// out\n        /* \"#utility.yul\":10407:11802   */\n    tag_41:\n        /* \"#utility.yul\":10524:10561   */\n      tag_233\n        /* \"#utility.yul\":10557:10560   */\n      dup3\n        /* \"#utility.yul\":10524:10561   */\n      tag_89\n      jump\t// in\n    tag_233:\n        /* \"#utility.yul\":10626:10644   */\n      0xffffffffffffffff\n        /* \"#utility.yul\":10618:10624   */\n      dup2\n        /* \"#utility.yul\":10615:10645   */\n      gt\n        /* \"#utility.yul\":10612:10668   */\n      iszero\n      tag_234\n      jumpi\n        /* \"#utility.yul\":10648:10666   */\n      tag_235\n      tag_72\n      jump\t// in\n    tag_235:\n        /* \"#utility.yul\":10612:10668   */\n    tag_234:\n        /* \"#utility.yul\":10692:10730   */\n      tag_236\n        /* \"#utility.yul\":10724:10728   */\n      dup3\n        /* \"#utility.yul\":10718:10729   */\n      sload\n        /* \"#utility.yul\":10692:10730   */\n      tag_53\n      jump\t// in\n    tag_236:\n        /* \"#utility.yul\":10777:10844   */\n      tag_237\n        /* \"#utility.yul\":10837:10843   */\n      dup3\n        /* \"#utility.yul\":10829:10835   */\n      dup3\n        /* \"#utility.yul\":10823:10827   */\n      dup6\n        /* \"#utility.yul\":10777:10844   */\n      tag_102\n      jump\t// in\n    tag_237:\n        /* \"#utility.yul\":10871:10872   */\n      0x00\n        /* \"#utility.yul\":10895:10899   */\n      0x20\n        /* \"#utility.yul\":10882:10899   */\n      swap1\n      pop\n        /* \"#utility.yul\":10927:10929   */\n      0x1f\n        /* \"#utility.yul\":10919:10925   */\n      dup4\n        /* \"#utility.yul\":10916:10930   */\n      gt\n        /* \"#utility.yul\":10944:10945   */\n      0x01\n        /* \"#utility.yul\":10939:11557   */\n      dup2\n      eq\n      tag_239\n      jumpi\n        /* \"#utility.yul\":11601:11602   */\n      0x00\n        /* \"#utility.yul\":11618:11624   */\n      dup5\n        /* \"#utility.yul\":11615:11692   */\n      iszero\n      tag_240\n      jumpi\n        /* \"#utility.yul\":11667:11676   */\n      dup3\n        /* \"#utility.yul\":11662:11665   */\n      dup8\n        /* \"#utility.yul\":11658:11677   */\n      add\n        /* \"#utility.yul\":11652:11678   */\n      mload\n        /* \"#utility.yul\":11643:11678   */\n      swap1\n      pop\n        /* \"#utility.yul\":11615:11692   */\n    tag_240:\n        /* \"#utility.yul\":11718:11785   */\n      tag_241\n        /* \"#utility.yul\":11778:11784   */\n      dup6\n        /* \"#utility.yul\":11771:11776   */\n      dup3\n        /* \"#utility.yul\":11718:11785   */\n      tag_105\n      jump\t// in\n    tag_241:\n        /* \"#utility.yul\":11712:11716   */\n      dup7\n        /* \"#utility.yul\":11705:11786   */\n      sstore\n        /* \"#utility.yul\":11574:11796   */\n      pop\n        /* \"#utility.yul\":10909:11796   */\n      jump(tag_238)\n        /* \"#utility.yul\":10939:11557   */\n    tag_239:\n        /* \"#utility.yul\":10991:10995   */\n      0x1f\n        /* \"#utility.yul\":10987:10996   */\n      not\n        /* \"#utility.yul\":10979:10985   */\n      dup5\n        /* \"#utility.yul\":10975:10997   */\n      and\n        /* \"#utility.yul\":11025:11062   */\n      tag_242\n        /* \"#utility.yul\":11057:11061   */\n      dup7\n        /* \"#utility.yul\":11025:11062   */\n      tag_91\n      jump\t// in\n    tag_242:\n        /* \"#utility.yul\":11084:11085   */\n      0x00\n        /* \"#utility.yul\":11098:11306   */\n    tag_243:\n        /* \"#utility.yul\":11112:11119   */\n      dup3\n        /* \"#utility.yul\":11109:11110   */\n      dup2\n        /* \"#utility.yul\":11106:11120   */\n      lt\n        /* \"#utility.yul\":11098:11306   */\n      iszero\n      tag_245\n      jumpi\n        /* \"#utility.yul\":11191:11200   */\n      dup5\n        /* \"#utility.yul\":11186:11189   */\n      dup10\n        /* \"#utility.yul\":11182:11201   */\n      add\n        /* \"#utility.yul\":11176:11202   */\n      mload\n        /* \"#utility.yul\":11168:11174   */\n      dup3\n        /* \"#utility.yul\":11161:11203   */\n      sstore\n        /* \"#utility.yul\":11242:11243   */\n      0x01\n        /* \"#utility.yul\":11234:11240   */\n      dup3\n        /* \"#utility.yul\":11230:11244   */\n      add\n        /* \"#utility.yul\":11220:11244   */\n      swap2\n      pop\n        /* \"#utility.yul\":11289:11291   */\n      0x20\n        /* \"#utility.yul\":11278:11287   */\n      dup6\n        /* \"#utility.yul\":11274:11292   */\n      add\n        /* \"#utility.yul\":11261:11292   */\n      swap5\n      pop\n        /* \"#utility.yul\":11135:11139   */\n      0x20\n        /* \"#utility.yul\":11132:11133   */\n      dup2\n        /* \"#utility.yul\":11128:11140   */\n      add\n        /* \"#utility.yul\":11123:11140   */\n      swap1\n      pop\n        /* \"#utility.yul\":11098:11306   */\n      jump(tag_243)\n    tag_245:\n        /* \"#utility.yul\":11334:11340   */\n      dup7\n        /* \"#utility.yul\":11325:11332   */\n      dup4\n        /* \"#utility.yul\":11322:11341   */\n      lt\n        /* \"#utility.yul\":11319:11498   */\n      iszero\n      tag_246\n      jumpi\n        /* \"#utility.yul\":11392:11401   */\n      dup5\n        /* \"#utility.yul\":11387:11390   */\n      dup10\n        /* \"#utility.yul\":11383:11402   */\n      add\n        /* \"#utility.yul\":11377:11403   */\n      mload\n        /* \"#utility.yul\":11435:11483   */\n      tag_247\n        /* \"#utility.yul\":11477:11481   */\n      0x1f\n        /* \"#utility.yul\":11469:11475   */\n      dup10\n        /* \"#utility.yul\":11465:11482   */\n      and\n        /* \"#utility.yul\":11454:11463   */\n      dup3\n        /* \"#utility.yul\":11435:11483   */\n      tag_104\n      jump\t// in\n    tag_247:\n        /* \"#utility.yul\":11427:11433   */\n      dup4\n        /* \"#utility.yul\":11420:11484   */\n      sstore\n        /* \"#utility.yul\":11342:11498   */\n      pop\n        /* \"#utility.yul\":11319:11498   */\n    tag_246:\n        /* \"#utility.yul\":11544:11545   */\n      0x01\n        /* \"#utility.yul\":11540:11541   */\n      0x02\n        /* \"#utility.yul\":11532:11538   */\n      dup9\n        /* \"#utility.yul\":11528:11542   */\n      mul\n        /* \"#utility.yul\":11524:11546   */\n      add\n        /* \"#utility.yul\":11518:11522   */\n      dup9\n        /* \"#utility.yul\":11511:11547   */\n      sstore\n        /* \"#utility.yul\":10946:11557   */\n      pop\n      pop\n      pop\n        /* \"#utility.yul\":10909:11796   */\n    tag_238:\n      pop\n        /* \"#utility.yul\":10499:11802   */\n      pop\n      pop\n      pop\n        /* \"#utility.yul\":10407:11802   */\n      pop\n      pop\n      jump\t// out\n        /* \"#utility.yul\":11808:11916   */\n    tag_106:\n        /* \"#utility.yul\":11885:11909   */\n      tag_249\n        /* \"#utility.yul\":11903:11908   */\n      dup2\n        /* \"#utility.yul\":11885:11909   */\n      tag_79\n      jump\t// in\n    tag_249:\n        /* \"#utility.yul\":11880:11883   */\n      dup3\n        /* \"#utility.yul\":11873:11910   */\n      mstore\n        /* \"#utility.yul\":11808:11916   */\n      pop\n      pop\n      jump\t// out\n        /* \"#utility.yul\":11922:12037   */\n    tag_107:\n        /* \"#utility.yul\":12005:12006   */\n      0x03\n        /* \"#utility.yul\":11998:12003   */\n      dup2\n        /* \"#utility.yul\":11995:12007   */\n      lt\n        /* \"#utility.yul\":11985:12031   */\n      tag_251\n      jumpi\n        /* \"#utility.yul\":12011:12029   */\n      tag_252\n      tag_37\n      jump\t// in\n    tag_252:\n        /* \"#utility.yul\":11985:12031   */\n    tag_251:\n        /* \"#utility.yul\":11922:12037   */\n      pop\n      jump\t// out\n        /* \"#utility.yul\":12043:12174   */\n    tag_108:\n        /* \"#utility.yul\":12090:12097   */\n      0x00\n        /* \"#utility.yul\":12119:12124   */\n      dup2\n        /* \"#utility.yul\":12108:12124   */\n      swap1\n      pop\n        /* \"#utility.yul\":12125:12168   */\n      tag_254\n        /* \"#utility.yul\":12162:12167   */\n      dup3\n        /* \"#utility.yul\":12125:12168   */\n      tag_107\n      jump\t// in\n    tag_254:\n        /* \"#utility.yul\":12043:12174   */\n      swap2\n      swap1\n      pop\n      jump\t// out\n        /* \"#utility.yul\":12180:12311   */\n    tag_109:\n        /* \"#utility.yul\":12238:12247   */\n      0x00\n        /* \"#utility.yul\":12271:12305   */\n      tag_256\n        /* \"#utility.yul\":12299:12304   */\n      dup3\n        /* \"#utility.yul\":12271:12305   */\n      tag_108\n      jump\t// in\n    tag_256:\n        /* \"#utility.yul\":12258:12305   */\n      swap1\n      pop\n        /* \"#utility.yul\":12180:12311   */\n      swap2\n      swap1\n      pop\n      jump\t// out\n        /* \"#utility.yul\":12317:12454   */\n    tag_110:\n        /* \"#utility.yul\":12402:12447   */\n      tag_258\n        /* \"#utility.yul\":12441:12446   */\n      dup2\n        /* \"#utility.yul\":12402:12447   */\n      tag_109\n      jump\t// in\n    tag_258:\n        /* \"#utility.yul\":12397:12400   */\n      dup3\n        /* \"#utility.yul\":12390:12448   */\n      mstore\n        /* \"#utility.yul\":12317:12454   */\n      pop\n      pop\n      jump\t// out\n        /* \"#utility.yul\":12460:12619   */\n    tag_111:\n        /* \"#utility.yul\":12534:12545   */\n      0x00\n        /* \"#utility.yul\":12568:12574   */\n      dup3\n        /* \"#utility.yul\":12563:12566   */\n      dup3\n        /* \"#utility.yul\":12556:12575   */\n      mstore\n        /* \"#utility.yul\":12608:12612   */\n      0x20\n        /* \"#utility.yul\":12603:12606   */\n      dup3\n        /* \"#utility.yul\":12599:12613   */\n      add\n        /* \"#utility.yul\":12584:12613   */\n      swap1\n      pop\n        /* \"#utility.yul\":12460:12619   */\n      swap3\n      swap2\n      pop\n      pop\n      jump\t// out\n        /* \"#utility.yul\":12625:12871   */\n    tag_112:\n        /* \"#utility.yul\":12706:12707   */\n      0x00\n        /* \"#utility.yul\":12716:12829   */\n    tag_261:\n        /* \"#utility.yul\":12730:12736   */\n      dup4\n        /* \"#utility.yul\":12727:12728   */\n      dup2\n        /* \"#utility.yul\":12724:12737   */\n      lt\n        /* \"#utility.yul\":12716:12829   */\n      iszero\n      tag_263\n      jumpi\n        /* \"#utility.yul\":12815:12816   */\n      dup1\n        /* \"#utility.yul\":12810:12813   */\n      dup3\n        /* \"#utility.yul\":12806:12817   */\n      add\n        /* \"#utility.yul\":12800:12818   */\n      mload\n        /* \"#utility.yul\":12796:12797   */\n      dup2\n        /* \"#utility.yul\":12791:12794   */\n      dup5\n        /* \"#utility.yul\":12787:12798   */\n      add\n        /* \"#utility.yul\":12780:12819   */\n      mstore\n        /* \"#utility.yul\":12752:12754   */\n      0x20\n        /* \"#utility.yul\":12749:12750   */\n      dup2\n        /* \"#utility.yul\":12745:12755   */\n      add\n        /* \"#utility.yul\":12740:12755   */\n      swap1\n      pop\n        /* \"#utility.yul\":12716:12829   */\n      jump(tag_261)\n    tag_263:\n        /* \"#utility.yul\":12863:12864   */\n      0x00\n        /* \"#utility.yul\":12854:12860   */\n      dup5\n        /* \"#utility.yul\":12849:12852   */\n      dup5\n        /* \"#utility.yul\":12845:12861   */\n      add\n        /* \"#utility.yul\":12838:12865   */\n      mstore\n        /* \"#utility.yul\":12687:12871   */\n      pop\n        /* \"#utility.yul\":12625:12871   */\n      pop\n      pop\n      pop\n      jump\t// out\n        /* \"#utility.yul\":12877:13234   */\n    tag_113:\n        /* \"#utility.yul\":12955:12958   */\n      0x00\n        /* \"#utility.yul\":12983:13022   */\n      tag_265\n        /* \"#utility.yul\":13016:13021   */\n      dup3\n        /* \"#utility.yul\":12983:13022   */\n      tag_89\n      jump\t// in\n    tag_265:\n        /* \"#utility.yul\":13038:13099   */\n      tag_266\n        /* \"#utility.yul\":13092:13098   */\n      dup2\n        /* \"#utility.yul\":13087:13090   */\n      dup6\n        /* \"#utility.yul\":13038:13099   */\n      tag_111\n      jump\t// in\n    tag_266:\n        /* \"#utility.yul\":13031:13099   */\n      swap4\n      pop\n        /* \"#utility.yul\":13108:13173   */\n      tag_267\n        /* \"#utility.yul\":13166:13172   */\n      dup2\n        /* \"#utility.yul\":13161:13164   */\n      dup6\n        /* \"#utility.yul\":13154:13158   */\n      0x20\n        /* \"#utility.yul\":13147:13152   */\n      dup7\n        /* \"#utility.yul\":13143:13159   */\n      add\n        /* \"#utility.yul\":13108:13173   */\n      tag_112\n      jump\t// in\n    tag_267:\n        /* \"#utility.yul\":13198:13227   */\n      tag_268\n        /* \"#utility.yul\":13220:13226   */\n      dup2\n        /* \"#utility.yul\":13198:13227   */\n      tag_71\n      jump\t// in\n    tag_268:\n        /* \"#utility.yul\":13193:13196   */\n      dup5\n        /* \"#utility.yul\":13189:13228   */\n      add\n        /* \"#utility.yul\":13182:13228   */\n      swap2\n      pop\n        /* \"#utility.yul\":12959:13234   */\n      pop\n        /* \"#utility.yul\":12877:13234   */\n      swap3\n      swap2\n      pop\n      pop\n      jump\t// out\n        /* \"#utility.yul\":13240:13330   */\n    tag_114:\n        /* \"#utility.yul\":13274:13281   */\n      0x00\n        /* \"#utility.yul\":13317:13322   */\n      dup2\n        /* \"#utility.yul\":13310:13323   */\n      iszero\n        /* \"#utility.yul\":13303:13324   */\n      iszero\n        /* \"#utility.yul\":13292:13324   */\n      swap1\n      pop\n        /* \"#utility.yul\":13240:13330   */\n      swap2\n      swap1\n      pop\n      jump\t// out\n        /* \"#utility.yul\":13336:13435   */\n    tag_115:\n        /* \"#utility.yul\":13407:13428   */\n      tag_271\n        /* \"#utility.yul\":13422:13427   */\n      dup2\n        /* \"#utility.yul\":13407:13428   */\n      tag_114\n      jump\t// in\n    tag_271:\n        /* \"#utility.yul\":13402:13405   */\n      dup3\n        /* \"#utility.yul\":13395:13429   */\n      mstore\n        /* \"#utility.yul\":13336:13435   */\n      pop\n      pop\n      jump\t// out\n        /* \"#utility.yul\":13499:14634   */\n    tag_116:\n        /* \"#utility.yul\":13608:13611   */\n      0x00\n        /* \"#utility.yul\":13644:13648   */\n      0xa0\n        /* \"#utility.yul\":13639:13642   */\n      dup4\n        /* \"#utility.yul\":13635:13649   */\n      add\n        /* \"#utility.yul\":13729:13733   */\n      0x00\n        /* \"#utility.yul\":13722:13727   */\n      dup4\n        /* \"#utility.yul\":13718:13734   */\n      add\n        /* \"#utility.yul\":13712:13735   */\n      mload\n        /* \"#utility.yul\":13748:13811   */\n      tag_273\n        /* \"#utility.yul\":13805:13809   */\n      0x00\n        /* \"#utility.yul\":13800:13803   */\n      dup7\n        /* \"#utility.yul\":13796:13810   */\n      add\n        /* \"#utility.yul\":13782:13794   */\n      dup3\n        /* \"#utility.yul\":13748:13811   */\n      tag_106\n      jump\t// in\n    tag_273:\n        /* \"#utility.yul\":13659:13821   */\n      pop\n        /* \"#utility.yul\":13907:13911   */\n      0x20\n        /* \"#utility.yul\":13900:13905   */\n      dup4\n        /* \"#utility.yul\":13896:13912   */\n      add\n        /* \"#utility.yul\":13890:13913   */\n      mload\n        /* \"#utility.yul\":13926:13997   */\n      tag_274\n        /* \"#utility.yul\":13991:13995   */\n      0x20\n        /* \"#utility.yul\":13986:13989   */\n      dup7\n        /* \"#utility.yul\":13982:13996   */\n      add\n        /* \"#utility.yul\":13968:13980   */\n      dup3\n        /* \"#utility.yul\":13926:13997   */\n      tag_110\n      jump\t// in\n    tag_274:\n        /* \"#utility.yul\":13831:14007   */\n      pop\n        /* \"#utility.yul\":14092:14096   */\n      0x40\n        /* \"#utility.yul\":14085:14090   */\n      dup4\n        /* \"#utility.yul\":14081:14097   */\n      add\n        /* \"#utility.yul\":14075:14098   */\n      mload\n        /* \"#utility.yul\":14145:14148   */\n      dup5\n        /* \"#utility.yul\":14139:14143   */\n      dup3\n        /* \"#utility.yul\":14135:14149   */\n      sub\n        /* \"#utility.yul\":14128:14132   */\n      0x40\n        /* \"#utility.yul\":14123:14126   */\n      dup7\n        /* \"#utility.yul\":14119:14133   */\n      add\n        /* \"#utility.yul\":14112:14150   */\n      mstore\n        /* \"#utility.yul\":14171:14244   */\n      tag_275\n        /* \"#utility.yul\":14239:14243   */\n      dup3\n        /* \"#utility.yul\":14225:14237   */\n      dup3\n        /* \"#utility.yul\":14171:14244   */\n      tag_113\n      jump\t// in\n    tag_275:\n        /* \"#utility.yul\":14163:14244   */\n      swap2\n      pop\n        /* \"#utility.yul\":14017:14255   */\n      pop\n        /* \"#utility.yul\":14342:14346   */\n      0x60\n        /* \"#utility.yul\":14335:14340   */\n      dup4\n        /* \"#utility.yul\":14331:14347   */\n      add\n        /* \"#utility.yul\":14325:14348   */\n      mload\n        /* \"#utility.yul\":14361:14424   */\n      tag_276\n        /* \"#utility.yul\":14418:14422   */\n      0x60\n        /* \"#utility.yul\":14413:14416   */\n      dup7\n        /* \"#utility.yul\":14409:14423   */\n      add\n        /* \"#utility.yul\":14395:14407   */\n      dup3\n        /* \"#utility.yul\":14361:14424   */\n      tag_106\n      jump\t// in\n    tag_276:\n        /* \"#utility.yul\":14265:14434   */\n      pop\n        /* \"#utility.yul\":14521:14525   */\n      0x80\n        /* \"#utility.yul\":14514:14519   */\n      dup4\n        /* \"#utility.yul\":14510:14526   */\n      add\n        /* \"#utility.yul\":14504:14527   */\n      mload\n        /* \"#utility.yul\":14540:14597   */\n      tag_277\n        /* \"#utility.yul\":14591:14595   */\n      0x80\n        /* \"#utility.yul\":14586:14589   */\n      dup7\n        /* \"#utility.yul\":14582:14596   */\n      add\n        /* \"#utility.yul\":14568:14580   */\n      dup3\n        /* \"#utility.yul\":14540:14597   */\n      tag_115\n      jump\t// in\n    tag_277:\n        /* \"#utility.yul\":14444:14607   */\n      pop\n        /* \"#utility.yul\":14624:14628   */\n      dup1\n        /* \"#utility.yul\":14617:14628   */\n      swap2\n      pop\n        /* \"#utility.yul\":13613:14634   */\n      pop\n        /* \"#utility.yul\":13499:14634   */\n      swap3\n      swap2\n      pop\n      pop\n      jump\t// out\n        /* \"#utility.yul\":14640:15103   */\n    tag_45:\n        /* \"#utility.yul\":14801:14805   */\n      0x00\n        /* \"#utility.yul\":14839:14841   */\n      0x40\n        /* \"#utility.yul\":14828:14837   */\n      dup3\n        /* \"#utility.yul\":14824:14842   */\n      add\n        /* \"#utility.yul\":14816:14842   */\n      swap1\n      pop\n        /* \"#utility.yul\":14888:14897   */\n      dup2\n        /* \"#utility.yul\":14882:14886   */\n      dup2\n        /* \"#utility.yul\":14878:14898   */\n      sub\n        /* \"#utility.yul\":14874:14875   */\n      0x00\n        /* \"#utility.yul\":14863:14872   */\n      dup4\n        /* \"#utility.yul\":14859:14876   */\n      add\n        /* \"#utility.yul\":14852:14899   */\n      mstore\n        /* \"#utility.yul\":14916:15014   */\n      tag_279\n        /* \"#utility.yul\":15009:15013   */\n      dup2\n        /* \"#utility.yul\":15000:15006   */\n      dup6\n        /* \"#utility.yul\":14916:15014   */\n      tag_116\n      jump\t// in\n    tag_279:\n        /* \"#utility.yul\":14908:15014   */\n      swap1\n      pop\n        /* \"#utility.yul\":15024:15096   */\n      tag_280\n        /* \"#utility.yul\":15092:15094   */\n      0x20\n        /* \"#utility.yul\":15081:15090   */\n      dup4\n        /* \"#utility.yul\":15077:15095   */\n      add\n        /* \"#utility.yul\":15068:15074   */\n      dup5\n        /* \"#utility.yul\":15024:15096   */\n      tag_80\n      jump\t// in\n    tag_280:\n        /* \"#utility.yul\":14640:15103   */\n      swap4\n      swap3\n      pop\n      pop\n      pop\n      jump\t// out\n        /* \"#utility.yul\":15109:15286   */\n    tag_117:\n        /* \"#utility.yul\":15249:15278   */\n      0x536166654d6174683a206164646974696f6e206f766572666c6f770000000000\n        /* \"#utility.yul\":15245:15246   */\n      0x00\n        /* \"#utility.yul\":15237:15243   */\n      dup3\n        /* \"#utility.yul\":15233:15247   */\n      add\n        /* \"#utility.yul\":15226:15279   */\n      mstore\n        /* \"#utility.yul\":15109:15286   */\n      pop\n      jump\t// out\n        /* \"#utility.yul\":15292:15658   */\n    tag_118:\n        /* \"#utility.yul\":15434:15437   */\n      0x00\n        /* \"#utility.yul\":15455:15522   */\n      tag_283\n        /* \"#utility.yul\":15519:15521   */\n      0x1b\n        /* \"#utility.yul\":15514:15517   */\n      dup4\n        /* \"#utility.yul\":15455:15522   */\n      tag_83\n      jump\t// in\n    tag_283:\n        /* \"#utility.yul\":15448:15522   */\n      swap2\n      pop\n        /* \"#utility.yul\":15531:15624   */\n      tag_284\n        /* \"#utility.yul\":15620:15623   */\n      dup3\n        /* \"#utility.yul\":15531:15624   */\n      tag_117\n      jump\t// in\n    tag_284:\n        /* \"#utility.yul\":15649:15651   */\n      0x20\n        /* \"#utility.yul\":15644:15647   */\n      dup3\n        /* \"#utility.yul\":15640:15652   */\n      add\n        /* \"#utility.yul\":15633:15652   */\n      swap1\n      pop\n        /* \"#utility.yul\":15292:15658   */\n      swap2\n      swap1\n      pop\n      jump\t// out\n        /* \"#utility.yul\":15664:16083   */\n    tag_65:\n        /* \"#utility.yul\":15830:15834   */\n      0x00\n        /* \"#utility.yul\":15868:15870   */\n      0x20\n        /* \"#utility.yul\":15857:15866   */\n      dup3\n        /* \"#utility.yul\":15853:15871   */\n      add\n        /* \"#utility.yul\":15845:15871   */\n      swap1\n      pop\n        /* \"#utility.yul\":15917:15926   */\n      dup2\n        /* \"#utility.yul\":15911:15915   */\n      dup2\n        /* \"#utility.yul\":15907:15927   */\n      sub\n        /* \"#utility.yul\":15903:15904   */\n      0x00\n        /* \"#utility.yul\":15892:15901   */\n      dup4\n        /* \"#utility.yul\":15888:15905   */\n      add\n        /* \"#utility.yul\":15881:15928   */\n      mstore\n        /* \"#utility.yul\":15945:16076   */\n      tag_286\n        /* \"#utility.yul\":16071:16075   */\n      dup2\n        /* \"#utility.yul\":15945:16076   */\n      tag_118\n      jump\t// in\n    tag_286:\n        /* \"#utility.yul\":15937:16076   */\n      swap1\n      pop\n        /* \"#utility.yul\":15664:16083   */\n      swap2\n      swap1\n      pop\n      jump\t// out\n\n    auxdata: 0xa264697066735822122020c3ec46e9f2586a2d5aa91bb67cf7a8cf6c2a540dc58f55ac5e5585b089ae3d64736f6c63430008160033\n}\n",
				"bytecode": {
					"linkReferences": {},
					"object": "608060405234801561000f575f80fd5b50335f806101000a81548173ffffffffffffffffffffffffffffffffffffffff021916908373ffffffffffffffffffffffffffffffffffffffff1602179055505f600181905550610dd9806100635f395ff3fe60806040526004361061003e575f3560e01c806304fafc6c14610042578063672385621461004c5780639f89927314610074578063e1e295581461009e575b5f80fd5b61004a6100c6565b005b348015610057575f80fd5b50610072600480360381019061006d9190610688565b610161565b005b34801561007f575f80fd5b5061008861031f565b60405161009591906106e7565b60405180910390f35b3480156100a9575f80fd5b506100c460048036038101906100bf919061072a565b610328565b005b600534101561010a576040517f08c379a0000000000000000000000000000000000000000000000000000000008152600401610101906107af565b60405180910390fd5b600160035f3373ffffffffffffffffffffffffffffffffffffffff1673ffffffffffffffffffffffffffffffffffffffff1681526020019081526020015f205f6101000a81548160ff021916908315150217905550565b600b6001805461017191906107fa565b10806101c3575060035f3373ffffffffffffffffffffffffffffffffffffffff1673ffffffffffffffffffffffffffffffffffffffff1681526020019081526020015f205f9054906101000a900460ff165b610202576040517f08c379a00000000000000000000000000000000000000000000000000000000081526004016101f99061089d565b60405180910390fd5b5f6040518060a0016040528060015481526020015f6002811115610229576102286108bb565b5b81526020018381526020014281526020015f151581525090508060025f60015481526020019081526020015f205f820151815f01556020820151816001015f6101000a81548160ff02191690836002811115610288576102876108bb565b5b021790555060408201518160020190816102a29190610aec565b50606082015181600301556080820151816004015f6101000a81548160ff0219169083151502179055509050506102dc60015460016104de565b6001819055507f615eb1193ab28532b0958952317b9eefb36e49e4a65bc640cf28f2ec9a9317718142604051610313929190610d0d565b60405180910390a15050565b5f600154905090565b5f60025f8381526020019081526020015f206040518060a00160405290815f8201548152602001600182015f9054906101000a900460ff166002811115610372576103716108bb565b5b6002811115610384576103836108bb565b5b81526020016002820180546103989061091f565b80601f01602080910402602001604051908101604052809291908181526020018280546103c49061091f565b801561040f5780601f106103e65761010080835404028352916020019161040f565b820191905f5260205f20905b8154815290600101906020018083116103f257829003601f168201915b5050505050815260200160038201548152602001600482015f9054906101000a900460ff161515151581525050905060018160800190151590811515815250508060025f8481526020019081526020015f205f820151815f01556020820151816001015f6101000a81548160ff02191690836002811115610493576104926108bb565b5b021790555060408201518160020190816104ad9190610aec565b50606082015181600301556080820151816004015f6101000a81548160ff0219169083151502179055509050505050565b5f8082846104ec91906107fa565b905083811015610531576040517f08c379a000000000000000000000000000000000000000000000000000000000815260040161052890610d85565b60405180910390fd5b8091505092915050565b5f604051905090565b5f80fd5b5f80fd5b5f80fd5b5f80fd5b5f601f19601f8301169050919050565b7f4e487b71000000000000000000000000000000000000000000000000000000005f52604160045260245ffd5b61059a82610554565b810181811067ffffffffffffffff821117156105b9576105b8610564565b5b80604052505050565b5f6105cb61053b565b90506105d78282610591565b919050565b5f67ffffffffffffffff8211156105f6576105f5610564565b5b6105ff82610554565b9050602081019050919050565b828183375f83830152505050565b5f61062c610627846105dc565b6105c2565b90508281526020810184848401111561064857610647610550565b5b61065384828561060c565b509392505050565b5f82601f83011261066f5761066e61054c565b5b813561067f84826020860161061a565b91505092915050565b5f6020828403121561069d5761069c610544565b5b5f82013567ffffffffffffffff8111156106ba576106b9610548565b5b6106c68482850161065b565b91505092915050565b5f819050919050565b6106e1816106cf565b82525050565b5f6020820190506106fa5f8301846106d8565b92915050565b610709816106cf565b8114610713575f80fd5b50565b5f8135905061072481610700565b92915050565b5f6020828403121561073f5761073e610544565b5b5f61074c84828501610716565b91505092915050565b5f82825260208201905092915050565b7f6e6f2073756666696369656e742066756e6400000000000000000000000000005f82015250565b5f610799601283610755565b91506107a482610765565b602082019050919050565b5f6020820190508181035f8301526107c68161078d565b9050919050565b7f4e487b71000000000000000000000000000000000000000000000000000000005f52601160045260245ffd5b5f610804826106cf565b915061080f836106cf565b9250828201905080821115610827576108266107cd565b5b92915050565b7f706c65617365207570677261646520746f20616464206d6f7265207468616e205f8201527f3130000000000000000000000000000000000000000000000000000000000000602082015250565b5f610887602283610755565b91506108928261082d565b604082019050919050565b5f6020820190508181035f8301526108b48161087b565b9050919050565b7f4e487b71000000000000000000000000000000000000000000000000000000005f52602160045260245ffd5b5f81519050919050565b7f4e487b71000000000000000000000000000000000000000000000000000000005f52602260045260245ffd5b5f600282049050600182168061093657607f821691505b602082108103610949576109486108f2565b5b50919050565b5f819050815f5260205f209050919050565b5f6020601f8301049050919050565b5f82821b905092915050565b5f600883026109ab7fffffffffffffffffffffffffffffffffffffffffffffffffffffffffffffffff82610970565b6109b58683610970565b95508019841693508086168417925050509392505050565b5f819050919050565b5f6109f06109eb6109e6846106cf565b6109cd565b6106cf565b9050919050565b5f819050919050565b610a09836109d6565b610a1d610a15826109f7565b84845461097c565b825550505050565b5f90565b610a31610a25565b610a3c818484610a00565b505050565b5b81811015610a5f57610a545f82610a29565b600181019050610a42565b5050565b601f821115610aa457610a758161094f565b610a7e84610961565b81016020851015610a8d578190505b610aa1610a9985610961565b830182610a41565b50505b505050565b5f82821c905092915050565b5f610ac45f1984600802610aa9565b1980831691505092915050565b5f610adc8383610ab5565b9150826002028217905092915050565b610af5826108e8565b67ffffffffffffffff811115610b0e57610b0d610564565b5b610b18825461091f565b610b23828285610a63565b5f60209050601f831160018114610b54575f8415610b42578287015190505b610b4c8582610ad1565b865550610bb3565b601f198416610b628661094f565b5f5b82811015610b8957848901518255600182019150602085019450602081019050610b64565b86831015610ba65784890151610ba2601f891682610ab5565b8355505b6001600288020188555050505b505050505050565b610bc4816106cf565b82525050565b60038110610bdb57610bda6108bb565b5b50565b5f819050610beb82610bca565b919050565b5f610bfa82610bde565b9050919050565b610c0a81610bf0565b82525050565b5f82825260208201905092915050565b5f5b83811015610c3d578082015181840152602081019050610c22565b5f8484015250505050565b5f610c52826108e8565b610c5c8185610c10565b9350610c6c818560208601610c20565b610c7581610554565b840191505092915050565b5f8115159050919050565b610c9481610c80565b82525050565b5f60a083015f830151610caf5f860182610bbb565b506020830151610cc26020860182610c01565b5060408301518482036040860152610cda8282610c48565b9150506060830151610cef6060860182610bbb565b506080830151610d026080860182610c8b565b508091505092915050565b5f6040820190508181035f830152610d258185610c9a565b9050610d3460208301846106d8565b9392505050565b7f536166654d6174683a206164646974696f6e206f766572666c6f7700000000005f82015250565b5f610d6f601b83610755565b9150610d7a82610d3b565b602082019050919050565b5f6020820190508181035f830152610d9c81610d63565b905091905056fea264697066735822122020c3ec46e9f2586a2d5aa91bb67cf7a8cf6c2a540dc58f55ac5e5585b089ae3d64736f6c63430008160033",
					"opcodes": "PUSH1 0x80 PUSH1 0x40 MSTORE CALLVALUE DUP1 ISZERO PUSH2 0xF JUMPI PUSH0 DUP1 REVERT JUMPDEST POP CALLER PUSH0 DUP1 PUSH2 0x100 EXP DUP2 SLOAD DUP2 PUSH20 0xFFFFFFFFFFFFFFFFFFFFFFFFFFFFFFFFFFFFFFFF MUL NOT AND SWAP1 DUP4 PUSH20 0xFFFFFFFFFFFFFFFFFFFFFFFFFFFFFFFFFFFFFFFF AND MUL OR SWAP1 SSTORE POP PUSH0 PUSH1 0x1 DUP2 SWAP1 SSTORE POP PUSH2 0xDD9 DUP1 PUSH2 0x63 PUSH0 CODECOPY PUSH0 RETURN INVALID PUSH1 0x80 PUSH1 0x40 MSTORE PUSH1 0x4 CALLDATASIZE LT PUSH2 0x3E JUMPI PUSH0 CALLDATALOAD PUSH1 0xE0 SHR DUP1 PUSH4 0x4FAFC6C EQ PUSH2 0x42 JUMPI DUP1 PUSH4 0x67238562 EQ PUSH2 0x4C JUMPI DUP1 PUSH4 0x9F899273 EQ PUSH2 0x74 JUMPI DUP1 PUSH4 0xE1E29558 EQ PUSH2 0x9E JUMPI JUMPDEST PUSH0 DUP1 REVERT JUMPDEST PUSH2 0x4A PUSH2 0xC6 JUMP JUMPDEST STOP JUMPDEST CALLVALUE DUP1 ISZERO PUSH2 0x57 JUMPI PUSH0 DUP1 REVERT JUMPDEST POP PUSH2 0x72 PUSH1 0x4 DUP1 CALLDATASIZE SUB DUP2 ADD SWAP1 PUSH2 0x6D SWAP2 SWAP1 PUSH2 0x688 JUMP JUMPDEST PUSH2 0x161 JUMP JUMPDEST STOP JUMPDEST CALLVALUE DUP1 ISZERO PUSH2 0x7F JUMPI PUSH0 DUP1 REVERT JUMPDEST POP PUSH2 0x88 PUSH2 0x31F JUMP JUMPDEST PUSH1 0x40 MLOAD PUSH2 0x95 SWAP2 SWAP1 PUSH2 0x6E7 JUMP JUMPDEST PUSH1 0x40 MLOAD DUP1 SWAP2 SUB SWAP1 RETURN JUMPDEST CALLVALUE DUP1 ISZERO PUSH2 0xA9 JUMPI PUSH0 DUP1 REVERT JUMPDEST POP PUSH2 0xC4 PUSH1 0x4 DUP1 CALLDATASIZE SUB DUP2 ADD SWAP1 PUSH2 0xBF SWAP2 SWAP1 PUSH2 0x72A JUMP JUMPDEST PUSH2 0x328 JUMP JUMPDEST STOP JUMPDEST PUSH1 0x5 CALLVALUE LT ISZERO PUSH2 0x10A JUMPI PUSH1 0x40 MLOAD PUSH32 0x8C379A000000000000000000000000000000000000000000000000000000000 DUP2 MSTORE PUSH1 0x4 ADD PUSH2 0x101 SWAP1 PUSH2 0x7AF JUMP JUMPDEST PUSH1 0x40 MLOAD DUP1 SWAP2 SUB SWAP1 REVERT JUMPDEST PUSH1 0x1 PUSH1 0x3 PUSH0 CALLER PUSH20 0xFFFFFFFFFFFFFFFFFFFFFFFFFFFFFFFFFFFFFFFF AND PUSH20 0xFFFFFFFFFFFFFFFFFFFFFFFFFFFFFFFFFFFFFFFF AND DUP2 MSTORE PUSH1 0x20 ADD SWAP1 DUP2 MSTORE PUSH1 0x20 ADD PUSH0 KECCAK256 PUSH0 PUSH2 0x100 EXP DUP2 SLOAD DUP2 PUSH1 0xFF MUL NOT AND SWAP1 DUP4 ISZERO ISZERO MUL OR SWAP1 SSTORE POP JUMP JUMPDEST PUSH1 0xB PUSH1 0x1 DUP1 SLOAD PUSH2 0x171 SWAP2 SWAP1 PUSH2 0x7FA JUMP JUMPDEST LT DUP1 PUSH2 0x1C3 JUMPI POP PUSH1 0x3 PUSH0 CALLER PUSH20 0xFFFFFFFFFFFFFFFFFFFFFFFFFFFFFFFFFFFFFFFF AND PUSH20 0xFFFFFFFFFFFFFFFFFFFFFFFFFFFFFFFFFFFFFFFF AND DUP2 MSTORE PUSH1 0x20 ADD SWAP1 DUP2 MSTORE PUSH1 0x20 ADD PUSH0 KECCAK256 PUSH0 SWAP1 SLOAD SWAP1 PUSH2 0x100 EXP SWAP1 DIV PUSH1 0xFF AND JUMPDEST PUSH2 0x202 JUMPI PUSH1 0x40 MLOAD PUSH32 0x8C379A000000000000000000000000000000000000000000000000000000000 DUP2 MSTORE PUSH1 0x4 ADD PUSH2 0x1F9 SWAP1 PUSH2 0x89D JUMP JUMPDEST PUSH1 0x40 MLOAD DUP1 SWAP2 SUB SWAP1 REVERT JUMPDEST PUSH0 PUSH1 0x40 MLOAD DUP1 PUSH1 0xA0 ADD PUSH1 0x40 MSTORE DUP1 PUSH1 0x1 SLOAD DUP2 MSTORE PUSH1 0x20 ADD PUSH0 PUSH1 0x2 DUP2 GT ISZERO PUSH2 0x229 JUMPI PUSH2 0x228 PUSH2 0x8BB JUMP JUMPDEST JUMPDEST DUP2 MSTORE PUSH1 0x20 ADD DUP4 DUP2 MSTORE PUSH1 0x20 ADD TIMESTAMP DUP2 MSTORE PUSH1 0x20 ADD PUSH0 ISZERO ISZERO DUP2 MSTORE POP SWAP1 POP DUP1 PUSH1 0x2 PUSH0 PUSH1 0x1 SLOAD DUP2 MSTORE PUSH1 0x20 ADD SWAP1 DUP2 MSTORE PUSH1 0x20 ADD PUSH0 KECCAK256 PUSH0 DUP3 ADD MLOAD DUP2 PUSH0 ADD SSTORE PUSH1 0x20 DUP3 ADD MLOAD DUP2 PUSH1 0x1 ADD PUSH0 PUSH2 0x100 EXP DUP2 SLOAD DUP2 PUSH1 0xFF MUL NOT AND SWAP1 DUP4 PUSH1 0x2 DUP2 GT ISZERO PUSH2 0x288 JUMPI PUSH2 0x287 PUSH2 0x8BB JUMP JUMPDEST JUMPDEST MUL OR SWAP1 SSTORE POP PUSH1 0x40 DUP3 ADD MLOAD DUP2 PUSH1 0x2 ADD SWAP1 DUP2 PUSH2 0x2A2 SWAP2 SWAP1 PUSH2 0xAEC JUMP JUMPDEST POP PUSH1 0x60 DUP3 ADD MLOAD DUP2 PUSH1 0x3 ADD SSTORE PUSH1 0x80 DUP3 ADD MLOAD DUP2 PUSH1 0x4 ADD PUSH0 PUSH2 0x100 EXP DUP2 SLOAD DUP2 PUSH1 0xFF MUL NOT AND SWAP1 DUP4 ISZERO ISZERO MUL OR SWAP1 SSTORE POP SWAP1 POP POP PUSH2 0x2DC PUSH1 0x1 SLOAD PUSH1 0x1 PUSH2 0x4DE JUMP JUMPDEST PUSH1 0x1 DUP2 SWAP1 SSTORE POP PUSH32 0x615EB1193AB28532B0958952317B9EEFB36E49E4A65BC640CF28F2EC9A931771 DUP2 TIMESTAMP PUSH1 0x40 MLOAD PUSH2 0x313 SWAP3 SWAP2 SWAP1 PUSH2 0xD0D JUMP JUMPDEST PUSH1 0x40 MLOAD DUP1 SWAP2 SUB SWAP1 LOG1 POP POP JUMP JUMPDEST PUSH0 PUSH1 0x1 SLOAD SWAP1 POP SWAP1 JUMP JUMPDEST PUSH0 PUSH1 0x2 PUSH0 DUP4 DUP2 MSTORE PUSH1 0x20 ADD SWAP1 DUP2 MSTORE PUSH1 0x20 ADD PUSH0 KECCAK256 PUSH1 0x40 MLOAD DUP1 PUSH1 0xA0 ADD PUSH1 0x40 MSTORE SWAP1 DUP2 PUSH0 DUP3 ADD SLOAD DUP2 MSTORE PUSH1 0x20 ADD PUSH1 0x1 DUP3 ADD PUSH0 SWAP1 SLOAD SWAP1 PUSH2 0x100 EXP SWAP1 DIV PUSH1 0xFF AND PUSH1 0x2 DUP2 GT ISZERO PUSH2 0x372 JUMPI PUSH2 0x371 PUSH2 0x8BB JUMP JUMPDEST JUMPDEST PUSH1 0x2 DUP2 GT ISZERO PUSH2 0x384 JUMPI PUSH2 0x383 PUSH2 0x8BB JUMP JUMPDEST JUMPDEST DUP2 MSTORE PUSH1 0x20 ADD PUSH1 0x2 DUP3 ADD DUP1 SLOAD PUSH2 0x398 SWAP1 PUSH2 0x91F JUMP JUMPDEST DUP1 PUSH1 0x1F ADD PUSH1 0x20 DUP1 SWAP2 DIV MUL PUSH1 0x20 ADD PUSH1 0x40 MLOAD SWAP1 DUP2 ADD PUSH1 0x40 MSTORE DUP1 SWAP3 SWAP2 SWAP1 DUP2 DUP2 MSTORE PUSH1 0x20 ADD DUP3 DUP1 SLOAD PUSH2 0x3C4 SWAP1 PUSH2 0x91F JUMP JUMPDEST DUP1 ISZERO PUSH2 0x40F JUMPI DUP1 PUSH1 0x1F LT PUSH2 0x3E6 JUMPI PUSH2 0x100 DUP1 DUP4 SLOAD DIV MUL DUP4 MSTORE SWAP2 PUSH1 0x20 ADD SWAP2 PUSH2 0x40F JUMP JUMPDEST DUP3 ADD SWAP2 SWAP1 PUSH0 MSTORE PUSH1 0x20 PUSH0 KECCAK256 SWAP1 JUMPDEST DUP2 SLOAD DUP2 MSTORE SWAP1 PUSH1 0x1 ADD SWAP1 PUSH1 0x20 ADD DUP1 DUP4 GT PUSH2 0x3F2 JUMPI DUP3 SWAP1 SUB PUSH1 0x1F AND DUP3 ADD SWAP2 JUMPDEST POP POP POP POP POP DUP2 MSTORE PUSH1 0x20 ADD PUSH1 0x3 DUP3 ADD SLOAD DUP2 MSTORE PUSH1 0x20 ADD PUSH1 0x4 DUP3 ADD PUSH0 SWAP1 SLOAD SWAP1 PUSH2 0x100 EXP SWAP1 DIV PUSH1 0xFF AND ISZERO ISZERO ISZERO ISZERO DUP2 MSTORE POP POP SWAP1 POP PUSH1 0x1 DUP2 PUSH1 0x80 ADD SWAP1 ISZERO ISZERO SWAP1 DUP2 ISZERO ISZERO DUP2 MSTORE POP POP DUP1 PUSH1 0x2 PUSH0 DUP5 DUP2 MSTORE PUSH1 0x20 ADD SWAP1 DUP2 MSTORE PUSH1 0x20 ADD PUSH0 KECCAK256 PUSH0 DUP3 ADD MLOAD DUP2 PUSH0 ADD SSTORE PUSH1 0x20 DUP3 ADD MLOAD DUP2 PUSH1 0x1 ADD PUSH0 PUSH2 0x100 EXP DUP2 SLOAD DUP2 PUSH1 0xFF MUL NOT AND SWAP1 DUP4 PUSH1 0x2 DUP2 GT ISZERO PUSH2 0x493 JUMPI PUSH2 0x492 PUSH2 0x8BB JUMP JUMPDEST JUMPDEST MUL OR SWAP1 SSTORE POP PUSH1 0x40 DUP3 ADD MLOAD DUP2 PUSH1 0x2 ADD SWAP1 DUP2 PUSH2 0x4AD SWAP2 SWAP1 PUSH2 0xAEC JUMP JUMPDEST POP PUSH1 0x60 DUP3 ADD MLOAD DUP2 PUSH1 0x3 ADD SSTORE PUSH1 0x80 DUP3 ADD MLOAD DUP2 PUSH1 0x4 ADD PUSH0 PUSH2 0x100 EXP DUP2 SLOAD DUP2 PUSH1 0xFF MUL NOT AND SWAP1 DUP4 ISZERO ISZERO MUL OR SWAP1 SSTORE POP SWAP1 POP POP POP POP JUMP JUMPDEST PUSH0 DUP1 DUP3 DUP5 PUSH2 0x4EC SWAP2 SWAP1 PUSH2 0x7FA JUMP JUMPDEST SWAP1 POP DUP4 DUP2 LT ISZERO PUSH2 0x531 JUMPI PUSH1 0x40 MLOAD PUSH32 0x8C379A000000000000000000000000000000000000000000000000000000000 DUP2 MSTORE PUSH1 0x4 ADD PUSH2 0x528 SWAP1 PUSH2 0xD85 JUMP JUMPDEST PUSH1 0x40 MLOAD DUP1 SWAP2 SUB SWAP1 REVERT JUMPDEST DUP1 SWAP2 POP POP SWAP3 SWAP2 POP POP JUMP JUMPDEST PUSH0 PUSH1 0x40 MLOAD SWAP1 POP SWAP1 JUMP JUMPDEST PUSH0 DUP1 REVERT JUMPDEST PUSH0 DUP1 REVERT JUMPDEST PUSH0 DUP1 REVERT JUMPDEST PUSH0 DUP1 REVERT JUMPDEST PUSH0 PUSH1 0x1F NOT PUSH1 0x1F DUP4 ADD AND SWAP1 POP SWAP2 SWAP1 POP JUMP JUMPDEST PUSH32 0x4E487B7100000000000000000000000000000000000000000000000000000000 PUSH0 MSTORE PUSH1 0x41 PUSH1 0x4 MSTORE PUSH1 0x24 PUSH0 REVERT JUMPDEST PUSH2 0x59A DUP3 PUSH2 0x554 JUMP JUMPDEST DUP2 ADD DUP2 DUP2 LT PUSH8 0xFFFFFFFFFFFFFFFF DUP3 GT OR ISZERO PUSH2 0x5B9 JUMPI PUSH2 0x5B8 PUSH2 0x564 JUMP JUMPDEST JUMPDEST DUP1 PUSH1 0x40 MSTORE POP POP POP JUMP JUMPDEST PUSH0 PUSH2 0x5CB PUSH2 0x53B JUMP JUMPDEST SWAP1 POP PUSH2 0x5D7 DUP3 DUP3 PUSH2 0x591 JUMP JUMPDEST SWAP2 SWAP1 POP JUMP JUMPDEST PUSH0 PUSH8 0xFFFFFFFFFFFFFFFF DUP3 GT ISZERO PUSH2 0x5F6 JUMPI PUSH2 0x5F5 PUSH2 0x564 JUMP JUMPDEST JUMPDEST PUSH2 0x5FF DUP3 PUSH2 0x554 JUMP JUMPDEST SWAP1 POP PUSH1 0x20 DUP2 ADD SWAP1 POP SWAP2 SWAP1 POP JUMP JUMPDEST DUP3 DUP2 DUP4 CALLDATACOPY PUSH0 DUP4 DUP4 ADD MSTORE POP POP POP JUMP JUMPDEST PUSH0 PUSH2 0x62C PUSH2 0x627 DUP5 PUSH2 0x5DC JUMP JUMPDEST PUSH2 0x5C2 JUMP JUMPDEST SWAP1 POP DUP3 DUP2 MSTORE PUSH1 0x20 DUP2 ADD DUP5 DUP5 DUP5 ADD GT ISZERO PUSH2 0x648 JUMPI PUSH2 0x647 PUSH2 0x550 JUMP JUMPDEST JUMPDEST PUSH2 0x653 DUP5 DUP3 DUP6 PUSH2 0x60C JUMP JUMPDEST POP SWAP4 SWAP3 POP POP POP JUMP JUMPDEST PUSH0 DUP3 PUSH1 0x1F DUP4 ADD SLT PUSH2 0x66F JUMPI PUSH2 0x66E PUSH2 0x54C JUMP JUMPDEST JUMPDEST DUP2 CALLDATALOAD PUSH2 0x67F DUP5 DUP3 PUSH1 0x20 DUP7 ADD PUSH2 0x61A JUMP JUMPDEST SWAP2 POP POP SWAP3 SWAP2 POP POP JUMP JUMPDEST PUSH0 PUSH1 0x20 DUP3 DUP5 SUB SLT ISZERO PUSH2 0x69D JUMPI PUSH2 0x69C PUSH2 0x544 JUMP JUMPDEST JUMPDEST PUSH0 DUP3 ADD CALLDATALOAD PUSH8 0xFFFFFFFFFFFFFFFF DUP2 GT ISZERO PUSH2 0x6BA JUMPI PUSH2 0x6B9 PUSH2 0x548 JUMP JUMPDEST JUMPDEST PUSH2 0x6C6 DUP5 DUP3 DUP6 ADD PUSH2 0x65B JUMP JUMPDEST SWAP2 POP POP SWAP3 SWAP2 POP POP JUMP JUMPDEST PUSH0 DUP2 SWAP1 POP SWAP2 SWAP1 POP JUMP JUMPDEST PUSH2 0x6E1 DUP2 PUSH2 0x6CF JUMP JUMPDEST DUP3 MSTORE POP POP JUMP JUMPDEST PUSH0 PUSH1 0x20 DUP3 ADD SWAP1 POP PUSH2 0x6FA PUSH0 DUP4 ADD DUP5 PUSH2 0x6D8 JUMP JUMPDEST SWAP3 SWAP2 POP POP JUMP JUMPDEST PUSH2 0x709 DUP2 PUSH2 0x6CF JUMP JUMPDEST DUP2 EQ PUSH2 0x713 JUMPI PUSH0 DUP1 REVERT JUMPDEST POP JUMP JUMPDEST PUSH0 DUP2 CALLDATALOAD SWAP1 POP PUSH2 0x724 DUP2 PUSH2 0x700 JUMP JUMPDEST SWAP3 SWAP2 POP POP JUMP JUMPDEST PUSH0 PUSH1 0x20 DUP3 DUP5 SUB SLT ISZERO PUSH2 0x73F JUMPI PUSH2 0x73E PUSH2 0x544 JUMP JUMPDEST JUMPDEST PUSH0 PUSH2 0x74C DUP5 DUP3 DUP6 ADD PUSH2 0x716 JUMP JUMPDEST SWAP2 POP POP SWAP3 SWAP2 POP POP JUMP JUMPDEST PUSH0 DUP3 DUP3 MSTORE PUSH1 0x20 DUP3 ADD SWAP1 POP SWAP3 SWAP2 POP POP JUMP JUMPDEST PUSH32 0x6E6F2073756666696369656E742066756E640000000000000000000000000000 PUSH0 DUP3 ADD MSTORE POP JUMP JUMPDEST PUSH0 PUSH2 0x799 PUSH1 0x12 DUP4 PUSH2 0x755 JUMP JUMPDEST SWAP2 POP PUSH2 0x7A4 DUP3 PUSH2 0x765 JUMP JUMPDEST PUSH1 0x20 DUP3 ADD SWAP1 POP SWAP2 SWAP1 POP JUMP JUMPDEST PUSH0 PUSH1 0x20 DUP3 ADD SWAP1 POP DUP2 DUP2 SUB PUSH0 DUP4 ADD MSTORE PUSH2 0x7C6 DUP2 PUSH2 0x78D JUMP JUMPDEST SWAP1 POP SWAP2 SWAP1 POP JUMP JUMPDEST PUSH32 0x4E487B7100000000000000000000000000000000000000000000000000000000 PUSH0 MSTORE PUSH1 0x11 PUSH1 0x4 MSTORE PUSH1 0x24 PUSH0 REVERT JUMPDEST PUSH0 PUSH2 0x804 DUP3 PUSH2 0x6CF JUMP JUMPDEST SWAP2 POP PUSH2 0x80F DUP4 PUSH2 0x6CF JUMP JUMPDEST SWAP3 POP DUP3 DUP3 ADD SWAP1 POP DUP1 DUP3 GT ISZERO PUSH2 0x827 JUMPI PUSH2 0x826 PUSH2 0x7CD JUMP JUMPDEST JUMPDEST SWAP3 SWAP2 POP POP JUMP JUMPDEST PUSH32 0x706C65617365207570677261646520746F20616464206D6F7265207468616E20 PUSH0 DUP3 ADD MSTORE PUSH32 0x3130000000000000000000000000000000000000000000000000000000000000 PUSH1 0x20 DUP3 ADD MSTORE POP JUMP JUMPDEST PUSH0 PUSH2 0x887 PUSH1 0x22 DUP4 PUSH2 0x755 JUMP JUMPDEST SWAP2 POP PUSH2 0x892 DUP3 PUSH2 0x82D JUMP JUMPDEST PUSH1 0x40 DUP3 ADD SWAP1 POP SWAP2 SWAP1 POP JUMP JUMPDEST PUSH0 PUSH1 0x20 DUP3 ADD SWAP1 POP DUP2 DUP2 SUB PUSH0 DUP4 ADD MSTORE PUSH2 0x8B4 DUP2 PUSH2 0x87B JUMP JUMPDEST SWAP1 POP SWAP2 SWAP1 POP JUMP JUMPDEST PUSH32 0x4E487B7100000000000000000000000000000000000000000000000000000000 PUSH0 MSTORE PUSH1 0x21 PUSH1 0x4 MSTORE PUSH1 0x24 PUSH0 REVERT JUMPDEST PUSH0 DUP2 MLOAD SWAP1 POP SWAP2 SWAP1 POP JUMP JUMPDEST PUSH32 0x4E487B7100000000000000000000000000000000000000000000000000000000 PUSH0 MSTORE PUSH1 0x22 PUSH1 0x4 MSTORE PUSH1 0x24 PUSH0 REVERT JUMPDEST PUSH0 PUSH1 0x2 DUP3 DIV SWAP1 POP PUSH1 0x1 DUP3 AND DUP1 PUSH2 0x936 JUMPI PUSH1 0x7F DUP3 AND SWAP2 POP JUMPDEST PUSH1 0x20 DUP3 LT DUP2 SUB PUSH2 0x949 JUMPI PUSH2 0x948 PUSH2 0x8F2 JUMP JUMPDEST JUMPDEST POP SWAP2 SWAP1 POP JUMP JUMPDEST PUSH0 DUP2 SWAP1 POP DUP2 PUSH0 MSTORE PUSH1 0x20 PUSH0 KECCAK256 SWAP1 POP SWAP2 SWAP1 POP JUMP JUMPDEST PUSH0 PUSH1 0x20 PUSH1 0x1F DUP4 ADD DIV SWAP1 POP SWAP2 SWAP1 POP JUMP JUMPDEST PUSH0 DUP3 DUP3 SHL SWAP1 POP SWAP3 SWAP2 POP POP JUMP JUMPDEST PUSH0 PUSH1 0x8 DUP4 MUL PUSH2 0x9AB PUSH32 0xFFFFFFFFFFFFFFFFFFFFFFFFFFFFFFFFFFFFFFFFFFFFFFFFFFFFFFFFFFFFFFFF DUP3 PUSH2 0x970 JUMP JUMPDEST PUSH2 0x9B5 DUP7 DUP4 PUSH2 0x970 JUMP JUMPDEST SWAP6 POP DUP1 NOT DUP5 AND SWAP4 POP DUP1 DUP7 AND DUP5 OR SWAP3 POP POP POP SWAP4 SWAP3 POP POP POP JUMP JUMPDEST PUSH0 DUP2 SWAP1 POP SWAP2 SWAP1 POP JUMP JUMPDEST PUSH0 PUSH2 0x9F0 PUSH2 0x9EB PUSH2 0x9E6 DUP5 PUSH2 0x6CF JUMP JUMPDEST PUSH2 0x9CD JUMP JUMPDEST PUSH2 0x6CF JUMP JUMPDEST SWAP1 POP SWAP2 SWAP1 POP JUMP JUMPDEST PUSH0 DUP2 SWAP1 POP SWAP2 SWAP1 POP JUMP JUMPDEST PUSH2 0xA09 DUP4 PUSH2 0x9D6 JUMP JUMPDEST PUSH2 0xA1D PUSH2 0xA15 DUP3 PUSH2 0x9F7 JUMP JUMPDEST DUP5 DUP5 SLOAD PUSH2 0x97C JUMP JUMPDEST DUP3 SSTORE POP POP POP POP JUMP JUMPDEST PUSH0 SWAP1 JUMP JUMPDEST PUSH2 0xA31 PUSH2 0xA25 JUMP JUMPDEST PUSH2 0xA3C DUP2 DUP5 DUP5 PUSH2 0xA00 JUMP JUMPDEST POP POP POP JUMP JUMPDEST JUMPDEST DUP2 DUP2 LT ISZERO PUSH2 0xA5F JUMPI PUSH2 0xA54 PUSH0 DUP3 PUSH2 0xA29 JUMP JUMPDEST PUSH1 0x1 DUP2 ADD SWAP1 POP PUSH2 0xA42 JUMP JUMPDEST POP POP JUMP JUMPDEST PUSH1 0x1F DUP3 GT ISZERO PUSH2 0xAA4 JUMPI PUSH2 0xA75 DUP2 PUSH2 0x94F JUMP JUMPDEST PUSH2 0xA7E DUP5 PUSH2 0x961 JUMP JUMPDEST DUP2 ADD PUSH1 0x20 DUP6 LT ISZERO PUSH2 0xA8D JUMPI DUP2 SWAP1 POP JUMPDEST PUSH2 0xAA1 PUSH2 0xA99 DUP6 PUSH2 0x961 JUMP JUMPDEST DUP4 ADD DUP3 PUSH2 0xA41 JUMP JUMPDEST POP POP JUMPDEST POP POP POP JUMP JUMPDEST PUSH0 DUP3 DUP3 SHR SWAP1 POP SWAP3 SWAP2 POP POP JUMP JUMPDEST PUSH0 PUSH2 0xAC4 PUSH0 NOT DUP5 PUSH1 0x8 MUL PUSH2 0xAA9 JUMP JUMPDEST NOT DUP1 DUP4 AND SWAP2 POP POP SWAP3 SWAP2 POP POP JUMP JUMPDEST PUSH0 PUSH2 0xADC DUP4 DUP4 PUSH2 0xAB5 JUMP JUMPDEST SWAP2 POP DUP3 PUSH1 0x2 MUL DUP3 OR SWAP1 POP SWAP3 SWAP2 POP POP JUMP JUMPDEST PUSH2 0xAF5 DUP3 PUSH2 0x8E8 JUMP JUMPDEST PUSH8 0xFFFFFFFFFFFFFFFF DUP2 GT ISZERO PUSH2 0xB0E JUMPI PUSH2 0xB0D PUSH2 0x564 JUMP JUMPDEST JUMPDEST PUSH2 0xB18 DUP3 SLOAD PUSH2 0x91F JUMP JUMPDEST PUSH2 0xB23 DUP3 DUP3 DUP6 PUSH2 0xA63 JUMP JUMPDEST PUSH0 PUSH1 0x20 SWAP1 POP PUSH1 0x1F DUP4 GT PUSH1 0x1 DUP2 EQ PUSH2 0xB54 JUMPI PUSH0 DUP5 ISZERO PUSH2 0xB42 JUMPI DUP3 DUP8 ADD MLOAD SWAP1 POP JUMPDEST PUSH2 0xB4C DUP6 DUP3 PUSH2 0xAD1 JUMP JUMPDEST DUP7 SSTORE POP PUSH2 0xBB3 JUMP JUMPDEST PUSH1 0x1F NOT DUP5 AND PUSH2 0xB62 DUP7 PUSH2 0x94F JUMP JUMPDEST PUSH0 JUMPDEST DUP3 DUP2 LT ISZERO PUSH2 0xB89 JUMPI DUP5 DUP10 ADD MLOAD DUP3 SSTORE PUSH1 0x1 DUP3 ADD SWAP2 POP PUSH1 0x20 DUP6 ADD SWAP5 POP PUSH1 0x20 DUP2 ADD SWAP1 POP PUSH2 0xB64 JUMP JUMPDEST DUP7 DUP4 LT ISZERO PUSH2 0xBA6 JUMPI DUP5 DUP10 ADD MLOAD PUSH2 0xBA2 PUSH1 0x1F DUP10 AND DUP3 PUSH2 0xAB5 JUMP JUMPDEST DUP4 SSTORE POP JUMPDEST PUSH1 0x1 PUSH1 0x2 DUP9 MUL ADD DUP9 SSTORE POP POP POP JUMPDEST POP POP POP POP POP POP JUMP JUMPDEST PUSH2 0xBC4 DUP2 PUSH2 0x6CF JUMP JUMPDEST DUP3 MSTORE POP POP JUMP JUMPDEST PUSH1 0x3 DUP2 LT PUSH2 0xBDB JUMPI PUSH2 0xBDA PUSH2 0x8BB JUMP JUMPDEST JUMPDEST POP JUMP JUMPDEST PUSH0 DUP2 SWAP1 POP PUSH2 0xBEB DUP3 PUSH2 0xBCA JUMP JUMPDEST SWAP2 SWAP1 POP JUMP JUMPDEST PUSH0 PUSH2 0xBFA DUP3 PUSH2 0xBDE JUMP JUMPDEST SWAP1 POP SWAP2 SWAP1 POP JUMP JUMPDEST PUSH2 0xC0A DUP2 PUSH2 0xBF0 JUMP JUMPDEST DUP3 MSTORE POP POP JUMP JUMPDEST PUSH0 DUP3 DUP3 MSTORE PUSH1 0x20 DUP3 ADD SWAP1 POP SWAP3 SWAP2 POP POP JUMP JUMPDEST PUSH0 JUMPDEST DUP4 DUP2 LT ISZERO PUSH2 0xC3D JUMPI DUP1 DUP3 ADD MLOAD DUP2 DUP5 ADD MSTORE PUSH1 0x20 DUP2 ADD SWAP1 POP PUSH2 0xC22 JUMP JUMPDEST PUSH0 DUP5 DUP5 ADD MSTORE POP POP POP POP JUMP JUMPDEST PUSH0 PUSH2 0xC52 DUP3 PUSH2 0x8E8 JUMP JUMPDEST PUSH2 0xC5C DUP2 DUP6 PUSH2 0xC10 JUMP JUMPDEST SWAP4 POP PUSH2 0xC6C DUP2 DUP6 PUSH1 0x20 DUP7 ADD PUSH2 0xC20 JUMP JUMPDEST PUSH2 0xC75 DUP2 PUSH2 0x554 JUMP JUMPDEST DUP5 ADD SWAP2 POP POP SWAP3 SWAP2 POP POP JUMP JUMPDEST PUSH0 DUP2 ISZERO ISZERO SWAP1 POP SWAP2 SWAP1 POP JUMP JUMPDEST PUSH2 0xC94 DUP2 PUSH2 0xC80 JUMP JUMPDEST DUP3 MSTORE POP POP JUMP JUMPDEST PUSH0 PUSH1 0xA0 DUP4 ADD PUSH0 DUP4 ADD MLOAD PUSH2 0xCAF PUSH0 DUP7 ADD DUP3 PUSH2 0xBBB JUMP JUMPDEST POP PUSH1 0x20 DUP4 ADD MLOAD PUSH2 0xCC2 PUSH1 0x20 DUP7 ADD DUP3 PUSH2 0xC01 JUMP JUMPDEST POP PUSH1 0x40 DUP4 ADD MLOAD DUP5 DUP3 SUB PUSH1 0x40 DUP7 ADD MSTORE PUSH2 0xCDA DUP3 DUP3 PUSH2 0xC48 JUMP JUMPDEST SWAP2 POP POP PUSH1 0x60 DUP4 ADD MLOAD PUSH2 0xCEF PUSH1 0x60 DUP7 ADD DUP3 PUSH2 0xBBB JUMP JUMPDEST POP PUSH1 0x80 DUP4 ADD MLOAD PUSH2 0xD02 PUSH1 0x80 DUP7 ADD DUP3 PUSH2 0xC8B JUMP JUMPDEST POP DUP1 SWAP2 POP POP SWAP3 SWAP2 POP POP JUMP JUMPDEST PUSH0 PUSH1 0x40 DUP3 ADD SWAP1 POP DUP2 DUP2 SUB PUSH0 DUP4 ADD MSTORE PUSH2 0xD25 DUP2 DUP6 PUSH2 0xC9A JUMP JUMPDEST SWAP1 POP PUSH2 0xD34 PUSH1 0x20 DUP4 ADD DUP5 PUSH2 0x6D8 JUMP JUMPDEST SWAP4 SWAP3 POP POP POP JUMP JUMPDEST PUSH32 0x536166654D6174683A206164646974696F6E206F766572666C6F770000000000 PUSH0 DUP3 ADD MSTORE POP JUMP JUMPDEST PUSH0 PUSH2 0xD6F PUSH1 0x1B DUP4 PUSH2 0x755 JUMP JUMPDEST SWAP2 POP PUSH2 0xD7A DUP3 PUSH2 0xD3B JUMP JUMPDEST PUSH1 0x20 DUP3 ADD SWAP1 POP SWAP2 SWAP1 POP JUMP JUMPDEST PUSH0 PUSH1 0x20 DUP3 ADD SWAP1 POP DUP2 DUP2 SUB PUSH0 DUP4 ADD MSTORE PUSH2 0xD9C DUP2 PUSH2 0xD63 JUMP JUMPDEST SWAP1 POP SWAP2 SWAP1 POP JUMP INVALID LOG2 PUSH5 0x6970667358 0x22 SLT KECCAK256 KECCAK256 0xC3 0xEC CHAINID 0xE9 CALLCODE PC PUSH11 0x2D5AA91BB67CF7A8CF6C2A SLOAD 0xD 0xC5 DUP16 SSTORE 0xAC 0x5E SSTORE DUP6 0xB0 DUP10 0xAE RETURNDATASIZE PUSH5 0x736F6C6343 STOP ADDMOD AND STOP CALLER "
				},
				"gasEstimates": {
					"creation": {
						"codeDepositCost": "709000",
						"executionCost": "30017",
						"totalCost": "739017"
					},
					"external": {
						"addTask(string)": "infinite",
						"completeTask(uint256)": "infinite",
						"getTasksCount()": "2454",
						"upgradePlan()": "24475"
					}
				},
				"methodIdentifiers": {
					"addTask(string)": "67238562",
					"completeTask(uint256)": "e1e29558",
					"getTasksCount()": "9f899273",
					"upgradePlan()": "04fafc6c"
				}
			},
			"storageLayout": {
				"storage": [
					{
						"astId": 20,
						"contract": "contracts/TaskManager.sol:TaskManager",
						"label": "admin",
						"offset": 0,
						"slot": "0",
						"type": "t_address"
					},
					{
						"astId": 22,
						"contract": "contracts/TaskManager.sol:TaskManager",
						"label": "count",
						"offset": 0,
						"slot": "1",
						"type": "t_uint256"
					},
					{
						"astId": 27,
						"contract": "contracts/TaskManager.sol:TaskManager",
						"label": "tasks",
						"offset": 0,
						"slot": "2",
						"type": "t_mapping(t_uint256,t_struct(Task)18_storage)"
					},
					{
						"astId": 31,
						"contract": "contracts/TaskManager.sol:TaskManager",
						"label": "premiums",
						"offset": 0,
						"slot": "3",
						"type": "t_mapping(t_address,t_bool)"
					}
				],
				"types": {
					"t_address": {
						"encoding": "inplace",
						"label": "address",
						"numberOfBytes": "20"
					},
					"t_bool": {
						"encoding": "inplace",
						"label": "bool",
						"numberOfBytes": "1"
					},
					"t_enum(Priority)6": {
						"encoding": "inplace",
						"label": "enum TaskManager.Priority",
						"numberOfBytes": "1"
					},
					"t_mapping(t_address,t_bool)": {
						"encoding": "mapping",
						"key": "t_address",
						"label": "mapping(address => bool)",
						"numberOfBytes": "32",
						"value": "t_bool"
					},
					"t_mapping(t_uint256,t_struct(Task)18_storage)": {
						"encoding": "mapping",
						"key": "t_uint256",
						"label": "mapping(uint256 => struct TaskManager.Task)",
						"numberOfBytes": "32",
						"value": "t_struct(Task)18_storage"
					},
					"t_string_storage": {
						"encoding": "bytes",
						"label": "string",
						"numberOfBytes": "32"
					},
					"t_struct(Task)18_storage": {
						"encoding": "inplace",
						"label": "struct TaskManager.Task",
						"members": [
							{
								"astId": 8,
								"contract": "contracts/TaskManager.sol:TaskManager",
								"label": "id",
								"offset": 0,
								"slot": "0",
								"type": "t_uint256"
							},
							{
								"astId": 11,
								"contract": "contracts/TaskManager.sol:TaskManager",
								"label": "priority",
								"offset": 0,
								"slot": "1",
								"type": "t_enum(Priority)6"
							},
							{
								"astId": 13,
								"contract": "contracts/TaskManager.sol:TaskManager",
								"label": "content",
								"offset": 0,
								"slot": "2",
								"type": "t_string_storage"
							},
							{
								"astId": 15,
								"contract": "contracts/TaskManager.sol:TaskManager",
								"label": "timestamp",
								"offset": 0,
								"slot": "3",
								"type": "t_uint256"
							},
							{
								"astId": 17,
								"contract": "contracts/TaskManager.sol:TaskManager",
								"label": "completed",
								"offset": 0,
								"slot": "4",
								"type": "t_bool"
							}
						],
						"numberOfBytes": "160"
					},
					"t_uint256": {
						"encoding": "inplace",
						"label": "uint256",
						"numberOfBytes": "32"
					}
				}
			},
			"userdoc": {
				"kind": "user",
				"methods": {},
				"version": 1
			}
		}
	}
}