{
	"data": {
		"bytecode": {
			"linkReferences": {},
			"object": "608060405234801561000f575f80fd5b50335f806101000a81548173ffffffffffffffffffffffffffffffffffffffff021916908373ffffffffffffffffffffffffffffffffffffffff1602179055505f600181905550610eea806100635f395ff3fe608060405260043610610049575f3560e01c806304fafc6c1461004d57806367238562146100575780639bddb69a1461007f5780639f899273146100bb578063e1e29558146100e5575b5f80fd5b61005561010d565b005b348015610062575f80fd5b5061007d600480360381019061007891906106ec565b6101a8565b005b34801561008a575f80fd5b506100a560048036038101906100a0919061078d565b610366565b6040516100b291906107d2565b60405180910390f35b3480156100c6575f80fd5b506100cf610383565b6040516100dc9190610803565b60405180910390f35b3480156100f0575f80fd5b5061010b60048036038101906101069190610846565b61038c565b005b6005341015610151576040517f08c379a0000000000000000000000000000000000000000000000000000000008152600401610148906108cb565b60405180910390fd5b600160035f3373ffffffffffffffffffffffffffffffffffffffff1673ffffffffffffffffffffffffffffffffffffffff1681526020019081526020015f205f6101000a81548160ff021916908315150217905550565b600b600180546101b89190610916565b108061020a575060035f3373ffffffffffffffffffffffffffffffffffffffff1673ffffffffffffffffffffffffffffffffffffffff1681526020019081526020015f205f9054906101000a900460ff165b610249576040517f08c379a0000000000000000000000000000000000000000000000000000000008152600401610240906109b9565b60405180910390fd5b5f6040518060a0016040528060015481526020015f60028111156102705761026f6109d7565b5b81526020018381526020014281526020015f151581525090508060025f60015481526020019081526020015f205f820151815f01556020820151816001015f6101000a81548160ff021916908360028111156102cf576102ce6109d7565b5b021790555060408201518160020190816102e99190610c08565b50606082015181600301556080820151816004015f6101000a81548160ff0219169083151502179055509050506103236001546001610542565b6001819055507f615eb1193ab28532b0958952317b9eefb36e49e4a65bc640cf28f2ec9a931771814260405161035a929190610e1e565b60405180910390a15050565b6003602052805f5260405f205f915054906101000a900460ff1681565b5f600154905090565b5f60025f8381526020019081526020015f206040518060a00160405290815f8201548152602001600182015f9054906101000a900460ff1660028111156103d6576103d56109d7565b5b60028111156103e8576103e76109d7565b5b81526020016002820180546103fc90610a3b565b80601f016020809104026020016040519081016040528092919081815260200182805461042890610a3b565b80156104735780601f1061044a57610100808354040283529160200191610473565b820191905f5260205f20905b81548152906001019060200180831161045657829003601f168201915b5050505050815260200160038201548152602001600482015f9054906101000a900460ff161515151581525050905060018160800190151590811515815250508060025f8481526020019081526020015f205f820151815f01556020820151816001015f6101000a81548160ff021916908360028111156104f7576104f66109d7565b5b021790555060408201518160020190816105119190610c08565b50606082015181600301556080820151816004015f6101000a81548160ff0219169083151502179055509050505050565b5f8082846105509190610916565b905083811015610595576040517f08c379a000000000000000000000000000000000000000000000000000000000815260040161058c90610e96565b60405180910390fd5b8091505092915050565b5f604051905090565b5f80fd5b5f80fd5b5f80fd5b5f80fd5b5f601f19601f8301169050919050565b7f4e487b71000000000000000000000000000000000000000000000000000000005f52604160045260245ffd5b6105fe826105b8565b810181811067ffffffffffffffff8211171561061d5761061c6105c8565b5b80604052505050565b5f61062f61059f565b905061063b82826105f5565b919050565b5f67ffffffffffffffff82111561065a576106596105c8565b5b610663826105b8565b9050602081019050919050565b828183375f83830152505050565b5f61069061068b84610640565b610626565b9050828152602081018484840111156106ac576106ab6105b4565b5b6106b7848285610670565b509392505050565b5f82601f8301126106d3576106d26105b0565b5b81356106e384826020860161067e565b91505092915050565b5f60208284031215610701576107006105a8565b5b5f82013567ffffffffffffffff81111561071e5761071d6105ac565b5b61072a848285016106bf565b91505092915050565b5f73ffffffffffffffffffffffffffffffffffffffff82169050919050565b5f61075c82610733565b9050919050565b61076c81610752565b8114610776575f80fd5b50565b5f8135905061078781610763565b92915050565b5f602082840312156107a2576107a16105a8565b5b5f6107af84828501610779565b91505092915050565b5f8115159050919050565b6107cc816107b8565b82525050565b5f6020820190506107e55f8301846107c3565b92915050565b5f819050919050565b6107fd816107eb565b82525050565b5f6020820190506108165f8301846107f4565b92915050565b610825816107eb565b811461082f575f80fd5b50565b5f813590506108408161081c565b92915050565b5f6020828403121561085b5761085a6105a8565b5b5f61086884828501610832565b91505092915050565b5f82825260208201905092915050565b7f6e6f2073756666696369656e742066756e6400000000000000000000000000005f82015250565b5f6108b5601283610871565b91506108c082610881565b602082019050919050565b5f6020820190508181035f8301526108e2816108a9565b9050919050565b7f4e487b71000000000000000000000000000000000000000000000000000000005f52601160045260245ffd5b5f610920826107eb565b915061092b836107eb565b9250828201905080821115610943576109426108e9565b5b92915050565b7f706c65617365207570677261646520746f20616464206d6f7265207468616e205f8201527f3130000000000000000000000000000000000000000000000000000000000000602082015250565b5f6109a3602283610871565b91506109ae82610949565b604082019050919050565b5f6020820190508181035f8301526109d081610997565b9050919050565b7f4e487b71000000000000000000000000000000000000000000000000000000005f52602160045260245ffd5b5f81519050919050565b7f4e487b71000000000000000000000000000000000000000000000000000000005f52602260045260245ffd5b5f6002820490506001821680610a5257607f821691505b602082108103610a6557610a64610a0e565b5b50919050565b5f819050815f5260205f209050919050565b5f6020601f8301049050919050565b5f82821b905092915050565b5f60088302610ac77fffffffffffffffffffffffffffffffffffffffffffffffffffffffffffffffff82610a8c565b610ad18683610a8c565b95508019841693508086168417925050509392505050565b5f819050919050565b5f610b0c610b07610b02846107eb565b610ae9565b6107eb565b9050919050565b5f819050919050565b610b2583610af2565b610b39610b3182610b13565b848454610a98565b825550505050565b5f90565b610b4d610b41565b610b58818484610b1c565b505050565b5b81811015610b7b57610b705f82610b45565b600181019050610b5e565b5050565b601f821115610bc057610b9181610a6b565b610b9a84610a7d565b81016020851015610ba9578190505b610bbd610bb585610a7d565b830182610b5d565b50505b505050565b5f82821c905092915050565b5f610be05f1984600802610bc5565b1980831691505092915050565b5f610bf88383610bd1565b9150826002028217905092915050565b610c1182610a04565b67ffffffffffffffff811115610c2a57610c296105c8565b5b610c348254610a3b565b610c3f828285610b7f565b5f60209050601f831160018114610c70575f8415610c5e578287015190505b610c688582610bed565b865550610ccf565b601f198416610c7e86610a6b565b5f5b82811015610ca557848901518255600182019150602085019450602081019050610c80565b86831015610cc25784890151610cbe601f891682610bd1565b8355505b6001600288020188555050505b505050505050565b610ce0816107eb565b82525050565b60038110610cf757610cf66109d7565b5b50565b5f819050610d0782610ce6565b919050565b5f610d1682610cfa565b9050919050565b610d2681610d0c565b82525050565b5f82825260208201905092915050565b5f5b83811015610d59578082015181840152602081019050610d3e565b5f8484015250505050565b5f610d6e82610a04565b610d788185610d2c565b9350610d88818560208601610d3c565b610d91816105b8565b840191505092915050565b610da5816107b8565b82525050565b5f60a083015f830151610dc05f860182610cd7565b506020830151610dd36020860182610d1d565b5060408301518482036040860152610deb8282610d64565b9150506060830151610e006060860182610cd7565b506080830151610e136080860182610d9c565b508091505092915050565b5f6040820190508181035f830152610e368185610dab565b9050610e4560208301846107f4565b9392505050565b7f536166654d6174683a206164646974696f6e206f766572666c6f7700000000005f82015250565b5f610e80601b83610871565b9150610e8b82610e4c565b602082019050919050565b5f6020820190508181035f830152610ead81610e74565b905091905056fea2646970667358221220259b671883cf49d7191d6d251d680e617e1b68895df2f56a270e819bd9c7c2c764736f6c63430008160033",
			"opcodes": "PUSH1 0x80 PUSH1 0x40 MSTORE CALLVALUE DUP1 ISZERO PUSH2 0xF JUMPI PUSH0 DUP1 REVERT JUMPDEST POP CALLER PUSH0 DUP1 PUSH2 0x100 EXP DUP2 SLOAD DUP2 PUSH20 0xFFFFFFFFFFFFFFFFFFFFFFFFFFFFFFFFFFFFFFFF MUL NOT AND SWAP1 DUP4 PUSH20 0xFFFFFFFFFFFFFFFFFFFFFFFFFFFFFFFFFFFFFFFF AND MUL OR SWAP1 SSTORE POP PUSH0 PUSH1 0x1 DUP2 SWAP1 SSTORE POP PUSH2 0xEEA DUP1 PUSH2 0x63 PUSH0 CODECOPY PUSH0 RETURN INVALID PUSH1 0x80 PUSH1 0x40 MSTORE PUSH1 0x4 CALLDATASIZE LT PUSH2 0x49 JUMPI PUSH0 CALLDATALOAD PUSH1 0xE0 SHR DUP1 PUSH4 0x4FAFC6C EQ PUSH2 0x4D JUMPI DUP1 PUSH4 0x67238562 EQ PUSH2 0x57 JUMPI DUP1 PUSH4 0x9BDDB69A EQ PUSH2 0x7F JUMPI DUP1 PUSH4 0x9F899273 EQ PUSH2 0xBB JUMPI DUP1 PUSH4 0xE1E29558 EQ PUSH2 0xE5 JUMPI JUMPDEST PUSH0 DUP1 REVERT JUMPDEST PUSH2 0x55 PUSH2 0x10D JUMP JUMPDEST STOP JUMPDEST CALLVALUE DUP1 ISZERO PUSH2 0x62 JUMPI PUSH0 DUP1 REVERT JUMPDEST POP PUSH2 0x7D PUSH1 0x4 DUP1 CALLDATASIZE SUB DUP2 ADD SWAP1 PUSH2 0x78 SWAP2 SWAP1 PUSH2 0x6EC JUMP JUMPDEST PUSH2 0x1A8 JUMP JUMPDEST STOP JUMPDEST CALLVALUE DUP1 ISZERO PUSH2 0x8A JUMPI PUSH0 DUP1 REVERT JUMPDEST POP PUSH2 0xA5 PUSH1 0x4 DUP1 CALLDATASIZE SUB DUP2 ADD SWAP1 PUSH2 0xA0 SWAP2 SWAP1 PUSH2 0x78D JUMP JUMPDEST PUSH2 0x366 JUMP JUMPDEST PUSH1 0x40 MLOAD PUSH2 0xB2 SWAP2 SWAP1 PUSH2 0x7D2 JUMP JUMPDEST PUSH1 0x40 MLOAD DUP1 SWAP2 SUB SWAP1 RETURN JUMPDEST CALLVALUE DUP1 ISZERO PUSH2 0xC6 JUMPI PUSH0 DUP1 REVERT JUMPDEST POP PUSH2 0xCF PUSH2 0x383 JUMP JUMPDEST PUSH1 0x40 MLOAD PUSH2 0xDC SWAP2 SWAP1 PUSH2 0x803 JUMP JUMPDEST PUSH1 0x40 MLOAD DUP1 SWAP2 SUB SWAP1 RETURN JUMPDEST CALLVALUE DUP1 ISZERO PUSH2 0xF0 JUMPI PUSH0 DUP1 REVERT JUMPDEST POP PUSH2 0x10B PUSH1 0x4 DUP1 CALLDATASIZE SUB DUP2 ADD SWAP1 PUSH2 0x106 SWAP2 SWAP1 PUSH2 0x846 JUMP JUMPDEST PUSH2 0x38C JUMP JUMPDEST STOP JUMPDEST PUSH1 0x5 CALLVALUE LT ISZERO PUSH2 0x151 JUMPI PUSH1 0x40 MLOAD PUSH32 0x8C379A000000000000000000000000000000000000000000000000000000000 DUP2 MSTORE PUSH1 0x4 ADD PUSH2 0x148 SWAP1 PUSH2 0x8CB JUMP JUMPDEST PUSH1 0x40 MLOAD DUP1 SWAP2 SUB SWAP1 REVERT JUMPDEST PUSH1 0x1 PUSH1 0x3 PUSH0 CALLER PUSH20 0xFFFFFFFFFFFFFFFFFFFFFFFFFFFFFFFFFFFFFFFF AND PUSH20 0xFFFFFFFFFFFFFFFFFFFFFFFFFFFFFFFFFFFFFFFF AND DUP2 MSTORE PUSH1 0x20 ADD SWAP1 DUP2 MSTORE PUSH1 0x20 ADD PUSH0 KECCAK256 PUSH0 PUSH2 0x100 EXP DUP2 SLOAD DUP2 PUSH1 0xFF MUL NOT AND SWAP1 DUP4 ISZERO ISZERO MUL OR SWAP1 SSTORE POP JUMP JUMPDEST PUSH1 0xB PUSH1 0x1 DUP1 SLOAD PUSH2 0x1B8 SWAP2 SWAP1 PUSH2 0x916 JUMP JUMPDEST LT DUP1 PUSH2 0x20A JUMPI POP PUSH1 0x3 PUSH0 CALLER PUSH20 0xFFFFFFFFFFFFFFFFFFFFFFFFFFFFFFFFFFFFFFFF AND PUSH20 0xFFFFFFFFFFFFFFFFFFFFFFFFFFFFFFFFFFFFFFFF AND DUP2 MSTORE PUSH1 0x20 ADD SWAP1 DUP2 MSTORE PUSH1 0x20 ADD PUSH0 KECCAK256 PUSH0 SWAP1 SLOAD SWAP1 PUSH2 0x100 EXP SWAP1 DIV PUSH1 0xFF AND JUMPDEST PUSH2 0x249 JUMPI PUSH1 0x40 MLOAD PUSH32 0x8C379A000000000000000000000000000000000000000000000000000000000 DUP2 MSTORE PUSH1 0x4 ADD PUSH2 0x240 SWAP1 PUSH2 0x9B9 JUMP JUMPDEST PUSH1 0x40 MLOAD DUP1 SWAP2 SUB SWAP1 REVERT JUMPDEST PUSH0 PUSH1 0x40 MLOAD DUP1 PUSH1 0xA0 ADD PUSH1 0x40 MSTORE DUP1 PUSH1 0x1 SLOAD DUP2 MSTORE PUSH1 0x20 ADD PUSH0 PUSH1 0x2 DUP2 GT ISZERO PUSH2 0x270 JUMPI PUSH2 0x26F PUSH2 0x9D7 JUMP JUMPDEST JUMPDEST DUP2 MSTORE PUSH1 0x20 ADD DUP4 DUP2 MSTORE PUSH1 0x20 ADD TIMESTAMP DUP2 MSTORE PUSH1 0x20 ADD PUSH0 ISZERO ISZERO DUP2 MSTORE POP SWAP1 POP DUP1 PUSH1 0x2 PUSH0 PUSH1 0x1 SLOAD DUP2 MSTORE PUSH1 0x20 ADD SWAP1 DUP2 MSTORE PUSH1 0x20 ADD PUSH0 KECCAK256 PUSH0 DUP3 ADD MLOAD DUP2 PUSH0 ADD SSTORE PUSH1 0x20 DUP3 ADD MLOAD DUP2 PUSH1 0x1 ADD PUSH0 PUSH2 0x100 EXP DUP2 SLOAD DUP2 PUSH1 0xFF MUL NOT AND SWAP1 DUP4 PUSH1 0x2 DUP2 GT ISZERO PUSH2 0x2CF JUMPI PUSH2 0x2CE PUSH2 0x9D7 JUMP JUMPDEST JUMPDEST MUL OR SWAP1 SSTORE POP PUSH1 0x40 DUP3 ADD MLOAD DUP2 PUSH1 0x2 ADD SWAP1 DUP2 PUSH2 0x2E9 SWAP2 SWAP1 PUSH2 0xC08 JUMP JUMPDEST POP PUSH1 0x60 DUP3 ADD MLOAD DUP2 PUSH1 0x3 ADD SSTORE PUSH1 0x80 DUP3 ADD MLOAD DUP2 PUSH1 0x4 ADD PUSH0 PUSH2 0x100 EXP DUP2 SLOAD DUP2 PUSH1 0xFF MUL NOT AND SWAP1 DUP4 ISZERO ISZERO MUL OR SWAP1 SSTORE POP SWAP1 POP POP PUSH2 0x323 PUSH1 0x1 SLOAD PUSH1 0x1 PUSH2 0x542 JUMP JUMPDEST PUSH1 0x1 DUP2 SWAP1 SSTORE POP PUSH32 0x615EB1193AB28532B0958952317B9EEFB36E49E4A65BC640CF28F2EC9A931771 DUP2 TIMESTAMP PUSH1 0x40 MLOAD PUSH2 0x35A SWAP3 SWAP2 SWAP1 PUSH2 0xE1E JUMP JUMPDEST PUSH1 0x40 MLOAD DUP1 SWAP2 SUB SWAP1 LOG1 POP POP JUMP JUMPDEST PUSH1 0x3 PUSH1 0x20 MSTORE DUP1 PUSH0 MSTORE PUSH1 0x40 PUSH0 KECCAK256 PUSH0 SWAP2 POP SLOAD SWAP1 PUSH2 0x100 EXP SWAP1 DIV PUSH1 0xFF AND DUP2 JUMP JUMPDEST PUSH0 PUSH1 0x1 SLOAD SWAP1 POP SWAP1 JUMP JUMPDEST PUSH0 PUSH1 0x2 PUSH0 DUP4 DUP2 MSTORE PUSH1 0x20 ADD SWAP1 DUP2 MSTORE PUSH1 0x20 ADD PUSH0 KECCAK256 PUSH1 0x40 MLOAD DUP1 PUSH1 0xA0 ADD PUSH1 0x40 MSTORE SWAP1 DUP2 PUSH0 DUP3 ADD SLOAD DUP2 MSTORE PUSH1 0x20 ADD PUSH1 0x1 DUP3 ADD PUSH0 SWAP1 SLOAD SWAP1 PUSH2 0x100 EXP SWAP1 DIV PUSH1 0xFF AND PUSH1 0x2 DUP2 GT ISZERO PUSH2 0x3D6 JUMPI PUSH2 0x3D5 PUSH2 0x9D7 JUMP JUMPDEST JUMPDEST PUSH1 0x2 DUP2 GT ISZERO PUSH2 0x3E8 JUMPI PUSH2 0x3E7 PUSH2 0x9D7 JUMP JUMPDEST JUMPDEST DUP2 MSTORE PUSH1 0x20 ADD PUSH1 0x2 DUP3 ADD DUP1 SLOAD PUSH2 0x3FC SWAP1 PUSH2 0xA3B JUMP JUMPDEST DUP1 PUSH1 0x1F ADD PUSH1 0x20 DUP1 SWAP2 DIV MUL PUSH1 0x20 ADD PUSH1 0x40 MLOAD SWAP1 DUP2 ADD PUSH1 0x40 MSTORE DUP1 SWAP3 SWAP2 SWAP1 DUP2 DUP2 MSTORE PUSH1 0x20 ADD DUP3 DUP1 SLOAD PUSH2 0x428 SWAP1 PUSH2 0xA3B JUMP JUMPDEST DUP1 ISZERO PUSH2 0x473 JUMPI DUP1 PUSH1 0x1F LT PUSH2 0x44A JUMPI PUSH2 0x100 DUP1 DUP4 SLOAD DIV MUL DUP4 MSTORE SWAP2 PUSH1 0x20 ADD SWAP2 PUSH2 0x473 JUMP JUMPDEST DUP3 ADD SWAP2 SWAP1 PUSH0 MSTORE PUSH1 0x20 PUSH0 KECCAK256 SWAP1 JUMPDEST DUP2 SLOAD DUP2 MSTORE SWAP1 PUSH1 0x1 ADD SWAP1 PUSH1 0x20 ADD DUP1 DUP4 GT PUSH2 0x456 JUMPI DUP3 SWAP1 SUB PUSH1 0x1F AND DUP3 ADD SWAP2 JUMPDEST POP POP POP POP POP DUP2 MSTORE PUSH1 0x20 ADD PUSH1 0x3 DUP3 ADD SLOAD DUP2 MSTORE PUSH1 0x20 ADD PUSH1 0x4 DUP3 ADD PUSH0 SWAP1 SLOAD SWAP1 PUSH2 0x100 EXP SWAP1 DIV PUSH1 0xFF AND ISZERO ISZERO ISZERO ISZERO DUP2 MSTORE POP POP SWAP1 POP PUSH1 0x1 DUP2 PUSH1 0x80 ADD SWAP1 ISZERO ISZERO SWAP1 DUP2 ISZERO ISZERO DUP2 MSTORE POP POP DUP1 PUSH1 0x2 PUSH0 DUP5 DUP2 MSTORE PUSH1 0x20 ADD SWAP1 DUP2 MSTORE PUSH1 0x20 ADD PUSH0 KECCAK256 PUSH0 DUP3 ADD MLOAD DUP2 PUSH0 ADD SSTORE PUSH1 0x20 DUP3 ADD MLOAD DUP2 PUSH1 0x1 ADD PUSH0 PUSH2 0x100 EXP DUP2 SLOAD DUP2 PUSH1 0xFF MUL NOT AND SWAP1 DUP4 PUSH1 0x2 DUP2 GT ISZERO PUSH2 0x4F7 JUMPI PUSH2 0x4F6 PUSH2 0x9D7 JUMP JUMPDEST JUMPDEST MUL OR SWAP1 SSTORE POP PUSH1 0x40 DUP3 ADD MLOAD DUP2 PUSH1 0x2 ADD SWAP1 DUP2 PUSH2 0x511 SWAP2 SWAP1 PUSH2 0xC08 JUMP JUMPDEST POP PUSH1 0x60 DUP3 ADD MLOAD DUP2 PUSH1 0x3 ADD SSTORE PUSH1 0x80 DUP3 ADD MLOAD DUP2 PUSH1 0x4 ADD PUSH0 PUSH2 0x100 EXP DUP2 SLOAD DUP2 PUSH1 0xFF MUL NOT AND SWAP1 DUP4 ISZERO ISZERO MUL OR SWAP1 SSTORE POP SWAP1 POP POP POP POP JUMP JUMPDEST PUSH0 DUP1 DUP3 DUP5 PUSH2 0x550 SWAP2 SWAP1 PUSH2 0x916 JUMP JUMPDEST SWAP1 POP DUP4 DUP2 LT ISZERO PUSH2 0x595 JUMPI PUSH1 0x40 MLOAD PUSH32 0x8C379A000000000000000000000000000000000000000000000000000000000 DUP2 MSTORE PUSH1 0x4 ADD PUSH2 0x58C SWAP1 PUSH2 0xE96 JUMP JUMPDEST PUSH1 0x40 MLOAD DUP1 SWAP2 SUB SWAP1 REVERT JUMPDEST DUP1 SWAP2 POP POP SWAP3 SWAP2 POP POP JUMP JUMPDEST PUSH0 PUSH1 0x40 MLOAD SWAP1 POP SWAP1 JUMP JUMPDEST PUSH0 DUP1 REVERT JUMPDEST PUSH0 DUP1 REVERT JUMPDEST PUSH0 DUP1 REVERT JUMPDEST PUSH0 DUP1 REVERT JUMPDEST PUSH0 PUSH1 0x1F NOT PUSH1 0x1F DUP4 ADD AND SWAP1 POP SWAP2 SWAP1 POP JUMP JUMPDEST PUSH32 0x4E487B7100000000000000000000000000000000000000000000000000000000 PUSH0 MSTORE PUSH1 0x41 PUSH1 0x4 MSTORE PUSH1 0x24 PUSH0 REVERT JUMPDEST PUSH2 0x5FE DUP3 PUSH2 0x5B8 JUMP JUMPDEST DUP2 ADD DUP2 DUP2 LT PUSH8 0xFFFFFFFFFFFFFFFF DUP3 GT OR ISZERO PUSH2 0x61D JUMPI PUSH2 0x61C PUSH2 0x5C8 JUMP JUMPDEST JUMPDEST DUP1 PUSH1 0x40 MSTORE POP POP POP JUMP JUMPDEST PUSH0 PUSH2 0x62F PUSH2 0x59F JUMP JUMPDEST SWAP1 POP PUSH2 0x63B DUP3 DUP3 PUSH2 0x5F5 JUMP JUMPDEST SWAP2 SWAP1 POP JUMP JUMPDEST PUSH0 PUSH8 0xFFFFFFFFFFFFFFFF DUP3 GT ISZERO PUSH2 0x65A JUMPI PUSH2 0x659 PUSH2 0x5C8 JUMP JUMPDEST JUMPDEST PUSH2 0x663 DUP3 PUSH2 0x5B8 JUMP JUMPDEST SWAP1 POP PUSH1 0x20 DUP2 ADD SWAP1 POP SWAP2 SWAP1 POP JUMP JUMPDEST DUP3 DUP2 DUP4 CALLDATACOPY PUSH0 DUP4 DUP4 ADD MSTORE POP POP POP JUMP JUMPDEST PUSH0 PUSH2 0x690 PUSH2 0x68B DUP5 PUSH2 0x640 JUMP JUMPDEST PUSH2 0x626 JUMP JUMPDEST SWAP1 POP DUP3 DUP2 MSTORE PUSH1 0x20 DUP2 ADD DUP5 DUP5 DUP5 ADD GT ISZERO PUSH2 0x6AC JUMPI PUSH2 0x6AB PUSH2 0x5B4 JUMP JUMPDEST JUMPDEST PUSH2 0x6B7 DUP5 DUP3 DUP6 PUSH2 0x670 JUMP JUMPDEST POP SWAP4 SWAP3 POP POP POP JUMP JUMPDEST PUSH0 DUP3 PUSH1 0x1F DUP4 ADD SLT PUSH2 0x6D3 JUMPI PUSH2 0x6D2 PUSH2 0x5B0 JUMP JUMPDEST JUMPDEST DUP2 CALLDATALOAD PUSH2 0x6E3 DUP5 DUP3 PUSH1 0x20 DUP7 ADD PUSH2 0x67E JUMP JUMPDEST SWAP2 POP POP SWAP3 SWAP2 POP POP JUMP JUMPDEST PUSH0 PUSH1 0x20 DUP3 DUP5 SUB SLT ISZERO PUSH2 0x701 JUMPI PUSH2 0x700 PUSH2 0x5A8 JUMP JUMPDEST JUMPDEST PUSH0 DUP3 ADD CALLDATALOAD PUSH8 0xFFFFFFFFFFFFFFFF DUP2 GT ISZERO PUSH2 0x71E JUMPI PUSH2 0x71D PUSH2 0x5AC JUMP JUMPDEST JUMPDEST PUSH2 0x72A DUP5 DUP3 DUP6 ADD PUSH2 0x6BF JUMP JUMPDEST SWAP2 POP POP SWAP3 SWAP2 POP POP JUMP JUMPDEST PUSH0 PUSH20 0xFFFFFFFFFFFFFFFFFFFFFFFFFFFFFFFFFFFFFFFF DUP3 AND SWAP1 POP SWAP2 SWAP1 POP JUMP JUMPDEST PUSH0 PUSH2 0x75C DUP3 PUSH2 0x733 JUMP JUMPDEST SWAP1 POP SWAP2 SWAP1 POP JUMP JUMPDEST PUSH2 0x76C DUP2 PUSH2 0x752 JUMP JUMPDEST DUP2 EQ PUSH2 0x776 JUMPI PUSH0 DUP1 REVERT JUMPDEST POP JUMP JUMPDEST PUSH0 DUP2 CALLDATALOAD SWAP1 POP PUSH2 0x787 DUP2 PUSH2 0x763 JUMP JUMPDEST SWAP3 SWAP2 POP POP JUMP JUMPDEST PUSH0 PUSH1 0x20 DUP3 DUP5 SUB SLT ISZERO PUSH2 0x7A2 JUMPI PUSH2 0x7A1 PUSH2 0x5A8 JUMP JUMPDEST JUMPDEST PUSH0 PUSH2 0x7AF DUP5 DUP3 DUP6 ADD PUSH2 0x779 JUMP JUMPDEST SWAP2 POP POP SWAP3 SWAP2 POP POP JUMP JUMPDEST PUSH0 DUP2 ISZERO ISZERO SWAP1 POP SWAP2 SWAP1 POP JUMP JUMPDEST PUSH2 0x7CC DUP2 PUSH2 0x7B8 JUMP JUMPDEST DUP3 MSTORE POP POP JUMP JUMPDEST PUSH0 PUSH1 0x20 DUP3 ADD SWAP1 POP PUSH2 0x7E5 PUSH0 DUP4 ADD DUP5 PUSH2 0x7C3 JUMP JUMPDEST SWAP3 SWAP2 POP POP JUMP JUMPDEST PUSH0 DUP2 SWAP1 POP SWAP2 SWAP1 POP JUMP JUMPDEST PUSH2 0x7FD DUP2 PUSH2 0x7EB JUMP JUMPDEST DUP3 MSTORE POP POP JUMP JUMPDEST PUSH0 PUSH1 0x20 DUP3 ADD SWAP1 POP PUSH2 0x816 PUSH0 DUP4 ADD DUP5 PUSH2 0x7F4 JUMP JUMPDEST SWAP3 SWAP2 POP POP JUMP JUMPDEST PUSH2 0x825 DUP2 PUSH2 0x7EB JUMP JUMPDEST DUP2 EQ PUSH2 0x82F JUMPI PUSH0 DUP1 REVERT JUMPDEST POP JUMP JUMPDEST PUSH0 DUP2 CALLDATALOAD SWAP1 POP PUSH2 0x840 DUP2 PUSH2 0x81C JUMP JUMPDEST SWAP3 SWAP2 POP POP JUMP JUMPDEST PUSH0 PUSH1 0x20 DUP3 DUP5 SUB SLT ISZERO PUSH2 0x85B JUMPI PUSH2 0x85A PUSH2 0x5A8 JUMP JUMPDEST JUMPDEST PUSH0 PUSH2 0x868 DUP5 DUP3 DUP6 ADD PUSH2 0x832 JUMP JUMPDEST SWAP2 POP POP SWAP3 SWAP2 POP POP JUMP JUMPDEST PUSH0 DUP3 DUP3 MSTORE PUSH1 0x20 DUP3 ADD SWAP1 POP SWAP3 SWAP2 POP POP JUMP JUMPDEST PUSH32 0x6E6F2073756666696369656E742066756E640000000000000000000000000000 PUSH0 DUP3 ADD MSTORE POP JUMP JUMPDEST PUSH0 PUSH2 0x8B5 PUSH1 0x12 DUP4 PUSH2 0x871 JUMP JUMPDEST SWAP2 POP PUSH2 0x8C0 DUP3 PUSH2 0x881 JUMP JUMPDEST PUSH1 0x20 DUP3 ADD SWAP1 POP SWAP2 SWAP1 POP JUMP JUMPDEST PUSH0 PUSH1 0x20 DUP3 ADD SWAP1 POP DUP2 DUP2 SUB PUSH0 DUP4 ADD MSTORE PUSH2 0x8E2 DUP2 PUSH2 0x8A9 JUMP JUMPDEST SWAP1 POP SWAP2 SWAP1 POP JUMP JUMPDEST PUSH32 0x4E487B7100000000000000000000000000000000000000000000000000000000 PUSH0 MSTORE PUSH1 0x11 PUSH1 0x4 MSTORE PUSH1 0x24 PUSH0 REVERT JUMPDEST PUSH0 PUSH2 0x920 DUP3 PUSH2 0x7EB JUMP JUMPDEST SWAP2 POP PUSH2 0x92B DUP4 PUSH2 0x7EB JUMP JUMPDEST SWAP3 POP DUP3 DUP3 ADD SWAP1 POP DUP1 DUP3 GT ISZERO PUSH2 0x943 JUMPI PUSH2 0x942 PUSH2 0x8E9 JUMP JUMPDEST JUMPDEST SWAP3 SWAP2 POP POP JUMP JUMPDEST PUSH32 0x706C65617365207570677261646520746F20616464206D6F7265207468616E20 PUSH0 DUP3 ADD MSTORE PUSH32 0x3130000000000000000000000000000000000000000000000000000000000000 PUSH1 0x20 DUP3 ADD MSTORE POP JUMP JUMPDEST PUSH0 PUSH2 0x9A3 PUSH1 0x22 DUP4 PUSH2 0x871 JUMP JUMPDEST SWAP2 POP PUSH2 0x9AE DUP3 PUSH2 0x949 JUMP JUMPDEST PUSH1 0x40 DUP3 ADD SWAP1 POP SWAP2 SWAP1 POP JUMP JUMPDEST PUSH0 PUSH1 0x20 DUP3 ADD SWAP1 POP DUP2 DUP2 SUB PUSH0 DUP4 ADD MSTORE PUSH2 0x9D0 DUP2 PUSH2 0x997 JUMP JUMPDEST SWAP1 POP SWAP2 SWAP1 POP JUMP JUMPDEST PUSH32 0x4E487B7100000000000000000000000000000000000000000000000000000000 PUSH0 MSTORE PUSH1 0x21 PUSH1 0x4 MSTORE PUSH1 0x24 PUSH0 REVERT JUMPDEST PUSH0 DUP2 MLOAD SWAP1 POP SWAP2 SWAP1 POP JUMP JUMPDEST PUSH32 0x4E487B7100000000000000000000000000000000000000000000000000000000 PUSH0 MSTORE PUSH1 0x22 PUSH1 0x4 MSTORE PUSH1 0x24 PUSH0 REVERT JUMPDEST PUSH0 PUSH1 0x2 DUP3 DIV SWAP1 POP PUSH1 0x1 DUP3 AND DUP1 PUSH2 0xA52 JUMPI PUSH1 0x7F DUP3 AND SWAP2 POP JUMPDEST PUSH1 0x20 DUP3 LT DUP2 SUB PUSH2 0xA65 JUMPI PUSH2 0xA64 PUSH2 0xA0E JUMP JUMPDEST JUMPDEST POP SWAP2 SWAP1 POP JUMP JUMPDEST PUSH0 DUP2 SWAP1 POP DUP2 PUSH0 MSTORE PUSH1 0x20 PUSH0 KECCAK256 SWAP1 POP SWAP2 SWAP1 POP JUMP JUMPDEST PUSH0 PUSH1 0x20 PUSH1 0x1F DUP4 ADD DIV SWAP1 POP SWAP2 SWAP1 POP JUMP JUMPDEST PUSH0 DUP3 DUP3 SHL SWAP1 POP SWAP3 SWAP2 POP POP JUMP JUMPDEST PUSH0 PUSH1 0x8 DUP4 MUL PUSH2 0xAC7 PUSH32 0xFFFFFFFFFFFFFFFFFFFFFFFFFFFFFFFFFFFFFFFFFFFFFFFFFFFFFFFFFFFFFFFF DUP3 PUSH2 0xA8C JUMP JUMPDEST PUSH2 0xAD1 DUP7 DUP4 PUSH2 0xA8C JUMP JUMPDEST SWAP6 POP DUP1 NOT DUP5 AND SWAP4 POP DUP1 DUP7 AND DUP5 OR SWAP3 POP POP POP SWAP4 SWAP3 POP POP POP JUMP JUMPDEST PUSH0 DUP2 SWAP1 POP SWAP2 SWAP1 POP JUMP JUMPDEST PUSH0 PUSH2 0xB0C PUSH2 0xB07 PUSH2 0xB02 DUP5 PUSH2 0x7EB JUMP JUMPDEST PUSH2 0xAE9 JUMP JUMPDEST PUSH2 0x7EB JUMP JUMPDEST SWAP1 POP SWAP2 SWAP1 POP JUMP JUMPDEST PUSH0 DUP2 SWAP1 POP SWAP2 SWAP1 POP JUMP JUMPDEST PUSH2 0xB25 DUP4 PUSH2 0xAF2 JUMP JUMPDEST PUSH2 0xB39 PUSH2 0xB31 DUP3 PUSH2 0xB13 JUMP JUMPDEST DUP5 DUP5 SLOAD PUSH2 0xA98 JUMP JUMPDEST DUP3 SSTORE POP POP POP POP JUMP JUMPDEST PUSH0 SWAP1 JUMP JUMPDEST PUSH2 0xB4D PUSH2 0xB41 JUMP JUMPDEST PUSH2 0xB58 DUP2 DUP5 DUP5 PUSH2 0xB1C JUMP JUMPDEST POP POP POP JUMP JUMPDEST JUMPDEST DUP2 DUP2 LT ISZERO PUSH2 0xB7B JUMPI PUSH2 0xB70 PUSH0 DUP3 PUSH2 0xB45 JUMP JUMPDEST PUSH1 0x1 DUP2 ADD SWAP1 POP PUSH2 0xB5E JUMP JUMPDEST POP POP JUMP JUMPDEST PUSH1 0x1F DUP3 GT ISZERO PUSH2 0xBC0 JUMPI PUSH2 0xB91 DUP2 PUSH2 0xA6B JUMP JUMPDEST PUSH2 0xB9A DUP5 PUSH2 0xA7D JUMP JUMPDEST DUP2 ADD PUSH1 0x20 DUP6 LT ISZERO PUSH2 0xBA9 JUMPI DUP2 SWAP1 POP JUMPDEST PUSH2 0xBBD PUSH2 0xBB5 DUP6 PUSH2 0xA7D JUMP JUMPDEST DUP4 ADD DUP3 PUSH2 0xB5D JUMP JUMPDEST POP POP JUMPDEST POP POP POP JUMP JUMPDEST PUSH0 DUP3 DUP3 SHR SWAP1 POP SWAP3 SWAP2 POP POP JUMP JUMPDEST PUSH0 PUSH2 0xBE0 PUSH0 NOT DUP5 PUSH1 0x8 MUL PUSH2 0xBC5 JUMP JUMPDEST NOT DUP1 DUP4 AND SWAP2 POP POP SWAP3 SWAP2 POP POP JUMP JUMPDEST PUSH0 PUSH2 0xBF8 DUP4 DUP4 PUSH2 0xBD1 JUMP JUMPDEST SWAP2 POP DUP3 PUSH1 0x2 MUL DUP3 OR SWAP1 POP SWAP3 SWAP2 POP POP JUMP JUMPDEST PUSH2 0xC11 DUP3 PUSH2 0xA04 JUMP JUMPDEST PUSH8 0xFFFFFFFFFFFFFFFF DUP2 GT ISZERO PUSH2 0xC2A JUMPI PUSH2 0xC29 PUSH2 0x5C8 JUMP JUMPDEST JUMPDEST PUSH2 0xC34 DUP3 SLOAD PUSH2 0xA3B JUMP JUMPDEST PUSH2 0xC3F DUP3 DUP3 DUP6 PUSH2 0xB7F JUMP JUMPDEST PUSH0 PUSH1 0x20 SWAP1 POP PUSH1 0x1F DUP4 GT PUSH1 0x1 DUP2 EQ PUSH2 0xC70 JUMPI PUSH0 DUP5 ISZERO PUSH2 0xC5E JUMPI DUP3 DUP8 ADD MLOAD SWAP1 POP JUMPDEST PUSH2 0xC68 DUP6 DUP3 PUSH2 0xBED JUMP JUMPDEST DUP7 SSTORE POP PUSH2 0xCCF JUMP JUMPDEST PUSH1 0x1F NOT DUP5 AND PUSH2 0xC7E DUP7 PUSH2 0xA6B JUMP JUMPDEST PUSH0 JUMPDEST DUP3 DUP2 LT ISZERO PUSH2 0xCA5 JUMPI DUP5 DUP10 ADD MLOAD DUP3 SSTORE PUSH1 0x1 DUP3 ADD SWAP2 POP PUSH1 0x20 DUP6 ADD SWAP5 POP PUSH1 0x20 DUP2 ADD SWAP1 POP PUSH2 0xC80 JUMP JUMPDEST DUP7 DUP4 LT ISZERO PUSH2 0xCC2 JUMPI DUP5 DUP10 ADD MLOAD PUSH2 0xCBE PUSH1 0x1F DUP10 AND DUP3 PUSH2 0xBD1 JUMP JUMPDEST DUP4 SSTORE POP JUMPDEST PUSH1 0x1 PUSH1 0x2 DUP9 MUL ADD DUP9 SSTORE POP POP POP JUMPDEST POP POP POP POP POP POP JUMP JUMPDEST PUSH2 0xCE0 DUP2 PUSH2 0x7EB JUMP JUMPDEST DUP3 MSTORE POP POP JUMP JUMPDEST PUSH1 0x3 DUP2 LT PUSH2 0xCF7 JUMPI PUSH2 0xCF6 PUSH2 0x9D7 JUMP JUMPDEST JUMPDEST POP JUMP JUMPDEST PUSH0 DUP2 SWAP1 POP PUSH2 0xD07 DUP3 PUSH2 0xCE6 JUMP JUMPDEST SWAP2 SWAP1 POP JUMP JUMPDEST PUSH0 PUSH2 0xD16 DUP3 PUSH2 0xCFA JUMP JUMPDEST SWAP1 POP SWAP2 SWAP1 POP JUMP JUMPDEST PUSH2 0xD26 DUP2 PUSH2 0xD0C JUMP JUMPDEST DUP3 MSTORE POP POP JUMP JUMPDEST PUSH0 DUP3 DUP3 MSTORE PUSH1 0x20 DUP3 ADD SWAP1 POP SWAP3 SWAP2 POP POP JUMP JUMPDEST PUSH0 JUMPDEST DUP4 DUP2 LT ISZERO PUSH2 0xD59 JUMPI DUP1 DUP3 ADD MLOAD DUP2 DUP5 ADD MSTORE PUSH1 0x20 DUP2 ADD SWAP1 POP PUSH2 0xD3E JUMP JUMPDEST PUSH0 DUP5 DUP5 ADD MSTORE POP POP POP POP JUMP JUMPDEST PUSH0 PUSH2 0xD6E DUP3 PUSH2 0xA04 JUMP JUMPDEST PUSH2 0xD78 DUP2 DUP6 PUSH2 0xD2C JUMP JUMPDEST SWAP4 POP PUSH2 0xD88 DUP2 DUP6 PUSH1 0x20 DUP7 ADD PUSH2 0xD3C JUMP JUMPDEST PUSH2 0xD91 DUP2 PUSH2 0x5B8 JUMP JUMPDEST DUP5 ADD SWAP2 POP POP SWAP3 SWAP2 POP POP JUMP JUMPDEST PUSH2 0xDA5 DUP2 PUSH2 0x7B8 JUMP JUMPDEST DUP3 MSTORE POP POP JUMP JUMPDEST PUSH0 PUSH1 0xA0 DUP4 ADD PUSH0 DUP4 ADD MLOAD PUSH2 0xDC0 PUSH0 DUP7 ADD DUP3 PUSH2 0xCD7 JUMP JUMPDEST POP PUSH1 0x20 DUP4 ADD MLOAD PUSH2 0xDD3 PUSH1 0x20 DUP7 ADD DUP3 PUSH2 0xD1D JUMP JUMPDEST POP PUSH1 0x40 DUP4 ADD MLOAD DUP5 DUP3 SUB PUSH1 0x40 DUP7 ADD MSTORE PUSH2 0xDEB DUP3 DUP3 PUSH2 0xD64 JUMP JUMPDEST SWAP2 POP POP PUSH1 0x60 DUP4 ADD MLOAD PUSH2 0xE00 PUSH1 0x60 DUP7 ADD DUP3 PUSH2 0xCD7 JUMP JUMPDEST POP PUSH1 0x80 DUP4 ADD MLOAD PUSH2 0xE13 PUSH1 0x80 DUP7 ADD DUP3 PUSH2 0xD9C JUMP JUMPDEST POP DUP1 SWAP2 POP POP SWAP3 SWAP2 POP POP JUMP JUMPDEST PUSH0 PUSH1 0x40 DUP3 ADD SWAP1 POP DUP2 DUP2 SUB PUSH0 DUP4 ADD MSTORE PUSH2 0xE36 DUP2 DUP6 PUSH2 0xDAB JUMP JUMPDEST SWAP1 POP PUSH2 0xE45 PUSH1 0x20 DUP4 ADD DUP5 PUSH2 0x7F4 JUMP JUMPDEST SWAP4 SWAP3 POP POP POP JUMP JUMPDEST PUSH32 0x536166654D6174683A206164646974696F6E206F766572666C6F770000000000 PUSH0 DUP3 ADD MSTORE POP JUMP JUMPDEST PUSH0 PUSH2 0xE80 PUSH1 0x1B DUP4 PUSH2 0x871 JUMP JUMPDEST SWAP2 POP PUSH2 0xE8B DUP3 PUSH2 0xE4C JUMP JUMPDEST PUSH1 0x20 DUP3 ADD SWAP1 POP SWAP2 SWAP1 POP JUMP JUMPDEST PUSH0 PUSH1 0x20 DUP3 ADD SWAP1 POP DUP2 DUP2 SUB PUSH0 DUP4 ADD MSTORE PUSH2 0xEAD DUP2 PUSH2 0xE74 JUMP JUMPDEST SWAP1 POP SWAP2 SWAP1 POP JUMP INVALID LOG2 PUSH5 0x6970667358 0x22 SLT KECCAK256 0x25 SWAP12 PUSH8 0x1883CF49D7191D6D 0x25 SAR PUSH9 0xE617E1B68895DF2F5 PUSH11 0x270E819BD9C7C2C764736F PUSH13 0x63430008160033000000000000 "
		},
		"gasEstimates": {
			"creation": {
				"codeDepositCost": "763600",
				"executionCost": "30075",
				"totalCost": "793675"
			},
			"external": {
				"addTask(string)": "infinite",
				"completeTask(uint256)": "infinite",
				"getTasksCount()": "2476",
				"premiums(address)": "2855",
				"upgradePlan()": "24475"
			}
		},
		"methodIdentifiers": {
			"addTask(string)": "67238562",
			"completeTask(uint256)": "e1e29558",
			"getTasksCount()": "9f899273",
			"premiums(address)": "9bddb69a",
			"upgradePlan()": "04fafc6c"
		}
	},
	"abi": [
		{
			"inputs": [],
			"stateMutability": "nonpayable",
			"type": "constructor"
		},
		{
			"anonymous": false,
			"inputs": [
				{
					"components": [
						{
							"internalType": "uint256",
							"name": "id",
							"type": "uint256"
						},
						{
							"internalType": "enum TaskManager.Priority",
							"name": "priority",
							"type": "uint8"
						},
						{
							"internalType": "string",
							"name": "content",
							"type": "string"
						},
						{
							"internalType": "uint256",
							"name": "timestamp",
							"type": "uint256"
						},
						{
							"internalType": "bool",
							"name": "completed",
							"type": "bool"
						}
					],
					"indexed": false,
					"internalType": "struct TaskManager.Task",
					"name": "task",
					"type": "tuple"
				},
				{
					"indexed": false,
					"internalType": "uint256",
					"name": "time",
					"type": "uint256"
				}
			],
			"name": "NewTask",
			"type": "event"
		},
		{
			"inputs": [
				{
					"internalType": "string",
					"name": "content",
					"type": "string"
				}
			],
			"name": "addTask",
			"outputs": [],
			"stateMutability": "nonpayable",
			"type": "function"
		},
		{
			"inputs": [
				{
					"internalType": "uint256",
					"name": "_count",
					"type": "uint256"
				}
			],
			"name": "completeTask",
			"outputs": [],
			"stateMutability": "nonpayable",
			"type": "function"
		},
		{
			"inputs": [],
			"name": "getTasksCount",
			"outputs": [
				{
					"internalType": "uint256",
					"name": "",
					"type": "uint256"
				}
			],
			"stateMutability": "view",
			"type": "function"
		},
		{
			"inputs": [
				{
					"internalType": "address",
					"name": "",
					"type": "address"
				}
			],
			"name": "premiums",
			"outputs": [
				{
					"internalType": "bool",
					"name": "",
					"type": "bool"
				}
			],
			"stateMutability": "view",
			"type": "function"
		},
		{
			"inputs": [],
			"name": "upgradePlan",
			"outputs": [],
			"stateMutability": "payable",
			"type": "function"
		}
	]
}