{
	"data": {
		"bytecode": {
			"linkReferences": {},
			"object": "608060405234801561000f575f80fd5b50335f806101000a81548173ffffffffffffffffffffffffffffffffffffffff021916908373ffffffffffffffffffffffffffffffffffffffff1602179055505f600181905550610a72806100635f395ff3fe608060405234801561000f575f80fd5b5060043610610034575f3560e01c80636723856214610038578063e1e2955814610054575b5f80fd5b610052600480360381019061004d9190610494565b610070565b005b61006e6004803603810190610069919061050e565b610191565b005b5f6040518060a0016040528060015481526020015f600281111561009757610096610539565b5b81526020018381526020014281526020015f151581525090508060025f60015481526020019081526020015f205f820151815f01556020820151816001015f6101000a81548160ff021916908360028111156100f6576100f5610539565b5b02179055506040820151816002019081610110919061076a565b50606082015181600301556080820151816004015f6101000a81548160ff02191690831515021790555090505060015f81548092919061014f90610866565b91905055507f615eb1193ab28532b0958952317b9eefb36e49e4a65bc640cf28f2ec9a9317718142604051610185929190610a0e565b60405180910390a15050565b5f60025f8381526020019081526020015f206040518060a00160405290815f8201548152602001600182015f9054906101000a900460ff1660028111156101db576101da610539565b5b60028111156101ed576101ec610539565b5b81526020016002820180546102019061059d565b80601f016020809104026020016040519081016040528092919081815260200182805461022d9061059d565b80156102785780601f1061024f57610100808354040283529160200191610278565b820191905f5260205f20905b81548152906001019060200180831161025b57829003601f168201915b5050505050815260200160038201548152602001600482015f9054906101000a900460ff161515151581525050905060018160800190151590811515815250508060025f8481526020019081526020015f205f820151815f01556020820151816001015f6101000a81548160ff021916908360028111156102fc576102fb610539565b5b02179055506040820151816002019081610316919061076a565b50606082015181600301556080820151816004015f6101000a81548160ff0219169083151502179055509050505050565b5f604051905090565b5f80fd5b5f80fd5b5f80fd5b5f80fd5b5f601f19601f8301169050919050565b7f4e487b71000000000000000000000000000000000000000000000000000000005f52604160045260245ffd5b6103a682610360565b810181811067ffffffffffffffff821117156103c5576103c4610370565b5b80604052505050565b5f6103d7610347565b90506103e3828261039d565b919050565b5f67ffffffffffffffff82111561040257610401610370565b5b61040b82610360565b9050602081019050919050565b828183375f83830152505050565b5f610438610433846103e8565b6103ce565b9050828152602081018484840111156104545761045361035c565b5b61045f848285610418565b509392505050565b5f82601f83011261047b5761047a610358565b5b813561048b848260208601610426565b91505092915050565b5f602082840312156104a9576104a8610350565b5b5f82013567ffffffffffffffff8111156104c6576104c5610354565b5b6104d284828501610467565b91505092915050565b5f819050919050565b6104ed816104db565b81146104f7575f80fd5b50565b5f81359050610508816104e4565b92915050565b5f6020828403121561052357610522610350565b5b5f610530848285016104fa565b91505092915050565b7f4e487b71000000000000000000000000000000000000000000000000000000005f52602160045260245ffd5b5f81519050919050565b7f4e487b71000000000000000000000000000000000000000000000000000000005f52602260045260245ffd5b5f60028204905060018216806105b457607f821691505b6020821081036105c7576105c6610570565b5b50919050565b5f819050815f5260205f209050919050565b5f6020601f8301049050919050565b5f82821b905092915050565b5f600883026106297fffffffffffffffffffffffffffffffffffffffffffffffffffffffffffffffff826105ee565b61063386836105ee565b95508019841693508086168417925050509392505050565b5f819050919050565b5f61066e610669610664846104db565b61064b565b6104db565b9050919050565b5f819050919050565b61068783610654565b61069b61069382610675565b8484546105fa565b825550505050565b5f90565b6106af6106a3565b6106ba81848461067e565b505050565b5b818110156106dd576106d25f826106a7565b6001810190506106c0565b5050565b601f821115610722576106f3816105cd565b6106fc846105df565b8101602085101561070b578190505b61071f610717856105df565b8301826106bf565b50505b505050565b5f82821c905092915050565b5f6107425f1984600802610727565b1980831691505092915050565b5f61075a8383610733565b9150826002028217905092915050565b61077382610566565b67ffffffffffffffff81111561078c5761078b610370565b5b610796825461059d565b6107a18282856106e1565b5f60209050601f8311600181146107d2575f84156107c0578287015190505b6107ca858261074f565b865550610831565b601f1984166107e0866105cd565b5f5b82811015610807578489015182556001820191506020850194506020810190506107e2565b868310156108245784890151610820601f891682610733565b8355505b6001600288020188555050505b505050505050565b7f4e487b71000000000000000000000000000000000000000000000000000000005f52601160045260245ffd5b5f610870826104db565b91507fffffffffffffffffffffffffffffffffffffffffffffffffffffffffffffffff82036108a2576108a1610839565b5b600182019050919050565b6108b6816104db565b82525050565b600381106108cd576108cc610539565b5b50565b5f8190506108dd826108bc565b919050565b5f6108ec826108d0565b9050919050565b6108fc816108e2565b82525050565b5f82825260208201905092915050565b5f5b8381101561092f578082015181840152602081019050610914565b5f8484015250505050565b5f61094482610566565b61094e8185610902565b935061095e818560208601610912565b61096781610360565b840191505092915050565b5f8115159050919050565b61098681610972565b82525050565b5f60a083015f8301516109a15f8601826108ad565b5060208301516109b460208601826108f3565b50604083015184820360408601526109cc828261093a565b91505060608301516109e160608601826108ad565b5060808301516109f4608086018261097d565b508091505092915050565b610a08816104db565b82525050565b5f6040820190508181035f830152610a26818561098c565b9050610a3560208301846109ff565b939250505056fea2646970667358221220c3ca532340876700a34974ca94a4ae148dd3d8b2c8a5eff423a6809bd2b76f2164736f6c63430008160033",
			"opcodes": "PUSH1 0x80 PUSH1 0x40 MSTORE CALLVALUE DUP1 ISZERO PUSH2 0xF JUMPI PUSH0 DUP1 REVERT JUMPDEST POP CALLER PUSH0 DUP1 PUSH2 0x100 EXP DUP2 SLOAD DUP2 PUSH20 0xFFFFFFFFFFFFFFFFFFFFFFFFFFFFFFFFFFFFFFFF MUL NOT AND SWAP1 DUP4 PUSH20 0xFFFFFFFFFFFFFFFFFFFFFFFFFFFFFFFFFFFFFFFF AND MUL OR SWAP1 SSTORE POP PUSH0 PUSH1 0x1 DUP2 SWAP1 SSTORE POP PUSH2 0xA72 DUP1 PUSH2 0x63 PUSH0 CODECOPY PUSH0 RETURN INVALID PUSH1 0x80 PUSH1 0x40 MSTORE CALLVALUE DUP1 ISZERO PUSH2 0xF JUMPI PUSH0 DUP1 REVERT JUMPDEST POP PUSH1 0x4 CALLDATASIZE LT PUSH2 0x34 JUMPI PUSH0 CALLDATALOAD PUSH1 0xE0 SHR DUP1 PUSH4 0x67238562 EQ PUSH2 0x38 JUMPI DUP1 PUSH4 0xE1E29558 EQ PUSH2 0x54 JUMPI JUMPDEST PUSH0 DUP1 REVERT JUMPDEST PUSH2 0x52 PUSH1 0x4 DUP1 CALLDATASIZE SUB DUP2 ADD SWAP1 PUSH2 0x4D SWAP2 SWAP1 PUSH2 0x494 JUMP JUMPDEST PUSH2 0x70 JUMP JUMPDEST STOP JUMPDEST PUSH2 0x6E PUSH1 0x4 DUP1 CALLDATASIZE SUB DUP2 ADD SWAP1 PUSH2 0x69 SWAP2 SWAP1 PUSH2 0x50E JUMP JUMPDEST PUSH2 0x191 JUMP JUMPDEST STOP JUMPDEST PUSH0 PUSH1 0x40 MLOAD DUP1 PUSH1 0xA0 ADD PUSH1 0x40 MSTORE DUP1 PUSH1 0x1 SLOAD DUP2 MSTORE PUSH1 0x20 ADD PUSH0 PUSH1 0x2 DUP2 GT ISZERO PUSH2 0x97 JUMPI PUSH2 0x96 PUSH2 0x539 JUMP JUMPDEST JUMPDEST DUP2 MSTORE PUSH1 0x20 ADD DUP4 DUP2 MSTORE PUSH1 0x20 ADD TIMESTAMP DUP2 MSTORE PUSH1 0x20 ADD PUSH0 ISZERO ISZERO DUP2 MSTORE POP SWAP1 POP DUP1 PUSH1 0x2 PUSH0 PUSH1 0x1 SLOAD DUP2 MSTORE PUSH1 0x20 ADD SWAP1 DUP2 MSTORE PUSH1 0x20 ADD PUSH0 KECCAK256 PUSH0 DUP3 ADD MLOAD DUP2 PUSH0 ADD SSTORE PUSH1 0x20 DUP3 ADD MLOAD DUP2 PUSH1 0x1 ADD PUSH0 PUSH2 0x100 EXP DUP2 SLOAD DUP2 PUSH1 0xFF MUL NOT AND SWAP1 DUP4 PUSH1 0x2 DUP2 GT ISZERO PUSH2 0xF6 JUMPI PUSH2 0xF5 PUSH2 0x539 JUMP JUMPDEST JUMPDEST MUL OR SWAP1 SSTORE POP PUSH1 0x40 DUP3 ADD MLOAD DUP2 PUSH1 0x2 ADD SWAP1 DUP2 PUSH2 0x110 SWAP2 SWAP1 PUSH2 0x76A JUMP JUMPDEST POP PUSH1 0x60 DUP3 ADD MLOAD DUP2 PUSH1 0x3 ADD SSTORE PUSH1 0x80 DUP3 ADD MLOAD DUP2 PUSH1 0x4 ADD PUSH0 PUSH2 0x100 EXP DUP2 SLOAD DUP2 PUSH1 0xFF MUL NOT AND SWAP1 DUP4 ISZERO ISZERO MUL OR SWAP1 SSTORE POP SWAP1 POP POP PUSH1 0x1 PUSH0 DUP2 SLOAD DUP1 SWAP3 SWAP2 SWAP1 PUSH2 0x14F SWAP1 PUSH2 0x866 JUMP JUMPDEST SWAP2 SWAP1 POP SSTORE POP PUSH32 0x615EB1193AB28532B0958952317B9EEFB36E49E4A65BC640CF28F2EC9A931771 DUP2 TIMESTAMP PUSH1 0x40 MLOAD PUSH2 0x185 SWAP3 SWAP2 SWAP1 PUSH2 0xA0E JUMP JUMPDEST PUSH1 0x40 MLOAD DUP1 SWAP2 SUB SWAP1 LOG1 POP POP JUMP JUMPDEST PUSH0 PUSH1 0x2 PUSH0 DUP4 DUP2 MSTORE PUSH1 0x20 ADD SWAP1 DUP2 MSTORE PUSH1 0x20 ADD PUSH0 KECCAK256 PUSH1 0x40 MLOAD DUP1 PUSH1 0xA0 ADD PUSH1 0x40 MSTORE SWAP1 DUP2 PUSH0 DUP3 ADD SLOAD DUP2 MSTORE PUSH1 0x20 ADD PUSH1 0x1 DUP3 ADD PUSH0 SWAP1 SLOAD SWAP1 PUSH2 0x100 EXP SWAP1 DIV PUSH1 0xFF AND PUSH1 0x2 DUP2 GT ISZERO PUSH2 0x1DB JUMPI PUSH2 0x1DA PUSH2 0x539 JUMP JUMPDEST JUMPDEST PUSH1 0x2 DUP2 GT ISZERO PUSH2 0x1ED JUMPI PUSH2 0x1EC PUSH2 0x539 JUMP JUMPDEST JUMPDEST DUP2 MSTORE PUSH1 0x20 ADD PUSH1 0x2 DUP3 ADD DUP1 SLOAD PUSH2 0x201 SWAP1 PUSH2 0x59D JUMP JUMPDEST DUP1 PUSH1 0x1F ADD PUSH1 0x20 DUP1 SWAP2 DIV MUL PUSH1 0x20 ADD PUSH1 0x40 MLOAD SWAP1 DUP2 ADD PUSH1 0x40 MSTORE DUP1 SWAP3 SWAP2 SWAP1 DUP2 DUP2 MSTORE PUSH1 0x20 ADD DUP3 DUP1 SLOAD PUSH2 0x22D SWAP1 PUSH2 0x59D JUMP JUMPDEST DUP1 ISZERO PUSH2 0x278 JUMPI DUP1 PUSH1 0x1F LT PUSH2 0x24F JUMPI PUSH2 0x100 DUP1 DUP4 SLOAD DIV MUL DUP4 MSTORE SWAP2 PUSH1 0x20 ADD SWAP2 PUSH2 0x278 JUMP JUMPDEST DUP3 ADD SWAP2 SWAP1 PUSH0 MSTORE PUSH1 0x20 PUSH0 KECCAK256 SWAP1 JUMPDEST DUP2 SLOAD DUP2 MSTORE SWAP1 PUSH1 0x1 ADD SWAP1 PUSH1 0x20 ADD DUP1 DUP4 GT PUSH2 0x25B JUMPI DUP3 SWAP1 SUB PUSH1 0x1F AND DUP3 ADD SWAP2 JUMPDEST POP POP POP POP POP DUP2 MSTORE PUSH1 0x20 ADD PUSH1 0x3 DUP3 ADD SLOAD DUP2 MSTORE PUSH1 0x20 ADD PUSH1 0x4 DUP3 ADD PUSH0 SWAP1 SLOAD SWAP1 PUSH2 0x100 EXP SWAP1 DIV PUSH1 0xFF AND ISZERO ISZERO ISZERO ISZERO DUP2 MSTORE POP POP SWAP1 POP PUSH1 0x1 DUP2 PUSH1 0x80 ADD SWAP1 ISZERO ISZERO SWAP1 DUP2 ISZERO ISZERO DUP2 MSTORE POP POP DUP1 PUSH1 0x2 PUSH0 DUP5 DUP2 MSTORE PUSH1 0x20 ADD SWAP1 DUP2 MSTORE PUSH1 0x20 ADD PUSH0 KECCAK256 PUSH0 DUP3 ADD MLOAD DUP2 PUSH0 ADD SSTORE PUSH1 0x20 DUP3 ADD MLOAD DUP2 PUSH1 0x1 ADD PUSH0 PUSH2 0x100 EXP DUP2 SLOAD DUP2 PUSH1 0xFF MUL NOT AND SWAP1 DUP4 PUSH1 0x2 DUP2 GT ISZERO PUSH2 0x2FC JUMPI PUSH2 0x2FB PUSH2 0x539 JUMP JUMPDEST JUMPDEST MUL OR SWAP1 SSTORE POP PUSH1 0x40 DUP3 ADD MLOAD DUP2 PUSH1 0x2 ADD SWAP1 DUP2 PUSH2 0x316 SWAP2 SWAP1 PUSH2 0x76A JUMP JUMPDEST POP PUSH1 0x60 DUP3 ADD MLOAD DUP2 PUSH1 0x3 ADD SSTORE PUSH1 0x80 DUP3 ADD MLOAD DUP2 PUSH1 0x4 ADD PUSH0 PUSH2 0x100 EXP DUP2 SLOAD DUP2 PUSH1 0xFF MUL NOT AND SWAP1 DUP4 ISZERO ISZERO MUL OR SWAP1 SSTORE POP SWAP1 POP POP POP POP JUMP JUMPDEST PUSH0 PUSH1 0x40 MLOAD SWAP1 POP SWAP1 JUMP JUMPDEST PUSH0 DUP1 REVERT JUMPDEST PUSH0 DUP1 REVERT JUMPDEST PUSH0 DUP1 REVERT JUMPDEST PUSH0 DUP1 REVERT JUMPDEST PUSH0 PUSH1 0x1F NOT PUSH1 0x1F DUP4 ADD AND SWAP1 POP SWAP2 SWAP1 POP JUMP JUMPDEST PUSH32 0x4E487B7100000000000000000000000000000000000000000000000000000000 PUSH0 MSTORE PUSH1 0x41 PUSH1 0x4 MSTORE PUSH1 0x24 PUSH0 REVERT JUMPDEST PUSH2 0x3A6 DUP3 PUSH2 0x360 JUMP JUMPDEST DUP2 ADD DUP2 DUP2 LT PUSH8 0xFFFFFFFFFFFFFFFF DUP3 GT OR ISZERO PUSH2 0x3C5 JUMPI PUSH2 0x3C4 PUSH2 0x370 JUMP JUMPDEST JUMPDEST DUP1 PUSH1 0x40 MSTORE POP POP POP JUMP JUMPDEST PUSH0 PUSH2 0x3D7 PUSH2 0x347 JUMP JUMPDEST SWAP1 POP PUSH2 0x3E3 DUP3 DUP3 PUSH2 0x39D JUMP JUMPDEST SWAP2 SWAP1 POP JUMP JUMPDEST PUSH0 PUSH8 0xFFFFFFFFFFFFFFFF DUP3 GT ISZERO PUSH2 0x402 JUMPI PUSH2 0x401 PUSH2 0x370 JUMP JUMPDEST JUMPDEST PUSH2 0x40B DUP3 PUSH2 0x360 JUMP JUMPDEST SWAP1 POP PUSH1 0x20 DUP2 ADD SWAP1 POP SWAP2 SWAP1 POP JUMP JUMPDEST DUP3 DUP2 DUP4 CALLDATACOPY PUSH0 DUP4 DUP4 ADD MSTORE POP POP POP JUMP JUMPDEST PUSH0 PUSH2 0x438 PUSH2 0x433 DUP5 PUSH2 0x3E8 JUMP JUMPDEST PUSH2 0x3CE JUMP JUMPDEST SWAP1 POP DUP3 DUP2 MSTORE PUSH1 0x20 DUP2 ADD DUP5 DUP5 DUP5 ADD GT ISZERO PUSH2 0x454 JUMPI PUSH2 0x453 PUSH2 0x35C JUMP JUMPDEST JUMPDEST PUSH2 0x45F DUP5 DUP3 DUP6 PUSH2 0x418 JUMP JUMPDEST POP SWAP4 SWAP3 POP POP POP JUMP JUMPDEST PUSH0 DUP3 PUSH1 0x1F DUP4 ADD SLT PUSH2 0x47B JUMPI PUSH2 0x47A PUSH2 0x358 JUMP JUMPDEST JUMPDEST DUP2 CALLDATALOAD PUSH2 0x48B DUP5 DUP3 PUSH1 0x20 DUP7 ADD PUSH2 0x426 JUMP JUMPDEST SWAP2 POP POP SWAP3 SWAP2 POP POP JUMP JUMPDEST PUSH0 PUSH1 0x20 DUP3 DUP5 SUB SLT ISZERO PUSH2 0x4A9 JUMPI PUSH2 0x4A8 PUSH2 0x350 JUMP JUMPDEST JUMPDEST PUSH0 DUP3 ADD CALLDATALOAD PUSH8 0xFFFFFFFFFFFFFFFF DUP2 GT ISZERO PUSH2 0x4C6 JUMPI PUSH2 0x4C5 PUSH2 0x354 JUMP JUMPDEST JUMPDEST PUSH2 0x4D2 DUP5 DUP3 DUP6 ADD PUSH2 0x467 JUMP JUMPDEST SWAP2 POP POP SWAP3 SWAP2 POP POP JUMP JUMPDEST PUSH0 DUP2 SWAP1 POP SWAP2 SWAP1 POP JUMP JUMPDEST PUSH2 0x4ED DUP2 PUSH2 0x4DB JUMP JUMPDEST DUP2 EQ PUSH2 0x4F7 JUMPI PUSH0 DUP1 REVERT JUMPDEST POP JUMP JUMPDEST PUSH0 DUP2 CALLDATALOAD SWAP1 POP PUSH2 0x508 DUP2 PUSH2 0x4E4 JUMP JUMPDEST SWAP3 SWAP2 POP POP JUMP JUMPDEST PUSH0 PUSH1 0x20 DUP3 DUP5 SUB SLT ISZERO PUSH2 0x523 JUMPI PUSH2 0x522 PUSH2 0x350 JUMP JUMPDEST JUMPDEST PUSH0 PUSH2 0x530 DUP5 DUP3 DUP6 ADD PUSH2 0x4FA JUMP JUMPDEST SWAP2 POP POP SWAP3 SWAP2 POP POP JUMP JUMPDEST PUSH32 0x4E487B7100000000000000000000000000000000000000000000000000000000 PUSH0 MSTORE PUSH1 0x21 PUSH1 0x4 MSTORE PUSH1 0x24 PUSH0 REVERT JUMPDEST PUSH0 DUP2 MLOAD SWAP1 POP SWAP2 SWAP1 POP JUMP JUMPDEST PUSH32 0x4E487B7100000000000000000000000000000000000000000000000000000000 PUSH0 MSTORE PUSH1 0x22 PUSH1 0x4 MSTORE PUSH1 0x24 PUSH0 REVERT JUMPDEST PUSH0 PUSH1 0x2 DUP3 DIV SWAP1 POP PUSH1 0x1 DUP3 AND DUP1 PUSH2 0x5B4 JUMPI PUSH1 0x7F DUP3 AND SWAP2 POP JUMPDEST PUSH1 0x20 DUP3 LT DUP2 SUB PUSH2 0x5C7 JUMPI PUSH2 0x5C6 PUSH2 0x570 JUMP JUMPDEST JUMPDEST POP SWAP2 SWAP1 POP JUMP JUMPDEST PUSH0 DUP2 SWAP1 POP DUP2 PUSH0 MSTORE PUSH1 0x20 PUSH0 KECCAK256 SWAP1 POP SWAP2 SWAP1 POP JUMP JUMPDEST PUSH0 PUSH1 0x20 PUSH1 0x1F DUP4 ADD DIV SWAP1 POP SWAP2 SWAP1 POP JUMP JUMPDEST PUSH0 DUP3 DUP3 SHL SWAP1 POP SWAP3 SWAP2 POP POP JUMP JUMPDEST PUSH0 PUSH1 0x8 DUP4 MUL PUSH2 0x629 PUSH32 0xFFFFFFFFFFFFFFFFFFFFFFFFFFFFFFFFFFFFFFFFFFFFFFFFFFFFFFFFFFFFFFFF DUP3 PUSH2 0x5EE JUMP JUMPDEST PUSH2 0x633 DUP7 DUP4 PUSH2 0x5EE JUMP JUMPDEST SWAP6 POP DUP1 NOT DUP5 AND SWAP4 POP DUP1 DUP7 AND DUP5 OR SWAP3 POP POP POP SWAP4 SWAP3 POP POP POP JUMP JUMPDEST PUSH0 DUP2 SWAP1 POP SWAP2 SWAP1 POP JUMP JUMPDEST PUSH0 PUSH2 0x66E PUSH2 0x669 PUSH2 0x664 DUP5 PUSH2 0x4DB JUMP JUMPDEST PUSH2 0x64B JUMP JUMPDEST PUSH2 0x4DB JUMP JUMPDEST SWAP1 POP SWAP2 SWAP1 POP JUMP JUMPDEST PUSH0 DUP2 SWAP1 POP SWAP2 SWAP1 POP JUMP JUMPDEST PUSH2 0x687 DUP4 PUSH2 0x654 JUMP JUMPDEST PUSH2 0x69B PUSH2 0x693 DUP3 PUSH2 0x675 JUMP JUMPDEST DUP5 DUP5 SLOAD PUSH2 0x5FA JUMP JUMPDEST DUP3 SSTORE POP POP POP POP JUMP JUMPDEST PUSH0 SWAP1 JUMP JUMPDEST PUSH2 0x6AF PUSH2 0x6A3 JUMP JUMPDEST PUSH2 0x6BA DUP2 DUP5 DUP5 PUSH2 0x67E JUMP JUMPDEST POP POP POP JUMP JUMPDEST JUMPDEST DUP2 DUP2 LT ISZERO PUSH2 0x6DD JUMPI PUSH2 0x6D2 PUSH0 DUP3 PUSH2 0x6A7 JUMP JUMPDEST PUSH1 0x1 DUP2 ADD SWAP1 POP PUSH2 0x6C0 JUMP JUMPDEST POP POP JUMP JUMPDEST PUSH1 0x1F DUP3 GT ISZERO PUSH2 0x722 JUMPI PUSH2 0x6F3 DUP2 PUSH2 0x5CD JUMP JUMPDEST PUSH2 0x6FC DUP5 PUSH2 0x5DF JUMP JUMPDEST DUP2 ADD PUSH1 0x20 DUP6 LT ISZERO PUSH2 0x70B JUMPI DUP2 SWAP1 POP JUMPDEST PUSH2 0x71F PUSH2 0x717 DUP6 PUSH2 0x5DF JUMP JUMPDEST DUP4 ADD DUP3 PUSH2 0x6BF JUMP JUMPDEST POP POP JUMPDEST POP POP POP JUMP JUMPDEST PUSH0 DUP3 DUP3 SHR SWAP1 POP SWAP3 SWAP2 POP POP JUMP JUMPDEST PUSH0 PUSH2 0x742 PUSH0 NOT DUP5 PUSH1 0x8 MUL PUSH2 0x727 JUMP JUMPDEST NOT DUP1 DUP4 AND SWAP2 POP POP SWAP3 SWAP2 POP POP JUMP JUMPDEST PUSH0 PUSH2 0x75A DUP4 DUP4 PUSH2 0x733 JUMP JUMPDEST SWAP2 POP DUP3 PUSH1 0x2 MUL DUP3 OR SWAP1 POP SWAP3 SWAP2 POP POP JUMP JUMPDEST PUSH2 0x773 DUP3 PUSH2 0x566 JUMP JUMPDEST PUSH8 0xFFFFFFFFFFFFFFFF DUP2 GT ISZERO PUSH2 0x78C JUMPI PUSH2 0x78B PUSH2 0x370 JUMP JUMPDEST JUMPDEST PUSH2 0x796 DUP3 SLOAD PUSH2 0x59D JUMP JUMPDEST PUSH2 0x7A1 DUP3 DUP3 DUP6 PUSH2 0x6E1 JUMP JUMPDEST PUSH0 PUSH1 0x20 SWAP1 POP PUSH1 0x1F DUP4 GT PUSH1 0x1 DUP2 EQ PUSH2 0x7D2 JUMPI PUSH0 DUP5 ISZERO PUSH2 0x7C0 JUMPI DUP3 DUP8 ADD MLOAD SWAP1 POP JUMPDEST PUSH2 0x7CA DUP6 DUP3 PUSH2 0x74F JUMP JUMPDEST DUP7 SSTORE POP PUSH2 0x831 JUMP JUMPDEST PUSH1 0x1F NOT DUP5 AND PUSH2 0x7E0 DUP7 PUSH2 0x5CD JUMP JUMPDEST PUSH0 JUMPDEST DUP3 DUP2 LT ISZERO PUSH2 0x807 JUMPI DUP5 DUP10 ADD MLOAD DUP3 SSTORE PUSH1 0x1 DUP3 ADD SWAP2 POP PUSH1 0x20 DUP6 ADD SWAP5 POP PUSH1 0x20 DUP2 ADD SWAP1 POP PUSH2 0x7E2 JUMP JUMPDEST DUP7 DUP4 LT ISZERO PUSH2 0x824 JUMPI DUP5 DUP10 ADD MLOAD PUSH2 0x820 PUSH1 0x1F DUP10 AND DUP3 PUSH2 0x733 JUMP JUMPDEST DUP4 SSTORE POP JUMPDEST PUSH1 0x1 PUSH1 0x2 DUP9 MUL ADD DUP9 SSTORE POP POP POP JUMPDEST POP POP POP POP POP POP JUMP JUMPDEST PUSH32 0x4E487B7100000000000000000000000000000000000000000000000000000000 PUSH0 MSTORE PUSH1 0x11 PUSH1 0x4 MSTORE PUSH1 0x24 PUSH0 REVERT JUMPDEST PUSH0 PUSH2 0x870 DUP3 PUSH2 0x4DB JUMP JUMPDEST SWAP2 POP PUSH32 0xFFFFFFFFFFFFFFFFFFFFFFFFFFFFFFFFFFFFFFFFFFFFFFFFFFFFFFFFFFFFFFFF DUP3 SUB PUSH2 0x8A2 JUMPI PUSH2 0x8A1 PUSH2 0x839 JUMP JUMPDEST JUMPDEST PUSH1 0x1 DUP3 ADD SWAP1 POP SWAP2 SWAP1 POP JUMP JUMPDEST PUSH2 0x8B6 DUP2 PUSH2 0x4DB JUMP JUMPDEST DUP3 MSTORE POP POP JUMP JUMPDEST PUSH1 0x3 DUP2 LT PUSH2 0x8CD JUMPI PUSH2 0x8CC PUSH2 0x539 JUMP JUMPDEST JUMPDEST POP JUMP JUMPDEST PUSH0 DUP2 SWAP1 POP PUSH2 0x8DD DUP3 PUSH2 0x8BC JUMP JUMPDEST SWAP2 SWAP1 POP JUMP JUMPDEST PUSH0 PUSH2 0x8EC DUP3 PUSH2 0x8D0 JUMP JUMPDEST SWAP1 POP SWAP2 SWAP1 POP JUMP JUMPDEST PUSH2 0x8FC DUP2 PUSH2 0x8E2 JUMP JUMPDEST DUP3 MSTORE POP POP JUMP JUMPDEST PUSH0 DUP3 DUP3 MSTORE PUSH1 0x20 DUP3 ADD SWAP1 POP SWAP3 SWAP2 POP POP JUMP JUMPDEST PUSH0 JUMPDEST DUP4 DUP2 LT ISZERO PUSH2 0x92F JUMPI DUP1 DUP3 ADD MLOAD DUP2 DUP5 ADD MSTORE PUSH1 0x20 DUP2 ADD SWAP1 POP PUSH2 0x914 JUMP JUMPDEST PUSH0 DUP5 DUP5 ADD MSTORE POP POP POP POP JUMP JUMPDEST PUSH0 PUSH2 0x944 DUP3 PUSH2 0x566 JUMP JUMPDEST PUSH2 0x94E DUP2 DUP6 PUSH2 0x902 JUMP JUMPDEST SWAP4 POP PUSH2 0x95E DUP2 DUP6 PUSH1 0x20 DUP7 ADD PUSH2 0x912 JUMP JUMPDEST PUSH2 0x967 DUP2 PUSH2 0x360 JUMP JUMPDEST DUP5 ADD SWAP2 POP POP SWAP3 SWAP2 POP POP JUMP JUMPDEST PUSH0 DUP2 ISZERO ISZERO SWAP1 POP SWAP2 SWAP1 POP JUMP JUMPDEST PUSH2 0x986 DUP2 PUSH2 0x972 JUMP JUMPDEST DUP3 MSTORE POP POP JUMP JUMPDEST PUSH0 PUSH1 0xA0 DUP4 ADD PUSH0 DUP4 ADD MLOAD PUSH2 0x9A1 PUSH0 DUP7 ADD DUP3 PUSH2 0x8AD JUMP JUMPDEST POP PUSH1 0x20 DUP4 ADD MLOAD PUSH2 0x9B4 PUSH1 0x20 DUP7 ADD DUP3 PUSH2 0x8F3 JUMP JUMPDEST POP PUSH1 0x40 DUP4 ADD MLOAD DUP5 DUP3 SUB PUSH1 0x40 DUP7 ADD MSTORE PUSH2 0x9CC DUP3 DUP3 PUSH2 0x93A JUMP JUMPDEST SWAP2 POP POP PUSH1 0x60 DUP4 ADD MLOAD PUSH2 0x9E1 PUSH1 0x60 DUP7 ADD DUP3 PUSH2 0x8AD JUMP JUMPDEST POP PUSH1 0x80 DUP4 ADD MLOAD PUSH2 0x9F4 PUSH1 0x80 DUP7 ADD DUP3 PUSH2 0x97D JUMP JUMPDEST POP DUP1 SWAP2 POP POP SWAP3 SWAP2 POP POP JUMP JUMPDEST PUSH2 0xA08 DUP2 PUSH2 0x4DB JUMP JUMPDEST DUP3 MSTORE POP POP JUMP JUMPDEST PUSH0 PUSH1 0x40 DUP3 ADD SWAP1 POP DUP2 DUP2 SUB PUSH0 DUP4 ADD MSTORE PUSH2 0xA26 DUP2 DUP6 PUSH2 0x98C JUMP JUMPDEST SWAP1 POP PUSH2 0xA35 PUSH1 0x20 DUP4 ADD DUP5 PUSH2 0x9FF JUMP JUMPDEST SWAP4 SWAP3 POP POP POP JUMP INVALID LOG2 PUSH5 0x6970667358 0x22 SLT KECCAK256 0xC3 0xCA MSTORE8 0x23 BLOCKHASH DUP8 PUSH8 0xA34974CA94A4AE EQ DUP14 0xD3 0xD8 0xB2 0xC8 0xA5 0xEF DELEGATECALL 0x23 0xA6 DUP1 SWAP12 0xD2 0xB7 PUSH16 0x2164736F6C6343000816003300000000 "
		},
		"gasEstimates": {
			"creation": {
				"codeDepositCost": "534800",
				"executionCost": "29844",
				"totalCost": "564644"
			},
			"external": {
				"addTask(string)": "infinite",
				"completeTask(uint256)": "infinite"
			}
		},
		"methodIdentifiers": {
			"addTask(string)": "67238562",
			"completeTask(uint256)": "e1e29558"
		}
	},
	"abi": [
		{
			"inputs": [],
			"stateMutability": "nonpayable",
			"type": "constructor"
		},
		{
			"anonymous": false,
			"inputs": [
				{
					"components": [
						{
							"internalType": "uint256",
							"name": "id",
							"type": "uint256"
						},
						{
							"internalType": "enum TaskManager.Priority",
							"name": "priority",
							"type": "uint8"
						},
						{
							"internalType": "string",
							"name": "content",
							"type": "string"
						},
						{
							"internalType": "uint256",
							"name": "timestamp",
							"type": "uint256"
						},
						{
							"internalType": "bool",
							"name": "completed",
							"type": "bool"
						}
					],
					"indexed": false,
					"internalType": "struct TaskManager.Task",
					"name": "task",
					"type": "tuple"
				},
				{
					"indexed": false,
					"internalType": "uint256",
					"name": "time",
					"type": "uint256"
				}
			],
			"name": "NewTask",
			"type": "event"
		},
		{
			"inputs": [
				{
					"internalType": "string",
					"name": "content",
					"type": "string"
				}
			],
			"name": "addTask",
			"outputs": [],
			"stateMutability": "nonpayable",
			"type": "function"
		},
		{
			"inputs": [
				{
					"internalType": "uint256",
					"name": "_count",
					"type": "uint256"
				}
			],
			"name": "completeTask",
			"outputs": [],
			"stateMutability": "nonpayable",
			"type": "function"
		}
	]
}