{
	"data": {
		"bytecode": {
			"linkReferences": {},
			"object": "60f961004d600b8282823980515f1a607314610041577f4e487b71000000000000000000000000000000000000000000000000000000005f525f60045260245ffd5b305f52607381538281f3fe7300000000000000000000000000000000000000003014608060405260043610603c575f3560e01c8063416a8b201460405780637df38c5b14605a575b5f80fd5b60466074565b6040516051919060ac565b60405180910390f35b60606087565b604051606b919060ac565b60405180910390f35b5f6b033b2e3c9fd0803ce8000000905090565b5f670de0b6b3a7640000905090565b5f819050919050565b60a6816096565b82525050565b5f60208201905060bd5f830184609f565b9291505056fea2646970667358221220ab431c0352e80273b70d8dee2155fcbba083d7d196f78a8756549d9412c9591764736f6c63430008160033",
			"opcodes": "PUSH1 0xF9 PUSH2 0x4D PUSH1 0xB DUP3 DUP3 DUP3 CODECOPY DUP1 MLOAD PUSH0 BYTE PUSH1 0x73 EQ PUSH2 0x41 JUMPI PUSH32 0x4E487B7100000000000000000000000000000000000000000000000000000000 PUSH0 MSTORE PUSH0 PUSH1 0x4 MSTORE PUSH1 0x24 PUSH0 REVERT JUMPDEST ADDRESS PUSH0 MSTORE PUSH1 0x73 DUP2 MSTORE8 DUP3 DUP2 RETURN INVALID PUSH20 0x0 ADDRESS EQ PUSH1 0x80 PUSH1 0x40 MSTORE PUSH1 0x4 CALLDATASIZE LT PUSH1 0x3C JUMPI PUSH0 CALLDATALOAD PUSH1 0xE0 SHR DUP1 PUSH4 0x416A8B20 EQ PUSH1 0x40 JUMPI DUP1 PUSH4 0x7DF38C5B EQ PUSH1 0x5A JUMPI JUMPDEST PUSH0 DUP1 REVERT JUMPDEST PUSH1 0x46 PUSH1 0x74 JUMP JUMPDEST PUSH1 0x40 MLOAD PUSH1 0x51 SWAP2 SWAP1 PUSH1 0xAC JUMP JUMPDEST PUSH1 0x40 MLOAD DUP1 SWAP2 SUB SWAP1 RETURN JUMPDEST PUSH1 0x60 PUSH1 0x87 JUMP JUMPDEST PUSH1 0x40 MLOAD PUSH1 0x6B SWAP2 SWAP1 PUSH1 0xAC JUMP JUMPDEST PUSH1 0x40 MLOAD DUP1 SWAP2 SUB SWAP1 RETURN JUMPDEST PUSH0 PUSH12 0x33B2E3C9FD0803CE8000000 SWAP1 POP SWAP1 JUMP JUMPDEST PUSH0 PUSH8 0xDE0B6B3A7640000 SWAP1 POP SWAP1 JUMP JUMPDEST PUSH0 DUP2 SWAP1 POP SWAP2 SWAP1 POP JUMP JUMPDEST PUSH1 0xA6 DUP2 PUSH1 0x96 JUMP JUMPDEST DUP3 MSTORE POP POP JUMP JUMPDEST PUSH0 PUSH1 0x20 DUP3 ADD SWAP1 POP PUSH1 0xBD PUSH0 DUP4 ADD DUP5 PUSH1 0x9F JUMP JUMPDEST SWAP3 SWAP2 POP POP JUMP INVALID LOG2 PUSH5 0x6970667358 0x22 SLT KECCAK256 0xAB NUMBER SHR SUB MSTORE 0xE8 MUL PUSH20 0xB70D8DEE2155FCBBA083D7D196F78A8756549D94 SLT 0xC9 MSIZE OR PUSH5 0x736F6C6343 STOP ADDMOD AND STOP CALLER "
		},
		"gasEstimates": {
			"creation": {
				"codeDepositCost": "49800",
				"executionCost": "125",
				"totalCost": "49925"
			},
			"external": {
				"ray()": "294",
				"wad()": "316"
			},
			"internal": {
				"add(uint256,uint256)": "infinite",
				"div(uint256,uint256)": "infinite",
				"div(uint256,uint256,string memory)": "infinite",
				"max(uint256,uint256)": "infinite",
				"min(uint256,uint256)": "infinite",
				"mod(uint256,uint256)": "infinite",
				"mod(uint256,uint256,string memory)": "infinite",
				"mul(uint256,uint256)": "infinite",
				"rdiv(uint256,uint256)": "infinite",
				"rdivRound(uint256,uint256)": "infinite",
				"rmul(uint256,uint256)": "infinite",
				"rmulRound(uint256,uint256)": "infinite",
				"rpow(uint256,uint256)": "infinite",
				"sqrt(uint256)": "infinite",
				"sub(uint256,uint256)": "infinite",
				"sub(uint256,uint256,string memory)": "infinite",
				"wdiv(uint256,uint256)": "infinite",
				"wdivRound(uint256,uint256)": "infinite",
				"wmul(uint256,uint256)": "infinite",
				"wmulRound(uint256,uint256)": "infinite",
				"wpow(uint256,uint256)": "infinite"
			}
		},
		"methodIdentifiers": {
			"ray()": "416a8b20",
			"wad()": "7df38c5b"
		}
	},
	"abi": [
		{
			"inputs": [],
			"name": "ray",
			"outputs": [
				{
					"internalType": "uint256",
					"name": "",
					"type": "uint256"
				}
			],
			"stateMutability": "pure",
			"type": "function"
		},
		{
			"inputs": [],
			"name": "wad",
			"outputs": [
				{
					"internalType": "uint256",
					"name": "",
					"type": "uint256"
				}
			],
			"stateMutability": "pure",
			"type": "function"
		}
	]
}